{
  "_format": "hh-sol-artifact-1",
  "contractName": "DiamondCutFacet",
  "sourceName": "contracts/facets/DiamondCutFacet.sol",
  "abi": [
    {
      "anonymous": false,
      "inputs": [
        {
          "components": [
            {
              "internalType": "address",
              "name": "facetAddress",
              "type": "address"
            },
            {
              "internalType": "enum IDiamondCut.FacetCutAction",
              "name": "action",
              "type": "uint8"
            },
            {
              "internalType": "bytes4[]",
              "name": "functionSelectors",
              "type": "bytes4[]"
            }
          ],
          "indexed": false,
          "internalType": "struct IDiamondCut.FacetCut[]",
          "name": "_diamondCut",
          "type": "tuple[]"
        },
        {
          "indexed": false,
          "internalType": "address",
          "name": "_init",
          "type": "address"
        },
        {
          "indexed": false,
          "internalType": "bytes",
          "name": "_calldata",
          "type": "bytes"
        }
      ],
      "name": "DiamondCut",
      "type": "event"
    },
    {
      "inputs": [
        {
          "components": [
            {
              "internalType": "address",
              "name": "facetAddress",
              "type": "address"
            },
            {
              "internalType": "enum IDiamondCut.FacetCutAction",
              "name": "action",
              "type": "uint8"
            },
            {
              "internalType": "bytes4[]",
              "name": "functionSelectors",
              "type": "bytes4[]"
            }
          ],
          "internalType": "struct IDiamondCut.FacetCut[]",
          "name": "_diamondCut",
          "type": "tuple[]"
        },
        {
          "internalType": "address",
          "name": "_init",
          "type": "address"
        },
        {
          "internalType": "bytes",
          "name": "_calldata",
          "type": "bytes"
        }
      ],
      "name": "diamondCut",
      "outputs": [],
      "stateMutability": "nonpayable",
      "type": "function"
    }
  ],
  "bytecode": "0x60808060405234601557610f86908161001b8239f35b600080fdfe6080604052600436101561001257600080fd5b60003560e01c631f931c1c1461002757600080fd5b34610a90576060366003190112610a905760043567ffffffffffffffff8111610a905736602382011215610a9057806004013567ffffffffffffffff8111610a905760248160051b830101368111610a90576024356001600160a01b038116808203610a90576044359167ffffffffffffffff8311610a905736602384011215610a905782600401359167ffffffffffffffff8311610a90573660248486010111610a90576100d586610acd565b956100e36040519788610a95565b865260208601948560009860248101915b83831061096a575050505086602061010b85610ae5565b946101196040519687610a95565b808652806024838801980188378501015260018060a01b037fc8fcad8db84d3cc18b4c41d551ea0ee66dd599cde068d998e57d5e09332c131f5416803314908115610961575b5015610902579394869396955b81518710156106b4576001600160a01b036101878884610b01565b5151169760206101978985610b01565b5101519460038610156106a05760406101b08a86610b01565b510151958061039457508915610344576001600160a01b038a169794875b87518110156102bc576001600160e01b03196101ea828a610b01565b5116808a52600080516020610ef183398151915260205260408a20549091906001600160a01b031661027757818a52600080516020610ef183398151915260209081526040808c2080546001600160a01b0319168e1790556001600160a01b038f166000908152600080516020610f31833981519152909252902060019261027191610bee565b016101ce565b60405162461bcd60e51b815260206004820152601b60248201527f4c69624469616d6f6e643a2053656c6563746f722065786973747300000000006044820152606490fd5b50949398929750945094978889600080516020610f1183398151915254905b81811061030d575b50509060019291156102fe575b505b0195909496939661016c565b61030790610c7d565b386102f0565b8361031782610c30565b905460039190911b1c6001600160a01b031614610336576001016102db565b5060019150819050386102e3565b60405162461bcd60e51b815260206004820152602260248201527f4c69624469616d6f6e643a2043616e277420616464207a65726f206164647265604482015261737360f01b6064820152608490fd5b9399979594936001810361054a575087156104f1576001600160a01b0388169593875b86518110156104d7576104646001600160e01b03196103d6838a610b01565b5116808b52600080516020610ef18339815191526020526040808c205461043a9183916001600160a01b0316908e61040f831515610b73565b838152600080516020610ef18339815191526020522080546001600160a01b0319168e179055610ced565b6001600160a01b038c166000908152600080516020610f3183398151915260205260409020610bee565b8889600080516020610f1183398151915254905b8181106104a0575b50509060019115610492575b016103b7565b61049b8b610c7d565b61048c565b8c6104aa82610c30565b905460039190911b1c6001600160a01b0316146104c957600101610478565b506001915081905038610480565b509450945094979660019196506104ec610de3565b6102f2565b60405162461bcd60e51b815260206004820152602b60248201527f4c69624469616d6f6e643a2043616e2774207265706c6163652077697468207a60448201526a65726f206164647265737360a81b6064820152608490fd5b600290889b97989992949699959395501460001461065057156105ff57885b87518110156105eb576001906105e56001600160e01b031961058b838c610b01565b5116808d52600080516020610ef18339815191526020528c6040858060a01b038183205416916105bc831515610b73565b838152600080516020610ef18339815191526020522080546001600160a01b0319169055610ced565b01610569565b5092955092956001909491946104ec610de3565b60405162461bcd60e51b8152602060048201526024808201527f4c69624469616d6f6e643a2052656d6f76652075736573207a65726f206164646044820152637265737360e01b6064820152608490fd5b60405162461bcd60e51b815260206004820152602260248201527f4c69624469616d6f6e643a20496e76616c69642046616365744375744163746960448201526137b760f11b6064820152608490fd5b634e487b7160e01b87526021600452602487fd5b90879495916040519160608301906060845251809152608083019060808160051b850101929189905b82821061085d575050505090806107237f8faa70878671ccd212d20771b795c50af8fd3ff6cf27f4bde57e5d4de0aeb67393856020840152828103604084015287610b4e565b0390a161072e578380f35b803b15610805578392839251915af43d156107fd573d9061074e82610ae5565b9161075c6040519384610a95565b82523d83602084013e5b6107ca604760405180947f4c69624469616d6f6e643a205f696e69742064656c656761746563616c6c2066602083015266030b4b632b21d160cd1b60408301526107b98151809260208686019101610b2b565b81010301601f198101845283610a95565b156107d55780808380f35b60405162461bcd60e51b8152602060048201529081906107f9906024830190610b4e565b0390fd5b606090610766565b60405162461bcd60e51b815260206004820152602a60248201527f4c69624469616d6f6e643a20496e69742061646472657373206973206e6f7420604482015269184818dbdb9d1c9858dd60b21b6064820152608490fd5b90919293607f198682030182528451606082019060018060a01b038151168352602081015160038110156108ee57604060209260809284870152015193606060408201528451809452019201908c905b8082106108cb575050506020806001929601920192019092916106dd565b82516001600160e01b0319168452602093840193909201916001909101906108ad565b634e487b7160e01b8e52602160045260248efd5b60405162461bcd60e51b815260206004820152603160248201527f4c69624469616d6f6e643a204d75737420626520636f6e7472616374206f776e604482015270195c881bdc881a5b9a5d1a585b0818dd5d607a1b6064820152608490fd5b9050153861015f565b823567ffffffffffffffff8111610a8c57820160606023198236030112610a8c57604051906060820182811067ffffffffffffffff821117610a785760405260248101356001600160a01b0381168103610a7457825260448101356003811015610a74576020830152606481013567ffffffffffffffff8111610a7457602491010136601f82011215610a70578035610a0281610acd565b91610a106040519384610a95565b81835260208084019260051b82010190368211610a6c57602001915b818310610a495750505060408201528152602092830192016100f4565b82356001600160e01b031981168103610a6a57815260209283019201610a2c565b505b8f80fd5b8c80fd5b8d80fd5b634e487b7160e01b8e52604160045260248efd5b8b80fd5b600080fd5b90601f8019910116810190811067ffffffffffffffff821117610ab757604052565b634e487b7160e01b600052604160045260246000fd5b67ffffffffffffffff8111610ab75760051b60200190565b67ffffffffffffffff8111610ab757601f01601f191660200190565b8051821015610b155760209160051b010190565b634e487b7160e01b600052603260045260246000fd5b60005b838110610b3e5750506000910152565b8181015183820152602001610b2e565b90602091610b6781518092818552858086019101610b2b565b601f01601f1916010190565b15610b7a57565b60405162461bcd60e51b815260206004820152602360248201527f4c69624469616d6f6e643a2053656c6563746f7220646f6573206e6f742065786044820152621a5cdd60ea1b6064820152608490fd5b9190918054831015610b1557600052601c60206000208360031c019260021b1690565b90815491600160401b831015610ab75782610c11916001610c2e95018155610bcb565b90919063ffffffff83549160031b9260e01c831b921b1916179055565b565b600080516020610f1183398151915254811015610b1557600080516020610f1183398151915260005260206000200190600090565b8054821015610b155760005260206000200190600090565b600080516020610f118339815191525490600160401b821015610ab757610cc9826001610c2e9401600080516020610f1183398151915255600080516020610f11833981519152610c65565b81546001600160a01b0393841660039290921b91821b9390911b1916919091179055565b6001600160a01b03166000908152600080516020610f3183398151915260205260408120805490915b818110610d24575b50505050565b610d2e8184610bcb565b90546001600160e01b031960039290921b1c60e01b811690851614610d5557600101610d16565b919250600019810191908211610dcd57610c11610d75610d869385610bcb565b90549060031b1c60e01b9184610bcb565b80548015610db7576000190190610d9d8282610bcb565b63ffffffff82549160031b1b191690555538808080610d1e565b634e487b7160e01b600052603160045260246000fd5b634e487b7160e01b600052601160045260246000fd5b600090815b600080516020610f1183398151915254811015610e8757610e1781600080516020610f11833981519152610c65565b905460039190911b1c6001600160a01b03166000818152600080516020610f318339815191526020526040902054610e53575b50600101610de8565b610e7290610cc985600080516020610f11833981519152969496610c65565b6000198114610dcd5760018091019290610e4a565b505b600080516020610f118339815191525482811115610eeb578015610db75760001901610ec381600080516020610f11833981519152610c65565b81549060018060a01b039060031b1b19169055600080516020610f1183398151915255610e89565b50905056fec8fcad8db84d3cc18b4c41d551ea0ee66dd599cde068d998e57d5e09332c131cc8fcad8db84d3cc18b4c41d551ea0ee66dd599cde068d998e57d5e09332c131ec8fcad8db84d3cc18b4c41d551ea0ee66dd599cde068d998e57d5e09332c131da26469706673582212204f25492b252c091edb3c5939f2b54a59a2cda4439f2dc2248ceae52414abc2ae64736f6c634300081c0033",
  "linkReferences": {},
  "deployedLinkReferences": {}
}