{
  "_format": "hh-sol-artifact-1",
  "contractName": "QuizGameModeFacet",
  "sourceName": "contracts/facets/QuizGameModeFacet.sol",
  "abi": [
    {
      "anonymous": false,
      "inputs": [
        {
          "indexed": true,
          "internalType": "uint256",
          "name": "questionId",
          "type": "uint256"
        },
        {
          "indexed": true,
          "internalType": "address",
          "name": "submitter",
          "type": "address"
        },
        {
          "indexed": false,
          "internalType": "bytes32",
          "name": "submittedHash",
          "type": "bytes32"
        }
      ],
      "name": "AnswerSubmitted",
      "type": "event"
    },
    {
      "anonymous": false,
      "inputs": [
        {
          "indexed": true,
          "internalType": "uint256",
          "name": "questionId",
          "type": "uint256"
        },
        {
          "indexed": true,
          "internalType": "address",
          "name": "buyer",
          "type": "address"
        },
        {
          "indexed": false,
          "internalType": "uint256",
          "name": "cost",
          "type": "uint256"
        }
      ],
      "name": "HintPurchased",
      "type": "event"
    },
    {
      "anonymous": false,
      "inputs": [
        {
          "indexed": true,
          "internalType": "address",
          "name": "oldAddress",
          "type": "address"
        },
        {
          "indexed": true,
          "internalType": "address",
          "name": "newAddress",
          "type": "address"
        }
      ],
      "name": "PoolManagerAddressUpdated",
      "type": "event"
    },
    {
      "anonymous": false,
      "inputs": [
        {
          "indexed": true,
          "internalType": "uint256",
          "name": "questionId",
          "type": "uint256"
        },
        {
          "indexed": true,
          "internalType": "address",
          "name": "activator",
          "type": "address"
        }
      ],
      "name": "QuestionActivatedFromBank",
      "type": "event"
    },
    {
      "anonymous": false,
      "inputs": [
        {
          "indexed": true,
          "internalType": "uint256",
          "name": "questionId",
          "type": "uint256"
        }
      ],
      "name": "QuestionClosed",
      "type": "event"
    },
    {
      "anonymous": false,
      "inputs": [
        {
          "indexed": true,
          "internalType": "uint256",
          "name": "questionId",
          "type": "uint256"
        },
        {
          "indexed": true,
          "internalType": "address",
          "name": "creator",
          "type": "address"
        },
        {
          "indexed": false,
          "internalType": "uint256",
          "name": "difficulty",
          "type": "uint256"
        },
        {
          "indexed": false,
          "internalType": "uint256",
          "name": "baseReward",
          "type": "uint256"
        }
      ],
      "name": "QuestionCreated",
      "type": "event"
    },
    {
      "anonymous": false,
      "inputs": [
        {
          "indexed": true,
          "internalType": "uint256",
          "name": "questionId",
          "type": "uint256"
        },
        {
          "indexed": false,
          "internalType": "uint256",
          "name": "windowStartTime",
          "type": "uint256"
        }
      ],
      "name": "QuestionRewardWindowStarted",
      "type": "event"
    },
    {
      "anonymous": false,
      "inputs": [
        {
          "indexed": true,
          "internalType": "address",
          "name": "oldAddress",
          "type": "address"
        },
        {
          "indexed": true,
          "internalType": "address",
          "name": "newAddress",
          "type": "address"
        }
      ],
      "name": "QuizCoinAddressUpdated",
      "type": "event"
    },
    {
      "anonymous": false,
      "inputs": [
        {
          "indexed": true,
          "internalType": "uint256",
          "name": "questionId",
          "type": "uint256"
        },
        {
          "indexed": true,
          "internalType": "address",
          "name": "recipient",
          "type": "address"
        },
        {
          "indexed": false,
          "internalType": "uint256",
          "name": "amount",
          "type": "uint256"
        }
      ],
      "name": "RewardDistributed",
      "type": "event"
    },
    {
      "inputs": [
        {
          "internalType": "uint256",
          "name": "_questionId",
          "type": "uint256"
        }
      ],
      "name": "activateQuestionFromBank",
      "outputs": [],
      "stateMutability": "nonpayable",
      "type": "function"
    },
    {
      "inputs": [
        {
          "internalType": "uint256",
          "name": "_questionId",
          "type": "uint256"
        }
      ],
      "name": "buyHint",
      "outputs": [],
      "stateMutability": "nonpayable",
      "type": "function"
    },
    {
      "inputs": [
        {
          "internalType": "bytes32",
          "name": "_correctAnswerHash",
          "type": "bytes32"
        },
        {
          "internalType": "bytes32",
          "name": "_hintHash",
          "type": "bytes32"
        },
        {
          "internalType": "uint256",
          "name": "_difficultyLevel",
          "type": "uint256"
        },
        {
          "internalType": "enum LibAppStorage.QuestionMode",
          "name": "_mode",
          "type": "uint8"
        },
        {
          "internalType": "enum LibAppStorage.QuestionCategory",
          "name": "_category",
          "type": "uint8"
        }
      ],
      "name": "createQuestion",
      "outputs": [],
      "stateMutability": "nonpayable",
      "type": "function"
    },
    {
      "inputs": [
        {
          "internalType": "uint256",
          "name": "_questionId",
          "type": "uint256"
        },
        {
          "internalType": "bytes32",
          "name": "_submittedAnswerHash",
          "type": "bytes32"
        }
      ],
      "name": "submitAnswer",
      "outputs": [],
      "stateMutability": "nonpayable",
      "type": "function"
    }
  ],
  "bytecode": "0x608080604052346015576114b8908161001b8239f35b600080fdfe6080604052600436101561001257600080fd5b6000803560e01c806342dd072414610f0c57806344dd70d214610ae7578063686caeaf146107e657637935ec681461004957600080fd5b346107e35760403660031901126107e35760043560243581835260008051602061146383398151915260205260408320805490610087821515611155565b6005810192835461009b60ff8216156111a1565b60038301936064855414610759575b8203610714573360009081527f4f2f104a7ea12e35172792673c68fe1423b90b4f6b86a6c5f5a9a85bd565202f60205260409020546201518042049190821461065757503360009081527f4f2f104a7ea12e35172792673c68fe1423b90b4f6b86a6c5f5a9a85bd565202f6020526040902081905584543360009081527f4f2f104a7ea12e35172792673c68fe1423b90b4f6b86a6c5f5a9a85bd56520306020526040902060089190911c60ff16600281101561064357815460ff19161790555b338752600a83016020819052604088205482146105d85760018060a01b03331688526020526040872055604051908152847f86dbf9f04f41328058531173730bd59bb2d7c18902309fdeb56b01cf64c6b4bc60203393a360ff835460081c1660028110156105c457806103f2575060080180549092906001600160a01b03166103ad5782546001600160a01b0319163317909255815460ff191660011790915554610215906112bd565b8261024f6127106102477f4f2f104a7ea12e35172792673c68fe1423b90b4f6b86a6c5f5a9a85bd565202b548561126f565b0480936112b0565b7f4f2f104a7ea12e35172792673c68fe1423b90b4f6b86a6c5f5a9a85bd5652031549092906001600160a01b0316803b1561037b5760248392604051948593849263fad7f38760e01b845260048401525af180156103a25761038e575b507f4f2f104a7ea12e35172792673c68fe1423b90b4f6b86a6c5f5a9a85bd56520315483906001600160a01b0316803b1561038a57818091604460405180948193639120020960e01b83523360048401528860248401525af1801561037f57610366575b5050604051908152817fab7542bafced3da2d8c881cb2dd1de859fac7c20d3650d2902ad389a64e0888360203393a37f3c8f450bdfccd4e29a4d8e9602688d5e009772a7de7c40c7f27b8f8c129f01fa8280a280f35b816103709161121a565b61037b578238610310565b8280fd5b6040513d84823e3d90fd5b5080fd5b8361039b9194929461121a565b91386102ac565b6040513d86823e3d90fd5b60405162461bcd60e51b815260206004820152601f60248201527f5175697a3a20536f6c6f206d6f646520616c726561647920736f6c7665642e006044820152606490fd5b6001919492935014610405575b50505080f35b6064610449926007850192835415610591575b505403610569577f4f2f104a7ea12e35172792673c68fe1423b90b4f6b86a6c5f5a9a85bd565203354905b546111f7565b42116104f45760090180549082805b8381106104c0575b501561046d575b806103ff565b600160401b8210156104ac579061048991600182018155611282565b81546001600160a01b0360039290921b91821b19163390911b1790553880610467565b634e487b7160e01b83526041600452602483fd5b6104ca8184611282565b905460039190911b1c6001600160a01b031633146104ea57600101610458565b5050600138610460565b60405162461bcd60e51b815260206004820152604160248201527f5175697a3a20506f6f6c207265776172642077696e646f7720697320636c6f7360448201527f6564206f72204c6576656c20313030207175657374696f6e20657870697265646064820152601760f91b608482015260a490fd5b7f4f2f104a7ea12e35172792673c68fe1423b90b4f6b86a6c5f5a9a85bd56520265490610443565b4284557f98e392e74a792835e605c302c60c0435ac790334152fd4e6ca7ec970b332aaec6020604051428152a238610418565b634e487b7160e01b86526021600452602486fd5b60405162461bcd60e51b815260206004820152603e60248201527f5175697a3a20596f752063616e206f6e6c7920616e737765722074686973207360448201527f70656369666963207175657374696f6e206f6e636520706572206461792e00006064820152608490fd5b634e487b7160e01b89526021600452602489fd5b3360009081527f4f2f104a7ea12e35172792673c68fe1423b90b4f6b86a6c5f5a9a85bd56520306020526040902060ff90819054169160081c16906002821015610643576002811015610643571461016b5760405162461bcd60e51b815260206004820152603e60248201527f5175697a3a20596f75206861766520616c72656164792063686f73656e20612060448201527f646966666572656e742067616d65206d6f646520666f7220746f6461792e00006064820152608490fd5b60405162461bcd60e51b815260206004820152601760248201527f5175697a3a20496e636f727265637420616e737765722e0000000000000000006044820152606490fd5b61078960068501547f4f2f104a7ea12e35172792673c68fe1423b90b4f6b86a6c5f5a9a85bd565203354906111f7565b4211156100aa5760405162461bcd60e51b815260206004820152602560248201527f5175697a3a204c6576656c20313030207175657374696f6e206861732065787060448201526434b932b21760d91b6064820152608490fd5b80fd5b50346107e35760203660031901126107e3577f4f2f104a7ea12e35172792673c68fe1423b90b4f6b86a6c5f5a9a85bd565202254604051632474521560e21b8152600480820192909252336024820152903590602081604481305afa908115610abd578391610ac8575b508015610a33575b156109d1578082526000805160206114638339815191526020526040822080541561097d576005810160ff198154169055826007820155600881016001600160601b0360a01b815416905560206009604051926108b5838561121a565b85845285368137019082519267ffffffffffffffff841161096957600160401b84116109695781908354858555808610610941575b500191855280852090855b848110610926578633877f6c01933b9ad41cd54278498404c4955f24142d7570eff7bce17fc7f5ee12f8928380a380f35b83516001600160a01b031683820155928101926001016108f5565b8488528583892091820191015b81811061095b57506108ea565b88815584935060010161094e565b634e487b7160e01b86526041600452602486fd5b60405162461bcd60e51b815260206004820152602660248201527f5175697a3a205175657374696f6e20646f6573206e6f7420657869737420696e604482015265103130b7359760d11b6064820152608490fd5b60405162461bcd60e51b815260206004820152603460248201527f416363657373436f6e74726f6c3a2043616c6c6572206973206e6f742061206760448201527330b6b29030b236b4b71037b91031b932b0ba37b960611b6064820152608490fd5b507f4f2f104a7ea12e35172792673c68fe1423b90b4f6b86a6c5f5a9a85bd565202454604051632474521560e21b81526004810191909152336024820152602081604481305afa908115610abd578391610a8e575b50610858565b610ab0915060203d602011610ab6575b610aa8818361121a565b810190611252565b38610a88565b503d610a9e565b6040513d85823e3d90fd5b610ae1915060203d602011610ab657610aa8818361121a565b38610850565b50346107e35760a03660031901126107e3576044356004356064356002811015610f0857608435916004831015610f04577f4f2f104a7ea12e35172792673c68fe1423b90b4f6b86a6c5f5a9a85bd565202254604051632474521560e21b81526004810191909152336024820152602081604481305afa908115610ef9578691610eda575b5015610e83578015610e2d57600184101580610e22575b15610dc4577f4f2f104a7ea12e35172792673c68fe1423b90b4f6b86a6c5f5a9a85bd565202c54926000198414610db057600184017f4f2f104a7ea12e35172792673c68fe1423b90b4f6b86a6c5f5a9a85bd565202c5560648503610d7c577f4f2f104a7ea12e35172792673c68fe1423b90b4f6b86a6c5f5a9a85bd565202854925b8487526000805160206114638339815191526020526040872092835560243560018401556002830160018060a01b0333166001600160601b0360a01b825416179055856003840155836004840155600583019161ff0062ff000084549260101b169260081b169062ffffff191617179055426006820155846007820155600881016001600160601b0360a01b8154169055602090600960405191610caa848461121a565b878352873681370181519167ffffffffffffffff8311610d6857600160401b8311610d685783908254848455808510610d40575b5001908752828720875b838110610d2557505050506040519384528301527f5fff8b8a05084a38562ea22f588b62938f68ad92fbfc50ee5b3dc2e69dd0d81760403393a380f35b82516001600160a01b03168282015591840191600101610ce8565b838a5284838b2091820191015b818110610d5a5750610cde565b8a8155869350600101610d4d565b634e487b7160e01b88526041600452602488fd5b6063610da9867f4f2f104a7ea12e35172792673c68fe1423b90b4f6b86a6c5f5a9a85bd56520275461126f565b0492610c06565b634e487b7160e01b86526011600452602486fd5b60405162461bcd60e51b815260206004820152603060248201527f5175697a3a20446966666963756c7479206c6576656c206d757374206265206260448201526f065747765656e203120616e64203130360841b6064820152608490fd5b506064841115610b83565b60405162461bcd60e51b815260206004820152602860248201527f5175697a3a20436f727265637420616e7377657220686173682063616e6e6f74604482015267206265207a65726f60c01b6064820152608490fd5b60405162461bcd60e51b815260206004820152602960248201527f416363657373436f6e74726f6c3a2043616c6c6572206973206e6f742061206760448201526830b6b29030b236b4b760b91b6064820152608490fd5b610ef3915060203d602011610ab657610aa8818361121a565b38610b6c565b6040513d88823e3d90fd5b8480fd5b8380fd5b50346107e35760203660031901126107e35760043580825260008051602061146383398151915260205260408220610f4681541515611155565b610f5760ff600583015416156111a1565b60646003820154146110b6575b5081602060018060a01b037f4f2f104a7ea12e35172792673c68fe1423b90b4f6b86a6c5f5a9a85bd5652032541660647f4f2f104a7ea12e35172792673c68fe1423b90b4f6b86a6c5f5a9a85bd56520255460405194859384926323b872dd60e01b845233600485015230602485015260448401525af1908115610abd578391611097575b5015611041577f4f2f104a7ea12e35172792673c68fe1423b90b4f6b86a6c5f5a9a85bd565202554906040519182527ff10cfe1413da6fb4d61b5fe0472eef72ef9191ca81db52b96f4143513960d32d60203393a380f35b60405162461bcd60e51b815260206004820152602860248201527f5175697a3a205175697a436f696e207472616e73666572206661696c6564206660448201526737b9103434b73a1760c11b6064820152608490fd5b6110b0915060203d602011610ab657610aa8818361121a565b38610fe9565b600601547f4f2f104a7ea12e35172792673c68fe1423b90b4f6b86a6c5f5a9a85bd5652033546110e5916111f7565b42116110f15738610f64565b60405162461bcd60e51b815260206004820152603660248201527f5175697a3a204c6576656c20313030207175657374696f6e206861732065787060448201527534b932b2161031b0b73737ba10313abc903434b73a1760511b6064820152608490fd5b1561115c57565b60405162461bcd60e51b815260206004820152601e60248201527f5175697a3a205175657374696f6e20646f6573206e6f742065786973742e00006044820152606490fd5b156111a857565b60405162461bcd60e51b815260206004820152602160248201527f5175697a3a205175657374696f6e20697320616c726561647920636c6f7365646044820152601760f91b6064820152608490fd5b9190820180921161120457565b634e487b7160e01b600052601160045260246000fd5b90601f8019910116810190811067ffffffffffffffff82111761123c57604052565b634e487b7160e01b600052604160045260246000fd5b9081602091031261126a5751801515810361126a5790565b600080fd5b8181029291811591840414171561120457565b805482101561129a5760005260206000200190600090565b634e487b7160e01b600052603260045260246000fd5b9190820391821161120457565b6064811461143c57600181101580611431575b156113c6576113026063917f4f2f104a7ea12e35172792673c68fe1423b90b4f6b86a6c5f5a9a85bd56520275461126f565b0461132e7f4f2f104a7ea12e35172792673c68fe1423b90b4f6b86a6c5f5a9a85bd565202e54426112b0565b7f4f2f104a7ea12e35172792673c68fe1423b90b4f6b86a6c5f5a9a85bd5652029549081156113b057046000907f4f2f104a7ea12e35172792673c68fe1423b90b4f6b86a6c5f5a9a85bd565202a545b81831061138c575b50505090565b90919260011c928184106113a457600101919061137e565b50915050388080611386565b634e487b7160e01b600052601260045260246000fd5b60405162461bcd60e51b815260206004820152603d60248201527f4c696241707053746f726167653a20496e76616c6964207175657374696f6e2060448201527f6c6576656c20666f722068616c76696e672063616c63756c6174696f6e0000006064820152608490fd5b5060638111156112d0565b507f4f2f104a7ea12e35172792673c68fe1423b90b4f6b86a6c5f5a9a85bd5652028549056fe4f2f104a7ea12e35172792673c68fe1423b90b4f6b86a6c5f5a9a85bd565202da264697066735822122021f3a949b1630ebd50412fd9fd3e82bdf1340bafc8d9f9d9bb9d2e3d7bff886364736f6c634300081c0033",
  "linkReferences": {},
  "deployedLinkReferences": {}
}