{
  "_format": "hh-sol-artifact-1",
  "contractName": "QuizGameRewardFacet",
  "sourceName": "contracts/facets/QuizGameRewardFacet.sol",
  "abi": [
    {
      "anonymous": false,
      "inputs": [
        {
          "indexed": true,
          "internalType": "uint256",
          "name": "questionId",
          "type": "uint256"
        },
        {
          "indexed": true,
          "internalType": "address",
          "name": "submitter",
          "type": "address"
        },
        {
          "indexed": false,
          "internalType": "bytes32",
          "name": "submittedHash",
          "type": "bytes32"
        }
      ],
      "name": "AnswerSubmitted",
      "type": "event"
    },
    {
      "anonymous": false,
      "inputs": [
        {
          "indexed": true,
          "internalType": "uint256",
          "name": "questionId",
          "type": "uint256"
        },
        {
          "indexed": true,
          "internalType": "address",
          "name": "buyer",
          "type": "address"
        },
        {
          "indexed": false,
          "internalType": "uint256",
          "name": "cost",
          "type": "uint256"
        }
      ],
      "name": "HintPurchased",
      "type": "event"
    },
    {
      "anonymous": false,
      "inputs": [
        {
          "indexed": true,
          "internalType": "address",
          "name": "oldAddress",
          "type": "address"
        },
        {
          "indexed": true,
          "internalType": "address",
          "name": "newAddress",
          "type": "address"
        }
      ],
      "name": "PoolManagerAddressUpdated",
      "type": "event"
    },
    {
      "anonymous": false,
      "inputs": [
        {
          "indexed": true,
          "internalType": "uint256",
          "name": "questionId",
          "type": "uint256"
        },
        {
          "indexed": true,
          "internalType": "address",
          "name": "activator",
          "type": "address"
        }
      ],
      "name": "QuestionActivatedFromBank",
      "type": "event"
    },
    {
      "anonymous": false,
      "inputs": [
        {
          "indexed": true,
          "internalType": "uint256",
          "name": "questionId",
          "type": "uint256"
        }
      ],
      "name": "QuestionClosed",
      "type": "event"
    },
    {
      "anonymous": false,
      "inputs": [
        {
          "indexed": true,
          "internalType": "uint256",
          "name": "questionId",
          "type": "uint256"
        },
        {
          "indexed": true,
          "internalType": "address",
          "name": "creator",
          "type": "address"
        },
        {
          "indexed": false,
          "internalType": "uint256",
          "name": "difficulty",
          "type": "uint256"
        },
        {
          "indexed": false,
          "internalType": "uint256",
          "name": "baseReward",
          "type": "uint256"
        }
      ],
      "name": "QuestionCreated",
      "type": "event"
    },
    {
      "anonymous": false,
      "inputs": [
        {
          "indexed": true,
          "internalType": "uint256",
          "name": "questionId",
          "type": "uint256"
        },
        {
          "indexed": false,
          "internalType": "uint256",
          "name": "windowStartTime",
          "type": "uint256"
        }
      ],
      "name": "QuestionRewardWindowStarted",
      "type": "event"
    },
    {
      "anonymous": false,
      "inputs": [
        {
          "indexed": true,
          "internalType": "address",
          "name": "oldAddress",
          "type": "address"
        },
        {
          "indexed": true,
          "internalType": "address",
          "name": "newAddress",
          "type": "address"
        }
      ],
      "name": "QuizCoinAddressUpdated",
      "type": "event"
    },
    {
      "anonymous": false,
      "inputs": [
        {
          "indexed": true,
          "internalType": "uint256",
          "name": "questionId",
          "type": "uint256"
        },
        {
          "indexed": true,
          "internalType": "address",
          "name": "recipient",
          "type": "address"
        },
        {
          "indexed": false,
          "internalType": "uint256",
          "name": "amount",
          "type": "uint256"
        }
      ],
      "name": "RewardDistributed",
      "type": "event"
    },
    {
      "inputs": [
        {
          "internalType": "uint256",
          "name": "_questionId",
          "type": "uint256"
        }
      ],
      "name": "distributeRewards",
      "outputs": [],
      "stateMutability": "nonpayable",
      "type": "function"
    }
  ],
  "bytecode": "0x6080806040523460155761097c908161001b8239f35b600080fdfe608080604052600436101561001357600080fd5b6000803560e01c6359974e381461002957600080fd5b3461071857602036600319011261071857600435917f4f2f104a7ea12e35172792673c68fe1423b90b4f6b86a6c5f5a9a85bd565202354632474521560e21b82526004820152336024820152602081604481305afa90811561070d5782916106ce575b501561066f578181527f4f2f104a7ea12e35172792673c68fe1423b90b4f6b86a6c5f5a9a85bd565202d602052604081209081541561062a576005820192835460ff81166105db5760081c60ff1660028110156105c75760010361055c5760038301549260648414806104ac575b15610482577f4f2f104a7ea12e35172792673c68fe1423b90b4f6b86a6c5f5a9a85bd5652033546007820154156104185761013a905b6007830154610753565b42106103c8576009019283541561036657610154906107b6565b9361018e6127106101867f4f2f104a7ea12e35172792673c68fe1423b90b4f6b86a6c5f5a9a85bd565202b5488610776565b0480966107a9565b9460018060a01b037f4f2f104a7ea12e35172792673c68fe1423b90b4f6b86a6c5f5a9a85bd5652031541690813b156102dc57849160248392604051948593849263fad7f38760e01b845260048401525af1801561035b57610347575b50829484549081610334575b5050805460ff19166001179055815b83548110156102e057838352602083208101547f4f2f104a7ea12e35172792673c68fe1423b90b4f6b86a6c5f5a9a85bd5652031546001600160a01b039182169116803b156102dc57848091604460405180948193639120020960e01b83528760048401528c60248401525af180156102d1579085916102b8575b505090600191837fab7542bafced3da2d8c881cb2dd1de859fac7c20d3650d2902ad389a64e0888360206040518a8152a301610206565b816102c29161071b565b6102cd578338610281565b8380fd5b6040513d87823e3d90fd5b8480fd5b5082548284558381610316575b50507f3c8f450bdfccd4e29a4d8e9602688d5e009772a7de7c40c7f27b8f8c129f01fa8280a280f35b835260208320908101905b818110156102ed57838155600101610321565b61033f929650610789565b9338806101f7565b836103549194929461071b565b91386101eb565b6040513d86823e3d90fd5b60405162461bcd60e51b815260206004820152603460248201527f5175697a3a204e6f206f6e6520616e73776572656420636f72726563746c792060448201527334b7102837b7b61036b7b232903bb4b73237bb9760611b6064820152608490fd5b60405162461bcd60e51b815260206004820152602260248201527f5175697a3a20506f6f6c2077696e646f77206973206e6f74206f7665722079656044820152613a1760f11b6064820152608490fd5b608460405162461bcd60e51b815260206004820152604060248201527f5175697a3a204c6576656c2031303020506f6f6c207175657374696f6e20686160448201527f73206e6f20666972737420616e737765722074696d65207265636f726465642e6064820152fd5b61013a7f4f2f104a7ea12e35172792673c68fe1423b90b4f6b86a6c5f5a9a85bd565202654610130565b6104dc60068301547f4f2f104a7ea12e35172792673c68fe1423b90b4f6b86a6c5f5a9a85bd56520335490610753565b4211156100fa5760405162461bcd60e51b815260206004820152604560248201527f5175697a3a204c6576656c2031303020506f6f6c207175657374696f6e20686160448201527f7320657870697265642c2063616e6e6f7420646973747269627574652072657760648201526430b932399760d91b608482015260a490fd5b60405162461bcd60e51b815260206004820152603a60248201527f5175697a3a2052657761726420646973747269627574696f6e206973206f6e6c60448201527f7920666f7220506f6f6c206d6f6465207175657374696f6e732e0000000000006064820152608490fd5b634e487b7160e01b83526021600452602483fd5b60405162461bcd60e51b815260206004820152602160248201527f5175697a3a205175657374696f6e20697320616c726561647920636c6f7365646044820152601760f91b6064820152608490fd5b60405162461bcd60e51b815260206004820152601e60248201527f5175697a3a205175657374696f6e20646f6573206e6f742065786973742e00006044820152606490fd5b60405162461bcd60e51b815260206004820152603160248201527f416363657373436f6e74726f6c3a2043616c6c6572206973206e6f742061207260448201527032bbb0b932103234b9ba3934b13aba37b960791b6064820152608490fd5b90506020813d602011610705575b816106e96020938361071b565b8101031261070157518015158103610701573861008c565b5080fd5b3d91506106dc565b6040513d84823e3d90fd5b80fd5b90601f8019910116810190811067ffffffffffffffff82111761073d57604052565b634e487b7160e01b600052604160045260246000fd5b9190820180921161076057565b634e487b7160e01b600052601160045260246000fd5b8181029291811591840414171561076057565b8115610793570490565b634e487b7160e01b600052601260045260246000fd5b9190820391821161076057565b6064811461092057600181101580610915575b156108aa576107fb6063917f4f2f104a7ea12e35172792673c68fe1423b90b4f6b86a6c5f5a9a85bd565202754610776565b0461085261082a7f4f2f104a7ea12e35172792673c68fe1423b90b4f6b86a6c5f5a9a85bd565202e54426107a9565b7f4f2f104a7ea12e35172792673c68fe1423b90b4f6b86a6c5f5a9a85bd56520295490610789565b6000907f4f2f104a7ea12e35172792673c68fe1423b90b4f6b86a6c5f5a9a85bd565202a545b818310610886575b50505090565b90919260011c9281841061089e576001019190610878565b50915050388080610880565b60405162461bcd60e51b815260206004820152603d60248201527f4c696241707053746f726167653a20496e76616c6964207175657374696f6e2060448201527f6c6576656c20666f722068616c76696e672063616c63756c6174696f6e0000006064820152608490fd5b5060638111156107c9565b507f4f2f104a7ea12e35172792673c68fe1423b90b4f6b86a6c5f5a9a85bd5652028549056fea26469706673582212206243de7f7411c792b89322cb77d2364d5fc519c7db6a4e0cf7613b0bd88339b064736f6c634300081c0033",
  "linkReferences": {},
  "deployedLinkReferences": {}
}