{
  "_format": "hh-sol-artifact-1",
  "contractName": "QuizParticipationFacet",
  "sourceName": "contracts/facets/QuizParticipationFacet.sol",
  "abi": [
    {
      "anonymous": false,
      "inputs": [
        {
          "indexed": true,
          "internalType": "uint256",
          "name": "quizId",
          "type": "uint256"
        },
        {
          "indexed": true,
          "internalType": "address",
          "name": "player",
          "type": "address"
        },
        {
          "indexed": false,
          "internalType": "uint256",
          "name": "questionIndex",
          "type": "uint256"
        },
        {
          "indexed": false,
          "internalType": "uint8",
          "name": "chosenAnswerIndex",
          "type": "uint8"
        },
        {
          "indexed": false,
          "internalType": "uint256",
          "name": "newScore",
          "type": "uint256"
        }
      ],
      "name": "AnswerSubmitted",
      "type": "event"
    },
    {
      "anonymous": false,
      "inputs": [
        {
          "indexed": true,
          "internalType": "uint256",
          "name": "quizId",
          "type": "uint256"
        },
        {
          "indexed": true,
          "internalType": "address",
          "name": "player",
          "type": "address"
        },
        {
          "indexed": false,
          "internalType": "uint256",
          "name": "finalScore",
          "type": "uint256"
        }
      ],
      "name": "QuizCompleted",
      "type": "event"
    },
    {
      "anonymous": false,
      "inputs": [
        {
          "indexed": true,
          "internalType": "uint256",
          "name": "quizId",
          "type": "uint256"
        },
        {
          "indexed": true,
          "internalType": "address",
          "name": "player",
          "type": "address"
        }
      ],
      "name": "QuizJoined",
      "type": "event"
    },
    {
      "inputs": [
        {
          "internalType": "uint256",
          "name": "_quizId",
          "type": "uint256"
        },
        {
          "internalType": "address",
          "name": "_player",
          "type": "address"
        }
      ],
      "name": "getPlayerScore",
      "outputs": [
        {
          "internalType": "uint256",
          "name": "score",
          "type": "uint256"
        }
      ],
      "stateMutability": "view",
      "type": "function"
    },
    {
      "inputs": [
        {
          "internalType": "uint256",
          "name": "_quizId",
          "type": "uint256"
        },
        {
          "internalType": "address",
          "name": "_player",
          "type": "address"
        }
      ],
      "name": "getQuizParticipationStatus",
      "outputs": [
        {
          "internalType": "bool",
          "name": "hasJoined",
          "type": "bool"
        },
        {
          "internalType": "uint256",
          "name": "score",
          "type": "uint256"
        },
        {
          "internalType": "uint256",
          "name": "lastAnsweredQuestionIndex",
          "type": "uint256"
        }
      ],
      "stateMutability": "view",
      "type": "function"
    },
    {
      "inputs": [
        {
          "internalType": "uint256",
          "name": "_quizId",
          "type": "uint256"
        }
      ],
      "name": "joinQuiz",
      "outputs": [],
      "stateMutability": "nonpayable",
      "type": "function"
    },
    {
      "inputs": [
        {
          "internalType": "uint256",
          "name": "_quizId",
          "type": "uint256"
        },
        {
          "internalType": "uint256",
          "name": "_questionIndex",
          "type": "uint256"
        },
        {
          "internalType": "uint8",
          "name": "_chosenAnswerIndex",
          "type": "uint8"
        }
      ],
      "name": "submitAnswer",
      "outputs": [],
      "stateMutability": "nonpayable",
      "type": "function"
    }
  ],
  "bytecode": "0x60808060405234601557610914908161001b8239f35b600080fdfe6080604052600436101561001257600080fd5b60003560e01c80631417c9f11461072857806320725d591461049e578063c617b26a146104285763d735e51b1461004857600080fd5b3461042357606036600319011261042357600435602435906044359160ff831680930361042357600082815260008051602061089f833981519152602090815260408083203384529091529020805460ff16156103c95760008381526000805160206108bf83398151915260205260409020600101546100d2906001600160a01b031615156107df565b826000526000805160206108bf8339815191526020526100fc60ff6005604060002001541661083f565b826000526000805160206108bf83398151915260205260036040600020015482101561036d5760038101826000528060205260ff6040600020541661030e57836000527ff4894ae4ff1f18ee72704a0e70403d75ad904f1eafeb350b7ea3349c8d00f24660205260406000208360005260205260406000209060018201548610156102b35760ff9160029185600052828501602052604060002088851982541617905585600052602052604060002060018419825416179055846004850155015416841461027a575b6001015492604051908282526020820152836040820152827fe7433971c875ff383e0e4275ada0def90719212037f1e8d90bd7d3f57a6306fa60603393a3816000526000805160206108bf833981519152602052600360406000200154906000198201918211610264571461023657005b6040519182527f4483f552d91e585dbd83311160fa7c00bbf61b7ba7f0de6a9a11f04a57204fbe60203393a3005b634e487b7160e01b600052601160045260246000fd5b826000526000805160206108bf8339815191526020526002604060002001549060018101918254908101809111610264579091556101c5565b60405162461bcd60e51b815260206004820152602d60248201527f5175697a50617274696369706174696f6e46616365743a20496e76616c69642060448201526c30b739bbb2b91037b83a34b7b760991b6064820152608490fd5b60405162461bcd60e51b815260206004820152603160248201527f5175697a50617274696369706174696f6e46616365743a205175657374696f6e60448201527008185b1c9958591e48185b9cddd95c9959607a1b6064820152608490fd5b60405162461bcd60e51b815260206004820152602e60248201527f5175697a50617274696369706174696f6e46616365743a20496e76616c69642060448201526d0e2eacae6e8d2dedc40d2dcc8caf60931b6064820152608490fd5b60405162461bcd60e51b815260206004820152602c60248201527f5175697a50617274696369706174696f6e46616365743a204d757374206a6f6960448201526b1b881c5d5a5e88199a5c9cdd60a21b6064820152608490fd5b600080fd5b34610423576020600161043a366107b9565b8160005260008051602061089f8339815191528452604060002090838060a01b031660005283526040600020906000526000805160206108bf8339815191528352610494828060a01b0383604060002001541615156107df565b0154604051908152f35b3461042357602036600319011261042357600435600081815260008051602061089f8339815191526020908152604080832033845282528083208484526000805160206108bf83398151915290925290912060010154610508906001600160a01b031615156107df565b816000526000805160206108bf83398151915260205261053260ff6005604060002001541661083f565b805460ff81166106ca57826000527ff4894ae4ff1f18ee72704a0e70403d75ad904f1eafeb350b7ea3349c8d00f248602052604060002054836000526000805160206108bf833981519152602052600460406000200154111561066c5760019060ff1916178155600060018201556004600019910155806000527ff4894ae4ff1f18ee72704a0e70403d75ad904f1eafeb350b7ea3349c8d00f248602052604060002080549068010000000000000000821015610656576001820180825582101561064057600052602060002001336bffffffffffffffffffffffff60a01b82541617905533907f055f490fb385b9f2b84117123cc046cd6583482d86492bc6753e7cb621d6d6ff600080a3005b634e487b7160e01b600052603260045260246000fd5b634e487b7160e01b600052604160045260246000fd5b60405162461bcd60e51b815260206004820152603060248201527f5175697a50617274696369706174696f6e46616365743a204d6178207061727460448201526f1a58da5c185b9d1cc81c995858da195960821b6064820152608490fd5b60405162461bcd60e51b815260206004820152603060248201527f5175697a50617274696369706174696f6e46616365743a20416c72656164792060448201526f3537b4b732b2103a3434b99038bab4bd60811b6064820152608490fd5b34610423576060604061073a366107b9565b600082815260008051602061089f83398151915260209081528482206001600160a01b03938416835281529381209281526000805160206108bf8339815191529093526040909220600101549091610794911615156107df565b60ff815416906004600182015491015490604051921515835260208301526040820152f35b604090600319011261042357600435906024356001600160a01b03811681036104235790565b156107e657565b60405162461bcd60e51b815260206004820152602b60248201527f5175697a50617274696369706174696f6e46616365743a205175697a20646f6560448201526a1cc81b9bdd08195e1a5cdd60aa1b6064820152608490fd5b1561084657565b60405162461bcd60e51b815260206004820152602a60248201527f5175697a50617274696369706174696f6e46616365743a205175697a206973206044820152696e6f742061637469766560b01b6064820152608490fdfef4894ae4ff1f18ee72704a0e70403d75ad904f1eafeb350b7ea3349c8d00f247f4894ae4ff1f18ee72704a0e70403d75ad904f1eafeb350b7ea3349c8d00f245a264697066735822122034aa1f57f0551502cc2a9adfeef378c60e29a3199b9a093d131d8342b3ba13f064736f6c634300081c0033",
  "linkReferences": {},
  "deployedLinkReferences": {}
}