{
  "_format": "hh-sol-artifact-1",
  "contractName": "QuizGameRewardFacet",
  "sourceName": "contracts/facets/QuizGameRewardFacet.sol",
  "abi": [
    {
      "inputs": [
        {
          "internalType": "uint256",
          "name": "_difficultyLevel",
          "type": "uint256"
        }
      ],
      "name": "calculateCurrentReward",
      "outputs": [
        {
          "internalType": "uint256",
          "name": "",
          "type": "uint256"
        }
      ],
      "stateMutability": "view",
      "type": "function"
    }
  ],
  "bytecode": "0x60808060405234601557610243908161001b8239f35b600080fdfe6080604052600436101561001257600080fd5b60003560e01c634bd546501461002757600080fd5b3461004d57602036600319011261004d576020610045600435610052565b604051908152f35b600080fd5b606481146101e7576001811015806101dc575b1561017a577f4f2f104a7ea12e35172792673c68fe1423b90b4f6b86a6c5f5a9a85bd565202854818102918183041490151715610164577f4f2f104a7ea12e35172792673c68fe1423b90b4f6b86a6c5f5a9a85bd565202d544203428111610164577f4f2f104a7ea12e35172792673c68fe1423b90b4f6b86a6c5f5a9a85bd565202a54801561014e57606391049104906000907f4f2f104a7ea12e35172792673c68fe1423b90b4f6b86a6c5f5a9a85bd565202b545b81831061012a575b50505090565b90919260011c9281841061014257600101919061011c565b50915050388080610124565b634e487b7160e01b600052601260045260246000fd5b634e487b7160e01b600052601160045260246000fd5b60405162461bcd60e51b815260206004820152603460248201527f5175697a3a20496e76616c6964207175657374696f6e206c6576656c20666f72604482015273103430b63b34b7339031b0b631bab630ba34b7b760611b6064820152608490fd5b506063811115610065565b507f4f2f104a7ea12e35172792673c68fe1423b90b4f6b86a6c5f5a9a85bd5652029549056fea2646970667358221220a09ad5d76047e22af3d0212c08e2525b6a34f14d22fbb5dccd12080b04c56b8264736f6c634300081c0033",
  "linkReferences": {},
  "deployedLinkReferences": {}
}