{
  "_format": "hh-sol-artifact-1",
  "contractName": "QuizGameModeFacet",
  "sourceName": "contracts/facets/QuizGameModeFacet.sol",
  "abi": [
    {
      "anonymous": false,
      "inputs": [
        {
          "indexed": true,
          "internalType": "uint256",
          "name": "questionId",
          "type": "uint256"
        },
        {
          "indexed": true,
          "internalType": "address",
          "name": "solver",
          "type": "address"
        },
        {
          "indexed": false,
          "internalType": "bytes32",
          "name": "submittedAnswerHash",
          "type": "bytes32"
        },
        {
          "indexed": false,
          "internalType": "bool",
          "name": "isCorrect",
          "type": "bool"
        }
      ],
      "name": "AnswerSubmitted",
      "type": "event"
    },
    {
      "anonymous": false,
      "inputs": [
        {
          "indexed": true,
          "internalType": "uint256",
          "name": "questionId",
          "type": "uint256"
        },
        {
          "indexed": true,
          "internalType": "address",
          "name": "buyer",
          "type": "address"
        },
        {
          "indexed": false,
          "internalType": "uint256",
          "name": "cost",
          "type": "uint256"
        }
      ],
      "name": "HintPurchased",
      "type": "event"
    },
    {
      "anonymous": false,
      "inputs": [
        {
          "indexed": true,
          "internalType": "uint256",
          "name": "questionId",
          "type": "uint256"
        },
        {
          "indexed": true,
          "internalType": "bytes32",
          "name": "answerLeaf",
          "type": "bytes32"
        }
      ],
      "name": "LeafRegistered",
      "type": "event"
    },
    {
      "anonymous": false,
      "inputs": [
        {
          "indexed": true,
          "internalType": "uint256",
          "name": "questionId",
          "type": "uint256"
        },
        {
          "indexed": true,
          "internalType": "bytes32",
          "name": "answerLeaf",
          "type": "bytes32"
        },
        {
          "indexed": true,
          "internalType": "address",
          "name": "solver",
          "type": "address"
        },
        {
          "indexed": false,
          "internalType": "uint256",
          "name": "rewardAmount",
          "type": "uint256"
        }
      ],
      "name": "LeafSolved",
      "type": "event"
    },
    {
      "anonymous": false,
      "inputs": [
        {
          "indexed": true,
          "internalType": "address",
          "name": "player",
          "type": "address"
        },
        {
          "indexed": true,
          "internalType": "uint256",
          "name": "quizId",
          "type": "uint256"
        }
      ],
      "name": "PlayerJoinedQuiz",
      "type": "event"
    },
    {
      "anonymous": false,
      "inputs": [
        {
          "indexed": true,
          "internalType": "uint256",
          "name": "questionId",
          "type": "uint256"
        },
        {
          "indexed": true,
          "internalType": "address",
          "name": "activator",
          "type": "address"
        }
      ],
      "name": "QuestionActivatedFromBank",
      "type": "event"
    },
    {
      "anonymous": false,
      "inputs": [
        {
          "indexed": true,
          "internalType": "uint256",
          "name": "questionId",
          "type": "uint256"
        }
      ],
      "name": "QuestionClosed",
      "type": "event"
    },
    {
      "anonymous": false,
      "inputs": [
        {
          "indexed": true,
          "internalType": "uint256",
          "name": "questionId",
          "type": "uint256"
        },
        {
          "indexed": true,
          "internalType": "address",
          "name": "creator",
          "type": "address"
        },
        {
          "indexed": false,
          "internalType": "uint256",
          "name": "difficultyLevel",
          "type": "uint256"
        },
        {
          "indexed": false,
          "internalType": "uint256",
          "name": "baseRewardAmount",
          "type": "uint256"
        }
      ],
      "name": "QuestionCreated",
      "type": "event"
    },
    {
      "anonymous": false,
      "inputs": [
        {
          "indexed": true,
          "internalType": "uint256",
          "name": "questionId",
          "type": "uint256"
        },
        {
          "indexed": false,
          "internalType": "uint256",
          "name": "startTime",
          "type": "uint256"
        }
      ],
      "name": "QuestionRewardWindowStarted",
      "type": "event"
    },
    {
      "anonymous": false,
      "inputs": [
        {
          "indexed": true,
          "internalType": "address",
          "name": "player",
          "type": "address"
        },
        {
          "indexed": true,
          "internalType": "uint256",
          "name": "quizId",
          "type": "uint256"
        },
        {
          "indexed": true,
          "internalType": "uint256",
          "name": "questionIndex",
          "type": "uint256"
        },
        {
          "indexed": false,
          "internalType": "uint8",
          "name": "submittedAnswerIndex",
          "type": "uint8"
        },
        {
          "indexed": false,
          "internalType": "bool",
          "name": "isCorrect",
          "type": "bool"
        }
      ],
      "name": "QuizAnswerSubmitted",
      "type": "event"
    },
    {
      "anonymous": false,
      "inputs": [
        {
          "indexed": true,
          "internalType": "address",
          "name": "creator",
          "type": "address"
        },
        {
          "indexed": true,
          "internalType": "uint256",
          "name": "quizId",
          "type": "uint256"
        },
        {
          "indexed": false,
          "internalType": "uint256",
          "name": "rewardAmount",
          "type": "uint256"
        },
        {
          "indexed": false,
          "internalType": "uint256",
          "name": "totalQuestions",
          "type": "uint256"
        }
      ],
      "name": "QuizCreated",
      "type": "event"
    },
    {
      "anonymous": false,
      "inputs": [
        {
          "indexed": true,
          "internalType": "uint256",
          "name": "questionId",
          "type": "uint256"
        },
        {
          "indexed": true,
          "internalType": "address",
          "name": "solver",
          "type": "address"
        },
        {
          "indexed": false,
          "internalType": "uint256",
          "name": "rewardAmount",
          "type": "uint256"
        }
      ],
      "name": "RewardDistributed",
      "type": "event"
    },
    {
      "inputs": [
        {
          "internalType": "uint256",
          "name": "_questionId",
          "type": "uint256"
        }
      ],
      "name": "activateQuestionFromBank",
      "outputs": [],
      "stateMutability": "nonpayable",
      "type": "function"
    },
    {
      "inputs": [
        {
          "internalType": "uint256",
          "name": "_questionId",
          "type": "uint256"
        }
      ],
      "name": "buyHint",
      "outputs": [],
      "stateMutability": "nonpayable",
      "type": "function"
    },
    {
      "inputs": [
        {
          "internalType": "bytes32",
          "name": "_answerLeaf",
          "type": "bytes32"
        },
        {
          "internalType": "bytes32",
          "name": "_hintHash",
          "type": "bytes32"
        },
        {
          "internalType": "uint256",
          "name": "_difficultyLevel",
          "type": "uint256"
        },
        {
          "internalType": "enum LibAppStorage.QuestionMode",
          "name": "_mode",
          "type": "uint8"
        }
      ],
      "name": "createQuestion",
      "outputs": [],
      "stateMutability": "nonpayable",
      "type": "function"
    },
    {
      "inputs": [
        {
          "internalType": "bytes32",
          "name": "_answerLeaf",
          "type": "bytes32"
        }
      ],
      "name": "getLeafQuestionId",
      "outputs": [
        {
          "internalType": "uint256",
          "name": "",
          "type": "uint256"
        }
      ],
      "stateMutability": "view",
      "type": "function"
    },
    {
      "inputs": [
        {
          "internalType": "bytes32",
          "name": "_answerLeaf",
          "type": "bytes32"
        }
      ],
      "name": "getLeafSolveTime",
      "outputs": [
        {
          "internalType": "uint256",
          "name": "",
          "type": "uint256"
        }
      ],
      "stateMutability": "view",
      "type": "function"
    },
    {
      "inputs": [
        {
          "internalType": "bytes32",
          "name": "_answerLeaf",
          "type": "bytes32"
        }
      ],
      "name": "getLeafSolver",
      "outputs": [
        {
          "internalType": "address",
          "name": "",
          "type": "address"
        }
      ],
      "stateMutability": "view",
      "type": "function"
    },
    {
      "inputs": [
        {
          "internalType": "bytes32",
          "name": "_answerLeaf",
          "type": "bytes32"
        }
      ],
      "name": "isLeafSolved",
      "outputs": [
        {
          "internalType": "bool",
          "name": "",
          "type": "bool"
        }
      ],
      "stateMutability": "view",
      "type": "function"
    },
    {
      "inputs": [
        {
          "internalType": "uint256",
          "name": "_questionId",
          "type": "uint256"
        },
        {
          "internalType": "bytes32",
          "name": "_answerLeaf",
          "type": "bytes32"
        }
      ],
      "name": "registerLeaf",
      "outputs": [],
      "stateMutability": "nonpayable",
      "type": "function"
    },
    {
      "inputs": [
        {
          "internalType": "bytes32",
          "name": "_answerLeaf",
          "type": "bytes32"
        }
      ],
      "name": "resetLeaf",
      "outputs": [],
      "stateMutability": "nonpayable",
      "type": "function"
    },
    {
      "inputs": [
        {
          "internalType": "uint256",
          "name": "_questionId",
          "type": "uint256"
        },
        {
          "internalType": "bytes32",
          "name": "_answerLeaf",
          "type": "bytes32"
        },
        {
          "internalType": "bytes32[]",
          "name": "_merkleProof",
          "type": "bytes32[]"
        }
      ],
      "name": "submitAnswer",
      "outputs": [],
      "stateMutability": "nonpayable",
      "type": "function"
    }
  ],
  "bytecode": "0x608080604052346015576114ec908161001b8239f35b600080fdfe608080604052600436101561001357600080fd5b600090813560e01c90816236db03146112db575080631e0fef7814610fa3578063341da9ad14610f5157806342dd072414610cbb5780634a4747e114610bdb5780634ab4845114610b9f5780635c9b20ca14610b56578063686caeaf1461087f5780636efa82d2146101b65763a582b5331461008e57600080fd5b346101b35760203660031901126101b35760008051602061145783398151915254604051632474521560e21b8152600480820192909252336024820152903590602081604481305afa80156101a8576100ee918491610179575b50611376565b8082526000805160206114978339815191526020526040822060ff1981541690558082527f4f2f104a7ea12e35172792673c68fe1423b90b4f6b86a6c5f5a9a85bd5652036602052604082206001600160601b0360a01b815416905581527f4f2f104a7ea12e35172792673c68fe1423b90b4f6b86a6c5f5a9a85bd565203760205280604081205580f35b61019b915060203d6020116101a1575b6101938183611321565b810190611359565b386100e8565b503d610189565b6040513d85823e3d90fd5b80fd5b50346101b35760603660031901126101b35760243560043560443567ffffffffffffffff81116105db57366023820112156105db57806004013567ffffffffffffffff811161087b578060051b903660248385010111610877578386526000805160206114778339815191526020526040862091610239600384015415156113fd565b85875260008051602061149783398151915260205260ff60408820541661082157600683019360648554146107a5575b604051630306885f60e11b815260048101879052602481018890526060604482015260648101849052926001600160fb1b03106107a157608483836020946024839501848401378101030181305afa908115610796578691610777575b5015610726573360009081527f4f2f104a7ea12e35172792673c68fe1423b90b4f6b86a6c5f5a9a85bd565202f6020526040902054620151804204908114610676573360009081527f4f2f104a7ea12e35172792673c68fe1423b90b4f6b86a6c5f5a9a85bd565202f60209081526040808320939093556008938401547f4f2f104a7ea12e35172792673c68fe1423b90b4f6b86a6c5f5a9a85bd5652030909152919020911c60ff16600281101561066257815460ff19161790555b82845260008051602061149783398151915260209081526040808620805460ff191660011790558486527f4f2f104a7ea12e35172792673c68fe1423b90b4f6b86a6c5f5a9a85bd5652036825280862080546001600160a01b031916331790558486527f4f2f104a7ea12e35172792673c68fe1423b90b4f6b86a6c5f5a9a85bd565203782528086204290558486527f4f2f104a7ea12e35172792673c68fe1423b90b4f6b86a6c5f5a9a85bd56520388252808620849055915491516304bd546560e41b8152600481019290925281602481305afa908115610657578491610625575b506127106104947f4f2f104a7ea12e35172792673c68fe1423b90b4f6b86a6c5f5a9a85bd565202c54836113d4565b04808203918211610611577f4f2f104a7ea12e35172792673c68fe1423b90b4f6b86a6c5f5a9a85bd5652039548591906001600160a01b0316803b1561060d5760248392604051948593849263fad7f38760e01b845260048401525af18015610602576105ee575b507f4f2f104a7ea12e35172792673c68fe1423b90b4f6b86a6c5f5a9a85bd56520395484906001600160a01b0316803b156105ea57818091604460405180948193639120020960e01b83523360048401528860248401525af180156105df576105c6575b505060405190815282827f7ba754abf4a102d735a513bd003c98cc200878ac84f3f964a8871827e65d271560203394a4604051918252600160208301527ff13f0cafc2e76d9b040bc1cf8fe98f442675719960e4065425c2c750aa0e19a460403393a380f35b816105d091611321565b6105db578338610560565b8380fd5b6040513d84823e3d90fd5b5080fd5b846105fb91959295611321565b92386104fc565b6040513d87823e3d90fd5b8280fd5b634e487b7160e01b85526011600452602485fd5b90506020813d60201161064f575b8161064060209383611321565b810103126105db575138610465565b3d9150610633565b6040513d86823e3d90fd5b634e487b7160e01b86526021600452602486fd5b503360009081527f4f2f104a7ea12e35172792673c68fe1423b90b4f6b86a6c5f5a9a85bd56520306020526040902060ff906008908290541692015460081c1690600282101561066257600281101561066257146103825760405162461bcd60e51b815260206004820152602a60248201527f5175697a3a20416c72656164792063686f73656e20646966666572656e74206d60448201526937b232903a37b230bc9760b11b6064820152608490fd5b60405162461bcd60e51b815260206004820152602360248201527f5175697a3a2057726f6e6720616e73776572206f7220696e76616c696420707260448201526237b7b360e91b6064820152608490fd5b610790915060203d6020116101a1576101938183611321565b386102c6565b6040513d88823e3d90fd5b8780fd5b6107d560098501547f4f2f104a7ea12e35172792673c68fe1423b90b4f6b86a6c5f5a9a85bd56520275490611449565b4211156102695760405162461bcd60e51b815260206004820152601860248201527f5175697a3a204c6576656c2031303020657870697265642e00000000000000006044820152606490fd5b60405162461bcd60e51b815260206004820152602860248201527f5175697a3a2054686973207370656369666963207175697a20616c72656164796044820152671039b7b63b32b21760c11b6064820152608490fd5b8580fd5b8480fd5b50346101b35760203660031901126101b35760008051602061145783398151915254604051632474521560e21b8152600480820192909252336024820152903590602081604481305afa9081156101a8578391610b37575b508015610abd575b15610a5b5780825260008051602061147783398151915260205260408220600381015415610a07576008810160ff19815416905582600a820155600b81016001600160601b0360a01b81541690556020600c6040519261093f8385611321565b85845285368137019082519267ffffffffffffffff84116109f357600160401b84116109f357819083548585558086106109cb575b500191855280852090855b8481106109b0578633877f6c01933b9ad41cd54278498404c4955f24142d7570eff7bce17fc7f5ee12f8928380a380f35b83516001600160a01b0316838201559281019260010161097f565b8488528583892091820191015b8181106109e55750610974565b8881558493506001016109d8565b634e487b7160e01b86526041600452602486fd5b60405162461bcd60e51b815260206004820152602660248201527f5175697a3a205175657374696f6e20646f6573206e6f7420657869737420696e604482015265103130b7359760d11b6064820152608490fd5b60405162461bcd60e51b815260206004820152603460248201527f416363657373436f6e74726f6c3a2043616c6c6572206973206e6f742061206760448201527330b6b29030b236b4b71037b91031b932b0ba37b960611b6064820152608490fd5b507f4f2f104a7ea12e35172792673c68fe1423b90b4f6b86a6c5f5a9a85bd565202454604051632474521560e21b81526004810191909152336024820152602081604481305afa9081156101a8578391610b18575b506108df565b610b31915060203d6020116101a1576101938183611321565b38610b12565b610b50915060203d6020116101a1576101938183611321565b386108d7565b50346101b35760203660031901126101b357604060209160043581527f4f2f104a7ea12e35172792673c68fe1423b90b4f6b86a6c5f5a9a85bd565203883522054604051908152f35b50346101b35760203660031901126101b35760ff6040602092600435815260008051602061149783398151915284522054166040519015158152f35b50346101b35760403660031901126101b35760008051602061145783398151915254604051632474521560e21b81526004808201929092523360248083019190915235913590602081604481305afa801561065757610c409185916101795750611376565b808352600080516020611477833981519152602052610c67600360408520015415156113fd565b8183527f4f2f104a7ea12e35172792673c68fe1423b90b4f6b86a6c5f5a9a85bd56520386020528060408420557f19389a39f44b0a98725f708b7f380445ad25436e95cd1ea9b73666d89c65b0028380a380f35b50346101b35760203660031901126101b35760043580825260008051602061147783398151915260205260408220610cf8600382015415156113fd565b60ff600882015416610f02576064600682015414610e63575b5081602060018060a01b037f4f2f104a7ea12e35172792673c68fe1423b90b4f6b86a6c5f5a9a85bd565203a541660647f4f2f104a7ea12e35172792673c68fe1423b90b4f6b86a6c5f5a9a85bd56520255460405194859384926323b872dd60e01b845233600485015230602485015260448401525af19081156101a8578391610e44575b5015610dee577f4f2f104a7ea12e35172792673c68fe1423b90b4f6b86a6c5f5a9a85bd565202554906040519182527ff10cfe1413da6fb4d61b5fe0472eef72ef9191ca81db52b96f4143513960d32d60203393a380f35b60405162461bcd60e51b815260206004820152602860248201527f5175697a3a205175697a436f696e207472616e73666572206661696c6564206660448201526737b9103434b73a1760c11b6064820152608490fd5b610e5d915060203d6020116101a1576101938183611321565b38610d96565b600901547f4f2f104a7ea12e35172792673c68fe1423b90b4f6b86a6c5f5a9a85bd565202754610e9291611449565b4211610e9e5738610d11565b60405162461bcd60e51b815260206004820152603660248201527f5175697a3a204c6576656c20313030207175657374696f6e206861732065787060448201527534b932b2161031b0b73737ba10313abc903434b73a1760511b6064820152608490fd5b60405162461bcd60e51b815260206004820152602160248201527f5175697a3a205175657374696f6e20697320616c726561647920636c6f7365646044820152601760f91b6064820152608490fd5b50346101b35760203660031901126101b35760209060043581527f4f2f104a7ea12e35172792673c68fe1423b90b4f6b86a6c5f5a9a85bd56520368252604060018060a01b0391205416604051908152f35b50346101b35760803660031901126101b35760443560043560643560028110156105db5760008051602061145783398151915254604051632474521560e21b81526004810191909152336024820152602081604481305afa8015610602576110119186916101795750611376565b81156112975760018310158061128c575b15611247577f4f2f104a7ea12e35172792673c68fe1423b90b4f6b86a6c5f5a9a85bd565202e5491600019831461061157600183017f4f2f104a7ea12e35172792673c68fe1423b90b4f6b86a6c5f5a9a85bd565202e5560648403611213577f4f2f104a7ea12e35172792673c68fe1423b90b4f6b86a6c5f5a9a85bd565202954915b8386526000805160206114778339815191526020526040862091600383015560243560048301556005820160018060a01b0333166001600160601b0360a01b825416179055846006830155826007830155600882019061ff0082549160081b169061ffff191617905542600982015584600a820155600b81016001600160601b0360a01b8154169055602090600c604051916111418484611321565b878352873681370181519167ffffffffffffffff83116111ff57600160401b83116111ff57839082548484558085106111d7575b5001908752828720875b8381106111bc57505050506040519384528301527f5fff8b8a05084a38562ea22f588b62938f68ad92fbfc50ee5b3dc2e69dd0d81760403393a380f35b82516001600160a01b0316828201559184019160010161117f565b838a5284838b2091820191015b8181106111f15750611175565b8a81558693506001016111e4565b634e487b7160e01b88526041600452602488fd5b6063611240857f4f2f104a7ea12e35172792673c68fe1423b90b4f6b86a6c5f5a9a85bd5652028546113d4565b04916110a5565b60405162461bcd60e51b815260206004820152601e60248201527f5175697a3a20446966666963756c7479206d75737420626520312d31303000006044820152606490fd5b506064831115611022565b606460405162461bcd60e51b815260206004820152602060248201527f5175697a3a20416e73776572206c6561662063616e6e6f74206265207a65726f6044820152fd5b9050346105ea5760203660031901126105ea57604060209260043581527f4f2f104a7ea12e35172792673c68fe1423b90b4f6b86a6c5f5a9a85bd5652037845220548152f35b90601f8019910116810190811067ffffffffffffffff82111761134357604052565b634e487b7160e01b600052604160045260246000fd5b90816020910312611371575180151581036113715790565b600080fd5b1561137d57565b60405162461bcd60e51b815260206004820152602960248201527f416363657373436f6e74726f6c3a2043616c6c6572206973206e6f742061206760448201526830b6b29030b236b4b760b91b6064820152608490fd5b818102929181159184041417156113e757565b634e487b7160e01b600052601160045260246000fd5b1561140457565b60405162461bcd60e51b815260206004820152601e60248201527f5175697a3a205175657374696f6e20646f6573206e6f742065786973742e00006044820152606490fd5b919082018092116113e75756fe4f2f104a7ea12e35172792673c68fe1423b90b4f6b86a6c5f5a9a85bd56520224f2f104a7ea12e35172792673c68fe1423b90b4f6b86a6c5f5a9a85bd56520314f2f104a7ea12e35172792673c68fe1423b90b4f6b86a6c5f5a9a85bd5652035a2646970667358221220002d8e74ca0cbd8a8829882ab0ea3d8f46c7d36b50a376770218e12f9d53586464736f6c634300081c0033",
  "linkReferences": {},
  "deployedLinkReferences": {}
}