{
  "_format": "hh-sol-artifact-1",
  "contractName": "PoolManager",
  "sourceName": "contracts/PoolManager.sol",
  "abi": [
    {
      "inputs": [
        {
          "internalType": "address",
          "name": "_quizCoinAddress",
          "type": "address"
        }
      ],
      "stateMutability": "nonpayable",
      "type": "constructor"
    },
    {
      "inputs": [
        {
          "internalType": "address",
          "name": "owner",
          "type": "address"
        }
      ],
      "name": "OwnableInvalidOwner",
      "type": "error"
    },
    {
      "inputs": [
        {
          "internalType": "address",
          "name": "account",
          "type": "address"
        }
      ],
      "name": "OwnableUnauthorizedAccount",
      "type": "error"
    },
    {
      "anonymous": false,
      "inputs": [
        {
          "indexed": true,
          "internalType": "address",
          "name": "user",
          "type": "address"
        },
        {
          "indexed": false,
          "internalType": "uint256",
          "name": "amount",
          "type": "uint256"
        }
      ],
      "name": "Deposited",
      "type": "event"
    },
    {
      "anonymous": false,
      "inputs": [
        {
          "indexed": false,
          "internalType": "uint256",
          "name": "amount",
          "type": "uint256"
        }
      ],
      "name": "MintedToTreasury",
      "type": "event"
    },
    {
      "anonymous": false,
      "inputs": [
        {
          "indexed": true,
          "internalType": "address",
          "name": "previousOwner",
          "type": "address"
        },
        {
          "indexed": true,
          "internalType": "address",
          "name": "newOwner",
          "type": "address"
        }
      ],
      "name": "OwnershipTransferred",
      "type": "event"
    },
    {
      "anonymous": false,
      "inputs": [
        {
          "indexed": true,
          "internalType": "address",
          "name": "oldAddress",
          "type": "address"
        },
        {
          "indexed": true,
          "internalType": "address",
          "name": "newAddress",
          "type": "address"
        }
      ],
      "name": "QuizCoinSet",
      "type": "event"
    },
    {
      "anonymous": false,
      "inputs": [
        {
          "indexed": true,
          "internalType": "address",
          "name": "oldAddress",
          "type": "address"
        },
        {
          "indexed": true,
          "internalType": "address",
          "name": "newAddress",
          "type": "address"
        }
      ],
      "name": "QuizGameDiamondAddressSet",
      "type": "event"
    },
    {
      "anonymous": false,
      "inputs": [
        {
          "indexed": true,
          "internalType": "address",
          "name": "user",
          "type": "address"
        },
        {
          "indexed": false,
          "internalType": "uint256",
          "name": "amount",
          "type": "uint256"
        }
      ],
      "name": "Withdrawn",
      "type": "event"
    },
    {
      "inputs": [
        {
          "internalType": "uint256",
          "name": "_amount",
          "type": "uint256"
        }
      ],
      "name": "deposit",
      "outputs": [],
      "stateMutability": "nonpayable",
      "type": "function"
    },
    {
      "inputs": [],
      "name": "getBalance",
      "outputs": [
        {
          "internalType": "uint256",
          "name": "",
          "type": "uint256"
        }
      ],
      "stateMutability": "view",
      "type": "function"
    },
    {
      "inputs": [
        {
          "internalType": "uint256",
          "name": "_amount",
          "type": "uint256"
        }
      ],
      "name": "mintAndTransferToTreasury",
      "outputs": [],
      "stateMutability": "nonpayable",
      "type": "function"
    },
    {
      "inputs": [],
      "name": "owner",
      "outputs": [
        {
          "internalType": "address",
          "name": "",
          "type": "address"
        }
      ],
      "stateMutability": "view",
      "type": "function"
    },
    {
      "inputs": [],
      "name": "quizCoin",
      "outputs": [
        {
          "internalType": "contract IQuizCoin",
          "name": "",
          "type": "address"
        }
      ],
      "stateMutability": "view",
      "type": "function"
    },
    {
      "inputs": [],
      "name": "quizGameDiamondAddress",
      "outputs": [
        {
          "internalType": "address",
          "name": "",
          "type": "address"
        }
      ],
      "stateMutability": "view",
      "type": "function"
    },
    {
      "inputs": [],
      "name": "renounceOwnership",
      "outputs": [],
      "stateMutability": "nonpayable",
      "type": "function"
    },
    {
      "inputs": [
        {
          "internalType": "address",
          "name": "_newQuizCoinAddress",
          "type": "address"
        }
      ],
      "name": "setQuizCoin",
      "outputs": [],
      "stateMutability": "nonpayable",
      "type": "function"
    },
    {
      "inputs": [
        {
          "internalType": "address",
          "name": "_newQuizGameDiamondAddress",
          "type": "address"
        }
      ],
      "name": "setQuizGameDiamondAddress",
      "outputs": [],
      "stateMutability": "nonpayable",
      "type": "function"
    },
    {
      "inputs": [
        {
          "internalType": "address",
          "name": "newOwner",
          "type": "address"
        }
      ],
      "name": "transferOwnership",
      "outputs": [],
      "stateMutability": "nonpayable",
      "type": "function"
    },
    {
      "inputs": [
        {
          "internalType": "address",
          "name": "_to",
          "type": "address"
        },
        {
          "internalType": "uint256",
          "name": "_amount",
          "type": "uint256"
        }
      ],
      "name": "withdrawAdmin",
      "outputs": [],
      "stateMutability": "nonpayable",
      "type": "function"
    },
    {
      "inputs": [
        {
          "internalType": "address",
          "name": "_user",
          "type": "address"
        },
        {
          "internalType": "uint256",
          "name": "_amount",
          "type": "uint256"
        }
      ],
      "name": "withdrawForUser",
      "outputs": [],
      "stateMutability": "nonpayable",
      "type": "function"
    }
  ],
  "bytecode": "0x60803461015b57601f610c1338819003918201601f19168301916001600160401b038311848410176101605780849260209460405283398101031261015b57516001600160a01b0381169081900361015b5733156101455760008054336001600160a01b03198216811783556040519290916001600160a01b0316907f8be0079c531659141344cd1fd0a4f28419497f9722a3daafe3b4186f6b6457e09080a381156100ee5750600180546001600160a01b031916821790556040519060007fc061d319b06f67d31bd7a238391685baee47e54b1d55ab19a6964ab67e1288808180a3610a9c90816101778239f35b62461bcd60e51b815260206004820152602c60248201527f506f6f6c4d616e616765723a205175697a436f696e206164647265737320636160448201526b6e6e6f74206265207a65726f60a01b6064820152608490fd5b631e4fbdf760e01b600052600060045260246000fd5b600080fd5b634e487b7160e01b600052604160045260246000fdfe608080604052600436101561001357600080fd5b600090813560e01c90816312065fe014610949575080632ad1d126146109205780636747fc13146107a9578063715018a61461074f57806371a5d0ca14610726578063764a36fb146106515780638da5cb5b1461062a57806391200209146104cc578063a31c32ae146103fe578063b6b55f251461026c578063f2fde38b146101e65763fad7f387146100a557600080fd5b346101e35760203660031901126101e357600254600435906001600160a01b031633819003610178576001548391906001600160a01b0316803b15610174576040516340c10f1960e01b81526001600160a01b039290921660048301526024820184905282908290604490829084905af1801561016957610150575b507f4999631ebb20ea75eebfdf58b4f1cbb3fe351ddc775e5264e22ead4b470a628d602083604051908152a180f35b8161015a916109ed565b610165578138610121565b5080fd5b6040513d84823e3d90fd5b8280fd5b60405162461bcd60e51b815260206004820152603c60248201527f506f6f6c4d616e616765723a204e6f7420617574686f72697a656420746f206d60448201527f696e7420616e64207472616e7366657220746f207472656173757279000000006064820152608490fd5b80fd5b50346101e35760203660031901126101e3576102006109d2565b610208610a3d565b6001600160a01b031680156102585781546001600160a01b03198116821783556001600160a01b03167f8be0079c531659141344cd1fd0a4f28419497f9722a3daafe3b4186f6b6457e08380a380f35b631e4fbdf760e01b82526004829052602482fd5b50346101e35760203660031901126101e35760043560018060a01b0360025416331480156103eb575b15610397576001546040516323b872dd60e01b815233600482015230602482015260448101839052906020908290606490829087906001600160a01b03165af190811561038c57839161035d575b5015610318576040519081527f2da466a7b24304f47e87fa2e1e5a81b9831ce54fec19055ce277ca2f39ba42c460203392a280f35b60405162461bcd60e51b815260206004820152601b60248201527f506f6f6c4d616e616765723a204465706f736974206661696c656400000000006044820152606490fd5b61037f915060203d602011610385575b61037781836109ed565b810190610a25565b386102e3565b503d61036d565b6040513d85823e3d90fd5b60405162461bcd60e51b815260206004820152602660248201527f506f6f6c4d616e616765723a204e6f7420617574686f72697a656420746f2064604482015265195c1bdcda5d60d21b6064820152608490fd5b5081546001600160a01b03163314610295565b50346101e35760203660031901126101e3576104186109d2565b610420610a3d565b6001600160a01b0316801561047257600154816001600160a01b0382167fc061d319b06f67d31bd7a238391685baee47e54b1d55ab19a6964ab67e1288808580a36001600160a01b0319161760015580f35b60405162461bcd60e51b815260206004820152602c60248201527f506f6f6c4d616e616765723a205175697a436f696e206164647265737320636160448201526b6e6e6f74206265207a65726f60a01b6064820152608490fd5b50346101e35760403660031901126101e3576104e66109d2565b60025460243591906001600160a01b031633036105cc576001546001600160a01b0316803b156105c8576040516340c10f1960e01b81526001600160a01b0383166004820152602481018490529084908290604490829084905af180156105bd57610586575b506040519182526001600160a01b0316907f7084f5476618d8e60b11ef0d7d3f06914655adb8793e28ff7f018d4c76d505d590602090a280f35b836105b57f7084f5476618d8e60b11ef0d7d3f06914655adb8793e28ff7f018d4c76d505d593956020936109ed565b93915061054c565b6040513d86823e3d90fd5b8380fd5b60405162461bcd60e51b815260206004820152603060248201527f506f6f6c4d616e616765723a204e6f7420617574686f72697a656420746f207760448201526f34ba34323930bb903337b9103ab9b2b960811b6064820152608490fd5b50346101e357806003193601126101e357546040516001600160a01b039091168152602090f35b50346101e35760203660031901126101e35761066b6109d2565b610673610a3d565b6001600160a01b031680156106c557600254816001600160a01b0382167fc530578f9341bc604c9276b7a31f0ba116d75cdc4f8d9ae626437886e2c9946e8580a36001600160a01b0319161760025580f35b60405162461bcd60e51b815260206004820152603360248201527f506f6f6c4d616e616765723a205175697a47616d654469616d6f6e6420616464604482015272726573732063616e6e6f74206265207a65726f60681b6064820152608490fd5b50346101e357806003193601126101e3576001546040516001600160a01b039091168152602090f35b50346101e357806003193601126101e357610768610a3d565b80546001600160a01b03198116825581906001600160a01b03167f8be0079c531659141344cd1fd0a4f28419497f9722a3daafe3b4186f6b6457e08280a380f35b50346101e35760403660031901126101e3576107c36109d2565b6024356107ce610a3d565b6001600160a01b0382169182156108c85760015460405163a9059cbb60e01b81526001600160a01b0392831660048201526024810184905291602091839160449183918991165af19081156105bd5784916108a9575b50156108585760207f7084f5476618d8e60b11ef0d7d3f06914655adb8793e28ff7f018d4c76d505d591604051908152a280f35b60405162461bcd60e51b8152602060048201526024808201527f506f6f6c4d616e616765723a2041646d696e207769746864726177616c2066616044820152631a5b195960e21b6064820152608490fd5b6108c2915060203d6020116103855761037781836109ed565b38610824565b60405162461bcd60e51b815260206004820152602a60248201527f506f6f6c4d616e616765723a2054617267657420616464726573732063616e6e6044820152696f74206265207a65726f60b01b6064820152608490fd5b50346101e357806003193601126101e3576002546040516001600160a01b039091168152602090f35b9050346101655781600319360112610165576001546370a0823160e01b8252306004830152602090829060249082906001600160a01b03165afa90811561016957829161099c575b602082604051908152f35b90506020813d6020116109ca575b816109b7602093836109ed565b8101031261016557602091505138610991565b3d91506109aa565b600435906001600160a01b03821682036109e857565b600080fd5b90601f8019910116810190811067ffffffffffffffff821117610a0f57604052565b634e487b7160e01b600052604160045260246000fd5b908160209103126109e8575180151581036109e85790565b6000546001600160a01b03163303610a5157565b63118cdaa760e01b6000523360045260246000fdfea2646970667358221220d096a66ddba5f7d12887392e77789127c832461cd4f888e8edad52df7d800a2a64736f6c634300081c0033",
  "linkReferences": {},
  "deployedLinkReferences": {}
}