{"contracts/facets/MerkleFacet.sol":{"MerkleFacet":{"abi":[{"anonymous":false,"inputs":[{"indexed":true,"internalType":"uint256","name":"quizId","type":"uint256"},{"indexed":false,"internalType":"bytes32","name":"root","type":"bytes32"}],"name":"MerkleRootSubmitted","type":"event"},{"inputs":[{"internalType":"uint256","name":"quizId","type":"uint256"}],"name":"getMerkleRoot","outputs":[{"internalType":"bytes32","name":"","type":"bytes32"}],"stateMutability":"view","type":"function"},{"inputs":[{"internalType":"uint256","name":"quizId","type":"uint256"},{"internalType":"bytes32","name":"root","type":"bytes32"}],"name":"submitMerkleRoot","outputs":[],"stateMutability":"nonpayable","type":"function"},{"inputs":[{"internalType":"uint256","name":"quizId","type":"uint256"},{"internalType":"bytes32","name":"leaf","type":"bytes32"},{"internalType":"bytes32[]","name":"proof","type":"bytes32[]"}],"name":"verifyQuiz","outputs":[{"internalType":"bool","name":"","type":"bool"}],"stateMutability":"view","type":"function"}],"evm":{"bytecode":{"linkReferences":{},"object":"608080604052346015576103c7908161001b8239f35b600080fdfe608080604052600436101561001357600080fd5b60003560e01c908163060d10be146101fa575080630aab8ba5146101af5763efd50b211461004057600080fd5b346101aa5760403660031901126101aa576004356024357f4f2f104a7ea12e35172792673c68fe1423b90b4f6b86a6c5f5a9a85bd56520225460405190632474521560e21b82526004820152336024820152602081604481305afa90811561019e5760009161015c575b501561010b5760207fb3a8f3e59050d3f97f1bf1b668c8216c654869aa24e3e03cd8891dc68b7db09791836000527f386ce38a758b2aa61a536cbe13df8b6d4bbdc305ba63fe1732b5b790f26f0751825280604060002055604051908152a2005b60405162461bcd60e51b815260206004820152602360248201527f4d65726b6c6546616365743a2043616c6c6572206973206e6f7420616e20616460448201526236b4b760e91b6064820152608490fd5b6020813d602011610196575b8161017560209383610359565b81010312610192575190811515820361018f5750386100aa565b80fd5b5080fd5b3d9150610168565b6040513d6000823e3d90fd5b600080fd5b346101aa5760203660031901126101aa576004356000527f386ce38a758b2aa61a536cbe13df8b6d4bbdc305ba63fe1732b5b790f26f07516020526020604060002054604051908152f35b346101aa5760603660031901126101aa576044359067ffffffffffffffff82116101aa57366023830112156101aa5781600401359167ffffffffffffffff83116101aa578260051b90602482820101903682116101aa576004356000527f386ce38a758b2aa61a536cbe13df8b6d4bbdc305ba63fe1732b5b790f26f0751602052604060002054938415610317575060009461029c6020604051950185610359565b8352602401602083015b828210610307575050506024359083915b81518310156102fa5760208360051b83010151908181106000146102e95785526020526001604085205b9201916102b7565b9085526020526001604085206102e1565b6020908460405191148152f35b81358152602091820191016102a6565b62461bcd60e51b815260206004820152601b60248201527f4d65726b6c6546616365743a20526f6f74206e6f7420666f756e6400000000006044820152606490fd5b90601f8019910116810190811067ffffffffffffffff82111761037b57604052565b634e487b7160e01b600052604160045260246000fdfea26469706673582212208f6f2bf0e56909644c7a1d9dec4d7ff13f58797decb8c4ce8b0db973c1540dbe64736f6c634300081c0033","opcodes":"PUSH1 0x80 DUP1 PUSH1 0x40 MSTORE CALLVALUE PUSH1 0x15 JUMPI PUSH2 0x3C7 SWAP1 DUP2 PUSH2 0x1B DUP3 CODECOPY RETURN JUMPDEST PUSH1 0x0 DUP1 REVERT INVALID PUSH1 0x80 DUP1 PUSH1 0x40 MSTORE PUSH1 0x4 CALLDATASIZE LT ISZERO PUSH2 0x13 JUMPI PUSH1 0x0 DUP1 REVERT JUMPDEST PUSH1 0x0 CALLDATALOAD PUSH1 0xE0 SHR SWAP1 DUP2 PUSH4 0x60D10BE EQ PUSH2 0x1FA JUMPI POP DUP1 PUSH4 0xAAB8BA5 EQ PUSH2 0x1AF JUMPI PUSH4 0xEFD50B21 EQ PUSH2 0x40 JUMPI PUSH1 0x0 DUP1 REVERT JUMPDEST CALLVALUE PUSH2 0x1AA JUMPI PUSH1 0x40 CALLDATASIZE PUSH1 0x3 NOT ADD SLT PUSH2 0x1AA JUMPI PUSH1 0x4 CALLDATALOAD PUSH1 0x24 CALLDATALOAD PUSH32 0x4F2F104A7EA12E35172792673C68FE1423B90B4F6B86A6C5F5A9A85BD5652022 SLOAD PUSH1 0x40 MLOAD SWAP1 PUSH4 0x24745215 PUSH1 0xE2 SHL DUP3 MSTORE PUSH1 0x4 DUP3 ADD MSTORE CALLER PUSH1 0x24 DUP3 ADD MSTORE PUSH1 0x20 DUP2 PUSH1 0x44 DUP2 ADDRESS GAS STATICCALL SWAP1 DUP2 ISZERO PUSH2 0x19E JUMPI PUSH1 0x0 SWAP2 PUSH2 0x15C JUMPI JUMPDEST POP ISZERO PUSH2 0x10B JUMPI PUSH1 0x20 PUSH32 0xB3A8F3E59050D3F97F1BF1B668C8216C654869AA24E3E03CD8891DC68B7DB097 SWAP2 DUP4 PUSH1 0x0 MSTORE PUSH32 0x386CE38A758B2AA61A536CBE13DF8B6D4BBDC305BA63FE1732B5B790F26F0751 DUP3 MSTORE DUP1 PUSH1 0x40 PUSH1 0x0 KECCAK256 SSTORE PUSH1 0x40 MLOAD SWAP1 DUP2 MSTORE LOG2 STOP JUMPDEST PUSH1 0x40 MLOAD PUSH3 0x461BCD PUSH1 0xE5 SHL DUP2 MSTORE PUSH1 0x20 PUSH1 0x4 DUP3 ADD MSTORE PUSH1 0x23 PUSH1 0x24 DUP3 ADD MSTORE PUSH32 0x4D65726B6C6546616365743A2043616C6C6572206973206E6F7420616E206164 PUSH1 0x44 DUP3 ADD MSTORE PUSH3 0x36B4B7 PUSH1 0xE9 SHL PUSH1 0x64 DUP3 ADD MSTORE PUSH1 0x84 SWAP1 REVERT JUMPDEST PUSH1 0x20 DUP2 RETURNDATASIZE PUSH1 0x20 GT PUSH2 0x196 JUMPI JUMPDEST DUP2 PUSH2 0x175 PUSH1 0x20 SWAP4 DUP4 PUSH2 0x359 JUMP JUMPDEST DUP2 ADD SUB SLT PUSH2 0x192 JUMPI MLOAD SWAP1 DUP2 ISZERO ISZERO DUP3 SUB PUSH2 0x18F JUMPI POP CODESIZE PUSH2 0xAA JUMP JUMPDEST DUP1 REVERT JUMPDEST POP DUP1 REVERT JUMPDEST RETURNDATASIZE SWAP2 POP PUSH2 0x168 JUMP JUMPDEST PUSH1 0x40 MLOAD RETURNDATASIZE PUSH1 0x0 DUP3 RETURNDATACOPY RETURNDATASIZE SWAP1 REVERT JUMPDEST PUSH1 0x0 DUP1 REVERT JUMPDEST CALLVALUE PUSH2 0x1AA JUMPI PUSH1 0x20 CALLDATASIZE PUSH1 0x3 NOT ADD SLT PUSH2 0x1AA JUMPI PUSH1 0x4 CALLDATALOAD PUSH1 0x0 MSTORE PUSH32 0x386CE38A758B2AA61A536CBE13DF8B6D4BBDC305BA63FE1732B5B790F26F0751 PUSH1 0x20 MSTORE PUSH1 0x20 PUSH1 0x40 PUSH1 0x0 KECCAK256 SLOAD PUSH1 0x40 MLOAD SWAP1 DUP2 MSTORE RETURN JUMPDEST CALLVALUE PUSH2 0x1AA JUMPI PUSH1 0x60 CALLDATASIZE PUSH1 0x3 NOT ADD SLT PUSH2 0x1AA JUMPI PUSH1 0x44 CALLDATALOAD SWAP1 PUSH8 0xFFFFFFFFFFFFFFFF DUP3 GT PUSH2 0x1AA JUMPI CALLDATASIZE PUSH1 0x23 DUP4 ADD SLT ISZERO PUSH2 0x1AA JUMPI DUP2 PUSH1 0x4 ADD CALLDATALOAD SWAP2 PUSH8 0xFFFFFFFFFFFFFFFF DUP4 GT PUSH2 0x1AA JUMPI DUP3 PUSH1 0x5 SHL SWAP1 PUSH1 0x24 DUP3 DUP3 ADD ADD SWAP1 CALLDATASIZE DUP3 GT PUSH2 0x1AA JUMPI PUSH1 0x4 CALLDATALOAD PUSH1 0x0 MSTORE PUSH32 0x386CE38A758B2AA61A536CBE13DF8B6D4BBDC305BA63FE1732B5B790F26F0751 PUSH1 0x20 MSTORE PUSH1 0x40 PUSH1 0x0 KECCAK256 SLOAD SWAP4 DUP5 ISZERO PUSH2 0x317 JUMPI POP PUSH1 0x0 SWAP5 PUSH2 0x29C PUSH1 0x20 PUSH1 0x40 MLOAD SWAP6 ADD DUP6 PUSH2 0x359 JUMP JUMPDEST DUP4 MSTORE PUSH1 0x24 ADD PUSH1 0x20 DUP4 ADD JUMPDEST DUP3 DUP3 LT PUSH2 0x307 JUMPI POP POP POP PUSH1 0x24 CALLDATALOAD SWAP1 DUP4 SWAP2 JUMPDEST DUP2 MLOAD DUP4 LT ISZERO PUSH2 0x2FA JUMPI PUSH1 0x20 DUP4 PUSH1 0x5 SHL DUP4 ADD ADD MLOAD SWAP1 DUP2 DUP2 LT PUSH1 0x0 EQ PUSH2 0x2E9 JUMPI DUP6 MSTORE PUSH1 0x20 MSTORE PUSH1 0x1 PUSH1 0x40 DUP6 KECCAK256 JUMPDEST SWAP3 ADD SWAP2 PUSH2 0x2B7 JUMP JUMPDEST SWAP1 DUP6 MSTORE PUSH1 0x20 MSTORE PUSH1 0x1 PUSH1 0x40 DUP6 KECCAK256 PUSH2 0x2E1 JUMP JUMPDEST PUSH1 0x20 SWAP1 DUP5 PUSH1 0x40 MLOAD SWAP2 EQ DUP2 MSTORE RETURN JUMPDEST DUP2 CALLDATALOAD DUP2 MSTORE PUSH1 0x20 SWAP2 DUP3 ADD SWAP2 ADD PUSH2 0x2A6 JUMP JUMPDEST PUSH3 0x461BCD PUSH1 0xE5 SHL DUP2 MSTORE PUSH1 0x20 PUSH1 0x4 DUP3 ADD MSTORE PUSH1 0x1B PUSH1 0x24 DUP3 ADD MSTORE PUSH32 0x4D65726B6C6546616365743A20526F6F74206E6F7420666F756E640000000000 PUSH1 0x44 DUP3 ADD MSTORE PUSH1 0x64 SWAP1 REVERT JUMPDEST SWAP1 PUSH1 0x1F DUP1 NOT SWAP2 ADD AND DUP2 ADD SWAP1 DUP2 LT PUSH8 0xFFFFFFFFFFFFFFFF DUP3 GT OR PUSH2 0x37B JUMPI PUSH1 0x40 MSTORE JUMP JUMPDEST PUSH4 0x4E487B71 PUSH1 0xE0 SHL PUSH1 0x0 MSTORE PUSH1 0x41 PUSH1 0x4 MSTORE PUSH1 0x24 PUSH1 0x0 REVERT INVALID LOG2 PUSH5 0x6970667358 0x22 SLT KECCAK256 DUP16 PUSH16 0x2BF0E56909644C7A1D9DEC4D7FF13F58 PUSH26 0x7DECB8C4CE8B0DB973C1540DBE64736F6C634300081C00330000 "},"methodIdentifiers":{"getMerkleRoot(uint256)":"0aab8ba5","submitMerkleRoot(uint256,bytes32)":"efd50b21","verifyQuiz(uint256,bytes32,bytes32[])":"060d10be"}},"storageLayout":{"storage":[],"types":null}}}}