{"contracts/facets/QuizCreationFacet.sol":{"QuizCreationFacet":{"abi":[{"anonymous":false,"inputs":[{"indexed":true,"internalType":"uint256","name":"quizId","type":"uint256"},{"indexed":true,"internalType":"uint256","name":"questionIndex","type":"uint256"}],"name":"QuestionAdded","type":"event"},{"anonymous":false,"inputs":[{"indexed":true,"internalType":"uint256","name":"quizId","type":"uint256"}],"name":"QuizActivated","type":"event"},{"anonymous":false,"inputs":[{"indexed":true,"internalType":"uint256","name":"quizId","type":"uint256"},{"indexed":false,"internalType":"string","name":"name","type":"string"},{"indexed":true,"internalType":"address","name":"creator","type":"address"},{"indexed":false,"internalType":"uint256","name":"rewardAmount","type":"uint256"}],"name":"QuizCreated","type":"event"},{"anonymous":false,"inputs":[{"indexed":true,"internalType":"uint256","name":"quizId","type":"uint256"}],"name":"QuizDeactivated","type":"event"},{"inputs":[{"internalType":"uint256","name":"_quizId","type":"uint256"}],"name":"activateQuiz","outputs":[],"stateMutability":"nonpayable","type":"function"},{"inputs":[{"internalType":"uint256","name":"_quizId","type":"uint256"},{"internalType":"string","name":"_questionText","type":"string"},{"internalType":"string[]","name":"_options","type":"string[]"},{"internalType":"uint8","name":"_correctAnswerIndex","type":"uint8"}],"name":"addQuestion","outputs":[],"stateMutability":"nonpayable","type":"function"},{"inputs":[{"internalType":"string","name":"_name","type":"string"},{"internalType":"uint256","name":"_rewardAmount","type":"uint256"},{"internalType":"uint256","name":"_maxParticipants","type":"uint256"}],"name":"createQuiz","outputs":[{"internalType":"uint256","name":"quizId","type":"uint256"}],"stateMutability":"nonpayable","type":"function"},{"inputs":[{"internalType":"uint256","name":"_quizId","type":"uint256"}],"name":"deactivateQuiz","outputs":[],"stateMutability":"nonpayable","type":"function"},{"inputs":[{"internalType":"uint256","name":"_quizId","type":"uint256"},{"internalType":"uint256","name":"_questionIndex","type":"uint256"}],"name":"getQuestion","outputs":[{"internalType":"string","name":"questionText","type":"string"},{"internalType":"string[]","name":"options","type":"string[]"},{"internalType":"uint8","name":"correctAnswerIndex","type":"uint8"}],"stateMutability":"view","type":"function"},{"inputs":[{"internalType":"uint256","name":"_quizId","type":"uint256"}],"name":"getQuiz","outputs":[{"internalType":"string","name":"name","type":"string"},{"internalType":"address","name":"creator","type":"address"},{"internalType":"uint256","name":"rewardAmount","type":"uint256"},{"internalType":"uint256","name":"totalQuestions","type":"uint256"},{"internalType":"uint256","name":"maxParticipants","type":"uint256"},{"internalType":"bool","name":"isActive","type":"bool"}],"stateMutability":"view","type":"function"},{"inputs":[],"name":"getTotalQuizzes","outputs":[{"internalType":"uint256","name":"totalQuizzes","type":"uint256"}],"stateMutability":"view","type":"function"}],"evm":{"bytecode":{"linkReferences":{},"object":"60808060405234601557611303908161001b8239f35b600080fdfe608080604052600436101561001357600080fd5b60003560e01c908163403861a114610dcf5750806374f684791461075e57806389fb620d14610733578063a3f7e09614610693578063bc6d8094146104cc578063d8187d05146102245763fcfad2491461006c57600080fd5b3461021f57602036600319011261021f57600435604051638da5cb5b60e01b8152602081600481305afa8015610213576100b9916000916101e4575b506001600160a01b031633146110cd565b60008181526000805160206112ae8339815191526020526040902060018101546001600160a01b03166100ed811515611118565b330361018157600501805460ff81161561012e5760ff191690557feb142c7b95937f2461845e11c64e2851c6c5202d2474d7c0c2cab3223f4c3db3600080a2005b60405162461bcd60e51b815260206004820152602560248201527f5175697a4372656174696f6e46616365743a205175697a206973206e6f742061604482015264637469766560d81b6064820152608490fd5b60405162461bcd60e51b815260206004820152603560248201527f5175697a4372656174696f6e46616365743a204d757374206265207175697a2060448201527463726561746f7220746f206465616374697661746560581b6064820152608490fd5b610206915060203d60201161020c575b6101fe8183610fdc565b8101906110ae565b386100a8565b503d6101f4565b6040513d6000823e3d90fd5b600080fd5b3461021f57606036600319011261021f5760043567ffffffffffffffff811161021f57610255903690600401610ffe565b604051638da5cb5b60e01b815260243590602081600481305afa801561021357610291916000916104ad57506001600160a01b031633146110cd565b60008051602061128e8339815191525490816000526000805160206112ae83398151915260205260406000209280519067ffffffffffffffff8211610497578484926102df60209754611173565b601f811161045c575b5086601f82116001146103ce579161033c826005937f555c573dfae89e32b54f425613ac3573052e7bdfabeeee7126bde903b4ca809a96956000916103c3575b508160011b916000199060031b1c19161790565b81555b6001810180546001600160a01b031916331790556002810186905560006003820155604435600482015501805460ff1916905560008051602061128e8339815191525461038b906111c4565b60008051602061128e833981519152556103b06040519160408352604083019061106d565b93868201528033940390a3604051908152f35b90508501518b610328565b93929190601f19811682600052856000209060005b8181106104425750916001917f555c573dfae89e32b54f425613ac3573052e7bdfabeeee7126bde903b4ca809a9697826005969510610429575b5050811b01815561033f565b86015160001960f88460031b161c191690558a8061041d565b878601518355968a01968996506001909201918a016103e3565b610487908360005288600020601f840160051c8101918a851061048d575b601f0160051c01906111ad565b876102e8565b909150819061047a565b634e487b7160e01b600052604160045260246000fd5b6104c6915060203d60201161020c576101fe8183610fdc565b846100a8565b3461021f57604036600319011261021f5760043560243590806000526000805160206112ae8339815191526020526003604060002061051860018060a01b036001830154161515611118565b015482101561063c576000527ff4894ae4ff1f18ee72704a0e70403d75ad904f1eafeb350b7ea3349c8d00f24660205260406000209060005260205260406000206001810161056e60ff600284015416926111e9565b90805461057a81611055565b906105886040519283610fdc565b80825260208201809360005260206000206000915b83831061061f57505050506105bd6040519360608552606085019061106d565b90838203602085015251808252602082019160208260051b82010193926000915b8383106105f2578680878a60408301520390f35b9091929394602080610610600193601f19868203018752895161106d565b970193019301919392906105de565b60016020819261062e856111e9565b81520192019201919061059d565b60405162461bcd60e51b815260206004820152602960248201527f5175697a4372656174696f6e46616365743a20496e76616c69642071756573746044820152680d2dedc40d2dcc8caf60bb1b6064820152608490fd5b3461021f57602036600319011261021f576004356000526000805160206112ae833981519152602052610713604060002060018060a01b036001820154166106dc811515611118565b60028201549160038101546004820154906106fe60ff600585015416936111e9565b9460405196879660c0885260c088019061106d565b946020870152604086015260608501526080840152151560a08301520390f35b3461021f57600036600319011261021f57602060008051602061128e83398151915254604051908152f35b3461021f57608036600319011261021f5760043560243567ffffffffffffffff811161021f57610792903690600401610ffe565b9060443567ffffffffffffffff811161021f573660238201121561021f578060040135926107bf84611055565b916107cd6040519384610fdc565b84835260208301906024829660051b8201019036821161021f5760248101925b828410610d9f57505050506064359060ff821680920361021f57604051638da5cb5b60e01b8152602081600481305afa80156102135761083f91600091610d8057506001600160a01b031633146110cd565b60008481526000805160206112ae8339815191526020526040902060018101546001600160a01b0316610873811515611118565b3303610d155760ff600582015416610caa576002845110610c48578351831015610beb5760030192835495856000527ff4894ae4ff1f18ee72704a0e70403d75ad904f1eafeb350b7ea3349c8d00f24660205260406000208760005260205260406000209280519067ffffffffffffffff8211610497576108f48554611173565b601f8111610bb9575b50602090601f8311600114610b525761092f929160009183610b47575b50508160011b916000199060031b1c19161790565b83555b60018301915190680100000000000000008211610497578254828455808310610ac9575b50916000526020600020916000905b8282106109b057505050506002019060ff1982541617905561098781546111c4565b90557fe5ac7a6f7f975d3d3ba41acafad3abf1430692be1442c6bde74a8ae06b385355600080a3005b805180519067ffffffffffffffff8211610497576109ce8654611173565b601f8111610a97575b50602090601f8311600114610a2a5792610a1083600195946020948796600092610a1f5750508160011b916000199060031b1c19161790565b87555b01940191019092610965565b015190508f8061091a565b90601f1983169187600052816000209260005b818110610a7f5750936020936001969387969383889510610a66575b505050811b018755610a13565b015160001960f88460031b161c191690558e8080610a59565b92936020600181928786015181550195019301610a3d565b610ac390876000526020600020601f850160051c8101916020861061048d57601f0160051c01906111ad565b8b6109d7565b8360005282602060002091820191015b818110610ae65750610956565b80610af360019254611173565b80610b00575b5001610ad9565b601f81118314610b165750600081555b8b610af9565b610b34908260005283601f6020600020920160051c820191016111ad565b8060005260006020812081835555610b10565b015190508a8061091a565b90601f1983169186600052816000209260005b818110610ba15750908460019594939210610b88575b505050811b018355610932565b015160001960f88460031b161c19169055898080610b7b565b92936020600181928786015181550195019301610b65565b610be590866000526020600020601f850160051c8101916020861061048d57601f0160051c01906111ad565b896108fd565b60405162461bcd60e51b815260206004820152602f60248201527f5175697a4372656174696f6e46616365743a20496e76616c696420636f72726560448201526e0c6e840c2dce6eecae440d2dcc8caf608b1b6064820152608490fd5b60405162461bcd60e51b815260206004820152603460248201527f5175697a4372656174696f6e46616365743a204d7573742070726f76696465206044820152736174206c656173742074776f206f7074696f6e7360601b6064820152608490fd5b60405162461bcd60e51b815260206004820152603960248201527f5175697a4372656174696f6e46616365743a2043616e6e6f742061646420717560448201527f657374696f6e7320746f20616e20616374697665207175697a000000000000006064820152608490fd5b60405162461bcd60e51b815260206004820152603860248201527f5175697a4372656174696f6e46616365743a204d757374206265207175697a2060448201527f63726561746f7220746f20616464207175657374696f6e7300000000000000006064820152608490fd5b610d99915060203d60201161020c576101fe8183610fdc565b876100a8565b833567ffffffffffffffff811161021f57602091610dc4839260243691870101610ffe565b8152019301926107ed565b3461021f57602036600319011261021f5760043590638da5cb5b60e01b8152602081600481305afa801561021357610e1991600091610fbd57506001600160a01b031633146110cd565b60008181526000805160206112ae8339815191526020526040902060018101546001600160a01b0316610e4d811515611118565b3303610f5c57600381015415610ef157600501805460ff8116610e9a5760ff191660011790557fd927163946a94e1193f89f6cb09e568d717078d3a2bae542be56519e95c73c93600080a2005b60405162461bcd60e51b815260206004820152602960248201527f5175697a4372656174696f6e46616365743a205175697a20697320616c72656160448201526864792061637469766560b81b6064820152608490fd5b60405162461bcd60e51b815260206004820152603b60248201527f5175697a4372656174696f6e46616365743a2043616e6e6f742061637469766160448201527f74652061207175697a2077697468206e6f207175657374696f6e7300000000006064820152608490fd5b60405162461bcd60e51b815260206004820152603360248201527f5175697a4372656174696f6e46616365743a204d757374206265207175697a2060448201527263726561746f7220746f20616374697661746560681b6064820152608490fd5b610fd6915060203d60201161020c576101fe8183610fdc565b836100a8565b90601f8019910116810190811067ffffffffffffffff82111761049757604052565b81601f8201121561021f5780359067ffffffffffffffff82116104975760405192611033601f8401601f191660200185610fdc565b8284526020838301011161021f57816000926020809301838601378301015290565b67ffffffffffffffff81116104975760051b60200190565b919082519283825260005b848110611099575050826000602080949584010152601f8019910116010190565b80602080928401015182828601015201611078565b9081602091031261021f57516001600160a01b038116810361021f5790565b156110d457565b606460405162461bcd60e51b815260206004820152602060248201527f5175697a4372656174696f6e46616365743a204d757374206265206f776e65726044820152fd5b1561111f57565b60405162461bcd60e51b815260206004820152602660248201527f5175697a4372656174696f6e46616365743a205175697a20646f6573206e6f7460448201526508195e1a5cdd60d21b6064820152608490fd5b90600182811c921680156111a3575b602083101461118d57565b634e487b7160e01b600052602260045260246000fd5b91607f1691611182565b8181106111b8575050565b600081556001016111ad565b60001981146111d35760010190565b634e487b7160e01b600052601160045260246000fd5b90604051918260008254926111fd84611173565b808452936001811690811561126b5750600114611224575b5061122292500383610fdc565b565b90506000929192526020600020906000915b81831061124f5750509060206112229282010138611215565b6020919350806001915483858901015201910190918492611236565b90506020925061122294915060ff191682840152151560051b8201013861121556fef4894ae4ff1f18ee72704a0e70403d75ad904f1eafeb350b7ea3349c8d00f244f4894ae4ff1f18ee72704a0e70403d75ad904f1eafeb350b7ea3349c8d00f245a2646970667358221220fc64bc2a64d9bcb545dbcfc14b2bccbf2a62411429314834889d4fda3e3ce62564736f6c634300081c0033","opcodes":"PUSH1 0x80 DUP1 PUSH1 0x40 MSTORE CALLVALUE PUSH1 0x15 JUMPI PUSH2 0x1303 SWAP1 DUP2 PUSH2 0x1B DUP3 CODECOPY RETURN JUMPDEST PUSH1 0x0 DUP1 REVERT INVALID PUSH1 0x80 DUP1 PUSH1 0x40 MSTORE PUSH1 0x4 CALLDATASIZE LT ISZERO PUSH2 0x13 JUMPI PUSH1 0x0 DUP1 REVERT JUMPDEST PUSH1 0x0 CALLDATALOAD PUSH1 0xE0 SHR SWAP1 DUP2 PUSH4 0x403861A1 EQ PUSH2 0xDCF JUMPI POP DUP1 PUSH4 0x74F68479 EQ PUSH2 0x75E JUMPI DUP1 PUSH4 0x89FB620D EQ PUSH2 0x733 JUMPI DUP1 PUSH4 0xA3F7E096 EQ PUSH2 0x693 JUMPI DUP1 PUSH4 0xBC6D8094 EQ PUSH2 0x4CC JUMPI DUP1 PUSH4 0xD8187D05 EQ PUSH2 0x224 JUMPI PUSH4 0xFCFAD249 EQ PUSH2 0x6C JUMPI PUSH1 0x0 DUP1 REVERT JUMPDEST CALLVALUE PUSH2 0x21F JUMPI PUSH1 0x20 CALLDATASIZE PUSH1 0x3 NOT ADD SLT PUSH2 0x21F JUMPI PUSH1 0x4 CALLDATALOAD PUSH1 0x40 MLOAD PUSH4 0x8DA5CB5B PUSH1 0xE0 SHL DUP2 MSTORE PUSH1 0x20 DUP2 PUSH1 0x4 DUP2 ADDRESS GAS STATICCALL DUP1 ISZERO PUSH2 0x213 JUMPI PUSH2 0xB9 SWAP2 PUSH1 0x0 SWAP2 PUSH2 0x1E4 JUMPI JUMPDEST POP PUSH1 0x1 PUSH1 0x1 PUSH1 0xA0 SHL SUB AND CALLER EQ PUSH2 0x10CD JUMP JUMPDEST PUSH1 0x0 DUP2 DUP2 MSTORE PUSH1 0x0 DUP1 MLOAD PUSH1 0x20 PUSH2 0x12AE DUP4 CODECOPY DUP2 MLOAD SWAP2 MSTORE PUSH1 0x20 MSTORE PUSH1 0x40 SWAP1 KECCAK256 PUSH1 0x1 DUP2 ADD SLOAD PUSH1 0x1 PUSH1 0x1 PUSH1 0xA0 SHL SUB AND PUSH2 0xED DUP2 ISZERO ISZERO PUSH2 0x1118 JUMP JUMPDEST CALLER SUB PUSH2 0x181 JUMPI PUSH1 0x5 ADD DUP1 SLOAD PUSH1 0xFF DUP2 AND ISZERO PUSH2 0x12E JUMPI PUSH1 0xFF NOT AND SWAP1 SSTORE PUSH32 0xEB142C7B95937F2461845E11C64E2851C6C5202D2474D7C0C2CAB3223F4C3DB3 PUSH1 0x0 DUP1 LOG2 STOP JUMPDEST PUSH1 0x40 MLOAD PUSH3 0x461BCD PUSH1 0xE5 SHL DUP2 MSTORE PUSH1 0x20 PUSH1 0x4 DUP3 ADD MSTORE PUSH1 0x25 PUSH1 0x24 DUP3 ADD MSTORE PUSH32 0x5175697A4372656174696F6E46616365743A205175697A206973206E6F742061 PUSH1 0x44 DUP3 ADD MSTORE PUSH5 0x6374697665 PUSH1 0xD8 SHL PUSH1 0x64 DUP3 ADD MSTORE PUSH1 0x84 SWAP1 REVERT JUMPDEST PUSH1 0x40 MLOAD PUSH3 0x461BCD PUSH1 0xE5 SHL DUP2 MSTORE PUSH1 0x20 PUSH1 0x4 DUP3 ADD MSTORE PUSH1 0x35 PUSH1 0x24 DUP3 ADD MSTORE PUSH32 0x5175697A4372656174696F6E46616365743A204D757374206265207175697A20 PUSH1 0x44 DUP3 ADD MSTORE PUSH21 0x63726561746F7220746F2064656163746976617465 PUSH1 0x58 SHL PUSH1 0x64 DUP3 ADD MSTORE PUSH1 0x84 SWAP1 REVERT JUMPDEST PUSH2 0x206 SWAP2 POP PUSH1 0x20 RETURNDATASIZE PUSH1 0x20 GT PUSH2 0x20C JUMPI JUMPDEST PUSH2 0x1FE DUP2 DUP4 PUSH2 0xFDC JUMP JUMPDEST DUP2 ADD SWAP1 PUSH2 0x10AE JUMP JUMPDEST CODESIZE PUSH2 0xA8 JUMP JUMPDEST POP RETURNDATASIZE PUSH2 0x1F4 JUMP JUMPDEST PUSH1 0x40 MLOAD RETURNDATASIZE PUSH1 0x0 DUP3 RETURNDATACOPY RETURNDATASIZE SWAP1 REVERT JUMPDEST PUSH1 0x0 DUP1 REVERT JUMPDEST CALLVALUE PUSH2 0x21F JUMPI PUSH1 0x60 CALLDATASIZE PUSH1 0x3 NOT ADD SLT PUSH2 0x21F JUMPI PUSH1 0x4 CALLDATALOAD PUSH8 0xFFFFFFFFFFFFFFFF DUP2 GT PUSH2 0x21F JUMPI PUSH2 0x255 SWAP1 CALLDATASIZE SWAP1 PUSH1 0x4 ADD PUSH2 0xFFE JUMP JUMPDEST PUSH1 0x40 MLOAD PUSH4 0x8DA5CB5B PUSH1 0xE0 SHL DUP2 MSTORE PUSH1 0x24 CALLDATALOAD SWAP1 PUSH1 0x20 DUP2 PUSH1 0x4 DUP2 ADDRESS GAS STATICCALL DUP1 ISZERO PUSH2 0x213 JUMPI PUSH2 0x291 SWAP2 PUSH1 0x0 SWAP2 PUSH2 0x4AD JUMPI POP PUSH1 0x1 PUSH1 0x1 PUSH1 0xA0 SHL SUB AND CALLER EQ PUSH2 0x10CD JUMP JUMPDEST PUSH1 0x0 DUP1 MLOAD PUSH1 0x20 PUSH2 0x128E DUP4 CODECOPY DUP2 MLOAD SWAP2 MSTORE SLOAD SWAP1 DUP2 PUSH1 0x0 MSTORE PUSH1 0x0 DUP1 MLOAD PUSH1 0x20 PUSH2 0x12AE DUP4 CODECOPY DUP2 MLOAD SWAP2 MSTORE PUSH1 0x20 MSTORE PUSH1 0x40 PUSH1 0x0 KECCAK256 SWAP3 DUP1 MLOAD SWAP1 PUSH8 0xFFFFFFFFFFFFFFFF DUP3 GT PUSH2 0x497 JUMPI DUP5 DUP5 SWAP3 PUSH2 0x2DF PUSH1 0x20 SWAP8 SLOAD PUSH2 0x1173 JUMP JUMPDEST PUSH1 0x1F DUP2 GT PUSH2 0x45C JUMPI JUMPDEST POP DUP7 PUSH1 0x1F DUP3 GT PUSH1 0x1 EQ PUSH2 0x3CE JUMPI SWAP2 PUSH2 0x33C DUP3 PUSH1 0x5 SWAP4 PUSH32 0x555C573DFAE89E32B54F425613AC3573052E7BDFABEEEE7126BDE903B4CA809A SWAP7 SWAP6 PUSH1 0x0 SWAP2 PUSH2 0x3C3 JUMPI JUMPDEST POP DUP2 PUSH1 0x1 SHL SWAP2 PUSH1 0x0 NOT SWAP1 PUSH1 0x3 SHL SHR NOT AND OR SWAP1 JUMP JUMPDEST DUP2 SSTORE JUMPDEST PUSH1 0x1 DUP2 ADD DUP1 SLOAD PUSH1 0x1 PUSH1 0x1 PUSH1 0xA0 SHL SUB NOT AND CALLER OR SWAP1 SSTORE PUSH1 0x2 DUP2 ADD DUP7 SWAP1 SSTORE PUSH1 0x0 PUSH1 0x3 DUP3 ADD SSTORE PUSH1 0x44 CALLDATALOAD PUSH1 0x4 DUP3 ADD SSTORE ADD DUP1 SLOAD PUSH1 0xFF NOT AND SWAP1 SSTORE PUSH1 0x0 DUP1 MLOAD PUSH1 0x20 PUSH2 0x128E DUP4 CODECOPY DUP2 MLOAD SWAP2 MSTORE SLOAD PUSH2 0x38B SWAP1 PUSH2 0x11C4 JUMP JUMPDEST PUSH1 0x0 DUP1 MLOAD PUSH1 0x20 PUSH2 0x128E DUP4 CODECOPY DUP2 MLOAD SWAP2 MSTORE SSTORE PUSH2 0x3B0 PUSH1 0x40 MLOAD SWAP2 PUSH1 0x40 DUP4 MSTORE PUSH1 0x40 DUP4 ADD SWAP1 PUSH2 0x106D JUMP JUMPDEST SWAP4 DUP7 DUP3 ADD MSTORE DUP1 CALLER SWAP5 SUB SWAP1 LOG3 PUSH1 0x40 MLOAD SWAP1 DUP2 MSTORE RETURN JUMPDEST SWAP1 POP DUP6 ADD MLOAD DUP12 PUSH2 0x328 JUMP JUMPDEST SWAP4 SWAP3 SWAP2 SWAP1 PUSH1 0x1F NOT DUP2 AND DUP3 PUSH1 0x0 MSTORE DUP6 PUSH1 0x0 KECCAK256 SWAP1 PUSH1 0x0 JUMPDEST DUP2 DUP2 LT PUSH2 0x442 JUMPI POP SWAP2 PUSH1 0x1 SWAP2 PUSH32 0x555C573DFAE89E32B54F425613AC3573052E7BDFABEEEE7126BDE903B4CA809A SWAP7 SWAP8 DUP3 PUSH1 0x5 SWAP7 SWAP6 LT PUSH2 0x429 JUMPI JUMPDEST POP POP DUP2 SHL ADD DUP2 SSTORE PUSH2 0x33F JUMP JUMPDEST DUP7 ADD MLOAD PUSH1 0x0 NOT PUSH1 0xF8 DUP5 PUSH1 0x3 SHL AND SHR NOT AND SWAP1 SSTORE DUP11 DUP1 PUSH2 0x41D JUMP JUMPDEST DUP8 DUP7 ADD MLOAD DUP4 SSTORE SWAP7 DUP11 ADD SWAP7 DUP10 SWAP7 POP PUSH1 0x1 SWAP1 SWAP3 ADD SWAP2 DUP11 ADD PUSH2 0x3E3 JUMP JUMPDEST PUSH2 0x487 SWAP1 DUP4 PUSH1 0x0 MSTORE DUP9 PUSH1 0x0 KECCAK256 PUSH1 0x1F DUP5 ADD PUSH1 0x5 SHR DUP2 ADD SWAP2 DUP11 DUP6 LT PUSH2 0x48D JUMPI JUMPDEST PUSH1 0x1F ADD PUSH1 0x5 SHR ADD SWAP1 PUSH2 0x11AD JUMP JUMPDEST DUP8 PUSH2 0x2E8 JUMP JUMPDEST SWAP1 SWAP2 POP DUP2 SWAP1 PUSH2 0x47A JUMP JUMPDEST PUSH4 0x4E487B71 PUSH1 0xE0 SHL PUSH1 0x0 MSTORE PUSH1 0x41 PUSH1 0x4 MSTORE PUSH1 0x24 PUSH1 0x0 REVERT JUMPDEST PUSH2 0x4C6 SWAP2 POP PUSH1 0x20 RETURNDATASIZE PUSH1 0x20 GT PUSH2 0x20C JUMPI PUSH2 0x1FE DUP2 DUP4 PUSH2 0xFDC JUMP JUMPDEST DUP5 PUSH2 0xA8 JUMP JUMPDEST CALLVALUE PUSH2 0x21F JUMPI PUSH1 0x40 CALLDATASIZE PUSH1 0x3 NOT ADD SLT PUSH2 0x21F JUMPI PUSH1 0x4 CALLDATALOAD PUSH1 0x24 CALLDATALOAD SWAP1 DUP1 PUSH1 0x0 MSTORE PUSH1 0x0 DUP1 MLOAD PUSH1 0x20 PUSH2 0x12AE DUP4 CODECOPY DUP2 MLOAD SWAP2 MSTORE PUSH1 0x20 MSTORE PUSH1 0x3 PUSH1 0x40 PUSH1 0x0 KECCAK256 PUSH2 0x518 PUSH1 0x1 DUP1 PUSH1 0xA0 SHL SUB PUSH1 0x1 DUP4 ADD SLOAD AND ISZERO ISZERO PUSH2 0x1118 JUMP JUMPDEST ADD SLOAD DUP3 LT ISZERO PUSH2 0x63C JUMPI PUSH1 0x0 MSTORE PUSH32 0xF4894AE4FF1F18EE72704A0E70403D75AD904F1EAFEB350B7EA3349C8D00F246 PUSH1 0x20 MSTORE PUSH1 0x40 PUSH1 0x0 KECCAK256 SWAP1 PUSH1 0x0 MSTORE PUSH1 0x20 MSTORE PUSH1 0x40 PUSH1 0x0 KECCAK256 PUSH1 0x1 DUP2 ADD PUSH2 0x56E PUSH1 0xFF PUSH1 0x2 DUP5 ADD SLOAD AND SWAP3 PUSH2 0x11E9 JUMP JUMPDEST SWAP1 DUP1 SLOAD PUSH2 0x57A DUP2 PUSH2 0x1055 JUMP JUMPDEST SWAP1 PUSH2 0x588 PUSH1 0x40 MLOAD SWAP3 DUP4 PUSH2 0xFDC JUMP JUMPDEST DUP1 DUP3 MSTORE PUSH1 0x20 DUP3 ADD DUP1 SWAP4 PUSH1 0x0 MSTORE PUSH1 0x20 PUSH1 0x0 KECCAK256 PUSH1 0x0 SWAP2 JUMPDEST DUP4 DUP4 LT PUSH2 0x61F JUMPI POP POP POP POP PUSH2 0x5BD PUSH1 0x40 MLOAD SWAP4 PUSH1 0x60 DUP6 MSTORE PUSH1 0x60 DUP6 ADD SWAP1 PUSH2 0x106D JUMP JUMPDEST SWAP1 DUP4 DUP3 SUB PUSH1 0x20 DUP6 ADD MSTORE MLOAD DUP1 DUP3 MSTORE PUSH1 0x20 DUP3 ADD SWAP2 PUSH1 0x20 DUP3 PUSH1 0x5 SHL DUP3 ADD ADD SWAP4 SWAP3 PUSH1 0x0 SWAP2 JUMPDEST DUP4 DUP4 LT PUSH2 0x5F2 JUMPI DUP7 DUP1 DUP8 DUP11 PUSH1 0x40 DUP4 ADD MSTORE SUB SWAP1 RETURN JUMPDEST SWAP1 SWAP2 SWAP3 SWAP4 SWAP5 PUSH1 0x20 DUP1 PUSH2 0x610 PUSH1 0x1 SWAP4 PUSH1 0x1F NOT DUP7 DUP3 SUB ADD DUP8 MSTORE DUP10 MLOAD PUSH2 0x106D JUMP JUMPDEST SWAP8 ADD SWAP4 ADD SWAP4 ADD SWAP2 SWAP4 SWAP3 SWAP1 PUSH2 0x5DE JUMP JUMPDEST PUSH1 0x1 PUSH1 0x20 DUP2 SWAP3 PUSH2 0x62E DUP6 PUSH2 0x11E9 JUMP JUMPDEST DUP2 MSTORE ADD SWAP3 ADD SWAP3 ADD SWAP2 SWAP1 PUSH2 0x59D JUMP JUMPDEST PUSH1 0x40 MLOAD PUSH3 0x461BCD PUSH1 0xE5 SHL DUP2 MSTORE PUSH1 0x20 PUSH1 0x4 DUP3 ADD MSTORE PUSH1 0x29 PUSH1 0x24 DUP3 ADD MSTORE PUSH32 0x5175697A4372656174696F6E46616365743A20496E76616C6964207175657374 PUSH1 0x44 DUP3 ADD MSTORE PUSH9 0xD2DEDC40D2DCC8CAF PUSH1 0xBB SHL PUSH1 0x64 DUP3 ADD MSTORE PUSH1 0x84 SWAP1 REVERT JUMPDEST CALLVALUE PUSH2 0x21F JUMPI PUSH1 0x20 CALLDATASIZE PUSH1 0x3 NOT ADD SLT PUSH2 0x21F JUMPI PUSH1 0x4 CALLDATALOAD PUSH1 0x0 MSTORE PUSH1 0x0 DUP1 MLOAD PUSH1 0x20 PUSH2 0x12AE DUP4 CODECOPY DUP2 MLOAD SWAP2 MSTORE PUSH1 0x20 MSTORE PUSH2 0x713 PUSH1 0x40 PUSH1 0x0 KECCAK256 PUSH1 0x1 DUP1 PUSH1 0xA0 SHL SUB PUSH1 0x1 DUP3 ADD SLOAD AND PUSH2 0x6DC DUP2 ISZERO ISZERO PUSH2 0x1118 JUMP JUMPDEST PUSH1 0x2 DUP3 ADD SLOAD SWAP2 PUSH1 0x3 DUP2 ADD SLOAD PUSH1 0x4 DUP3 ADD SLOAD SWAP1 PUSH2 0x6FE PUSH1 0xFF PUSH1 0x5 DUP6 ADD SLOAD AND SWAP4 PUSH2 0x11E9 JUMP JUMPDEST SWAP5 PUSH1 0x40 MLOAD SWAP7 DUP8 SWAP7 PUSH1 0xC0 DUP9 MSTORE PUSH1 0xC0 DUP9 ADD SWAP1 PUSH2 0x106D JUMP JUMPDEST SWAP5 PUSH1 0x20 DUP8 ADD MSTORE PUSH1 0x40 DUP7 ADD MSTORE PUSH1 0x60 DUP6 ADD MSTORE PUSH1 0x80 DUP5 ADD MSTORE ISZERO ISZERO PUSH1 0xA0 DUP4 ADD MSTORE SUB SWAP1 RETURN JUMPDEST CALLVALUE PUSH2 0x21F JUMPI PUSH1 0x0 CALLDATASIZE PUSH1 0x3 NOT ADD SLT PUSH2 0x21F JUMPI PUSH1 0x20 PUSH1 0x0 DUP1 MLOAD PUSH1 0x20 PUSH2 0x128E DUP4 CODECOPY DUP2 MLOAD SWAP2 MSTORE SLOAD PUSH1 0x40 MLOAD SWAP1 DUP2 MSTORE RETURN JUMPDEST CALLVALUE PUSH2 0x21F JUMPI PUSH1 0x80 CALLDATASIZE PUSH1 0x3 NOT ADD SLT PUSH2 0x21F JUMPI PUSH1 0x4 CALLDATALOAD PUSH1 0x24 CALLDATALOAD PUSH8 0xFFFFFFFFFFFFFFFF DUP2 GT PUSH2 0x21F JUMPI PUSH2 0x792 SWAP1 CALLDATASIZE SWAP1 PUSH1 0x4 ADD PUSH2 0xFFE JUMP JUMPDEST SWAP1 PUSH1 0x44 CALLDATALOAD PUSH8 0xFFFFFFFFFFFFFFFF DUP2 GT PUSH2 0x21F JUMPI CALLDATASIZE PUSH1 0x23 DUP3 ADD SLT ISZERO PUSH2 0x21F JUMPI DUP1 PUSH1 0x4 ADD CALLDATALOAD SWAP3 PUSH2 0x7BF DUP5 PUSH2 0x1055 JUMP JUMPDEST SWAP2 PUSH2 0x7CD PUSH1 0x40 MLOAD SWAP4 DUP5 PUSH2 0xFDC JUMP JUMPDEST DUP5 DUP4 MSTORE PUSH1 0x20 DUP4 ADD SWAP1 PUSH1 0x24 DUP3 SWAP7 PUSH1 0x5 SHL DUP3 ADD ADD SWAP1 CALLDATASIZE DUP3 GT PUSH2 0x21F JUMPI PUSH1 0x24 DUP2 ADD SWAP3 JUMPDEST DUP3 DUP5 LT PUSH2 0xD9F JUMPI POP POP POP POP PUSH1 0x64 CALLDATALOAD SWAP1 PUSH1 0xFF DUP3 AND DUP1 SWAP3 SUB PUSH2 0x21F JUMPI PUSH1 0x40 MLOAD PUSH4 0x8DA5CB5B PUSH1 0xE0 SHL DUP2 MSTORE PUSH1 0x20 DUP2 PUSH1 0x4 DUP2 ADDRESS GAS STATICCALL DUP1 ISZERO PUSH2 0x213 JUMPI PUSH2 0x83F SWAP2 PUSH1 0x0 SWAP2 PUSH2 0xD80 JUMPI POP PUSH1 0x1 PUSH1 0x1 PUSH1 0xA0 SHL SUB AND CALLER EQ PUSH2 0x10CD JUMP JUMPDEST PUSH1 0x0 DUP5 DUP2 MSTORE PUSH1 0x0 DUP1 MLOAD PUSH1 0x20 PUSH2 0x12AE DUP4 CODECOPY DUP2 MLOAD SWAP2 MSTORE PUSH1 0x20 MSTORE PUSH1 0x40 SWAP1 KECCAK256 PUSH1 0x1 DUP2 ADD SLOAD PUSH1 0x1 PUSH1 0x1 PUSH1 0xA0 SHL SUB AND PUSH2 0x873 DUP2 ISZERO ISZERO PUSH2 0x1118 JUMP JUMPDEST CALLER SUB PUSH2 0xD15 JUMPI PUSH1 0xFF PUSH1 0x5 DUP3 ADD SLOAD AND PUSH2 0xCAA JUMPI PUSH1 0x2 DUP5 MLOAD LT PUSH2 0xC48 JUMPI DUP4 MLOAD DUP4 LT ISZERO PUSH2 0xBEB JUMPI PUSH1 0x3 ADD SWAP3 DUP4 SLOAD SWAP6 DUP6 PUSH1 0x0 MSTORE PUSH32 0xF4894AE4FF1F18EE72704A0E70403D75AD904F1EAFEB350B7EA3349C8D00F246 PUSH1 0x20 MSTORE PUSH1 0x40 PUSH1 0x0 KECCAK256 DUP8 PUSH1 0x0 MSTORE PUSH1 0x20 MSTORE PUSH1 0x40 PUSH1 0x0 KECCAK256 SWAP3 DUP1 MLOAD SWAP1 PUSH8 0xFFFFFFFFFFFFFFFF DUP3 GT PUSH2 0x497 JUMPI PUSH2 0x8F4 DUP6 SLOAD PUSH2 0x1173 JUMP JUMPDEST PUSH1 0x1F DUP2 GT PUSH2 0xBB9 JUMPI JUMPDEST POP PUSH1 0x20 SWAP1 PUSH1 0x1F DUP4 GT PUSH1 0x1 EQ PUSH2 0xB52 JUMPI PUSH2 0x92F SWAP3 SWAP2 PUSH1 0x0 SWAP2 DUP4 PUSH2 0xB47 JUMPI JUMPDEST POP POP DUP2 PUSH1 0x1 SHL SWAP2 PUSH1 0x0 NOT SWAP1 PUSH1 0x3 SHL SHR NOT AND OR SWAP1 JUMP JUMPDEST DUP4 SSTORE JUMPDEST PUSH1 0x1 DUP4 ADD SWAP2 MLOAD SWAP1 PUSH9 0x10000000000000000 DUP3 GT PUSH2 0x497 JUMPI DUP3 SLOAD DUP3 DUP5 SSTORE DUP1 DUP4 LT PUSH2 0xAC9 JUMPI JUMPDEST POP SWAP2 PUSH1 0x0 MSTORE PUSH1 0x20 PUSH1 0x0 KECCAK256 SWAP2 PUSH1 0x0 SWAP1 JUMPDEST DUP3 DUP3 LT PUSH2 0x9B0 JUMPI POP POP POP POP PUSH1 0x2 ADD SWAP1 PUSH1 0xFF NOT DUP3 SLOAD AND OR SWAP1 SSTORE PUSH2 0x987 DUP2 SLOAD PUSH2 0x11C4 JUMP JUMPDEST SWAP1 SSTORE PUSH32 0xE5AC7A6F7F975D3D3BA41ACAFAD3ABF1430692BE1442C6BDE74A8AE06B385355 PUSH1 0x0 DUP1 LOG3 STOP JUMPDEST DUP1 MLOAD DUP1 MLOAD SWAP1 PUSH8 0xFFFFFFFFFFFFFFFF DUP3 GT PUSH2 0x497 JUMPI PUSH2 0x9CE DUP7 SLOAD PUSH2 0x1173 JUMP JUMPDEST PUSH1 0x1F DUP2 GT PUSH2 0xA97 JUMPI JUMPDEST POP PUSH1 0x20 SWAP1 PUSH1 0x1F DUP4 GT PUSH1 0x1 EQ PUSH2 0xA2A JUMPI SWAP3 PUSH2 0xA10 DUP4 PUSH1 0x1 SWAP6 SWAP5 PUSH1 0x20 SWAP5 DUP8 SWAP7 PUSH1 0x0 SWAP3 PUSH2 0xA1F JUMPI POP POP DUP2 PUSH1 0x1 SHL SWAP2 PUSH1 0x0 NOT SWAP1 PUSH1 0x3 SHL SHR NOT AND OR SWAP1 JUMP JUMPDEST DUP8 SSTORE JUMPDEST ADD SWAP5 ADD SWAP2 ADD SWAP1 SWAP3 PUSH2 0x965 JUMP JUMPDEST ADD MLOAD SWAP1 POP DUP16 DUP1 PUSH2 0x91A JUMP JUMPDEST SWAP1 PUSH1 0x1F NOT DUP4 AND SWAP2 DUP8 PUSH1 0x0 MSTORE DUP2 PUSH1 0x0 KECCAK256 SWAP3 PUSH1 0x0 JUMPDEST DUP2 DUP2 LT PUSH2 0xA7F JUMPI POP SWAP4 PUSH1 0x20 SWAP4 PUSH1 0x1 SWAP7 SWAP4 DUP8 SWAP7 SWAP4 DUP4 DUP9 SWAP6 LT PUSH2 0xA66 JUMPI JUMPDEST POP POP POP DUP2 SHL ADD DUP8 SSTORE PUSH2 0xA13 JUMP JUMPDEST ADD MLOAD PUSH1 0x0 NOT PUSH1 0xF8 DUP5 PUSH1 0x3 SHL AND SHR NOT AND SWAP1 SSTORE DUP15 DUP1 DUP1 PUSH2 0xA59 JUMP JUMPDEST SWAP3 SWAP4 PUSH1 0x20 PUSH1 0x1 DUP2 SWAP3 DUP8 DUP7 ADD MLOAD DUP2 SSTORE ADD SWAP6 ADD SWAP4 ADD PUSH2 0xA3D JUMP JUMPDEST PUSH2 0xAC3 SWAP1 DUP8 PUSH1 0x0 MSTORE PUSH1 0x20 PUSH1 0x0 KECCAK256 PUSH1 0x1F DUP6 ADD PUSH1 0x5 SHR DUP2 ADD SWAP2 PUSH1 0x20 DUP7 LT PUSH2 0x48D JUMPI PUSH1 0x1F ADD PUSH1 0x5 SHR ADD SWAP1 PUSH2 0x11AD JUMP JUMPDEST DUP12 PUSH2 0x9D7 JUMP JUMPDEST DUP4 PUSH1 0x0 MSTORE DUP3 PUSH1 0x20 PUSH1 0x0 KECCAK256 SWAP2 DUP3 ADD SWAP2 ADD JUMPDEST DUP2 DUP2 LT PUSH2 0xAE6 JUMPI POP PUSH2 0x956 JUMP JUMPDEST DUP1 PUSH2 0xAF3 PUSH1 0x1 SWAP3 SLOAD PUSH2 0x1173 JUMP JUMPDEST DUP1 PUSH2 0xB00 JUMPI JUMPDEST POP ADD PUSH2 0xAD9 JUMP JUMPDEST PUSH1 0x1F DUP2 GT DUP4 EQ PUSH2 0xB16 JUMPI POP PUSH1 0x0 DUP2 SSTORE JUMPDEST DUP12 PUSH2 0xAF9 JUMP JUMPDEST PUSH2 0xB34 SWAP1 DUP3 PUSH1 0x0 MSTORE DUP4 PUSH1 0x1F PUSH1 0x20 PUSH1 0x0 KECCAK256 SWAP3 ADD PUSH1 0x5 SHR DUP3 ADD SWAP2 ADD PUSH2 0x11AD JUMP JUMPDEST DUP1 PUSH1 0x0 MSTORE PUSH1 0x0 PUSH1 0x20 DUP2 KECCAK256 DUP2 DUP4 SSTORE SSTORE PUSH2 0xB10 JUMP JUMPDEST ADD MLOAD SWAP1 POP DUP11 DUP1 PUSH2 0x91A JUMP JUMPDEST SWAP1 PUSH1 0x1F NOT DUP4 AND SWAP2 DUP7 PUSH1 0x0 MSTORE DUP2 PUSH1 0x0 KECCAK256 SWAP3 PUSH1 0x0 JUMPDEST DUP2 DUP2 LT PUSH2 0xBA1 JUMPI POP SWAP1 DUP5 PUSH1 0x1 SWAP6 SWAP5 SWAP4 SWAP3 LT PUSH2 0xB88 JUMPI JUMPDEST POP POP POP DUP2 SHL ADD DUP4 SSTORE PUSH2 0x932 JUMP JUMPDEST ADD MLOAD PUSH1 0x0 NOT PUSH1 0xF8 DUP5 PUSH1 0x3 SHL AND SHR NOT AND SWAP1 SSTORE DUP10 DUP1 DUP1 PUSH2 0xB7B JUMP JUMPDEST SWAP3 SWAP4 PUSH1 0x20 PUSH1 0x1 DUP2 SWAP3 DUP8 DUP7 ADD MLOAD DUP2 SSTORE ADD SWAP6 ADD SWAP4 ADD PUSH2 0xB65 JUMP JUMPDEST PUSH2 0xBE5 SWAP1 DUP7 PUSH1 0x0 MSTORE PUSH1 0x20 PUSH1 0x0 KECCAK256 PUSH1 0x1F DUP6 ADD PUSH1 0x5 SHR DUP2 ADD SWAP2 PUSH1 0x20 DUP7 LT PUSH2 0x48D JUMPI PUSH1 0x1F ADD PUSH1 0x5 SHR ADD SWAP1 PUSH2 0x11AD JUMP JUMPDEST DUP10 PUSH2 0x8FD JUMP JUMPDEST PUSH1 0x40 MLOAD PUSH3 0x461BCD PUSH1 0xE5 SHL DUP2 MSTORE PUSH1 0x20 PUSH1 0x4 DUP3 ADD MSTORE PUSH1 0x2F PUSH1 0x24 DUP3 ADD MSTORE PUSH32 0x5175697A4372656174696F6E46616365743A20496E76616C696420636F727265 PUSH1 0x44 DUP3 ADD MSTORE PUSH15 0xC6E840C2DCE6EECAE440D2DCC8CAF PUSH1 0x8B SHL PUSH1 0x64 DUP3 ADD MSTORE PUSH1 0x84 SWAP1 REVERT JUMPDEST PUSH1 0x40 MLOAD PUSH3 0x461BCD PUSH1 0xE5 SHL DUP2 MSTORE PUSH1 0x20 PUSH1 0x4 DUP3 ADD MSTORE PUSH1 0x34 PUSH1 0x24 DUP3 ADD MSTORE PUSH32 0x5175697A4372656174696F6E46616365743A204D7573742070726F7669646520 PUSH1 0x44 DUP3 ADD MSTORE PUSH20 0x6174206C656173742074776F206F7074696F6E73 PUSH1 0x60 SHL PUSH1 0x64 DUP3 ADD MSTORE PUSH1 0x84 SWAP1 REVERT JUMPDEST PUSH1 0x40 MLOAD PUSH3 0x461BCD PUSH1 0xE5 SHL DUP2 MSTORE PUSH1 0x20 PUSH1 0x4 DUP3 ADD MSTORE PUSH1 0x39 PUSH1 0x24 DUP3 ADD MSTORE PUSH32 0x5175697A4372656174696F6E46616365743A2043616E6E6F7420616464207175 PUSH1 0x44 DUP3 ADD MSTORE PUSH32 0x657374696F6E7320746F20616E20616374697665207175697A00000000000000 PUSH1 0x64 DUP3 ADD MSTORE PUSH1 0x84 SWAP1 REVERT JUMPDEST PUSH1 0x40 MLOAD PUSH3 0x461BCD PUSH1 0xE5 SHL DUP2 MSTORE PUSH1 0x20 PUSH1 0x4 DUP3 ADD MSTORE PUSH1 0x38 PUSH1 0x24 DUP3 ADD MSTORE PUSH32 0x5175697A4372656174696F6E46616365743A204D757374206265207175697A20 PUSH1 0x44 DUP3 ADD MSTORE PUSH32 0x63726561746F7220746F20616464207175657374696F6E730000000000000000 PUSH1 0x64 DUP3 ADD MSTORE PUSH1 0x84 SWAP1 REVERT JUMPDEST PUSH2 0xD99 SWAP2 POP PUSH1 0x20 RETURNDATASIZE PUSH1 0x20 GT PUSH2 0x20C JUMPI PUSH2 0x1FE DUP2 DUP4 PUSH2 0xFDC JUMP JUMPDEST DUP8 PUSH2 0xA8 JUMP JUMPDEST DUP4 CALLDATALOAD PUSH8 0xFFFFFFFFFFFFFFFF DUP2 GT PUSH2 0x21F JUMPI PUSH1 0x20 SWAP2 PUSH2 0xDC4 DUP4 SWAP3 PUSH1 0x24 CALLDATASIZE SWAP2 DUP8 ADD ADD PUSH2 0xFFE JUMP JUMPDEST DUP2 MSTORE ADD SWAP4 ADD SWAP3 PUSH2 0x7ED JUMP JUMPDEST CALLVALUE PUSH2 0x21F JUMPI PUSH1 0x20 CALLDATASIZE PUSH1 0x3 NOT ADD SLT PUSH2 0x21F JUMPI PUSH1 0x4 CALLDATALOAD SWAP1 PUSH4 0x8DA5CB5B PUSH1 0xE0 SHL DUP2 MSTORE PUSH1 0x20 DUP2 PUSH1 0x4 DUP2 ADDRESS GAS STATICCALL DUP1 ISZERO PUSH2 0x213 JUMPI PUSH2 0xE19 SWAP2 PUSH1 0x0 SWAP2 PUSH2 0xFBD JUMPI POP PUSH1 0x1 PUSH1 0x1 PUSH1 0xA0 SHL SUB AND CALLER EQ PUSH2 0x10CD JUMP JUMPDEST PUSH1 0x0 DUP2 DUP2 MSTORE PUSH1 0x0 DUP1 MLOAD PUSH1 0x20 PUSH2 0x12AE DUP4 CODECOPY DUP2 MLOAD SWAP2 MSTORE PUSH1 0x20 MSTORE PUSH1 0x40 SWAP1 KECCAK256 PUSH1 0x1 DUP2 ADD SLOAD PUSH1 0x1 PUSH1 0x1 PUSH1 0xA0 SHL SUB AND PUSH2 0xE4D DUP2 ISZERO ISZERO PUSH2 0x1118 JUMP JUMPDEST CALLER SUB PUSH2 0xF5C JUMPI PUSH1 0x3 DUP2 ADD SLOAD ISZERO PUSH2 0xEF1 JUMPI PUSH1 0x5 ADD DUP1 SLOAD PUSH1 0xFF DUP2 AND PUSH2 0xE9A JUMPI PUSH1 0xFF NOT AND PUSH1 0x1 OR SWAP1 SSTORE PUSH32 0xD927163946A94E1193F89F6CB09E568D717078D3A2BAE542BE56519E95C73C93 PUSH1 0x0 DUP1 LOG2 STOP JUMPDEST PUSH1 0x40 MLOAD PUSH3 0x461BCD PUSH1 0xE5 SHL DUP2 MSTORE PUSH1 0x20 PUSH1 0x4 DUP3 ADD MSTORE PUSH1 0x29 PUSH1 0x24 DUP3 ADD MSTORE PUSH32 0x5175697A4372656174696F6E46616365743A205175697A20697320616C726561 PUSH1 0x44 DUP3 ADD MSTORE PUSH9 0x647920616374697665 PUSH1 0xB8 SHL PUSH1 0x64 DUP3 ADD MSTORE PUSH1 0x84 SWAP1 REVERT JUMPDEST PUSH1 0x40 MLOAD PUSH3 0x461BCD PUSH1 0xE5 SHL DUP2 MSTORE PUSH1 0x20 PUSH1 0x4 DUP3 ADD MSTORE PUSH1 0x3B PUSH1 0x24 DUP3 ADD MSTORE PUSH32 0x5175697A4372656174696F6E46616365743A2043616E6E6F7420616374697661 PUSH1 0x44 DUP3 ADD MSTORE PUSH32 0x74652061207175697A2077697468206E6F207175657374696F6E730000000000 PUSH1 0x64 DUP3 ADD MSTORE PUSH1 0x84 SWAP1 REVERT JUMPDEST PUSH1 0x40 MLOAD PUSH3 0x461BCD PUSH1 0xE5 SHL DUP2 MSTORE PUSH1 0x20 PUSH1 0x4 DUP3 ADD MSTORE PUSH1 0x33 PUSH1 0x24 DUP3 ADD MSTORE PUSH32 0x5175697A4372656174696F6E46616365743A204D757374206265207175697A20 PUSH1 0x44 DUP3 ADD MSTORE PUSH19 0x63726561746F7220746F206163746976617465 PUSH1 0x68 SHL PUSH1 0x64 DUP3 ADD MSTORE PUSH1 0x84 SWAP1 REVERT JUMPDEST PUSH2 0xFD6 SWAP2 POP PUSH1 0x20 RETURNDATASIZE PUSH1 0x20 GT PUSH2 0x20C JUMPI PUSH2 0x1FE DUP2 DUP4 PUSH2 0xFDC JUMP JUMPDEST DUP4 PUSH2 0xA8 JUMP JUMPDEST SWAP1 PUSH1 0x1F DUP1 NOT SWAP2 ADD AND DUP2 ADD SWAP1 DUP2 LT PUSH8 0xFFFFFFFFFFFFFFFF DUP3 GT OR PUSH2 0x497 JUMPI PUSH1 0x40 MSTORE JUMP JUMPDEST DUP2 PUSH1 0x1F DUP3 ADD SLT ISZERO PUSH2 0x21F JUMPI DUP1 CALLDATALOAD SWAP1 PUSH8 0xFFFFFFFFFFFFFFFF DUP3 GT PUSH2 0x497 JUMPI PUSH1 0x40 MLOAD SWAP3 PUSH2 0x1033 PUSH1 0x1F DUP5 ADD PUSH1 0x1F NOT AND PUSH1 0x20 ADD DUP6 PUSH2 0xFDC JUMP JUMPDEST DUP3 DUP5 MSTORE PUSH1 0x20 DUP4 DUP4 ADD ADD GT PUSH2 0x21F JUMPI DUP2 PUSH1 0x0 SWAP3 PUSH1 0x20 DUP1 SWAP4 ADD DUP4 DUP7 ADD CALLDATACOPY DUP4 ADD ADD MSTORE SWAP1 JUMP JUMPDEST PUSH8 0xFFFFFFFFFFFFFFFF DUP2 GT PUSH2 0x497 JUMPI PUSH1 0x5 SHL PUSH1 0x20 ADD SWAP1 JUMP JUMPDEST SWAP2 SWAP1 DUP3 MLOAD SWAP3 DUP4 DUP3 MSTORE PUSH1 0x0 JUMPDEST DUP5 DUP2 LT PUSH2 0x1099 JUMPI POP POP DUP3 PUSH1 0x0 PUSH1 0x20 DUP1 SWAP5 SWAP6 DUP5 ADD ADD MSTORE PUSH1 0x1F DUP1 NOT SWAP2 ADD AND ADD ADD SWAP1 JUMP JUMPDEST DUP1 PUSH1 0x20 DUP1 SWAP3 DUP5 ADD ADD MLOAD DUP3 DUP3 DUP7 ADD ADD MSTORE ADD PUSH2 0x1078 JUMP JUMPDEST SWAP1 DUP2 PUSH1 0x20 SWAP2 SUB SLT PUSH2 0x21F JUMPI MLOAD PUSH1 0x1 PUSH1 0x1 PUSH1 0xA0 SHL SUB DUP2 AND DUP2 SUB PUSH2 0x21F JUMPI SWAP1 JUMP JUMPDEST ISZERO PUSH2 0x10D4 JUMPI JUMP JUMPDEST PUSH1 0x64 PUSH1 0x40 MLOAD PUSH3 0x461BCD PUSH1 0xE5 SHL DUP2 MSTORE PUSH1 0x20 PUSH1 0x4 DUP3 ADD MSTORE PUSH1 0x20 PUSH1 0x24 DUP3 ADD MSTORE PUSH32 0x5175697A4372656174696F6E46616365743A204D757374206265206F776E6572 PUSH1 0x44 DUP3 ADD MSTORE REVERT JUMPDEST ISZERO PUSH2 0x111F JUMPI JUMP JUMPDEST PUSH1 0x40 MLOAD PUSH3 0x461BCD PUSH1 0xE5 SHL DUP2 MSTORE PUSH1 0x20 PUSH1 0x4 DUP3 ADD MSTORE PUSH1 0x26 PUSH1 0x24 DUP3 ADD MSTORE PUSH32 0x5175697A4372656174696F6E46616365743A205175697A20646F6573206E6F74 PUSH1 0x44 DUP3 ADD MSTORE PUSH6 0x8195E1A5CDD PUSH1 0xD2 SHL PUSH1 0x64 DUP3 ADD MSTORE PUSH1 0x84 SWAP1 REVERT JUMPDEST SWAP1 PUSH1 0x1 DUP3 DUP2 SHR SWAP3 AND DUP1 ISZERO PUSH2 0x11A3 JUMPI JUMPDEST PUSH1 0x20 DUP4 LT EQ PUSH2 0x118D JUMPI JUMP JUMPDEST PUSH4 0x4E487B71 PUSH1 0xE0 SHL PUSH1 0x0 MSTORE PUSH1 0x22 PUSH1 0x4 MSTORE PUSH1 0x24 PUSH1 0x0 REVERT JUMPDEST SWAP2 PUSH1 0x7F AND SWAP2 PUSH2 0x1182 JUMP JUMPDEST DUP2 DUP2 LT PUSH2 0x11B8 JUMPI POP POP JUMP JUMPDEST PUSH1 0x0 DUP2 SSTORE PUSH1 0x1 ADD PUSH2 0x11AD JUMP JUMPDEST PUSH1 0x0 NOT DUP2 EQ PUSH2 0x11D3 JUMPI PUSH1 0x1 ADD SWAP1 JUMP JUMPDEST PUSH4 0x4E487B71 PUSH1 0xE0 SHL PUSH1 0x0 MSTORE PUSH1 0x11 PUSH1 0x4 MSTORE PUSH1 0x24 PUSH1 0x0 REVERT JUMPDEST SWAP1 PUSH1 0x40 MLOAD SWAP2 DUP3 PUSH1 0x0 DUP3 SLOAD SWAP3 PUSH2 0x11FD DUP5 PUSH2 0x1173 JUMP JUMPDEST DUP1 DUP5 MSTORE SWAP4 PUSH1 0x1 DUP2 AND SWAP1 DUP2 ISZERO PUSH2 0x126B JUMPI POP PUSH1 0x1 EQ PUSH2 0x1224 JUMPI JUMPDEST POP PUSH2 0x1222 SWAP3 POP SUB DUP4 PUSH2 0xFDC JUMP JUMPDEST JUMP JUMPDEST SWAP1 POP PUSH1 0x0 SWAP3 SWAP2 SWAP3 MSTORE PUSH1 0x20 PUSH1 0x0 KECCAK256 SWAP1 PUSH1 0x0 SWAP2 JUMPDEST DUP2 DUP4 LT PUSH2 0x124F JUMPI POP POP SWAP1 PUSH1 0x20 PUSH2 0x1222 SWAP3 DUP3 ADD ADD CODESIZE PUSH2 0x1215 JUMP JUMPDEST PUSH1 0x20 SWAP2 SWAP4 POP DUP1 PUSH1 0x1 SWAP2 SLOAD DUP4 DUP6 DUP10 ADD ADD MSTORE ADD SWAP2 ADD SWAP1 SWAP2 DUP5 SWAP3 PUSH2 0x1236 JUMP JUMPDEST SWAP1 POP PUSH1 0x20 SWAP3 POP PUSH2 0x1222 SWAP5 SWAP2 POP PUSH1 0xFF NOT AND DUP3 DUP5 ADD MSTORE ISZERO ISZERO PUSH1 0x5 SHL DUP3 ADD ADD CODESIZE PUSH2 0x1215 JUMP INVALID DELEGATECALL DUP10 BLOBBASEFEE 0xE4 SELFDESTRUCT 0x1F XOR 0xEE PUSH19 0x704A0E70403D75AD904F1EAFEB350B7EA3349C DUP14 STOP CALLCODE PREVRANDAO DELEGATECALL DUP10 BLOBBASEFEE 0xE4 SELFDESTRUCT 0x1F XOR 0xEE PUSH19 0x704A0E70403D75AD904F1EAFEB350B7EA3349C DUP14 STOP CALLCODE GASLIMIT LOG2 PUSH5 0x6970667358 0x22 SLT KECCAK256 0xFC PUSH5 0xBC2A64D9BC 0xB5 GASLIMIT 0xDB 0xCF 0xC1 0x4B 0x2B 0xCC 0xBF 0x2A PUSH3 0x411429 BALANCE BASEFEE CALLVALUE DUP9 SWAP14 0x4F 0xDA RETURNDATACOPY EXTCODECOPY 0xE6 0x25 PUSH5 0x736F6C6343 STOP ADDMOD SHR STOP CALLER "},"methodIdentifiers":{"activateQuiz(uint256)":"403861a1","addQuestion(uint256,string,string[],uint8)":"74f68479","createQuiz(string,uint256,uint256)":"d8187d05","deactivateQuiz(uint256)":"fcfad249","getQuestion(uint256,uint256)":"bc6d8094","getQuiz(uint256)":"a3f7e096","getTotalQuizzes()":"89fb620d"}},"storageLayout":{"storage":[],"types":null}}}}