{"contracts/facets/QuizGameRewardFacet.sol":{"QuizGameRewardFacet":{"abi":[{"inputs":[{"internalType":"uint256","name":"_difficultyLevel","type":"uint256"}],"name":"calculateCurrentReward","outputs":[{"internalType":"uint256","name":"","type":"uint256"}],"stateMutability":"view","type":"function"}],"evm":{"bytecode":{"linkReferences":{},"object":"60808060405234601557610243908161001b8239f35b600080fdfe6080604052600436101561001257600080fd5b60003560e01c634bd546501461002757600080fd5b3461004d57602036600319011261004d576020610045600435610052565b604051908152f35b600080fd5b606481146101e7576001811015806101dc575b1561017a577f4f2f104a7ea12e35172792673c68fe1423b90b4f6b86a6c5f5a9a85bd565202854818102918183041490151715610164577f4f2f104a7ea12e35172792673c68fe1423b90b4f6b86a6c5f5a9a85bd565202d544203428111610164577f4f2f104a7ea12e35172792673c68fe1423b90b4f6b86a6c5f5a9a85bd565202a54801561014e57606391049104906000907f4f2f104a7ea12e35172792673c68fe1423b90b4f6b86a6c5f5a9a85bd565202b545b81831061012a575b50505090565b90919260011c9281841061014257600101919061011c565b50915050388080610124565b634e487b7160e01b600052601260045260246000fd5b634e487b7160e01b600052601160045260246000fd5b60405162461bcd60e51b815260206004820152603460248201527f5175697a3a20496e76616c6964207175657374696f6e206c6576656c20666f72604482015273103430b63b34b7339031b0b631bab630ba34b7b760611b6064820152608490fd5b506063811115610065565b507f4f2f104a7ea12e35172792673c68fe1423b90b4f6b86a6c5f5a9a85bd5652029549056fea2646970667358221220a09ad5d76047e22af3d0212c08e2525b6a34f14d22fbb5dccd12080b04c56b8264736f6c634300081c0033","opcodes":"PUSH1 0x80 DUP1 PUSH1 0x40 MSTORE CALLVALUE PUSH1 0x15 JUMPI PUSH2 0x243 SWAP1 DUP2 PUSH2 0x1B DUP3 CODECOPY RETURN JUMPDEST PUSH1 0x0 DUP1 REVERT INVALID PUSH1 0x80 PUSH1 0x40 MSTORE PUSH1 0x4 CALLDATASIZE LT ISZERO PUSH2 0x12 JUMPI PUSH1 0x0 DUP1 REVERT JUMPDEST PUSH1 0x0 CALLDATALOAD PUSH1 0xE0 SHR PUSH4 0x4BD54650 EQ PUSH2 0x27 JUMPI PUSH1 0x0 DUP1 REVERT JUMPDEST CALLVALUE PUSH2 0x4D JUMPI PUSH1 0x20 CALLDATASIZE PUSH1 0x3 NOT ADD SLT PUSH2 0x4D JUMPI PUSH1 0x20 PUSH2 0x45 PUSH1 0x4 CALLDATALOAD PUSH2 0x52 JUMP JUMPDEST PUSH1 0x40 MLOAD SWAP1 DUP2 MSTORE RETURN JUMPDEST PUSH1 0x0 DUP1 REVERT JUMPDEST PUSH1 0x64 DUP2 EQ PUSH2 0x1E7 JUMPI PUSH1 0x1 DUP2 LT ISZERO DUP1 PUSH2 0x1DC JUMPI JUMPDEST ISZERO PUSH2 0x17A JUMPI PUSH32 0x4F2F104A7EA12E35172792673C68FE1423B90B4F6B86A6C5F5A9A85BD5652028 SLOAD DUP2 DUP2 MUL SWAP2 DUP2 DUP4 DIV EQ SWAP1 ISZERO OR ISZERO PUSH2 0x164 JUMPI PUSH32 0x4F2F104A7EA12E35172792673C68FE1423B90B4F6B86A6C5F5A9A85BD565202D SLOAD TIMESTAMP SUB TIMESTAMP DUP2 GT PUSH2 0x164 JUMPI PUSH32 0x4F2F104A7EA12E35172792673C68FE1423B90B4F6B86A6C5F5A9A85BD565202A SLOAD DUP1 ISZERO PUSH2 0x14E JUMPI PUSH1 0x63 SWAP2 DIV SWAP2 DIV SWAP1 PUSH1 0x0 SWAP1 PUSH32 0x4F2F104A7EA12E35172792673C68FE1423B90B4F6B86A6C5F5A9A85BD565202B SLOAD JUMPDEST DUP2 DUP4 LT PUSH2 0x12A JUMPI JUMPDEST POP POP POP SWAP1 JUMP JUMPDEST SWAP1 SWAP2 SWAP3 PUSH1 0x1 SHR SWAP3 DUP2 DUP5 LT PUSH2 0x142 JUMPI PUSH1 0x1 ADD SWAP2 SWAP1 PUSH2 0x11C JUMP JUMPDEST POP SWAP2 POP POP CODESIZE DUP1 DUP1 PUSH2 0x124 JUMP JUMPDEST PUSH4 0x4E487B71 PUSH1 0xE0 SHL PUSH1 0x0 MSTORE PUSH1 0x12 PUSH1 0x4 MSTORE PUSH1 0x24 PUSH1 0x0 REVERT JUMPDEST PUSH4 0x4E487B71 PUSH1 0xE0 SHL PUSH1 0x0 MSTORE PUSH1 0x11 PUSH1 0x4 MSTORE PUSH1 0x24 PUSH1 0x0 REVERT JUMPDEST PUSH1 0x40 MLOAD PUSH3 0x461BCD PUSH1 0xE5 SHL DUP2 MSTORE PUSH1 0x20 PUSH1 0x4 DUP3 ADD MSTORE PUSH1 0x34 PUSH1 0x24 DUP3 ADD MSTORE PUSH32 0x5175697A3A20496E76616C6964207175657374696F6E206C6576656C20666F72 PUSH1 0x44 DUP3 ADD MSTORE PUSH20 0x103430B63B34B7339031B0B631BAB630BA34B7B7 PUSH1 0x61 SHL PUSH1 0x64 DUP3 ADD MSTORE PUSH1 0x84 SWAP1 REVERT JUMPDEST POP PUSH1 0x63 DUP2 GT ISZERO PUSH2 0x65 JUMP JUMPDEST POP PUSH32 0x4F2F104A7EA12E35172792673C68FE1423B90B4F6B86A6C5F5A9A85BD5652029 SLOAD SWAP1 JUMP INVALID LOG2 PUSH5 0x6970667358 0x22 SLT KECCAK256 LOG0 SWAP11 0xD5 0xD7 PUSH1 0x47 0xE2 0x2A RETURN 0xD0 0x21 0x2C ADDMOD 0xE2 MSTORE JUMPDEST PUSH11 0x34F14D22FBB5DCCD12080B DIV 0xC5 PUSH12 0x8264736F6C634300081C0033 "},"methodIdentifiers":{"calculateCurrentReward(uint256)":"4bd54650"}},"storageLayout":{"storage":[],"types":null}}}}