{"contracts/facets/QuizGameBaseFacet.sol":{"QuizGameBaseFacet":{"abi":[{"anonymous":false,"inputs":[{"indexed":true,"internalType":"uint256","name":"questionId","type":"uint256"},{"indexed":true,"internalType":"address","name":"solver","type":"address"},{"indexed":false,"internalType":"bytes32","name":"submittedAnswerHash","type":"bytes32"},{"indexed":false,"internalType":"bool","name":"isCorrect","type":"bool"}],"name":"AnswerSubmitted","type":"event"},{"anonymous":false,"inputs":[{"indexed":true,"internalType":"uint256","name":"questionId","type":"uint256"},{"indexed":true,"internalType":"address","name":"buyer","type":"address"},{"indexed":false,"internalType":"uint256","name":"cost","type":"uint256"}],"name":"HintPurchased","type":"event"},{"anonymous":false,"inputs":[{"indexed":true,"internalType":"uint256","name":"questionId","type":"uint256"},{"indexed":true,"internalType":"bytes32","name":"answerLeaf","type":"bytes32"}],"name":"LeafRegistered","type":"event"},{"anonymous":false,"inputs":[{"indexed":true,"internalType":"uint256","name":"questionId","type":"uint256"},{"indexed":true,"internalType":"bytes32","name":"answerLeaf","type":"bytes32"},{"indexed":true,"internalType":"address","name":"solver","type":"address"},{"indexed":false,"internalType":"uint256","name":"rewardAmount","type":"uint256"}],"name":"LeafSolved","type":"event"},{"anonymous":false,"inputs":[{"indexed":true,"internalType":"address","name":"player","type":"address"},{"indexed":true,"internalType":"uint256","name":"quizId","type":"uint256"}],"name":"PlayerJoinedQuiz","type":"event"},{"anonymous":false,"inputs":[{"indexed":false,"internalType":"address","name":"oldAddress","type":"address"},{"indexed":false,"internalType":"address","name":"newAddress","type":"address"}],"name":"PoolManagerAddressUpdated","type":"event"},{"anonymous":false,"inputs":[{"indexed":true,"internalType":"uint256","name":"questionId","type":"uint256"},{"indexed":true,"internalType":"address","name":"activator","type":"address"}],"name":"QuestionActivatedFromBank","type":"event"},{"anonymous":false,"inputs":[{"indexed":true,"internalType":"uint256","name":"questionId","type":"uint256"}],"name":"QuestionClosed","type":"event"},{"anonymous":false,"inputs":[{"indexed":true,"internalType":"uint256","name":"questionId","type":"uint256"},{"indexed":true,"internalType":"address","name":"creator","type":"address"},{"indexed":false,"internalType":"uint256","name":"difficultyLevel","type":"uint256"},{"indexed":false,"internalType":"uint256","name":"baseRewardAmount","type":"uint256"}],"name":"QuestionCreated","type":"event"},{"anonymous":false,"inputs":[{"indexed":true,"internalType":"uint256","name":"questionId","type":"uint256"},{"indexed":false,"internalType":"uint256","name":"startTime","type":"uint256"}],"name":"QuestionRewardWindowStarted","type":"event"},{"anonymous":false,"inputs":[{"indexed":true,"internalType":"address","name":"player","type":"address"},{"indexed":true,"internalType":"uint256","name":"quizId","type":"uint256"},{"indexed":true,"internalType":"uint256","name":"questionIndex","type":"uint256"},{"indexed":false,"internalType":"uint8","name":"submittedAnswerIndex","type":"uint8"},{"indexed":false,"internalType":"bool","name":"isCorrect","type":"bool"}],"name":"QuizAnswerSubmitted","type":"event"},{"anonymous":false,"inputs":[{"indexed":false,"internalType":"address","name":"oldAddress","type":"address"},{"indexed":false,"internalType":"address","name":"newAddress","type":"address"}],"name":"QuizCoinAddressUpdated","type":"event"},{"anonymous":false,"inputs":[{"indexed":true,"internalType":"address","name":"creator","type":"address"},{"indexed":true,"internalType":"uint256","name":"quizId","type":"uint256"},{"indexed":false,"internalType":"uint256","name":"rewardAmount","type":"uint256"},{"indexed":false,"internalType":"uint256","name":"totalQuestions","type":"uint256"}],"name":"QuizCreated","type":"event"},{"anonymous":false,"inputs":[{"indexed":true,"internalType":"uint256","name":"questionId","type":"uint256"},{"indexed":true,"internalType":"address","name":"solver","type":"address"},{"indexed":false,"internalType":"uint256","name":"rewardAmount","type":"uint256"}],"name":"RewardDistributed","type":"event"},{"inputs":[],"name":"CREATOR_ROLE","outputs":[{"internalType":"bytes32","name":"","type":"bytes32"}],"stateMutability":"view","type":"function"},{"inputs":[],"name":"DEFAULT_ADMIN_ROLE","outputs":[{"internalType":"bytes32","name":"","type":"bytes32"}],"stateMutability":"view","type":"function"},{"inputs":[],"name":"REWARD_DISTRIBUTOR_ROLE","outputs":[{"internalType":"bytes32","name":"","type":"bytes32"}],"stateMutability":"view","type":"function"},{"inputs":[],"name":"getBaseRewardForLevel99","outputs":[{"internalType":"uint256","name":"","type":"uint256"}],"stateMutability":"view","type":"function"},{"inputs":[],"name":"getGameStartTimestamp","outputs":[{"internalType":"uint256","name":"","type":"uint256"}],"stateMutability":"view","type":"function"},{"inputs":[],"name":"getHalvingPeriodSeconds","outputs":[{"internalType":"uint256","name":"","type":"uint256"}],"stateMutability":"view","type":"function"},{"inputs":[],"name":"getLevel100QuestionValiditySeconds","outputs":[{"internalType":"uint256","name":"","type":"uint256"}],"stateMutability":"view","type":"function"},{"inputs":[],"name":"getMinRewardAfterHalving","outputs":[{"internalType":"uint256","name":"","type":"uint256"}],"stateMutability":"view","type":"function"},{"inputs":[],"name":"getNextQuestionId","outputs":[{"internalType":"uint256","name":"","type":"uint256"}],"stateMutability":"view","type":"function"},{"inputs":[],"name":"getPoolManagerAddress","outputs":[{"internalType":"address","name":"","type":"address"}],"stateMutability":"view","type":"function"},{"inputs":[],"name":"getPoolRewardWindowDuration","outputs":[{"internalType":"uint256","name":"","type":"uint256"}],"stateMutability":"view","type":"function"},{"inputs":[{"internalType":"uint256","name":"_questionId","type":"uint256"}],"name":"getQuestion","outputs":[{"internalType":"bytes32","name":"correctAnswerHash","type":"bytes32"},{"internalType":"bytes32","name":"hintHash","type":"bytes32"},{"internalType":"address","name":"questionCreator","type":"address"},{"internalType":"uint256","name":"difficultyLevel","type":"uint256"},{"internalType":"uint256","name":"baseRewardAmount","type":"uint256"},{"internalType":"bool","name":"isClosed","type":"bool"},{"internalType":"enum LibAppStorage.QuestionMode","name":"mode","type":"uint8"},{"internalType":"uint256","name":"blockCreationTime","type":"uint256"},{"internalType":"uint256","name":"firstCorrectAnswerTime","type":"uint256"},{"internalType":"address","name":"firstSolverAddress","type":"address"},{"internalType":"address[]","name":"poolCorrectSolvers","type":"address[]"}],"stateMutability":"view","type":"function"},{"inputs":[],"name":"getQuizCoinAddress","outputs":[{"internalType":"address","name":"","type":"address"}],"stateMutability":"view","type":"function"},{"inputs":[],"name":"getRewardForLevel100","outputs":[{"internalType":"uint256","name":"","type":"uint256"}],"stateMutability":"view","type":"function"},{"inputs":[],"name":"getTreasuryFeePercentage","outputs":[{"internalType":"uint256","name":"","type":"uint256"}],"stateMutability":"view","type":"function"},{"inputs":[{"internalType":"bytes32","name":"role","type":"bytes32"},{"internalType":"address","name":"account","type":"address"}],"name":"hasRole","outputs":[{"internalType":"bool","name":"","type":"bool"}],"stateMutability":"view","type":"function"},{"inputs":[],"name":"initializeQuizGame","outputs":[],"stateMutability":"nonpayable","type":"function"},{"inputs":[{"internalType":"address","name":"_newPoolManagerAddress","type":"address"}],"name":"setPoolManagerAddress","outputs":[],"stateMutability":"nonpayable","type":"function"},{"inputs":[{"internalType":"address","name":"_newQuizCoinAddress","type":"address"}],"name":"setQuizCoinAddress","outputs":[],"stateMutability":"nonpayable","type":"function"}],"evm":{"bytecode":{"linkReferences":{},"object":"60808060405234601557610d71908161001b8239f35b600080fdfe608080604052600436101561001357600080fd5b60003560e01c908163178f2e2414610be6575080631fdb946f14610ba957806332e4bb0a14610b6c5780634894e46d14610b2f578063589a7b2e14610af25780636434e22714610ab55780638176975914610a7857806382a0336914610a425780638aeda25a14610a055780638fe3d85d1461070c57806391d1485414610680578063a217fddf14610655578063a85c1de314610618578063a99b4f97146105db578063ab95b1a21461048c578063bea8628c1461044f578063c2bd69b9146102c7578063c3e037b41461028a5763db88176f146100f057600080fd5b34610285576020366003190112610285576004356000527f4f2f104a7ea12e35172792673c68fe1423b90b4f6b86a6c5f5a9a85bd5652031602052604060002060038101549060048101549160018060a01b03600583015416926006830154926007810154600882015460ff8160081c16600984015491600a85015493600c60018060a01b03600b880154169601986040519a8b9860208c549d8e8152019c8d9c60005260206000209060005b818110610260575050509060ff949392916101bc8b60209f038c610c2d565b6040519d8e61016081019d8152015260408d015260608c015260808b015216151560a0890152600281101561024a5760c088015260e08701526101008601526101208501526101606101408501525190819052829161018083019160005b818110610228575050500390f35b82516001600160a01b031684528594506020938401939092019160010161021a565b634e487b7160e01b600052602160045260246000fd5b90919e8f600160a01b6001900390541681526020019e6001019060010191909161019d565b600080fd5b346102855760003660031901126102855760207f4f2f104a7ea12e35172792673c68fe1423b90b4f6b86a6c5f5a9a85bd565202854604051908152f35b34610285576020366003190112610285576102e0610c17565b600080516020610cdc83398151915254604051632474521560e21b81526004810191909152336024820152602081604481305afa80156104435761032c91600091610414575b50610c7d565b6001600160a01b0381169081156103c157600080516020610d1c83398151915254604080516001600160a01b0392831681529290911660208301527f1c61efe681360fd4a3becb0723003e5495cba480ec9b47150b00fb57a5044e2b91a16bffffffffffffffffffffffff60a01b600080516020610d1c833981519152541617600080516020610d1c83398151915255600080f35b60405162461bcd60e51b815260206004820152602560248201527f5175697a3a205175697a436f696e20616464726573732063616e6e6f74206265604482015264207a65726f60d81b6064820152608490fd5b610436915060203d60201161043c575b61042e8183610c2d565b810190610c65565b83610326565b503d610424565b6040513d6000823e3d90fd5b346102855760003660031901126102855760207f4f2f104a7ea12e35172792673c68fe1423b90b4f6b86a6c5f5a9a85bd565202a54604051908152f35b34610285576020366003190112610285576104a5610c17565b600080516020610cdc83398151915254604051632474521560e21b81526004810191909152336024820152602081604481305afa8015610443576104f0916000916104145750610c7d565b6001600160a01b03811690811561058557600080516020610cfc83398151915254604080516001600160a01b0392831681529290911660208301527f7515b6cf68fce599fb6992850f676543b5a8ab4b13df77e0f6c308e19694dc6991a16bffffffffffffffffffffffff60a01b600080516020610cfc833981519152541617600080516020610cfc83398151915255600080f35b60405162461bcd60e51b815260206004820152602860248201527f5175697a3a20506f6f6c4d616e6167657220616464726573732063616e6e6f74604482015267206265207a65726f60c01b6064820152608490fd5b346102855760003660031901126102855760207f4f2f104a7ea12e35172792673c68fe1423b90b4f6b86a6c5f5a9a85bd565202754604051908152f35b346102855760003660031901126102855760207f4f2f104a7ea12e35172792673c68fe1423b90b4f6b86a6c5f5a9a85bd565202954604051908152f35b34610285576000366003190112610285576020600080516020610cdc83398151915254604051908152f35b34610285576040366003190112610285576024356001600160a01b038116810361028557604051632474521560e21b815260048035908201526001600160a01b03919091166024820152602081604481305afa8015610443576020916000916106ef575b506040519015158152f35b6107069150823d841161043c5761042e8183610c2d565b826106e4565b34610285576000366003190112610285577f4f2f104a7ea12e35172792673c68fe1423b90b4f6b86a6c5f5a9a85bd565202d546109c05760405163a217fddf60e01b8152602081600481305afa9081156104435760009161098e575b50600080516020610cdc833981519152557fb814ff4a26ea3ec5cd1fa579daad86324826254265f3acfec78303a19845b4497f4f2f104a7ea12e35172792673c68fe1423b90b4f6b86a6c5f5a9a85bd5652023557f828634d95e775031b9ff576b159a8509d3053581a8c9c4d7d86899e0afcd882f7f4f2f104a7ea12e35172792673c68fe1423b90b4f6b86a6c5f5a9a85bd565202455678ac7230489e800007f4f2f104a7ea12e35172792673c68fe1423b90b4f6b86a6c5f5a9a85bd56520255560b47f4f2f104a7ea12e35172792673c68fe1423b90b4f6b86a6c5f5a9a85bd565202655620151807f4f2f104a7ea12e35172792673c68fe1423b90b4f6b86a6c5f5a9a85bd56520275569010f0cf064dd592000007f4f2f104a7ea12e35172792673c68fe1423b90b4f6b86a6c5f5a9a85bd56520285569021e19e0c9bab24000007f4f2f104a7ea12e35172792673c68fe1423b90b4f6b86a6c5f5a9a85bd565202955630784ce007f4f2f104a7ea12e35172792673c68fe1423b90b4f6b86a6c5f5a9a85bd565202a5568056bc75e2d631000007f4f2f104a7ea12e35172792673c68fe1423b90b4f6b86a6c5f5a9a85bd565202b5560327f4f2f104a7ea12e35172792673c68fe1423b90b4f6b86a6c5f5a9a85bd565202c5560017f4f2f104a7ea12e35172792673c68fe1423b90b4f6b86a6c5f5a9a85bd565202e55427f4f2f104a7ea12e35172792673c68fe1423b90b4f6b86a6c5f5a9a85bd565202d55005b90506020813d6020116109b8575b816109a960209383610c2d565b81010312610285575181610768565b3d915061099c565b60405162461bcd60e51b815260206004820152601d60248201527f5175697a47616d653a20416c726561647920696e697469616c697a65640000006044820152606490fd5b346102855760003660031901126102855760207f4f2f104a7ea12e35172792673c68fe1423b90b4f6b86a6c5f5a9a85bd565202454604051908152f35b3461028557600036600319011261028557600080516020610cfc833981519152546040516001600160a01b039091168152602090f35b346102855760003660031901126102855760207f4f2f104a7ea12e35172792673c68fe1423b90b4f6b86a6c5f5a9a85bd565202654604051908152f35b346102855760003660031901126102855760207f4f2f104a7ea12e35172792673c68fe1423b90b4f6b86a6c5f5a9a85bd565202c54604051908152f35b346102855760003660031901126102855760207f4f2f104a7ea12e35172792673c68fe1423b90b4f6b86a6c5f5a9a85bd565202e54604051908152f35b346102855760003660031901126102855760207f4f2f104a7ea12e35172792673c68fe1423b90b4f6b86a6c5f5a9a85bd565202d54604051908152f35b346102855760003660031901126102855760207f4f2f104a7ea12e35172792673c68fe1423b90b4f6b86a6c5f5a9a85bd565202354604051908152f35b346102855760003660031901126102855760207f4f2f104a7ea12e35172792673c68fe1423b90b4f6b86a6c5f5a9a85bd565202b54604051908152f35b3461028557600036600319011261028557600080516020610d1c833981519152546001600160a01b03168152602090f35b600435906001600160a01b038216820361028557565b90601f8019910116810190811067ffffffffffffffff821117610c4f57604052565b634e487b7160e01b600052604160045260246000fd5b90816020910312610285575180151581036102855790565b15610c8457565b60405162461bcd60e51b815260206004820152602960248201527f416363657373436f6e74726f6c3a2043616c6c6572206973206e6f742061206760448201526830b6b29030b236b4b760b91b6064820152608490fdfe4f2f104a7ea12e35172792673c68fe1423b90b4f6b86a6c5f5a9a85bd56520224f2f104a7ea12e35172792673c68fe1423b90b4f6b86a6c5f5a9a85bd56520394f2f104a7ea12e35172792673c68fe1423b90b4f6b86a6c5f5a9a85bd565203aa2646970667358221220ec831c77efc2a513a239f44cce8ddf0d5633eca6524e7c5bb72532527ecb022364736f6c634300081c0033","opcodes":"PUSH1 0x80 DUP1 PUSH1 0x40 MSTORE CALLVALUE PUSH1 0x15 JUMPI PUSH2 0xD71 SWAP1 DUP2 PUSH2 0x1B DUP3 CODECOPY RETURN JUMPDEST PUSH1 0x0 DUP1 REVERT INVALID PUSH1 0x80 DUP1 PUSH1 0x40 MSTORE PUSH1 0x4 CALLDATASIZE LT ISZERO PUSH2 0x13 JUMPI PUSH1 0x0 DUP1 REVERT JUMPDEST PUSH1 0x0 CALLDATALOAD PUSH1 0xE0 SHR SWAP1 DUP2 PUSH4 0x178F2E24 EQ PUSH2 0xBE6 JUMPI POP DUP1 PUSH4 0x1FDB946F EQ PUSH2 0xBA9 JUMPI DUP1 PUSH4 0x32E4BB0A EQ PUSH2 0xB6C JUMPI DUP1 PUSH4 0x4894E46D EQ PUSH2 0xB2F JUMPI DUP1 PUSH4 0x589A7B2E EQ PUSH2 0xAF2 JUMPI DUP1 PUSH4 0x6434E227 EQ PUSH2 0xAB5 JUMPI DUP1 PUSH4 0x81769759 EQ PUSH2 0xA78 JUMPI DUP1 PUSH4 0x82A03369 EQ PUSH2 0xA42 JUMPI DUP1 PUSH4 0x8AEDA25A EQ PUSH2 0xA05 JUMPI DUP1 PUSH4 0x8FE3D85D EQ PUSH2 0x70C JUMPI DUP1 PUSH4 0x91D14854 EQ PUSH2 0x680 JUMPI DUP1 PUSH4 0xA217FDDF EQ PUSH2 0x655 JUMPI DUP1 PUSH4 0xA85C1DE3 EQ PUSH2 0x618 JUMPI DUP1 PUSH4 0xA99B4F97 EQ PUSH2 0x5DB JUMPI DUP1 PUSH4 0xAB95B1A2 EQ PUSH2 0x48C JUMPI DUP1 PUSH4 0xBEA8628C EQ PUSH2 0x44F JUMPI DUP1 PUSH4 0xC2BD69B9 EQ PUSH2 0x2C7 JUMPI DUP1 PUSH4 0xC3E037B4 EQ PUSH2 0x28A JUMPI PUSH4 0xDB88176F EQ PUSH2 0xF0 JUMPI PUSH1 0x0 DUP1 REVERT JUMPDEST CALLVALUE PUSH2 0x285 JUMPI PUSH1 0x20 CALLDATASIZE PUSH1 0x3 NOT ADD SLT PUSH2 0x285 JUMPI PUSH1 0x4 CALLDATALOAD PUSH1 0x0 MSTORE PUSH32 0x4F2F104A7EA12E35172792673C68FE1423B90B4F6B86A6C5F5A9A85BD5652031 PUSH1 0x20 MSTORE PUSH1 0x40 PUSH1 0x0 KECCAK256 PUSH1 0x3 DUP2 ADD SLOAD SWAP1 PUSH1 0x4 DUP2 ADD SLOAD SWAP2 PUSH1 0x1 DUP1 PUSH1 0xA0 SHL SUB PUSH1 0x5 DUP4 ADD SLOAD AND SWAP3 PUSH1 0x6 DUP4 ADD SLOAD SWAP3 PUSH1 0x7 DUP2 ADD SLOAD PUSH1 0x8 DUP3 ADD SLOAD PUSH1 0xFF DUP2 PUSH1 0x8 SHR AND PUSH1 0x9 DUP5 ADD SLOAD SWAP2 PUSH1 0xA DUP6 ADD SLOAD SWAP4 PUSH1 0xC PUSH1 0x1 DUP1 PUSH1 0xA0 SHL SUB PUSH1 0xB DUP9 ADD SLOAD AND SWAP7 ADD SWAP9 PUSH1 0x40 MLOAD SWAP11 DUP12 SWAP9 PUSH1 0x20 DUP13 SLOAD SWAP14 DUP15 DUP2 MSTORE ADD SWAP13 DUP14 SWAP13 PUSH1 0x0 MSTORE PUSH1 0x20 PUSH1 0x0 KECCAK256 SWAP1 PUSH1 0x0 JUMPDEST DUP2 DUP2 LT PUSH2 0x260 JUMPI POP POP POP SWAP1 PUSH1 0xFF SWAP5 SWAP4 SWAP3 SWAP2 PUSH2 0x1BC DUP12 PUSH1 0x20 SWAP16 SUB DUP13 PUSH2 0xC2D JUMP JUMPDEST PUSH1 0x40 MLOAD SWAP14 DUP15 PUSH2 0x160 DUP2 ADD SWAP14 DUP2 MSTORE ADD MSTORE PUSH1 0x40 DUP14 ADD MSTORE PUSH1 0x60 DUP13 ADD MSTORE PUSH1 0x80 DUP12 ADD MSTORE AND ISZERO ISZERO PUSH1 0xA0 DUP10 ADD MSTORE PUSH1 0x2 DUP2 LT ISZERO PUSH2 0x24A JUMPI PUSH1 0xC0 DUP9 ADD MSTORE PUSH1 0xE0 DUP8 ADD MSTORE PUSH2 0x100 DUP7 ADD MSTORE PUSH2 0x120 DUP6 ADD MSTORE PUSH2 0x160 PUSH2 0x140 DUP6 ADD MSTORE MLOAD SWAP1 DUP2 SWAP1 MSTORE DUP3 SWAP2 PUSH2 0x180 DUP4 ADD SWAP2 PUSH1 0x0 JUMPDEST DUP2 DUP2 LT PUSH2 0x228 JUMPI POP POP POP SUB SWAP1 RETURN JUMPDEST DUP3 MLOAD PUSH1 0x1 PUSH1 0x1 PUSH1 0xA0 SHL SUB AND DUP5 MSTORE DUP6 SWAP5 POP PUSH1 0x20 SWAP4 DUP5 ADD SWAP4 SWAP1 SWAP3 ADD SWAP2 PUSH1 0x1 ADD PUSH2 0x21A JUMP JUMPDEST PUSH4 0x4E487B71 PUSH1 0xE0 SHL PUSH1 0x0 MSTORE PUSH1 0x21 PUSH1 0x4 MSTORE PUSH1 0x24 PUSH1 0x0 REVERT JUMPDEST SWAP1 SWAP2 SWAP15 DUP16 PUSH1 0x1 PUSH1 0xA0 SHL PUSH1 0x1 SWAP1 SUB SWAP1 SLOAD AND DUP2 MSTORE PUSH1 0x20 ADD SWAP15 PUSH1 0x1 ADD SWAP1 PUSH1 0x1 ADD SWAP2 SWAP1 SWAP2 PUSH2 0x19D JUMP JUMPDEST PUSH1 0x0 DUP1 REVERT JUMPDEST CALLVALUE PUSH2 0x285 JUMPI PUSH1 0x0 CALLDATASIZE PUSH1 0x3 NOT ADD SLT PUSH2 0x285 JUMPI PUSH1 0x20 PUSH32 0x4F2F104A7EA12E35172792673C68FE1423B90B4F6B86A6C5F5A9A85BD5652028 SLOAD PUSH1 0x40 MLOAD SWAP1 DUP2 MSTORE RETURN JUMPDEST CALLVALUE PUSH2 0x285 JUMPI PUSH1 0x20 CALLDATASIZE PUSH1 0x3 NOT ADD SLT PUSH2 0x285 JUMPI PUSH2 0x2E0 PUSH2 0xC17 JUMP JUMPDEST PUSH1 0x0 DUP1 MLOAD PUSH1 0x20 PUSH2 0xCDC DUP4 CODECOPY DUP2 MLOAD SWAP2 MSTORE SLOAD PUSH1 0x40 MLOAD PUSH4 0x24745215 PUSH1 0xE2 SHL DUP2 MSTORE PUSH1 0x4 DUP2 ADD SWAP2 SWAP1 SWAP2 MSTORE CALLER PUSH1 0x24 DUP3 ADD MSTORE PUSH1 0x20 DUP2 PUSH1 0x44 DUP2 ADDRESS GAS STATICCALL DUP1 ISZERO PUSH2 0x443 JUMPI PUSH2 0x32C SWAP2 PUSH1 0x0 SWAP2 PUSH2 0x414 JUMPI JUMPDEST POP PUSH2 0xC7D JUMP JUMPDEST PUSH1 0x1 PUSH1 0x1 PUSH1 0xA0 SHL SUB DUP2 AND SWAP1 DUP2 ISZERO PUSH2 0x3C1 JUMPI PUSH1 0x0 DUP1 MLOAD PUSH1 0x20 PUSH2 0xD1C DUP4 CODECOPY DUP2 MLOAD SWAP2 MSTORE SLOAD PUSH1 0x40 DUP1 MLOAD PUSH1 0x1 PUSH1 0x1 PUSH1 0xA0 SHL SUB SWAP3 DUP4 AND DUP2 MSTORE SWAP3 SWAP1 SWAP2 AND PUSH1 0x20 DUP4 ADD MSTORE PUSH32 0x1C61EFE681360FD4A3BECB0723003E5495CBA480EC9B47150B00FB57A5044E2B SWAP2 LOG1 PUSH12 0xFFFFFFFFFFFFFFFFFFFFFFFF PUSH1 0xA0 SHL PUSH1 0x0 DUP1 MLOAD PUSH1 0x20 PUSH2 0xD1C DUP4 CODECOPY DUP2 MLOAD SWAP2 MSTORE SLOAD AND OR PUSH1 0x0 DUP1 MLOAD PUSH1 0x20 PUSH2 0xD1C DUP4 CODECOPY DUP2 MLOAD SWAP2 MSTORE SSTORE PUSH1 0x0 DUP1 RETURN JUMPDEST PUSH1 0x40 MLOAD PUSH3 0x461BCD PUSH1 0xE5 SHL DUP2 MSTORE PUSH1 0x20 PUSH1 0x4 DUP3 ADD MSTORE PUSH1 0x25 PUSH1 0x24 DUP3 ADD MSTORE PUSH32 0x5175697A3A205175697A436F696E20616464726573732063616E6E6F74206265 PUSH1 0x44 DUP3 ADD MSTORE PUSH5 0x207A65726F PUSH1 0xD8 SHL PUSH1 0x64 DUP3 ADD MSTORE PUSH1 0x84 SWAP1 REVERT JUMPDEST PUSH2 0x436 SWAP2 POP PUSH1 0x20 RETURNDATASIZE PUSH1 0x20 GT PUSH2 0x43C JUMPI JUMPDEST PUSH2 0x42E DUP2 DUP4 PUSH2 0xC2D JUMP JUMPDEST DUP2 ADD SWAP1 PUSH2 0xC65 JUMP JUMPDEST DUP4 PUSH2 0x326 JUMP JUMPDEST POP RETURNDATASIZE PUSH2 0x424 JUMP JUMPDEST PUSH1 0x40 MLOAD RETURNDATASIZE PUSH1 0x0 DUP3 RETURNDATACOPY RETURNDATASIZE SWAP1 REVERT JUMPDEST CALLVALUE PUSH2 0x285 JUMPI PUSH1 0x0 CALLDATASIZE PUSH1 0x3 NOT ADD SLT PUSH2 0x285 JUMPI PUSH1 0x20 PUSH32 0x4F2F104A7EA12E35172792673C68FE1423B90B4F6B86A6C5F5A9A85BD565202A SLOAD PUSH1 0x40 MLOAD SWAP1 DUP2 MSTORE RETURN JUMPDEST CALLVALUE PUSH2 0x285 JUMPI PUSH1 0x20 CALLDATASIZE PUSH1 0x3 NOT ADD SLT PUSH2 0x285 JUMPI PUSH2 0x4A5 PUSH2 0xC17 JUMP JUMPDEST PUSH1 0x0 DUP1 MLOAD PUSH1 0x20 PUSH2 0xCDC DUP4 CODECOPY DUP2 MLOAD SWAP2 MSTORE SLOAD PUSH1 0x40 MLOAD PUSH4 0x24745215 PUSH1 0xE2 SHL DUP2 MSTORE PUSH1 0x4 DUP2 ADD SWAP2 SWAP1 SWAP2 MSTORE CALLER PUSH1 0x24 DUP3 ADD MSTORE PUSH1 0x20 DUP2 PUSH1 0x44 DUP2 ADDRESS GAS STATICCALL DUP1 ISZERO PUSH2 0x443 JUMPI PUSH2 0x4F0 SWAP2 PUSH1 0x0 SWAP2 PUSH2 0x414 JUMPI POP PUSH2 0xC7D JUMP JUMPDEST PUSH1 0x1 PUSH1 0x1 PUSH1 0xA0 SHL SUB DUP2 AND SWAP1 DUP2 ISZERO PUSH2 0x585 JUMPI PUSH1 0x0 DUP1 MLOAD PUSH1 0x20 PUSH2 0xCFC DUP4 CODECOPY DUP2 MLOAD SWAP2 MSTORE SLOAD PUSH1 0x40 DUP1 MLOAD PUSH1 0x1 PUSH1 0x1 PUSH1 0xA0 SHL SUB SWAP3 DUP4 AND DUP2 MSTORE SWAP3 SWAP1 SWAP2 AND PUSH1 0x20 DUP4 ADD MSTORE PUSH32 0x7515B6CF68FCE599FB6992850F676543B5A8AB4B13DF77E0F6C308E19694DC69 SWAP2 LOG1 PUSH12 0xFFFFFFFFFFFFFFFFFFFFFFFF PUSH1 0xA0 SHL PUSH1 0x0 DUP1 MLOAD PUSH1 0x20 PUSH2 0xCFC DUP4 CODECOPY DUP2 MLOAD SWAP2 MSTORE SLOAD AND OR PUSH1 0x0 DUP1 MLOAD PUSH1 0x20 PUSH2 0xCFC DUP4 CODECOPY DUP2 MLOAD SWAP2 MSTORE SSTORE PUSH1 0x0 DUP1 RETURN JUMPDEST PUSH1 0x40 MLOAD PUSH3 0x461BCD PUSH1 0xE5 SHL DUP2 MSTORE PUSH1 0x20 PUSH1 0x4 DUP3 ADD MSTORE PUSH1 0x28 PUSH1 0x24 DUP3 ADD MSTORE PUSH32 0x5175697A3A20506F6F6C4D616E6167657220616464726573732063616E6E6F74 PUSH1 0x44 DUP3 ADD MSTORE PUSH8 0x206265207A65726F PUSH1 0xC0 SHL PUSH1 0x64 DUP3 ADD MSTORE PUSH1 0x84 SWAP1 REVERT JUMPDEST CALLVALUE PUSH2 0x285 JUMPI PUSH1 0x0 CALLDATASIZE PUSH1 0x3 NOT ADD SLT PUSH2 0x285 JUMPI PUSH1 0x20 PUSH32 0x4F2F104A7EA12E35172792673C68FE1423B90B4F6B86A6C5F5A9A85BD5652027 SLOAD PUSH1 0x40 MLOAD SWAP1 DUP2 MSTORE RETURN JUMPDEST CALLVALUE PUSH2 0x285 JUMPI PUSH1 0x0 CALLDATASIZE PUSH1 0x3 NOT ADD SLT PUSH2 0x285 JUMPI PUSH1 0x20 PUSH32 0x4F2F104A7EA12E35172792673C68FE1423B90B4F6B86A6C5F5A9A85BD5652029 SLOAD PUSH1 0x40 MLOAD SWAP1 DUP2 MSTORE RETURN JUMPDEST CALLVALUE PUSH2 0x285 JUMPI PUSH1 0x0 CALLDATASIZE PUSH1 0x3 NOT ADD SLT PUSH2 0x285 JUMPI PUSH1 0x20 PUSH1 0x0 DUP1 MLOAD PUSH1 0x20 PUSH2 0xCDC DUP4 CODECOPY DUP2 MLOAD SWAP2 MSTORE SLOAD PUSH1 0x40 MLOAD SWAP1 DUP2 MSTORE RETURN JUMPDEST CALLVALUE PUSH2 0x285 JUMPI PUSH1 0x40 CALLDATASIZE PUSH1 0x3 NOT ADD SLT PUSH2 0x285 JUMPI PUSH1 0x24 CALLDATALOAD PUSH1 0x1 PUSH1 0x1 PUSH1 0xA0 SHL SUB DUP2 AND DUP2 SUB PUSH2 0x285 JUMPI PUSH1 0x40 MLOAD PUSH4 0x24745215 PUSH1 0xE2 SHL DUP2 MSTORE PUSH1 0x4 DUP1 CALLDATALOAD SWAP1 DUP3 ADD MSTORE PUSH1 0x1 PUSH1 0x1 PUSH1 0xA0 SHL SUB SWAP2 SWAP1 SWAP2 AND PUSH1 0x24 DUP3 ADD MSTORE PUSH1 0x20 DUP2 PUSH1 0x44 DUP2 ADDRESS GAS STATICCALL DUP1 ISZERO PUSH2 0x443 JUMPI PUSH1 0x20 SWAP2 PUSH1 0x0 SWAP2 PUSH2 0x6EF JUMPI JUMPDEST POP PUSH1 0x40 MLOAD SWAP1 ISZERO ISZERO DUP2 MSTORE RETURN JUMPDEST PUSH2 0x706 SWAP2 POP DUP3 RETURNDATASIZE DUP5 GT PUSH2 0x43C JUMPI PUSH2 0x42E DUP2 DUP4 PUSH2 0xC2D JUMP JUMPDEST DUP3 PUSH2 0x6E4 JUMP JUMPDEST CALLVALUE PUSH2 0x285 JUMPI PUSH1 0x0 CALLDATASIZE PUSH1 0x3 NOT ADD SLT PUSH2 0x285 JUMPI PUSH32 0x4F2F104A7EA12E35172792673C68FE1423B90B4F6B86A6C5F5A9A85BD565202D SLOAD PUSH2 0x9C0 JUMPI PUSH1 0x40 MLOAD PUSH4 0xA217FDDF PUSH1 0xE0 SHL DUP2 MSTORE PUSH1 0x20 DUP2 PUSH1 0x4 DUP2 ADDRESS GAS STATICCALL SWAP1 DUP2 ISZERO PUSH2 0x443 JUMPI PUSH1 0x0 SWAP2 PUSH2 0x98E JUMPI JUMPDEST POP PUSH1 0x0 DUP1 MLOAD PUSH1 0x20 PUSH2 0xCDC DUP4 CODECOPY DUP2 MLOAD SWAP2 MSTORE SSTORE PUSH32 0xB814FF4A26EA3EC5CD1FA579DAAD86324826254265F3ACFEC78303A19845B449 PUSH32 0x4F2F104A7EA12E35172792673C68FE1423B90B4F6B86A6C5F5A9A85BD5652023 SSTORE PUSH32 0x828634D95E775031B9FF576B159A8509D3053581A8C9C4D7D86899E0AFCD882F PUSH32 0x4F2F104A7EA12E35172792673C68FE1423B90B4F6B86A6C5F5A9A85BD5652024 SSTORE PUSH8 0x8AC7230489E80000 PUSH32 0x4F2F104A7EA12E35172792673C68FE1423B90B4F6B86A6C5F5A9A85BD5652025 SSTORE PUSH1 0xB4 PUSH32 0x4F2F104A7EA12E35172792673C68FE1423B90B4F6B86A6C5F5A9A85BD5652026 SSTORE PUSH3 0x15180 PUSH32 0x4F2F104A7EA12E35172792673C68FE1423B90B4F6B86A6C5F5A9A85BD5652027 SSTORE PUSH10 0x10F0CF064DD59200000 PUSH32 0x4F2F104A7EA12E35172792673C68FE1423B90B4F6B86A6C5F5A9A85BD5652028 SSTORE PUSH10 0x21E19E0C9BAB2400000 PUSH32 0x4F2F104A7EA12E35172792673C68FE1423B90B4F6B86A6C5F5A9A85BD5652029 SSTORE PUSH4 0x784CE00 PUSH32 0x4F2F104A7EA12E35172792673C68FE1423B90B4F6B86A6C5F5A9A85BD565202A SSTORE PUSH9 0x56BC75E2D63100000 PUSH32 0x4F2F104A7EA12E35172792673C68FE1423B90B4F6B86A6C5F5A9A85BD565202B SSTORE PUSH1 0x32 PUSH32 0x4F2F104A7EA12E35172792673C68FE1423B90B4F6B86A6C5F5A9A85BD565202C SSTORE PUSH1 0x1 PUSH32 0x4F2F104A7EA12E35172792673C68FE1423B90B4F6B86A6C5F5A9A85BD565202E SSTORE TIMESTAMP PUSH32 0x4F2F104A7EA12E35172792673C68FE1423B90B4F6B86A6C5F5A9A85BD565202D SSTORE STOP JUMPDEST SWAP1 POP PUSH1 0x20 DUP2 RETURNDATASIZE PUSH1 0x20 GT PUSH2 0x9B8 JUMPI JUMPDEST DUP2 PUSH2 0x9A9 PUSH1 0x20 SWAP4 DUP4 PUSH2 0xC2D JUMP JUMPDEST DUP2 ADD SUB SLT PUSH2 0x285 JUMPI MLOAD DUP2 PUSH2 0x768 JUMP JUMPDEST RETURNDATASIZE SWAP2 POP PUSH2 0x99C JUMP JUMPDEST PUSH1 0x40 MLOAD PUSH3 0x461BCD PUSH1 0xE5 SHL DUP2 MSTORE PUSH1 0x20 PUSH1 0x4 DUP3 ADD MSTORE PUSH1 0x1D PUSH1 0x24 DUP3 ADD MSTORE PUSH32 0x5175697A47616D653A20416C726561647920696E697469616C697A6564000000 PUSH1 0x44 DUP3 ADD MSTORE PUSH1 0x64 SWAP1 REVERT JUMPDEST CALLVALUE PUSH2 0x285 JUMPI PUSH1 0x0 CALLDATASIZE PUSH1 0x3 NOT ADD SLT PUSH2 0x285 JUMPI PUSH1 0x20 PUSH32 0x4F2F104A7EA12E35172792673C68FE1423B90B4F6B86A6C5F5A9A85BD5652024 SLOAD PUSH1 0x40 MLOAD SWAP1 DUP2 MSTORE RETURN JUMPDEST CALLVALUE PUSH2 0x285 JUMPI PUSH1 0x0 CALLDATASIZE PUSH1 0x3 NOT ADD SLT PUSH2 0x285 JUMPI PUSH1 0x0 DUP1 MLOAD PUSH1 0x20 PUSH2 0xCFC DUP4 CODECOPY DUP2 MLOAD SWAP2 MSTORE SLOAD PUSH1 0x40 MLOAD PUSH1 0x1 PUSH1 0x1 PUSH1 0xA0 SHL SUB SWAP1 SWAP2 AND DUP2 MSTORE PUSH1 0x20 SWAP1 RETURN JUMPDEST CALLVALUE PUSH2 0x285 JUMPI PUSH1 0x0 CALLDATASIZE PUSH1 0x3 NOT ADD SLT PUSH2 0x285 JUMPI PUSH1 0x20 PUSH32 0x4F2F104A7EA12E35172792673C68FE1423B90B4F6B86A6C5F5A9A85BD5652026 SLOAD PUSH1 0x40 MLOAD SWAP1 DUP2 MSTORE RETURN JUMPDEST CALLVALUE PUSH2 0x285 JUMPI PUSH1 0x0 CALLDATASIZE PUSH1 0x3 NOT ADD SLT PUSH2 0x285 JUMPI PUSH1 0x20 PUSH32 0x4F2F104A7EA12E35172792673C68FE1423B90B4F6B86A6C5F5A9A85BD565202C SLOAD PUSH1 0x40 MLOAD SWAP1 DUP2 MSTORE RETURN JUMPDEST CALLVALUE PUSH2 0x285 JUMPI PUSH1 0x0 CALLDATASIZE PUSH1 0x3 NOT ADD SLT PUSH2 0x285 JUMPI PUSH1 0x20 PUSH32 0x4F2F104A7EA12E35172792673C68FE1423B90B4F6B86A6C5F5A9A85BD565202E SLOAD PUSH1 0x40 MLOAD SWAP1 DUP2 MSTORE RETURN JUMPDEST CALLVALUE PUSH2 0x285 JUMPI PUSH1 0x0 CALLDATASIZE PUSH1 0x3 NOT ADD SLT PUSH2 0x285 JUMPI PUSH1 0x20 PUSH32 0x4F2F104A7EA12E35172792673C68FE1423B90B4F6B86A6C5F5A9A85BD565202D SLOAD PUSH1 0x40 MLOAD SWAP1 DUP2 MSTORE RETURN JUMPDEST CALLVALUE PUSH2 0x285 JUMPI PUSH1 0x0 CALLDATASIZE PUSH1 0x3 NOT ADD SLT PUSH2 0x285 JUMPI PUSH1 0x20 PUSH32 0x4F2F104A7EA12E35172792673C68FE1423B90B4F6B86A6C5F5A9A85BD5652023 SLOAD PUSH1 0x40 MLOAD SWAP1 DUP2 MSTORE RETURN JUMPDEST CALLVALUE PUSH2 0x285 JUMPI PUSH1 0x0 CALLDATASIZE PUSH1 0x3 NOT ADD SLT PUSH2 0x285 JUMPI PUSH1 0x20 PUSH32 0x4F2F104A7EA12E35172792673C68FE1423B90B4F6B86A6C5F5A9A85BD565202B SLOAD PUSH1 0x40 MLOAD SWAP1 DUP2 MSTORE RETURN JUMPDEST CALLVALUE PUSH2 0x285 JUMPI PUSH1 0x0 CALLDATASIZE PUSH1 0x3 NOT ADD SLT PUSH2 0x285 JUMPI PUSH1 0x0 DUP1 MLOAD PUSH1 0x20 PUSH2 0xD1C DUP4 CODECOPY DUP2 MLOAD SWAP2 MSTORE SLOAD PUSH1 0x1 PUSH1 0x1 PUSH1 0xA0 SHL SUB AND DUP2 MSTORE PUSH1 0x20 SWAP1 RETURN JUMPDEST PUSH1 0x4 CALLDATALOAD SWAP1 PUSH1 0x1 PUSH1 0x1 PUSH1 0xA0 SHL SUB DUP3 AND DUP3 SUB PUSH2 0x285 JUMPI JUMP JUMPDEST SWAP1 PUSH1 0x1F DUP1 NOT SWAP2 ADD AND DUP2 ADD SWAP1 DUP2 LT PUSH8 0xFFFFFFFFFFFFFFFF DUP3 GT OR PUSH2 0xC4F JUMPI PUSH1 0x40 MSTORE JUMP JUMPDEST PUSH4 0x4E487B71 PUSH1 0xE0 SHL PUSH1 0x0 MSTORE PUSH1 0x41 PUSH1 0x4 MSTORE PUSH1 0x24 PUSH1 0x0 REVERT JUMPDEST SWAP1 DUP2 PUSH1 0x20 SWAP2 SUB SLT PUSH2 0x285 JUMPI MLOAD DUP1 ISZERO ISZERO DUP2 SUB PUSH2 0x285 JUMPI SWAP1 JUMP JUMPDEST ISZERO PUSH2 0xC84 JUMPI JUMP JUMPDEST PUSH1 0x40 MLOAD PUSH3 0x461BCD PUSH1 0xE5 SHL DUP2 MSTORE PUSH1 0x20 PUSH1 0x4 DUP3 ADD MSTORE PUSH1 0x29 PUSH1 0x24 DUP3 ADD MSTORE PUSH32 0x416363657373436F6E74726F6C3A2043616C6C6572206973206E6F7420612067 PUSH1 0x44 DUP3 ADD MSTORE PUSH9 0x30B6B29030B236B4B7 PUSH1 0xB9 SHL PUSH1 0x64 DUP3 ADD MSTORE PUSH1 0x84 SWAP1 REVERT INVALID 0x4F 0x2F LT BLOBBASEFEE PUSH31 0xA12E35172792673C68FE1423B90B4F6B86A6C5F5A9A85BD56520224F2F104A PUSH31 0xA12E35172792673C68FE1423B90B4F6B86A6C5F5A9A85BD56520394F2F104A PUSH31 0xA12E35172792673C68FE1423B90B4F6B86A6C5F5A9A85BD565203AA2646970 PUSH7 0x7358221220EC83 SHR PUSH24 0xEFC2A513A239F44CCE8DDF0D5633ECA6524E7C5BB7253252 PUSH31 0xCB022364736F6C634300081C00330000000000000000000000000000000000 "},"methodIdentifiers":{"CREATOR_ROLE()":"8aeda25a","DEFAULT_ADMIN_ROLE()":"a217fddf","REWARD_DISTRIBUTOR_ROLE()":"32e4bb0a","getBaseRewardForLevel99()":"c3e037b4","getGameStartTimestamp()":"4894e46d","getHalvingPeriodSeconds()":"bea8628c","getLevel100QuestionValiditySeconds()":"a99b4f97","getMinRewardAfterHalving()":"1fdb946f","getNextQuestionId()":"589a7b2e","getPoolManagerAddress()":"82a03369","getPoolRewardWindowDuration()":"81769759","getQuestion(uint256)":"db88176f","getQuizCoinAddress()":"178f2e24","getRewardForLevel100()":"a85c1de3","getTreasuryFeePercentage()":"6434e227","hasRole(bytes32,address)":"91d14854","initializeQuizGame()":"8fe3d85d","setPoolManagerAddress(address)":"ab95b1a2","setQuizCoinAddress(address)":"c2bd69b9"}},"storageLayout":{"storage":[],"types":null}}}}