{"contracts/facets/MerkleFacet.sol":{"MerkleFacet":{"abi":[{"anonymous":false,"inputs":[{"indexed":true,"internalType":"uint256","name":"quizId","type":"uint256"},{"indexed":false,"internalType":"bytes32","name":"root","type":"bytes32"}],"name":"MerkleRootSubmitted","type":"event"},{"inputs":[{"internalType":"uint256","name":"quizId","type":"uint256"}],"name":"getMerkleRoot","outputs":[{"internalType":"bytes32","name":"","type":"bytes32"}],"stateMutability":"view","type":"function"},{"inputs":[{"internalType":"uint256","name":"quizId","type":"uint256"},{"internalType":"bytes32","name":"root","type":"bytes32"}],"name":"submitMerkleRoot","outputs":[],"stateMutability":"nonpayable","type":"function"},{"inputs":[{"internalType":"uint256","name":"quizId","type":"uint256"},{"internalType":"bytes32","name":"leaf","type":"bytes32"},{"internalType":"bytes32[]","name":"proof","type":"bytes32[]"}],"name":"verifyQuiz","outputs":[{"internalType":"bool","name":"","type":"bool"}],"stateMutability":"view","type":"function"}],"evm":{"bytecode":{"linkReferences":{},"object":"608080604052346015576102be908161001b8239f35b600080fdfe608080604052600436101561001357600080fd5b60003560e01c908163060d10be14610101575080630aab8ba5146100b65763efd50b211461004057600080fd5b346100b15760403660031901126100b1576004357fb3a8f3e59050d3f97f1bf1b668c8216c654869aa24e3e03cd8891dc68b7db0976020602435836000527f386ce38a758b2aa61a536cbe13df8b6d4bbdc305ba63fe1732b5b790f26f0751825280604060002055604051908152a2005b600080fd5b346100b15760203660031901126100b1576004356000527f386ce38a758b2aa61a536cbe13df8b6d4bbdc305ba63fe1732b5b790f26f07516020526020604060002054604051908152f35b346100b15760603660031901126100b1576044359067ffffffffffffffff82116100b157366023830112156100b15781600401359167ffffffffffffffff83116100b1578260051b90602482820101903682116100b1576004356000527f386ce38a758b2aa61a536cbe13df8b6d4bbdc305ba63fe1732b5b790f26f075160205260406000205493841561024657506040516000959093603f01601f1916840167ffffffffffffffff811185821017610232576040528352602401602083015b828210610222575050506024359083915b81518310156102155760208360051b83010151908181106000146102045785526020526001604085205b9201916101d2565b9085526020526001604085206101fc565b6020908460405191148152f35b81358152602091820191016101c1565b634e487b7160e01b87526041600452602487fd5b62461bcd60e51b815260206004820152601b60248201527f4d65726b6c6546616365743a20526f6f74206e6f7420666f756e6400000000006044820152606490fdfea26469706673582212203561514174c76885f68951e83e4d2013c854c3daa302dc32e8c620ffe547594e64736f6c634300081c0033","opcodes":"PUSH1 0x80 DUP1 PUSH1 0x40 MSTORE CALLVALUE PUSH1 0x15 JUMPI PUSH2 0x2BE SWAP1 DUP2 PUSH2 0x1B DUP3 CODECOPY RETURN JUMPDEST PUSH1 0x0 DUP1 REVERT INVALID PUSH1 0x80 DUP1 PUSH1 0x40 MSTORE PUSH1 0x4 CALLDATASIZE LT ISZERO PUSH2 0x13 JUMPI PUSH1 0x0 DUP1 REVERT JUMPDEST PUSH1 0x0 CALLDATALOAD PUSH1 0xE0 SHR SWAP1 DUP2 PUSH4 0x60D10BE EQ PUSH2 0x101 JUMPI POP DUP1 PUSH4 0xAAB8BA5 EQ PUSH2 0xB6 JUMPI PUSH4 0xEFD50B21 EQ PUSH2 0x40 JUMPI PUSH1 0x0 DUP1 REVERT JUMPDEST CALLVALUE PUSH2 0xB1 JUMPI PUSH1 0x40 CALLDATASIZE PUSH1 0x3 NOT ADD SLT PUSH2 0xB1 JUMPI PUSH1 0x4 CALLDATALOAD PUSH32 0xB3A8F3E59050D3F97F1BF1B668C8216C654869AA24E3E03CD8891DC68B7DB097 PUSH1 0x20 PUSH1 0x24 CALLDATALOAD DUP4 PUSH1 0x0 MSTORE PUSH32 0x386CE38A758B2AA61A536CBE13DF8B6D4BBDC305BA63FE1732B5B790F26F0751 DUP3 MSTORE DUP1 PUSH1 0x40 PUSH1 0x0 KECCAK256 SSTORE PUSH1 0x40 MLOAD SWAP1 DUP2 MSTORE LOG2 STOP JUMPDEST PUSH1 0x0 DUP1 REVERT JUMPDEST CALLVALUE PUSH2 0xB1 JUMPI PUSH1 0x20 CALLDATASIZE PUSH1 0x3 NOT ADD SLT PUSH2 0xB1 JUMPI PUSH1 0x4 CALLDATALOAD PUSH1 0x0 MSTORE PUSH32 0x386CE38A758B2AA61A536CBE13DF8B6D4BBDC305BA63FE1732B5B790F26F0751 PUSH1 0x20 MSTORE PUSH1 0x20 PUSH1 0x40 PUSH1 0x0 KECCAK256 SLOAD PUSH1 0x40 MLOAD SWAP1 DUP2 MSTORE RETURN JUMPDEST CALLVALUE PUSH2 0xB1 JUMPI PUSH1 0x60 CALLDATASIZE PUSH1 0x3 NOT ADD SLT PUSH2 0xB1 JUMPI PUSH1 0x44 CALLDATALOAD SWAP1 PUSH8 0xFFFFFFFFFFFFFFFF DUP3 GT PUSH2 0xB1 JUMPI CALLDATASIZE PUSH1 0x23 DUP4 ADD SLT ISZERO PUSH2 0xB1 JUMPI DUP2 PUSH1 0x4 ADD CALLDATALOAD SWAP2 PUSH8 0xFFFFFFFFFFFFFFFF DUP4 GT PUSH2 0xB1 JUMPI DUP3 PUSH1 0x5 SHL SWAP1 PUSH1 0x24 DUP3 DUP3 ADD ADD SWAP1 CALLDATASIZE DUP3 GT PUSH2 0xB1 JUMPI PUSH1 0x4 CALLDATALOAD PUSH1 0x0 MSTORE PUSH32 0x386CE38A758B2AA61A536CBE13DF8B6D4BBDC305BA63FE1732B5B790F26F0751 PUSH1 0x20 MSTORE PUSH1 0x40 PUSH1 0x0 KECCAK256 SLOAD SWAP4 DUP5 ISZERO PUSH2 0x246 JUMPI POP PUSH1 0x40 MLOAD PUSH1 0x0 SWAP6 SWAP1 SWAP4 PUSH1 0x3F ADD PUSH1 0x1F NOT AND DUP5 ADD PUSH8 0xFFFFFFFFFFFFFFFF DUP2 GT DUP6 DUP3 LT OR PUSH2 0x232 JUMPI PUSH1 0x40 MSTORE DUP4 MSTORE PUSH1 0x24 ADD PUSH1 0x20 DUP4 ADD JUMPDEST DUP3 DUP3 LT PUSH2 0x222 JUMPI POP POP POP PUSH1 0x24 CALLDATALOAD SWAP1 DUP4 SWAP2 JUMPDEST DUP2 MLOAD DUP4 LT ISZERO PUSH2 0x215 JUMPI PUSH1 0x20 DUP4 PUSH1 0x5 SHL DUP4 ADD ADD MLOAD SWAP1 DUP2 DUP2 LT PUSH1 0x0 EQ PUSH2 0x204 JUMPI DUP6 MSTORE PUSH1 0x20 MSTORE PUSH1 0x1 PUSH1 0x40 DUP6 KECCAK256 JUMPDEST SWAP3 ADD SWAP2 PUSH2 0x1D2 JUMP JUMPDEST SWAP1 DUP6 MSTORE PUSH1 0x20 MSTORE PUSH1 0x1 PUSH1 0x40 DUP6 KECCAK256 PUSH2 0x1FC JUMP JUMPDEST PUSH1 0x20 SWAP1 DUP5 PUSH1 0x40 MLOAD SWAP2 EQ DUP2 MSTORE RETURN JUMPDEST DUP2 CALLDATALOAD DUP2 MSTORE PUSH1 0x20 SWAP2 DUP3 ADD SWAP2 ADD PUSH2 0x1C1 JUMP JUMPDEST PUSH4 0x4E487B71 PUSH1 0xE0 SHL DUP8 MSTORE PUSH1 0x41 PUSH1 0x4 MSTORE PUSH1 0x24 DUP8 REVERT JUMPDEST PUSH3 0x461BCD PUSH1 0xE5 SHL DUP2 MSTORE PUSH1 0x20 PUSH1 0x4 DUP3 ADD MSTORE PUSH1 0x1B PUSH1 0x24 DUP3 ADD MSTORE PUSH32 0x4D65726B6C6546616365743A20526F6F74206E6F7420666F756E640000000000 PUSH1 0x44 DUP3 ADD MSTORE PUSH1 0x64 SWAP1 REVERT INVALID LOG2 PUSH5 0x6970667358 0x22 SLT KECCAK256 CALLDATALOAD PUSH2 0x5141 PUSH21 0xC76885F68951E83E4D2013C854C3DAA302DC32E8C6 KECCAK256 SELFDESTRUCT 0xE5 SELFBALANCE MSIZE 0x4E PUSH5 0x736F6C6343 STOP ADDMOD SHR STOP CALLER "},"methodIdentifiers":{"getMerkleRoot(uint256)":"0aab8ba5","submitMerkleRoot(uint256,bytes32)":"efd50b21","verifyQuiz(uint256,bytes32,bytes32[])":"060d10be"}},"storageLayout":{"storage":[],"types":null}}}}