{"contracts/facets/QuizGameModeFacet.sol":{"QuizGameModeFacet":{"abi":[{"anonymous":false,"inputs":[{"indexed":true,"internalType":"uint256","name":"questionId","type":"uint256"},{"indexed":true,"internalType":"address","name":"solver","type":"address"},{"indexed":false,"internalType":"bytes32","name":"submittedAnswerHash","type":"bytes32"},{"indexed":false,"internalType":"bool","name":"isCorrect","type":"bool"}],"name":"AnswerSubmitted","type":"event"},{"anonymous":false,"inputs":[{"indexed":true,"internalType":"uint256","name":"questionId","type":"uint256"},{"indexed":true,"internalType":"address","name":"buyer","type":"address"},{"indexed":false,"internalType":"uint256","name":"cost","type":"uint256"}],"name":"HintPurchased","type":"event"},{"anonymous":false,"inputs":[{"indexed":true,"internalType":"address","name":"player","type":"address"},{"indexed":true,"internalType":"uint256","name":"quizId","type":"uint256"}],"name":"PlayerJoinedQuiz","type":"event"},{"anonymous":false,"inputs":[{"indexed":true,"internalType":"uint256","name":"questionId","type":"uint256"},{"indexed":true,"internalType":"address","name":"activator","type":"address"}],"name":"QuestionActivatedFromBank","type":"event"},{"anonymous":false,"inputs":[{"indexed":true,"internalType":"uint256","name":"questionId","type":"uint256"}],"name":"QuestionClosed","type":"event"},{"anonymous":false,"inputs":[{"indexed":true,"internalType":"uint256","name":"questionId","type":"uint256"},{"indexed":true,"internalType":"address","name":"creator","type":"address"},{"indexed":false,"internalType":"uint256","name":"difficultyLevel","type":"uint256"},{"indexed":false,"internalType":"uint256","name":"baseRewardAmount","type":"uint256"}],"name":"QuestionCreated","type":"event"},{"anonymous":false,"inputs":[{"indexed":true,"internalType":"uint256","name":"questionId","type":"uint256"},{"indexed":false,"internalType":"uint256","name":"startTime","type":"uint256"}],"name":"QuestionRewardWindowStarted","type":"event"},{"anonymous":false,"inputs":[{"indexed":true,"internalType":"address","name":"player","type":"address"},{"indexed":true,"internalType":"uint256","name":"quizId","type":"uint256"},{"indexed":true,"internalType":"uint256","name":"questionIndex","type":"uint256"},{"indexed":false,"internalType":"uint8","name":"submittedAnswerIndex","type":"uint8"},{"indexed":false,"internalType":"bool","name":"isCorrect","type":"bool"}],"name":"QuizAnswerSubmitted","type":"event"},{"anonymous":false,"inputs":[{"indexed":true,"internalType":"address","name":"creator","type":"address"},{"indexed":true,"internalType":"uint256","name":"quizId","type":"uint256"},{"indexed":false,"internalType":"uint256","name":"rewardAmount","type":"uint256"},{"indexed":false,"internalType":"uint256","name":"totalQuestions","type":"uint256"}],"name":"QuizCreated","type":"event"},{"anonymous":false,"inputs":[{"indexed":true,"internalType":"uint256","name":"questionId","type":"uint256"},{"indexed":true,"internalType":"address","name":"solver","type":"address"},{"indexed":false,"internalType":"uint256","name":"rewardAmount","type":"uint256"}],"name":"RewardDistributed","type":"event"},{"inputs":[{"internalType":"uint256","name":"_questionId","type":"uint256"}],"name":"activateQuestionFromBank","outputs":[],"stateMutability":"nonpayable","type":"function"},{"inputs":[{"internalType":"uint256","name":"_questionId","type":"uint256"}],"name":"buyHint","outputs":[],"stateMutability":"nonpayable","type":"function"},{"inputs":[{"internalType":"bytes32","name":"_answerLeaf","type":"bytes32"},{"internalType":"bytes32","name":"_hintHash","type":"bytes32"},{"internalType":"uint256","name":"_difficultyLevel","type":"uint256"},{"internalType":"enum LibAppStorage.QuestionMode","name":"_mode","type":"uint8"}],"name":"createQuestion","outputs":[],"stateMutability":"nonpayable","type":"function"},{"inputs":[{"internalType":"uint256","name":"_questionId","type":"uint256"},{"internalType":"bytes32","name":"_answerLeaf","type":"bytes32"},{"internalType":"bytes32[]","name":"_merkleProof","type":"bytes32[]"}],"name":"submitAnswer","outputs":[],"stateMutability":"nonpayable","type":"function"}],"evm":{"bytecode":{"linkReferences":{},"object":"6080806040523460155761135d908161001b8239f35b600080fdfe608080604052600436101561001357600080fd5b600090813560e01c9081631e0fef7814610e755750806342dd072414610bdf578063686caeaf146108eb57636efa82d21461004d57600080fd5b346108e85760603660031901126108e85760243560043560443567ffffffffffffffff8111610442573660238201121561044257806004013567ffffffffffffffff81116108e6578060051b36602482850101116108e25783865260008051602061130883398151915260205260408620906100ce600383015415156112ae565b600882019283549160ff831661089d5760068401956064875414610821575b604051630306885f60e11b815260048101899052602481018a90526060604482015260648101849052926001600160fb1b031061081d57608483836020946024839501848401378101030181305afa9081156108125788916107e3575b5015610792573360009081527f4f2f104a7ea12e35172792673c68fe1423b90b4f6b86a6c5f5a9a85bd565202f6020526040902054620151804204919082146106e857503360009081527f4f2f104a7ea12e35172792673c68fe1423b90b4f6b86a6c5f5a9a85bd565202f6020526040902081905582543360009081527f4f2f104a7ea12e35172792673c68fe1423b90b4f6b86a6c5f5a9a85bd56520306020526040902060089190911c60ff1660028110156106d457815460ff19161790555b338752600d8201602081905260408820548214610683573388526020526040872055815460081c60ff16600281101561066f578061050e5750600b810180546001600160a01b03166104c95780546001600160a01b0319163317905542600a9190910155805460ff19166001179055546040516304bd546560e41b81526004810191909152602081602481305afa9081156104be57849161048c575b506127106102d67f4f2f104a7ea12e35172792673c68fe1423b90b4f6b86a6c5f5a9a85bd565202c5483611285565b04808203918211610478577f4f2f104a7ea12e35172792673c68fe1423b90b4f6b86a6c5f5a9a85bd5652035548591906001600160a01b0316803b156104745760248392604051948593849263fad7f38760e01b845260048401525af1801561046957610455575b507f4f2f104a7ea12e35172792673c68fe1423b90b4f6b86a6c5f5a9a85bd56520355484906001600160a01b0316803b1561045157818091604460405180948193639120020960e01b83523360048401528860248401525af180156104465761042d575b5050604051908152817fab7542bafced3da2d8c881cb2dd1de859fac7c20d3650d2902ad389a64e0888360203393a3807f3c8f450bdfccd4e29a4d8e9602688d5e009772a7de7c40c7f27b8f8c129f01fa8480a25b604051918252600160208301527ff13f0cafc2e76d9b040bc1cf8fe98f442675719960e4065425c2c750aa0e19a460403393a380f35b8161043791611230565b6104425783386103a2565b8380fd5b6040513d84823e3d90fd5b5080fd5b8461046291959295611230565b923861033e565b6040513d87823e3d90fd5b8280fd5b634e487b7160e01b85526011600452602485fd5b90506020813d6020116104b6575b816104a760209383611230565b810103126104425751386102a7565b3d915061049a565b6040513d86823e3d90fd5b60405162461bcd60e51b815260206004820152601a60248201527f5175697a3a20536f6c6f20616c726561647920736f6c7665642e0000000000006044820152606490fd5b60019193925014610521575b50506103f7565b610564906064600a84019182541561063c575b5403610614577f4f2f104a7ea12e35172792673c68fe1423b90b4f6b86a6c5f5a9a85bd565202754905b546112fa565b42116105d057600c01805490600160401b8210156105bc57600182018082558210156105a8578452602084200180546001600160a01b03191633179055388061051a565b634e487b7160e01b85526032600452602485fd5b634e487b7160e01b85526041600452602485fd5b606460405162461bcd60e51b815260206004820152602060248201527f5175697a3a20506f6f6c207265776172642077696e646f7720636c6f7365642e6044820152fd5b7f4f2f104a7ea12e35172792673c68fe1423b90b4f6b86a6c5f5a9a85bd5652026549061055e565b428355857f98e392e74a792835e605c302c60c0435ac790334152fd4e6ca7ec970b332aaec6020604051428152a2610534565b634e487b7160e01b87526021600452602487fd5b60405162461bcd60e51b815260206004820152602360248201527f5175697a3a2043616e206f6e6c7920616e73776572206f6e636520706572206460448201526230bc9760e91b6064820152608490fd5b634e487b7160e01b89526021600452602489fd5b3360009081527f4f2f104a7ea12e35172792673c68fe1423b90b4f6b86a6c5f5a9a85bd56520306020526040902060ff90819054169160081c169060028210156106d45760028110156106d4571461020b5760405162461bcd60e51b815260206004820152602a60248201527f5175697a3a20416c72656164792063686f73656e20646966666572656e74206d60448201526937b232903a37b230bc9760b11b6064820152608490fd5b60405162461bcd60e51b815260206004820152602360248201527f5175697a3a2057726f6e6720616e73776572206f7220696e76616c696420707260448201526237b7b360e91b6064820152608490fd5b610805915060203d60201161080b575b6107fd8183611230565b810190611268565b3861014a565b503d6107f3565b6040513d8a823e3d90fd5b8980fd5b61085160098601547f4f2f104a7ea12e35172792673c68fe1423b90b4f6b86a6c5f5a9a85bd565202754906112fa565b4211156100ed5760405162461bcd60e51b815260206004820152601860248201527f5175697a3a204c6576656c2031303020657870697265642e00000000000000006044820152606490fd5b60405162461bcd60e51b815260206004820152601960248201527f5175697a3a205175657374696f6e20697320636c6f7365642e000000000000006044820152606490fd5b8580fd5b845b80fd5b50346108e85760203660031901126108e8577f4f2f104a7ea12e35172792673c68fe1423b90b4f6b86a6c5f5a9a85bd565202254604051632474521560e21b8152600480820192909252336024820152903590602081604481305afa908115610bb5578391610bc0575b508015610b3b575b15610ad95780825260008051602061130883398151915260205260408220600381015415610a85576008810160ff19815416905582600a820155600b81016001600160601b0360a01b81541690556020600c604051926109bd8385611230565b85845285368137019082519267ffffffffffffffff8411610a7157600160401b8411610a715781908354858555808610610a49575b500191855280852090855b848110610a2e578633877f6c01933b9ad41cd54278498404c4955f24142d7570eff7bce17fc7f5ee12f8928380a380f35b83516001600160a01b031683820155928101926001016109fd565b8488528583892091820191015b818110610a6357506109f2565b888155849350600101610a56565b634e487b7160e01b86526041600452602486fd5b60405162461bcd60e51b815260206004820152602660248201527f5175697a3a205175657374696f6e20646f6573206e6f7420657869737420696e604482015265103130b7359760d11b6064820152608490fd5b60405162461bcd60e51b815260206004820152603460248201527f416363657373436f6e74726f6c3a2043616c6c6572206973206e6f742061206760448201527330b6b29030b236b4b71037b91031b932b0ba37b960611b6064820152608490fd5b507f4f2f104a7ea12e35172792673c68fe1423b90b4f6b86a6c5f5a9a85bd565202454604051632474521560e21b81526004810191909152336024820152602081604481305afa908115610bb5578391610b96575b5061095d565b610baf915060203d60201161080b576107fd8183611230565b38610b90565b6040513d85823e3d90fd5b610bd9915060203d60201161080b576107fd8183611230565b38610955565b50346108e85760203660031901126108e85760043580825260008051602061130883398151915260205260408220610c1c600382015415156112ae565b60ff600882015416610e26576064600682015414610d87575b5081602060018060a01b037f4f2f104a7ea12e35172792673c68fe1423b90b4f6b86a6c5f5a9a85bd5652036541660647f4f2f104a7ea12e35172792673c68fe1423b90b4f6b86a6c5f5a9a85bd56520255460405194859384926323b872dd60e01b845233600485015230602485015260448401525af1908115610bb5578391610d68575b5015610d12577f4f2f104a7ea12e35172792673c68fe1423b90b4f6b86a6c5f5a9a85bd565202554906040519182527ff10cfe1413da6fb4d61b5fe0472eef72ef9191ca81db52b96f4143513960d32d60203393a380f35b60405162461bcd60e51b815260206004820152602860248201527f5175697a3a205175697a436f696e207472616e73666572206661696c6564206660448201526737b9103434b73a1760c11b6064820152608490fd5b610d81915060203d60201161080b576107fd8183611230565b38610cba565b600901547f4f2f104a7ea12e35172792673c68fe1423b90b4f6b86a6c5f5a9a85bd565202754610db6916112fa565b4211610dc25738610c35565b60405162461bcd60e51b815260206004820152603660248201527f5175697a3a204c6576656c20313030207175657374696f6e206861732065787060448201527534b932b2161031b0b73737ba10313abc903434b73a1760511b6064820152608490fd5b60405162461bcd60e51b815260206004820152602160248201527f5175697a3a205175657374696f6e20697320616c726561647920636c6f7365646044820152601760f91b6064820152608490fd5b90503461045157608036600319011261045157600435604435916064359060028210156108e6577f4f2f104a7ea12e35172792673c68fe1423b90b4f6b86a6c5f5a9a85bd565202254632474521560e21b82526004820152336024820152602081604481305afa908115610469578591611211575b50156111ba5781156111765760018310158061116b575b15611126577f4f2f104a7ea12e35172792673c68fe1423b90b4f6b86a6c5f5a9a85bd565202e5491600019831461047857600183017f4f2f104a7ea12e35172792673c68fe1423b90b4f6b86a6c5f5a9a85bd565202e55606484036110f2577f4f2f104a7ea12e35172792673c68fe1423b90b4f6b86a6c5f5a9a85bd565202954915b8386526000805160206113088339815191526020526040862091600383015560243560048301556005820160018060a01b0333166001600160601b0360a01b825416179055846006830155826007830155600882019061ff0082549160081b169061ffff191617905542600982015584600a820155600b81016001600160601b0360a01b8154169055602090600c604051916110208484611230565b878352873681370181519167ffffffffffffffff83116110de57600160401b83116110de57839082548484558085106110b6575b5001908752828720875b83811061109b57505050506040519384528301527f5fff8b8a05084a38562ea22f588b62938f68ad92fbfc50ee5b3dc2e69dd0d81760403393a380f35b82516001600160a01b0316828201559184019160010161105e565b838a5284838b2091820191015b8181106110d05750611054565b8a81558693506001016110c3565b634e487b7160e01b88526041600452602488fd5b606361111f857f4f2f104a7ea12e35172792673c68fe1423b90b4f6b86a6c5f5a9a85bd565202854611285565b0491610f84565b60405162461bcd60e51b815260206004820152601e60248201527f5175697a3a20446966666963756c7479206d75737420626520312d31303000006044820152606490fd5b506064831115610f01565b606460405162461bcd60e51b815260206004820152602060248201527f5175697a3a20416e73776572206c6561662063616e6e6f74206265207a65726f6044820152fd5b60405162461bcd60e51b815260206004820152602960248201527f416363657373436f6e74726f6c3a2043616c6c6572206973206e6f742061206760448201526830b6b29030b236b4b760b91b6064820152608490fd5b61122a915060203d60201161080b576107fd8183611230565b38610eea565b90601f8019910116810190811067ffffffffffffffff82111761125257604052565b634e487b7160e01b600052604160045260246000fd5b90816020910312611280575180151581036112805790565b600080fd5b8181029291811591840414171561129857565b634e487b7160e01b600052601160045260246000fd5b156112b557565b60405162461bcd60e51b815260206004820152601e60248201527f5175697a3a205175657374696f6e20646f6573206e6f742065786973742e00006044820152606490fd5b919082018092116112985756fe4f2f104a7ea12e35172792673c68fe1423b90b4f6b86a6c5f5a9a85bd5652031a264697066735822122034d9d6205a1713222fe5468ea433ddc93bf456734a4aad2a2c2f81a34c835ed964736f6c634300081c0033","opcodes":"PUSH1 0x80 DUP1 PUSH1 0x40 MSTORE CALLVALUE PUSH1 0x15 JUMPI PUSH2 0x135D SWAP1 DUP2 PUSH2 0x1B DUP3 CODECOPY RETURN JUMPDEST PUSH1 0x0 DUP1 REVERT INVALID PUSH1 0x80 DUP1 PUSH1 0x40 MSTORE PUSH1 0x4 CALLDATASIZE LT ISZERO PUSH2 0x13 JUMPI PUSH1 0x0 DUP1 REVERT JUMPDEST PUSH1 0x0 SWAP1 DUP2 CALLDATALOAD PUSH1 0xE0 SHR SWAP1 DUP2 PUSH4 0x1E0FEF78 EQ PUSH2 0xE75 JUMPI POP DUP1 PUSH4 0x42DD0724 EQ PUSH2 0xBDF JUMPI DUP1 PUSH4 0x686CAEAF EQ PUSH2 0x8EB JUMPI PUSH4 0x6EFA82D2 EQ PUSH2 0x4D JUMPI PUSH1 0x0 DUP1 REVERT JUMPDEST CALLVALUE PUSH2 0x8E8 JUMPI PUSH1 0x60 CALLDATASIZE PUSH1 0x3 NOT ADD SLT PUSH2 0x8E8 JUMPI PUSH1 0x24 CALLDATALOAD PUSH1 0x4 CALLDATALOAD PUSH1 0x44 CALLDATALOAD PUSH8 0xFFFFFFFFFFFFFFFF DUP2 GT PUSH2 0x442 JUMPI CALLDATASIZE PUSH1 0x23 DUP3 ADD SLT ISZERO PUSH2 0x442 JUMPI DUP1 PUSH1 0x4 ADD CALLDATALOAD PUSH8 0xFFFFFFFFFFFFFFFF DUP2 GT PUSH2 0x8E6 JUMPI DUP1 PUSH1 0x5 SHL CALLDATASIZE PUSH1 0x24 DUP3 DUP6 ADD ADD GT PUSH2 0x8E2 JUMPI DUP4 DUP7 MSTORE PUSH1 0x0 DUP1 MLOAD PUSH1 0x20 PUSH2 0x1308 DUP4 CODECOPY DUP2 MLOAD SWAP2 MSTORE PUSH1 0x20 MSTORE PUSH1 0x40 DUP7 KECCAK256 SWAP1 PUSH2 0xCE PUSH1 0x3 DUP4 ADD SLOAD ISZERO ISZERO PUSH2 0x12AE JUMP JUMPDEST PUSH1 0x8 DUP3 ADD SWAP3 DUP4 SLOAD SWAP2 PUSH1 0xFF DUP4 AND PUSH2 0x89D JUMPI PUSH1 0x6 DUP5 ADD SWAP6 PUSH1 0x64 DUP8 SLOAD EQ PUSH2 0x821 JUMPI JUMPDEST PUSH1 0x40 MLOAD PUSH4 0x306885F PUSH1 0xE1 SHL DUP2 MSTORE PUSH1 0x4 DUP2 ADD DUP10 SWAP1 MSTORE PUSH1 0x24 DUP2 ADD DUP11 SWAP1 MSTORE PUSH1 0x60 PUSH1 0x44 DUP3 ADD MSTORE PUSH1 0x64 DUP2 ADD DUP5 SWAP1 MSTORE SWAP3 PUSH1 0x1 PUSH1 0x1 PUSH1 0xFB SHL SUB LT PUSH2 0x81D JUMPI PUSH1 0x84 DUP4 DUP4 PUSH1 0x20 SWAP5 PUSH1 0x24 DUP4 SWAP6 ADD DUP5 DUP5 ADD CALLDATACOPY DUP2 ADD SUB ADD DUP2 ADDRESS GAS STATICCALL SWAP1 DUP2 ISZERO PUSH2 0x812 JUMPI DUP9 SWAP2 PUSH2 0x7E3 JUMPI JUMPDEST POP ISZERO PUSH2 0x792 JUMPI CALLER PUSH1 0x0 SWAP1 DUP2 MSTORE PUSH32 0x4F2F104A7EA12E35172792673C68FE1423B90B4F6B86A6C5F5A9A85BD565202F PUSH1 0x20 MSTORE PUSH1 0x40 SWAP1 KECCAK256 SLOAD PUSH3 0x15180 TIMESTAMP DIV SWAP2 SWAP1 DUP3 EQ PUSH2 0x6E8 JUMPI POP CALLER PUSH1 0x0 SWAP1 DUP2 MSTORE PUSH32 0x4F2F104A7EA12E35172792673C68FE1423B90B4F6B86A6C5F5A9A85BD565202F PUSH1 0x20 MSTORE PUSH1 0x40 SWAP1 KECCAK256 DUP2 SWAP1 SSTORE DUP3 SLOAD CALLER PUSH1 0x0 SWAP1 DUP2 MSTORE PUSH32 0x4F2F104A7EA12E35172792673C68FE1423B90B4F6B86A6C5F5A9A85BD5652030 PUSH1 0x20 MSTORE PUSH1 0x40 SWAP1 KECCAK256 PUSH1 0x8 SWAP2 SWAP1 SWAP2 SHR PUSH1 0xFF AND PUSH1 0x2 DUP2 LT ISZERO PUSH2 0x6D4 JUMPI DUP2 SLOAD PUSH1 0xFF NOT AND OR SWAP1 SSTORE JUMPDEST CALLER DUP8 MSTORE PUSH1 0xD DUP3 ADD PUSH1 0x20 DUP2 SWAP1 MSTORE PUSH1 0x40 DUP9 KECCAK256 SLOAD DUP3 EQ PUSH2 0x683 JUMPI CALLER DUP9 MSTORE PUSH1 0x20 MSTORE PUSH1 0x40 DUP8 KECCAK256 SSTORE DUP2 SLOAD PUSH1 0x8 SHR PUSH1 0xFF AND PUSH1 0x2 DUP2 LT ISZERO PUSH2 0x66F JUMPI DUP1 PUSH2 0x50E JUMPI POP PUSH1 0xB DUP2 ADD DUP1 SLOAD PUSH1 0x1 PUSH1 0x1 PUSH1 0xA0 SHL SUB AND PUSH2 0x4C9 JUMPI DUP1 SLOAD PUSH1 0x1 PUSH1 0x1 PUSH1 0xA0 SHL SUB NOT AND CALLER OR SWAP1 SSTORE TIMESTAMP PUSH1 0xA SWAP2 SWAP1 SWAP2 ADD SSTORE DUP1 SLOAD PUSH1 0xFF NOT AND PUSH1 0x1 OR SWAP1 SSTORE SLOAD PUSH1 0x40 MLOAD PUSH4 0x4BD5465 PUSH1 0xE4 SHL DUP2 MSTORE PUSH1 0x4 DUP2 ADD SWAP2 SWAP1 SWAP2 MSTORE PUSH1 0x20 DUP2 PUSH1 0x24 DUP2 ADDRESS GAS STATICCALL SWAP1 DUP2 ISZERO PUSH2 0x4BE JUMPI DUP5 SWAP2 PUSH2 0x48C JUMPI JUMPDEST POP PUSH2 0x2710 PUSH2 0x2D6 PUSH32 0x4F2F104A7EA12E35172792673C68FE1423B90B4F6B86A6C5F5A9A85BD565202C SLOAD DUP4 PUSH2 0x1285 JUMP JUMPDEST DIV DUP1 DUP3 SUB SWAP2 DUP3 GT PUSH2 0x478 JUMPI PUSH32 0x4F2F104A7EA12E35172792673C68FE1423B90B4F6B86A6C5F5A9A85BD5652035 SLOAD DUP6 SWAP2 SWAP1 PUSH1 0x1 PUSH1 0x1 PUSH1 0xA0 SHL SUB AND DUP1 EXTCODESIZE ISZERO PUSH2 0x474 JUMPI PUSH1 0x24 DUP4 SWAP3 PUSH1 0x40 MLOAD SWAP5 DUP6 SWAP4 DUP5 SWAP3 PUSH4 0xFAD7F387 PUSH1 0xE0 SHL DUP5 MSTORE PUSH1 0x4 DUP5 ADD MSTORE GAS CALL DUP1 ISZERO PUSH2 0x469 JUMPI PUSH2 0x455 JUMPI JUMPDEST POP PUSH32 0x4F2F104A7EA12E35172792673C68FE1423B90B4F6B86A6C5F5A9A85BD5652035 SLOAD DUP5 SWAP1 PUSH1 0x1 PUSH1 0x1 PUSH1 0xA0 SHL SUB AND DUP1 EXTCODESIZE ISZERO PUSH2 0x451 JUMPI DUP2 DUP1 SWAP2 PUSH1 0x44 PUSH1 0x40 MLOAD DUP1 SWAP5 DUP2 SWAP4 PUSH4 0x91200209 PUSH1 0xE0 SHL DUP4 MSTORE CALLER PUSH1 0x4 DUP5 ADD MSTORE DUP9 PUSH1 0x24 DUP5 ADD MSTORE GAS CALL DUP1 ISZERO PUSH2 0x446 JUMPI PUSH2 0x42D JUMPI JUMPDEST POP POP PUSH1 0x40 MLOAD SWAP1 DUP2 MSTORE DUP2 PUSH32 0xAB7542BAFCED3DA2D8C881CB2DD1DE859FAC7C20D3650D2902AD389A64E08883 PUSH1 0x20 CALLER SWAP4 LOG3 DUP1 PUSH32 0x3C8F450BDFCCD4E29A4D8E9602688D5E009772A7DE7C40C7F27B8F8C129F01FA DUP5 DUP1 LOG2 JUMPDEST PUSH1 0x40 MLOAD SWAP2 DUP3 MSTORE PUSH1 0x1 PUSH1 0x20 DUP4 ADD MSTORE PUSH32 0xF13F0CAFC2E76D9B040BC1CF8FE98F442675719960E4065425C2C750AA0E19A4 PUSH1 0x40 CALLER SWAP4 LOG3 DUP1 RETURN JUMPDEST DUP2 PUSH2 0x437 SWAP2 PUSH2 0x1230 JUMP JUMPDEST PUSH2 0x442 JUMPI DUP4 CODESIZE PUSH2 0x3A2 JUMP JUMPDEST DUP4 DUP1 REVERT JUMPDEST PUSH1 0x40 MLOAD RETURNDATASIZE DUP5 DUP3 RETURNDATACOPY RETURNDATASIZE SWAP1 REVERT JUMPDEST POP DUP1 REVERT JUMPDEST DUP5 PUSH2 0x462 SWAP2 SWAP6 SWAP3 SWAP6 PUSH2 0x1230 JUMP JUMPDEST SWAP3 CODESIZE PUSH2 0x33E JUMP JUMPDEST PUSH1 0x40 MLOAD RETURNDATASIZE DUP8 DUP3 RETURNDATACOPY RETURNDATASIZE SWAP1 REVERT JUMPDEST DUP3 DUP1 REVERT JUMPDEST PUSH4 0x4E487B71 PUSH1 0xE0 SHL DUP6 MSTORE PUSH1 0x11 PUSH1 0x4 MSTORE PUSH1 0x24 DUP6 REVERT JUMPDEST SWAP1 POP PUSH1 0x20 DUP2 RETURNDATASIZE PUSH1 0x20 GT PUSH2 0x4B6 JUMPI JUMPDEST DUP2 PUSH2 0x4A7 PUSH1 0x20 SWAP4 DUP4 PUSH2 0x1230 JUMP JUMPDEST DUP2 ADD SUB SLT PUSH2 0x442 JUMPI MLOAD CODESIZE PUSH2 0x2A7 JUMP JUMPDEST RETURNDATASIZE SWAP2 POP PUSH2 0x49A JUMP JUMPDEST PUSH1 0x40 MLOAD RETURNDATASIZE DUP7 DUP3 RETURNDATACOPY RETURNDATASIZE SWAP1 REVERT JUMPDEST PUSH1 0x40 MLOAD PUSH3 0x461BCD PUSH1 0xE5 SHL DUP2 MSTORE PUSH1 0x20 PUSH1 0x4 DUP3 ADD MSTORE PUSH1 0x1A PUSH1 0x24 DUP3 ADD MSTORE PUSH32 0x5175697A3A20536F6C6F20616C726561647920736F6C7665642E000000000000 PUSH1 0x44 DUP3 ADD MSTORE PUSH1 0x64 SWAP1 REVERT JUMPDEST PUSH1 0x1 SWAP2 SWAP4 SWAP3 POP EQ PUSH2 0x521 JUMPI JUMPDEST POP POP PUSH2 0x3F7 JUMP JUMPDEST PUSH2 0x564 SWAP1 PUSH1 0x64 PUSH1 0xA DUP5 ADD SWAP2 DUP3 SLOAD ISZERO PUSH2 0x63C JUMPI JUMPDEST SLOAD SUB PUSH2 0x614 JUMPI PUSH32 0x4F2F104A7EA12E35172792673C68FE1423B90B4F6B86A6C5F5A9A85BD5652027 SLOAD SWAP1 JUMPDEST SLOAD PUSH2 0x12FA JUMP JUMPDEST TIMESTAMP GT PUSH2 0x5D0 JUMPI PUSH1 0xC ADD DUP1 SLOAD SWAP1 PUSH1 0x1 PUSH1 0x40 SHL DUP3 LT ISZERO PUSH2 0x5BC JUMPI PUSH1 0x1 DUP3 ADD DUP1 DUP3 SSTORE DUP3 LT ISZERO PUSH2 0x5A8 JUMPI DUP5 MSTORE PUSH1 0x20 DUP5 KECCAK256 ADD DUP1 SLOAD PUSH1 0x1 PUSH1 0x1 PUSH1 0xA0 SHL SUB NOT AND CALLER OR SWAP1 SSTORE CODESIZE DUP1 PUSH2 0x51A JUMP JUMPDEST PUSH4 0x4E487B71 PUSH1 0xE0 SHL DUP6 MSTORE PUSH1 0x32 PUSH1 0x4 MSTORE PUSH1 0x24 DUP6 REVERT JUMPDEST PUSH4 0x4E487B71 PUSH1 0xE0 SHL DUP6 MSTORE PUSH1 0x41 PUSH1 0x4 MSTORE PUSH1 0x24 DUP6 REVERT JUMPDEST PUSH1 0x64 PUSH1 0x40 MLOAD PUSH3 0x461BCD PUSH1 0xE5 SHL DUP2 MSTORE PUSH1 0x20 PUSH1 0x4 DUP3 ADD MSTORE PUSH1 0x20 PUSH1 0x24 DUP3 ADD MSTORE PUSH32 0x5175697A3A20506F6F6C207265776172642077696E646F7720636C6F7365642E PUSH1 0x44 DUP3 ADD MSTORE REVERT JUMPDEST PUSH32 0x4F2F104A7EA12E35172792673C68FE1423B90B4F6B86A6C5F5A9A85BD5652026 SLOAD SWAP1 PUSH2 0x55E JUMP JUMPDEST TIMESTAMP DUP4 SSTORE DUP6 PUSH32 0x98E392E74A792835E605C302C60C0435AC790334152FD4E6CA7EC970B332AAEC PUSH1 0x20 PUSH1 0x40 MLOAD TIMESTAMP DUP2 MSTORE LOG2 PUSH2 0x534 JUMP JUMPDEST PUSH4 0x4E487B71 PUSH1 0xE0 SHL DUP8 MSTORE PUSH1 0x21 PUSH1 0x4 MSTORE PUSH1 0x24 DUP8 REVERT JUMPDEST PUSH1 0x40 MLOAD PUSH3 0x461BCD PUSH1 0xE5 SHL DUP2 MSTORE PUSH1 0x20 PUSH1 0x4 DUP3 ADD MSTORE PUSH1 0x23 PUSH1 0x24 DUP3 ADD MSTORE PUSH32 0x5175697A3A2043616E206F6E6C7920616E73776572206F6E6365207065722064 PUSH1 0x44 DUP3 ADD MSTORE PUSH3 0x30BC97 PUSH1 0xE9 SHL PUSH1 0x64 DUP3 ADD MSTORE PUSH1 0x84 SWAP1 REVERT JUMPDEST PUSH4 0x4E487B71 PUSH1 0xE0 SHL DUP10 MSTORE PUSH1 0x21 PUSH1 0x4 MSTORE PUSH1 0x24 DUP10 REVERT JUMPDEST CALLER PUSH1 0x0 SWAP1 DUP2 MSTORE PUSH32 0x4F2F104A7EA12E35172792673C68FE1423B90B4F6B86A6C5F5A9A85BD5652030 PUSH1 0x20 MSTORE PUSH1 0x40 SWAP1 KECCAK256 PUSH1 0xFF SWAP1 DUP2 SWAP1 SLOAD AND SWAP2 PUSH1 0x8 SHR AND SWAP1 PUSH1 0x2 DUP3 LT ISZERO PUSH2 0x6D4 JUMPI PUSH1 0x2 DUP2 LT ISZERO PUSH2 0x6D4 JUMPI EQ PUSH2 0x20B JUMPI PUSH1 0x40 MLOAD PUSH3 0x461BCD PUSH1 0xE5 SHL DUP2 MSTORE PUSH1 0x20 PUSH1 0x4 DUP3 ADD MSTORE PUSH1 0x2A PUSH1 0x24 DUP3 ADD MSTORE PUSH32 0x5175697A3A20416C72656164792063686F73656E20646966666572656E74206D PUSH1 0x44 DUP3 ADD MSTORE PUSH10 0x37B232903A37B230BC97 PUSH1 0xB1 SHL PUSH1 0x64 DUP3 ADD MSTORE PUSH1 0x84 SWAP1 REVERT JUMPDEST PUSH1 0x40 MLOAD PUSH3 0x461BCD PUSH1 0xE5 SHL DUP2 MSTORE PUSH1 0x20 PUSH1 0x4 DUP3 ADD MSTORE PUSH1 0x23 PUSH1 0x24 DUP3 ADD MSTORE PUSH32 0x5175697A3A2057726F6E6720616E73776572206F7220696E76616C6964207072 PUSH1 0x44 DUP3 ADD MSTORE PUSH3 0x37B7B3 PUSH1 0xE9 SHL PUSH1 0x64 DUP3 ADD MSTORE PUSH1 0x84 SWAP1 REVERT JUMPDEST PUSH2 0x805 SWAP2 POP PUSH1 0x20 RETURNDATASIZE PUSH1 0x20 GT PUSH2 0x80B JUMPI JUMPDEST PUSH2 0x7FD DUP2 DUP4 PUSH2 0x1230 JUMP JUMPDEST DUP2 ADD SWAP1 PUSH2 0x1268 JUMP JUMPDEST CODESIZE PUSH2 0x14A JUMP JUMPDEST POP RETURNDATASIZE PUSH2 0x7F3 JUMP JUMPDEST PUSH1 0x40 MLOAD RETURNDATASIZE DUP11 DUP3 RETURNDATACOPY RETURNDATASIZE SWAP1 REVERT JUMPDEST DUP10 DUP1 REVERT JUMPDEST PUSH2 0x851 PUSH1 0x9 DUP7 ADD SLOAD PUSH32 0x4F2F104A7EA12E35172792673C68FE1423B90B4F6B86A6C5F5A9A85BD5652027 SLOAD SWAP1 PUSH2 0x12FA JUMP JUMPDEST TIMESTAMP GT ISZERO PUSH2 0xED JUMPI PUSH1 0x40 MLOAD PUSH3 0x461BCD PUSH1 0xE5 SHL DUP2 MSTORE PUSH1 0x20 PUSH1 0x4 DUP3 ADD MSTORE PUSH1 0x18 PUSH1 0x24 DUP3 ADD MSTORE PUSH32 0x5175697A3A204C6576656C2031303020657870697265642E0000000000000000 PUSH1 0x44 DUP3 ADD MSTORE PUSH1 0x64 SWAP1 REVERT JUMPDEST PUSH1 0x40 MLOAD PUSH3 0x461BCD PUSH1 0xE5 SHL DUP2 MSTORE PUSH1 0x20 PUSH1 0x4 DUP3 ADD MSTORE PUSH1 0x19 PUSH1 0x24 DUP3 ADD MSTORE PUSH32 0x5175697A3A205175657374696F6E20697320636C6F7365642E00000000000000 PUSH1 0x44 DUP3 ADD MSTORE PUSH1 0x64 SWAP1 REVERT JUMPDEST DUP6 DUP1 REVERT JUMPDEST DUP5 JUMPDEST DUP1 REVERT JUMPDEST POP CALLVALUE PUSH2 0x8E8 JUMPI PUSH1 0x20 CALLDATASIZE PUSH1 0x3 NOT ADD SLT PUSH2 0x8E8 JUMPI PUSH32 0x4F2F104A7EA12E35172792673C68FE1423B90B4F6B86A6C5F5A9A85BD5652022 SLOAD PUSH1 0x40 MLOAD PUSH4 0x24745215 PUSH1 0xE2 SHL DUP2 MSTORE PUSH1 0x4 DUP1 DUP3 ADD SWAP3 SWAP1 SWAP3 MSTORE CALLER PUSH1 0x24 DUP3 ADD MSTORE SWAP1 CALLDATALOAD SWAP1 PUSH1 0x20 DUP2 PUSH1 0x44 DUP2 ADDRESS GAS STATICCALL SWAP1 DUP2 ISZERO PUSH2 0xBB5 JUMPI DUP4 SWAP2 PUSH2 0xBC0 JUMPI JUMPDEST POP DUP1 ISZERO PUSH2 0xB3B JUMPI JUMPDEST ISZERO PUSH2 0xAD9 JUMPI DUP1 DUP3 MSTORE PUSH1 0x0 DUP1 MLOAD PUSH1 0x20 PUSH2 0x1308 DUP4 CODECOPY DUP2 MLOAD SWAP2 MSTORE PUSH1 0x20 MSTORE PUSH1 0x40 DUP3 KECCAK256 PUSH1 0x3 DUP2 ADD SLOAD ISZERO PUSH2 0xA85 JUMPI PUSH1 0x8 DUP2 ADD PUSH1 0xFF NOT DUP2 SLOAD AND SWAP1 SSTORE DUP3 PUSH1 0xA DUP3 ADD SSTORE PUSH1 0xB DUP2 ADD PUSH1 0x1 PUSH1 0x1 PUSH1 0x60 SHL SUB PUSH1 0xA0 SHL DUP2 SLOAD AND SWAP1 SSTORE PUSH1 0x20 PUSH1 0xC PUSH1 0x40 MLOAD SWAP3 PUSH2 0x9BD DUP4 DUP6 PUSH2 0x1230 JUMP JUMPDEST DUP6 DUP5 MSTORE DUP6 CALLDATASIZE DUP2 CALLDATACOPY ADD SWAP1 DUP3 MLOAD SWAP3 PUSH8 0xFFFFFFFFFFFFFFFF DUP5 GT PUSH2 0xA71 JUMPI PUSH1 0x1 PUSH1 0x40 SHL DUP5 GT PUSH2 0xA71 JUMPI DUP2 SWAP1 DUP4 SLOAD DUP6 DUP6 SSTORE DUP1 DUP7 LT PUSH2 0xA49 JUMPI JUMPDEST POP ADD SWAP2 DUP6 MSTORE DUP1 DUP6 KECCAK256 SWAP1 DUP6 JUMPDEST DUP5 DUP2 LT PUSH2 0xA2E JUMPI DUP7 CALLER DUP8 PUSH32 0x6C01933B9AD41CD54278498404C4955F24142D7570EFF7BCE17FC7F5EE12F892 DUP4 DUP1 LOG3 DUP1 RETURN JUMPDEST DUP4 MLOAD PUSH1 0x1 PUSH1 0x1 PUSH1 0xA0 SHL SUB AND DUP4 DUP3 ADD SSTORE SWAP3 DUP2 ADD SWAP3 PUSH1 0x1 ADD PUSH2 0x9FD JUMP JUMPDEST DUP5 DUP9 MSTORE DUP6 DUP4 DUP10 KECCAK256 SWAP2 DUP3 ADD SWAP2 ADD JUMPDEST DUP2 DUP2 LT PUSH2 0xA63 JUMPI POP PUSH2 0x9F2 JUMP JUMPDEST DUP9 DUP2 SSTORE DUP5 SWAP4 POP PUSH1 0x1 ADD PUSH2 0xA56 JUMP JUMPDEST PUSH4 0x4E487B71 PUSH1 0xE0 SHL DUP7 MSTORE PUSH1 0x41 PUSH1 0x4 MSTORE PUSH1 0x24 DUP7 REVERT JUMPDEST PUSH1 0x40 MLOAD PUSH3 0x461BCD PUSH1 0xE5 SHL DUP2 MSTORE PUSH1 0x20 PUSH1 0x4 DUP3 ADD MSTORE PUSH1 0x26 PUSH1 0x24 DUP3 ADD MSTORE PUSH32 0x5175697A3A205175657374696F6E20646F6573206E6F7420657869737420696E PUSH1 0x44 DUP3 ADD MSTORE PUSH6 0x103130B73597 PUSH1 0xD1 SHL PUSH1 0x64 DUP3 ADD MSTORE PUSH1 0x84 SWAP1 REVERT JUMPDEST PUSH1 0x40 MLOAD PUSH3 0x461BCD PUSH1 0xE5 SHL DUP2 MSTORE PUSH1 0x20 PUSH1 0x4 DUP3 ADD MSTORE PUSH1 0x34 PUSH1 0x24 DUP3 ADD MSTORE PUSH32 0x416363657373436F6E74726F6C3A2043616C6C6572206973206E6F7420612067 PUSH1 0x44 DUP3 ADD MSTORE PUSH20 0x30B6B29030B236B4B71037B91031B932B0BA37B9 PUSH1 0x61 SHL PUSH1 0x64 DUP3 ADD MSTORE PUSH1 0x84 SWAP1 REVERT JUMPDEST POP PUSH32 0x4F2F104A7EA12E35172792673C68FE1423B90B4F6B86A6C5F5A9A85BD5652024 SLOAD PUSH1 0x40 MLOAD PUSH4 0x24745215 PUSH1 0xE2 SHL DUP2 MSTORE PUSH1 0x4 DUP2 ADD SWAP2 SWAP1 SWAP2 MSTORE CALLER PUSH1 0x24 DUP3 ADD MSTORE PUSH1 0x20 DUP2 PUSH1 0x44 DUP2 ADDRESS GAS STATICCALL SWAP1 DUP2 ISZERO PUSH2 0xBB5 JUMPI DUP4 SWAP2 PUSH2 0xB96 JUMPI JUMPDEST POP PUSH2 0x95D JUMP JUMPDEST PUSH2 0xBAF SWAP2 POP PUSH1 0x20 RETURNDATASIZE PUSH1 0x20 GT PUSH2 0x80B JUMPI PUSH2 0x7FD DUP2 DUP4 PUSH2 0x1230 JUMP JUMPDEST CODESIZE PUSH2 0xB90 JUMP JUMPDEST PUSH1 0x40 MLOAD RETURNDATASIZE DUP6 DUP3 RETURNDATACOPY RETURNDATASIZE SWAP1 REVERT JUMPDEST PUSH2 0xBD9 SWAP2 POP PUSH1 0x20 RETURNDATASIZE PUSH1 0x20 GT PUSH2 0x80B JUMPI PUSH2 0x7FD DUP2 DUP4 PUSH2 0x1230 JUMP JUMPDEST CODESIZE PUSH2 0x955 JUMP JUMPDEST POP CALLVALUE PUSH2 0x8E8 JUMPI PUSH1 0x20 CALLDATASIZE PUSH1 0x3 NOT ADD SLT PUSH2 0x8E8 JUMPI PUSH1 0x4 CALLDATALOAD DUP1 DUP3 MSTORE PUSH1 0x0 DUP1 MLOAD PUSH1 0x20 PUSH2 0x1308 DUP4 CODECOPY DUP2 MLOAD SWAP2 MSTORE PUSH1 0x20 MSTORE PUSH1 0x40 DUP3 KECCAK256 PUSH2 0xC1C PUSH1 0x3 DUP3 ADD SLOAD ISZERO ISZERO PUSH2 0x12AE JUMP JUMPDEST PUSH1 0xFF PUSH1 0x8 DUP3 ADD SLOAD AND PUSH2 0xE26 JUMPI PUSH1 0x64 PUSH1 0x6 DUP3 ADD SLOAD EQ PUSH2 0xD87 JUMPI JUMPDEST POP DUP2 PUSH1 0x20 PUSH1 0x1 DUP1 PUSH1 0xA0 SHL SUB PUSH32 0x4F2F104A7EA12E35172792673C68FE1423B90B4F6B86A6C5F5A9A85BD5652036 SLOAD AND PUSH1 0x64 PUSH32 0x4F2F104A7EA12E35172792673C68FE1423B90B4F6B86A6C5F5A9A85BD5652025 SLOAD PUSH1 0x40 MLOAD SWAP5 DUP6 SWAP4 DUP5 SWAP3 PUSH4 0x23B872DD PUSH1 0xE0 SHL DUP5 MSTORE CALLER PUSH1 0x4 DUP6 ADD MSTORE ADDRESS PUSH1 0x24 DUP6 ADD MSTORE PUSH1 0x44 DUP5 ADD MSTORE GAS CALL SWAP1 DUP2 ISZERO PUSH2 0xBB5 JUMPI DUP4 SWAP2 PUSH2 0xD68 JUMPI JUMPDEST POP ISZERO PUSH2 0xD12 JUMPI PUSH32 0x4F2F104A7EA12E35172792673C68FE1423B90B4F6B86A6C5F5A9A85BD5652025 SLOAD SWAP1 PUSH1 0x40 MLOAD SWAP2 DUP3 MSTORE PUSH32 0xF10CFE1413DA6FB4D61B5FE0472EEF72EF9191CA81DB52B96F4143513960D32D PUSH1 0x20 CALLER SWAP4 LOG3 DUP1 RETURN JUMPDEST PUSH1 0x40 MLOAD PUSH3 0x461BCD PUSH1 0xE5 SHL DUP2 MSTORE PUSH1 0x20 PUSH1 0x4 DUP3 ADD MSTORE PUSH1 0x28 PUSH1 0x24 DUP3 ADD MSTORE PUSH32 0x5175697A3A205175697A436F696E207472616E73666572206661696C65642066 PUSH1 0x44 DUP3 ADD MSTORE PUSH8 0x37B9103434B73A17 PUSH1 0xC1 SHL PUSH1 0x64 DUP3 ADD MSTORE PUSH1 0x84 SWAP1 REVERT JUMPDEST PUSH2 0xD81 SWAP2 POP PUSH1 0x20 RETURNDATASIZE PUSH1 0x20 GT PUSH2 0x80B JUMPI PUSH2 0x7FD DUP2 DUP4 PUSH2 0x1230 JUMP JUMPDEST CODESIZE PUSH2 0xCBA JUMP JUMPDEST PUSH1 0x9 ADD SLOAD PUSH32 0x4F2F104A7EA12E35172792673C68FE1423B90B4F6B86A6C5F5A9A85BD5652027 SLOAD PUSH2 0xDB6 SWAP2 PUSH2 0x12FA JUMP JUMPDEST TIMESTAMP GT PUSH2 0xDC2 JUMPI CODESIZE PUSH2 0xC35 JUMP JUMPDEST PUSH1 0x40 MLOAD PUSH3 0x461BCD PUSH1 0xE5 SHL DUP2 MSTORE PUSH1 0x20 PUSH1 0x4 DUP3 ADD MSTORE PUSH1 0x36 PUSH1 0x24 DUP3 ADD MSTORE PUSH32 0x5175697A3A204C6576656C20313030207175657374696F6E2068617320657870 PUSH1 0x44 DUP3 ADD MSTORE PUSH22 0x34B932B2161031B0B73737BA10313ABC903434B73A17 PUSH1 0x51 SHL PUSH1 0x64 DUP3 ADD MSTORE PUSH1 0x84 SWAP1 REVERT JUMPDEST PUSH1 0x40 MLOAD PUSH3 0x461BCD PUSH1 0xE5 SHL DUP2 MSTORE PUSH1 0x20 PUSH1 0x4 DUP3 ADD MSTORE PUSH1 0x21 PUSH1 0x24 DUP3 ADD MSTORE PUSH32 0x5175697A3A205175657374696F6E20697320616C726561647920636C6F736564 PUSH1 0x44 DUP3 ADD MSTORE PUSH1 0x17 PUSH1 0xF9 SHL PUSH1 0x64 DUP3 ADD MSTORE PUSH1 0x84 SWAP1 REVERT JUMPDEST SWAP1 POP CALLVALUE PUSH2 0x451 JUMPI PUSH1 0x80 CALLDATASIZE PUSH1 0x3 NOT ADD SLT PUSH2 0x451 JUMPI PUSH1 0x4 CALLDATALOAD PUSH1 0x44 CALLDATALOAD SWAP2 PUSH1 0x64 CALLDATALOAD SWAP1 PUSH1 0x2 DUP3 LT ISZERO PUSH2 0x8E6 JUMPI PUSH32 0x4F2F104A7EA12E35172792673C68FE1423B90B4F6B86A6C5F5A9A85BD5652022 SLOAD PUSH4 0x24745215 PUSH1 0xE2 SHL DUP3 MSTORE PUSH1 0x4 DUP3 ADD MSTORE CALLER PUSH1 0x24 DUP3 ADD MSTORE PUSH1 0x20 DUP2 PUSH1 0x44 DUP2 ADDRESS GAS STATICCALL SWAP1 DUP2 ISZERO PUSH2 0x469 JUMPI DUP6 SWAP2 PUSH2 0x1211 JUMPI JUMPDEST POP ISZERO PUSH2 0x11BA JUMPI DUP2 ISZERO PUSH2 0x1176 JUMPI PUSH1 0x1 DUP4 LT ISZERO DUP1 PUSH2 0x116B JUMPI JUMPDEST ISZERO PUSH2 0x1126 JUMPI PUSH32 0x4F2F104A7EA12E35172792673C68FE1423B90B4F6B86A6C5F5A9A85BD565202E SLOAD SWAP2 PUSH1 0x0 NOT DUP4 EQ PUSH2 0x478 JUMPI PUSH1 0x1 DUP4 ADD PUSH32 0x4F2F104A7EA12E35172792673C68FE1423B90B4F6B86A6C5F5A9A85BD565202E SSTORE PUSH1 0x64 DUP5 SUB PUSH2 0x10F2 JUMPI PUSH32 0x4F2F104A7EA12E35172792673C68FE1423B90B4F6B86A6C5F5A9A85BD5652029 SLOAD SWAP2 JUMPDEST DUP4 DUP7 MSTORE PUSH1 0x0 DUP1 MLOAD PUSH1 0x20 PUSH2 0x1308 DUP4 CODECOPY DUP2 MLOAD SWAP2 MSTORE PUSH1 0x20 MSTORE PUSH1 0x40 DUP7 KECCAK256 SWAP2 PUSH1 0x3 DUP4 ADD SSTORE PUSH1 0x24 CALLDATALOAD PUSH1 0x4 DUP4 ADD SSTORE PUSH1 0x5 DUP3 ADD PUSH1 0x1 DUP1 PUSH1 0xA0 SHL SUB CALLER AND PUSH1 0x1 PUSH1 0x1 PUSH1 0x60 SHL SUB PUSH1 0xA0 SHL DUP3 SLOAD AND OR SWAP1 SSTORE DUP5 PUSH1 0x6 DUP4 ADD SSTORE DUP3 PUSH1 0x7 DUP4 ADD SSTORE PUSH1 0x8 DUP3 ADD SWAP1 PUSH2 0xFF00 DUP3 SLOAD SWAP2 PUSH1 0x8 SHL AND SWAP1 PUSH2 0xFFFF NOT AND OR SWAP1 SSTORE TIMESTAMP PUSH1 0x9 DUP3 ADD SSTORE DUP5 PUSH1 0xA DUP3 ADD SSTORE PUSH1 0xB DUP2 ADD PUSH1 0x1 PUSH1 0x1 PUSH1 0x60 SHL SUB PUSH1 0xA0 SHL DUP2 SLOAD AND SWAP1 SSTORE PUSH1 0x20 SWAP1 PUSH1 0xC PUSH1 0x40 MLOAD SWAP2 PUSH2 0x1020 DUP5 DUP5 PUSH2 0x1230 JUMP JUMPDEST DUP8 DUP4 MSTORE DUP8 CALLDATASIZE DUP2 CALLDATACOPY ADD DUP2 MLOAD SWAP2 PUSH8 0xFFFFFFFFFFFFFFFF DUP4 GT PUSH2 0x10DE JUMPI PUSH1 0x1 PUSH1 0x40 SHL DUP4 GT PUSH2 0x10DE JUMPI DUP4 SWAP1 DUP3 SLOAD DUP5 DUP5 SSTORE DUP1 DUP6 LT PUSH2 0x10B6 JUMPI JUMPDEST POP ADD SWAP1 DUP8 MSTORE DUP3 DUP8 KECCAK256 DUP8 JUMPDEST DUP4 DUP2 LT PUSH2 0x109B JUMPI POP POP POP POP PUSH1 0x40 MLOAD SWAP4 DUP5 MSTORE DUP4 ADD MSTORE PUSH32 0x5FFF8B8A05084A38562EA22F588B62938F68AD92FBFC50EE5B3DC2E69DD0D817 PUSH1 0x40 CALLER SWAP4 LOG3 DUP1 RETURN JUMPDEST DUP3 MLOAD PUSH1 0x1 PUSH1 0x1 PUSH1 0xA0 SHL SUB AND DUP3 DUP3 ADD SSTORE SWAP2 DUP5 ADD SWAP2 PUSH1 0x1 ADD PUSH2 0x105E JUMP JUMPDEST DUP4 DUP11 MSTORE DUP5 DUP4 DUP12 KECCAK256 SWAP2 DUP3 ADD SWAP2 ADD JUMPDEST DUP2 DUP2 LT PUSH2 0x10D0 JUMPI POP PUSH2 0x1054 JUMP JUMPDEST DUP11 DUP2 SSTORE DUP7 SWAP4 POP PUSH1 0x1 ADD PUSH2 0x10C3 JUMP JUMPDEST PUSH4 0x4E487B71 PUSH1 0xE0 SHL DUP9 MSTORE PUSH1 0x41 PUSH1 0x4 MSTORE PUSH1 0x24 DUP9 REVERT JUMPDEST PUSH1 0x63 PUSH2 0x111F DUP6 PUSH32 0x4F2F104A7EA12E35172792673C68FE1423B90B4F6B86A6C5F5A9A85BD5652028 SLOAD PUSH2 0x1285 JUMP JUMPDEST DIV SWAP2 PUSH2 0xF84 JUMP JUMPDEST PUSH1 0x40 MLOAD PUSH3 0x461BCD PUSH1 0xE5 SHL DUP2 MSTORE PUSH1 0x20 PUSH1 0x4 DUP3 ADD MSTORE PUSH1 0x1E PUSH1 0x24 DUP3 ADD MSTORE PUSH32 0x5175697A3A20446966666963756C7479206D75737420626520312D3130300000 PUSH1 0x44 DUP3 ADD MSTORE PUSH1 0x64 SWAP1 REVERT JUMPDEST POP PUSH1 0x64 DUP4 GT ISZERO PUSH2 0xF01 JUMP JUMPDEST PUSH1 0x64 PUSH1 0x40 MLOAD PUSH3 0x461BCD PUSH1 0xE5 SHL DUP2 MSTORE PUSH1 0x20 PUSH1 0x4 DUP3 ADD MSTORE PUSH1 0x20 PUSH1 0x24 DUP3 ADD MSTORE PUSH32 0x5175697A3A20416E73776572206C6561662063616E6E6F74206265207A65726F PUSH1 0x44 DUP3 ADD MSTORE REVERT JUMPDEST PUSH1 0x40 MLOAD PUSH3 0x461BCD PUSH1 0xE5 SHL DUP2 MSTORE PUSH1 0x20 PUSH1 0x4 DUP3 ADD MSTORE PUSH1 0x29 PUSH1 0x24 DUP3 ADD MSTORE PUSH32 0x416363657373436F6E74726F6C3A2043616C6C6572206973206E6F7420612067 PUSH1 0x44 DUP3 ADD MSTORE PUSH9 0x30B6B29030B236B4B7 PUSH1 0xB9 SHL PUSH1 0x64 DUP3 ADD MSTORE PUSH1 0x84 SWAP1 REVERT JUMPDEST PUSH2 0x122A SWAP2 POP PUSH1 0x20 RETURNDATASIZE PUSH1 0x20 GT PUSH2 0x80B JUMPI PUSH2 0x7FD DUP2 DUP4 PUSH2 0x1230 JUMP JUMPDEST CODESIZE PUSH2 0xEEA JUMP JUMPDEST SWAP1 PUSH1 0x1F DUP1 NOT SWAP2 ADD AND DUP2 ADD SWAP1 DUP2 LT PUSH8 0xFFFFFFFFFFFFFFFF DUP3 GT OR PUSH2 0x1252 JUMPI PUSH1 0x40 MSTORE JUMP JUMPDEST PUSH4 0x4E487B71 PUSH1 0xE0 SHL PUSH1 0x0 MSTORE PUSH1 0x41 PUSH1 0x4 MSTORE PUSH1 0x24 PUSH1 0x0 REVERT JUMPDEST SWAP1 DUP2 PUSH1 0x20 SWAP2 SUB SLT PUSH2 0x1280 JUMPI MLOAD DUP1 ISZERO ISZERO DUP2 SUB PUSH2 0x1280 JUMPI SWAP1 JUMP JUMPDEST PUSH1 0x0 DUP1 REVERT JUMPDEST DUP2 DUP2 MUL SWAP3 SWAP2 DUP2 ISZERO SWAP2 DUP5 DIV EQ OR ISZERO PUSH2 0x1298 JUMPI JUMP JUMPDEST PUSH4 0x4E487B71 PUSH1 0xE0 SHL PUSH1 0x0 MSTORE PUSH1 0x11 PUSH1 0x4 MSTORE PUSH1 0x24 PUSH1 0x0 REVERT JUMPDEST ISZERO PUSH2 0x12B5 JUMPI JUMP JUMPDEST PUSH1 0x40 MLOAD PUSH3 0x461BCD PUSH1 0xE5 SHL DUP2 MSTORE PUSH1 0x20 PUSH1 0x4 DUP3 ADD MSTORE PUSH1 0x1E PUSH1 0x24 DUP3 ADD MSTORE PUSH32 0x5175697A3A205175657374696F6E20646F6573206E6F742065786973742E0000 PUSH1 0x44 DUP3 ADD MSTORE PUSH1 0x64 SWAP1 REVERT JUMPDEST SWAP2 SWAP1 DUP3 ADD DUP1 SWAP3 GT PUSH2 0x1298 JUMPI JUMP INVALID 0x4F 0x2F LT BLOBBASEFEE PUSH31 0xA12E35172792673C68FE1423B90B4F6B86A6C5F5A9A85BD5652031A2646970 PUSH7 0x735822122034D9 0xD6 KECCAK256 GAS OR SGT 0x22 0x2F 0xE5 CHAINID DUP15 LOG4 CALLER 0xDD 0xC9 EXTCODESIZE DELEGATECALL JUMP PUSH20 0x4A4AAD2A2C2F81A34C835ED964736F6C63430008 SHR STOP CALLER "},"methodIdentifiers":{"activateQuestionFromBank(uint256)":"686caeaf","buyHint(uint256)":"42dd0724","createQuestion(bytes32,bytes32,uint256,uint8)":"1e0fef78","submitAnswer(uint256,bytes32,bytes32[])":"6efa82d2"}},"storageLayout":{"storage":[],"types":null}}}}