{"contracts/facets/QuizGameModeFacet.sol":{"QuizGameModeFacet":{"abi":[{"anonymous":false,"inputs":[{"indexed":true,"internalType":"uint256","name":"questionId","type":"uint256"},{"indexed":true,"internalType":"address","name":"solver","type":"address"},{"indexed":false,"internalType":"bytes32","name":"submittedAnswerHash","type":"bytes32"},{"indexed":false,"internalType":"bool","name":"isCorrect","type":"bool"}],"name":"AnswerSubmitted","type":"event"},{"anonymous":false,"inputs":[{"indexed":true,"internalType":"uint256","name":"questionId","type":"uint256"},{"indexed":true,"internalType":"address","name":"buyer","type":"address"},{"indexed":false,"internalType":"uint256","name":"cost","type":"uint256"}],"name":"HintPurchased","type":"event"},{"anonymous":false,"inputs":[{"indexed":true,"internalType":"uint256","name":"questionId","type":"uint256"},{"indexed":true,"internalType":"bytes32","name":"answerLeaf","type":"bytes32"}],"name":"LeafRegistered","type":"event"},{"anonymous":false,"inputs":[{"indexed":true,"internalType":"uint256","name":"questionId","type":"uint256"},{"indexed":true,"internalType":"bytes32","name":"answerLeaf","type":"bytes32"},{"indexed":true,"internalType":"address","name":"solver","type":"address"},{"indexed":false,"internalType":"uint256","name":"rewardAmount","type":"uint256"}],"name":"LeafSolved","type":"event"},{"anonymous":false,"inputs":[{"indexed":true,"internalType":"address","name":"player","type":"address"},{"indexed":true,"internalType":"uint256","name":"quizId","type":"uint256"}],"name":"PlayerJoinedQuiz","type":"event"},{"anonymous":false,"inputs":[{"indexed":true,"internalType":"uint256","name":"questionId","type":"uint256"},{"indexed":true,"internalType":"address","name":"activator","type":"address"}],"name":"QuestionActivatedFromBank","type":"event"},{"anonymous":false,"inputs":[{"indexed":true,"internalType":"uint256","name":"questionId","type":"uint256"}],"name":"QuestionClosed","type":"event"},{"anonymous":false,"inputs":[{"indexed":true,"internalType":"uint256","name":"questionId","type":"uint256"},{"indexed":true,"internalType":"address","name":"creator","type":"address"},{"indexed":false,"internalType":"uint256","name":"difficultyLevel","type":"uint256"},{"indexed":false,"internalType":"uint256","name":"baseRewardAmount","type":"uint256"}],"name":"QuestionCreated","type":"event"},{"anonymous":false,"inputs":[{"indexed":true,"internalType":"uint256","name":"questionId","type":"uint256"},{"indexed":false,"internalType":"uint256","name":"startTime","type":"uint256"}],"name":"QuestionRewardWindowStarted","type":"event"},{"anonymous":false,"inputs":[{"indexed":true,"internalType":"address","name":"player","type":"address"},{"indexed":true,"internalType":"uint256","name":"quizId","type":"uint256"},{"indexed":true,"internalType":"uint256","name":"questionIndex","type":"uint256"},{"indexed":false,"internalType":"uint8","name":"submittedAnswerIndex","type":"uint8"},{"indexed":false,"internalType":"bool","name":"isCorrect","type":"bool"}],"name":"QuizAnswerSubmitted","type":"event"},{"anonymous":false,"inputs":[{"indexed":true,"internalType":"address","name":"creator","type":"address"},{"indexed":true,"internalType":"uint256","name":"quizId","type":"uint256"},{"indexed":false,"internalType":"uint256","name":"rewardAmount","type":"uint256"},{"indexed":false,"internalType":"uint256","name":"totalQuestions","type":"uint256"}],"name":"QuizCreated","type":"event"},{"anonymous":false,"inputs":[{"indexed":true,"internalType":"uint256","name":"questionId","type":"uint256"},{"indexed":true,"internalType":"address","name":"solver","type":"address"},{"indexed":false,"internalType":"uint256","name":"rewardAmount","type":"uint256"}],"name":"RewardDistributed","type":"event"},{"inputs":[{"internalType":"uint256","name":"_questionId","type":"uint256"}],"name":"activateQuestionFromBank","outputs":[],"stateMutability":"nonpayable","type":"function"},{"inputs":[{"internalType":"uint256","name":"_questionId","type":"uint256"}],"name":"buyHint","outputs":[],"stateMutability":"nonpayable","type":"function"},{"inputs":[{"internalType":"bytes32","name":"_answerLeaf","type":"bytes32"},{"internalType":"bytes32","name":"_hintHash","type":"bytes32"},{"internalType":"uint256","name":"_difficultyLevel","type":"uint256"},{"internalType":"enum LibAppStorage.QuestionMode","name":"_mode","type":"uint8"}],"name":"createQuestion","outputs":[],"stateMutability":"nonpayable","type":"function"},{"inputs":[{"internalType":"bytes32","name":"_answerLeaf","type":"bytes32"}],"name":"getLeafQuestionId","outputs":[{"internalType":"uint256","name":"","type":"uint256"}],"stateMutability":"view","type":"function"},{"inputs":[{"internalType":"bytes32","name":"_answerLeaf","type":"bytes32"}],"name":"getLeafSolveTime","outputs":[{"internalType":"uint256","name":"","type":"uint256"}],"stateMutability":"view","type":"function"},{"inputs":[{"internalType":"bytes32","name":"_answerLeaf","type":"bytes32"}],"name":"getLeafSolver","outputs":[{"internalType":"address","name":"","type":"address"}],"stateMutability":"view","type":"function"},{"inputs":[{"internalType":"bytes32","name":"_answerLeaf","type":"bytes32"}],"name":"isLeafSolved","outputs":[{"internalType":"bool","name":"","type":"bool"}],"stateMutability":"view","type":"function"},{"inputs":[{"internalType":"uint256","name":"_questionId","type":"uint256"},{"internalType":"bytes32","name":"_answerLeaf","type":"bytes32"}],"name":"registerLeaf","outputs":[],"stateMutability":"nonpayable","type":"function"},{"inputs":[{"internalType":"bytes32","name":"_answerLeaf","type":"bytes32"}],"name":"resetLeaf","outputs":[],"stateMutability":"nonpayable","type":"function"},{"inputs":[{"internalType":"uint256","name":"_questionId","type":"uint256"},{"internalType":"bytes32","name":"_answerLeaf","type":"bytes32"},{"internalType":"bytes32[]","name":"_merkleProof","type":"bytes32[]"}],"name":"submitAnswer","outputs":[],"stateMutability":"nonpayable","type":"function"}],"evm":{"bytecode":{"linkReferences":{},"object":"608080604052346015576114ec908161001b8239f35b600080fdfe608080604052600436101561001357600080fd5b600090813560e01c90816236db03146112db575080631e0fef7814610fa3578063341da9ad14610f5157806342dd072414610cbb5780634a4747e114610bdb5780634ab4845114610b9f5780635c9b20ca14610b56578063686caeaf1461087f5780636efa82d2146101b65763a582b5331461008e57600080fd5b346101b35760203660031901126101b35760008051602061145783398151915254604051632474521560e21b8152600480820192909252336024820152903590602081604481305afa80156101a8576100ee918491610179575b50611376565b8082526000805160206114978339815191526020526040822060ff1981541690558082527f4f2f104a7ea12e35172792673c68fe1423b90b4f6b86a6c5f5a9a85bd5652036602052604082206001600160601b0360a01b815416905581527f4f2f104a7ea12e35172792673c68fe1423b90b4f6b86a6c5f5a9a85bd565203760205280604081205580f35b61019b915060203d6020116101a1575b6101938183611321565b810190611359565b386100e8565b503d610189565b6040513d85823e3d90fd5b80fd5b50346101b35760603660031901126101b35760243560043560443567ffffffffffffffff81116105db57366023820112156105db57806004013567ffffffffffffffff811161087b578060051b903660248385010111610877578386526000805160206114778339815191526020526040862091610239600384015415156113fd565b85875260008051602061149783398151915260205260ff60408820541661082157600683019360648554146107a5575b604051630306885f60e11b815260048101879052602481018890526060604482015260648101849052926001600160fb1b03106107a157608483836020946024839501848401378101030181305afa908115610796578691610777575b5015610726573360009081527f4f2f104a7ea12e35172792673c68fe1423b90b4f6b86a6c5f5a9a85bd565202f6020526040902054620151804204908114610676573360009081527f4f2f104a7ea12e35172792673c68fe1423b90b4f6b86a6c5f5a9a85bd565202f60209081526040808320939093556008938401547f4f2f104a7ea12e35172792673c68fe1423b90b4f6b86a6c5f5a9a85bd5652030909152919020911c60ff16600281101561066257815460ff19161790555b82845260008051602061149783398151915260209081526040808620805460ff191660011790558486527f4f2f104a7ea12e35172792673c68fe1423b90b4f6b86a6c5f5a9a85bd5652036825280862080546001600160a01b031916331790558486527f4f2f104a7ea12e35172792673c68fe1423b90b4f6b86a6c5f5a9a85bd565203782528086204290558486527f4f2f104a7ea12e35172792673c68fe1423b90b4f6b86a6c5f5a9a85bd56520388252808620849055915491516304bd546560e41b8152600481019290925281602481305afa908115610657578491610625575b506127106104947f4f2f104a7ea12e35172792673c68fe1423b90b4f6b86a6c5f5a9a85bd565202c54836113d4565b04808203918211610611577f4f2f104a7ea12e35172792673c68fe1423b90b4f6b86a6c5f5a9a85bd5652039548591906001600160a01b0316803b1561060d5760248392604051948593849263fad7f38760e01b845260048401525af18015610602576105ee575b507f4f2f104a7ea12e35172792673c68fe1423b90b4f6b86a6c5f5a9a85bd56520395484906001600160a01b0316803b156105ea57818091604460405180948193639120020960e01b83523360048401528860248401525af180156105df576105c6575b505060405190815282827f7ba754abf4a102d735a513bd003c98cc200878ac84f3f964a8871827e65d271560203394a4604051918252600160208301527ff13f0cafc2e76d9b040bc1cf8fe98f442675719960e4065425c2c750aa0e19a460403393a380f35b816105d091611321565b6105db578338610560565b8380fd5b6040513d84823e3d90fd5b5080fd5b846105fb91959295611321565b92386104fc565b6040513d87823e3d90fd5b8280fd5b634e487b7160e01b85526011600452602485fd5b90506020813d60201161064f575b8161064060209383611321565b810103126105db575138610465565b3d9150610633565b6040513d86823e3d90fd5b634e487b7160e01b86526021600452602486fd5b503360009081527f4f2f104a7ea12e35172792673c68fe1423b90b4f6b86a6c5f5a9a85bd56520306020526040902060ff906008908290541692015460081c1690600282101561066257600281101561066257146103825760405162461bcd60e51b815260206004820152602a60248201527f5175697a3a20416c72656164792063686f73656e20646966666572656e74206d60448201526937b232903a37b230bc9760b11b6064820152608490fd5b60405162461bcd60e51b815260206004820152602360248201527f5175697a3a2057726f6e6720616e73776572206f7220696e76616c696420707260448201526237b7b360e91b6064820152608490fd5b610790915060203d6020116101a1576101938183611321565b386102c6565b6040513d88823e3d90fd5b8780fd5b6107d560098501547f4f2f104a7ea12e35172792673c68fe1423b90b4f6b86a6c5f5a9a85bd56520275490611449565b4211156102695760405162461bcd60e51b815260206004820152601860248201527f5175697a3a204c6576656c2031303020657870697265642e00000000000000006044820152606490fd5b60405162461bcd60e51b815260206004820152602860248201527f5175697a3a2054686973207370656369666963207175697a20616c72656164796044820152671039b7b63b32b21760c11b6064820152608490fd5b8580fd5b8480fd5b50346101b35760203660031901126101b35760008051602061145783398151915254604051632474521560e21b8152600480820192909252336024820152903590602081604481305afa9081156101a8578391610b37575b508015610abd575b15610a5b5780825260008051602061147783398151915260205260408220600381015415610a07576008810160ff19815416905582600a820155600b81016001600160601b0360a01b81541690556020600c6040519261093f8385611321565b85845285368137019082519267ffffffffffffffff84116109f357600160401b84116109f357819083548585558086106109cb575b500191855280852090855b8481106109b0578633877f6c01933b9ad41cd54278498404c4955f24142d7570eff7bce17fc7f5ee12f8928380a380f35b83516001600160a01b0316838201559281019260010161097f565b8488528583892091820191015b8181106109e55750610974565b8881558493506001016109d8565b634e487b7160e01b86526041600452602486fd5b60405162461bcd60e51b815260206004820152602660248201527f5175697a3a205175657374696f6e20646f6573206e6f7420657869737420696e604482015265103130b7359760d11b6064820152608490fd5b60405162461bcd60e51b815260206004820152603460248201527f416363657373436f6e74726f6c3a2043616c6c6572206973206e6f742061206760448201527330b6b29030b236b4b71037b91031b932b0ba37b960611b6064820152608490fd5b507f4f2f104a7ea12e35172792673c68fe1423b90b4f6b86a6c5f5a9a85bd565202454604051632474521560e21b81526004810191909152336024820152602081604481305afa9081156101a8578391610b18575b506108df565b610b31915060203d6020116101a1576101938183611321565b38610b12565b610b50915060203d6020116101a1576101938183611321565b386108d7565b50346101b35760203660031901126101b357604060209160043581527f4f2f104a7ea12e35172792673c68fe1423b90b4f6b86a6c5f5a9a85bd565203883522054604051908152f35b50346101b35760203660031901126101b35760ff6040602092600435815260008051602061149783398151915284522054166040519015158152f35b50346101b35760403660031901126101b35760008051602061145783398151915254604051632474521560e21b81526004808201929092523360248083019190915235913590602081604481305afa801561065757610c409185916101795750611376565b808352600080516020611477833981519152602052610c67600360408520015415156113fd565b8183527f4f2f104a7ea12e35172792673c68fe1423b90b4f6b86a6c5f5a9a85bd56520386020528060408420557f19389a39f44b0a98725f708b7f380445ad25436e95cd1ea9b73666d89c65b0028380a380f35b50346101b35760203660031901126101b35760043580825260008051602061147783398151915260205260408220610cf8600382015415156113fd565b60ff600882015416610f02576064600682015414610e63575b5081602060018060a01b037f4f2f104a7ea12e35172792673c68fe1423b90b4f6b86a6c5f5a9a85bd565203a541660647f4f2f104a7ea12e35172792673c68fe1423b90b4f6b86a6c5f5a9a85bd56520255460405194859384926323b872dd60e01b845233600485015230602485015260448401525af19081156101a8578391610e44575b5015610dee577f4f2f104a7ea12e35172792673c68fe1423b90b4f6b86a6c5f5a9a85bd565202554906040519182527ff10cfe1413da6fb4d61b5fe0472eef72ef9191ca81db52b96f4143513960d32d60203393a380f35b60405162461bcd60e51b815260206004820152602860248201527f5175697a3a205175697a436f696e207472616e73666572206661696c6564206660448201526737b9103434b73a1760c11b6064820152608490fd5b610e5d915060203d6020116101a1576101938183611321565b38610d96565b600901547f4f2f104a7ea12e35172792673c68fe1423b90b4f6b86a6c5f5a9a85bd565202754610e9291611449565b4211610e9e5738610d11565b60405162461bcd60e51b815260206004820152603660248201527f5175697a3a204c6576656c20313030207175657374696f6e206861732065787060448201527534b932b2161031b0b73737ba10313abc903434b73a1760511b6064820152608490fd5b60405162461bcd60e51b815260206004820152602160248201527f5175697a3a205175657374696f6e20697320616c726561647920636c6f7365646044820152601760f91b6064820152608490fd5b50346101b35760203660031901126101b35760209060043581527f4f2f104a7ea12e35172792673c68fe1423b90b4f6b86a6c5f5a9a85bd56520368252604060018060a01b0391205416604051908152f35b50346101b35760803660031901126101b35760443560043560643560028110156105db5760008051602061145783398151915254604051632474521560e21b81526004810191909152336024820152602081604481305afa8015610602576110119186916101795750611376565b81156112975760018310158061128c575b15611247577f4f2f104a7ea12e35172792673c68fe1423b90b4f6b86a6c5f5a9a85bd565202e5491600019831461061157600183017f4f2f104a7ea12e35172792673c68fe1423b90b4f6b86a6c5f5a9a85bd565202e5560648403611213577f4f2f104a7ea12e35172792673c68fe1423b90b4f6b86a6c5f5a9a85bd565202954915b8386526000805160206114778339815191526020526040862091600383015560243560048301556005820160018060a01b0333166001600160601b0360a01b825416179055846006830155826007830155600882019061ff0082549160081b169061ffff191617905542600982015584600a820155600b81016001600160601b0360a01b8154169055602090600c604051916111418484611321565b878352873681370181519167ffffffffffffffff83116111ff57600160401b83116111ff57839082548484558085106111d7575b5001908752828720875b8381106111bc57505050506040519384528301527f5fff8b8a05084a38562ea22f588b62938f68ad92fbfc50ee5b3dc2e69dd0d81760403393a380f35b82516001600160a01b0316828201559184019160010161117f565b838a5284838b2091820191015b8181106111f15750611175565b8a81558693506001016111e4565b634e487b7160e01b88526041600452602488fd5b6063611240857f4f2f104a7ea12e35172792673c68fe1423b90b4f6b86a6c5f5a9a85bd5652028546113d4565b04916110a5565b60405162461bcd60e51b815260206004820152601e60248201527f5175697a3a20446966666963756c7479206d75737420626520312d31303000006044820152606490fd5b506064831115611022565b606460405162461bcd60e51b815260206004820152602060248201527f5175697a3a20416e73776572206c6561662063616e6e6f74206265207a65726f6044820152fd5b9050346105ea5760203660031901126105ea57604060209260043581527f4f2f104a7ea12e35172792673c68fe1423b90b4f6b86a6c5f5a9a85bd5652037845220548152f35b90601f8019910116810190811067ffffffffffffffff82111761134357604052565b634e487b7160e01b600052604160045260246000fd5b90816020910312611371575180151581036113715790565b600080fd5b1561137d57565b60405162461bcd60e51b815260206004820152602960248201527f416363657373436f6e74726f6c3a2043616c6c6572206973206e6f742061206760448201526830b6b29030b236b4b760b91b6064820152608490fd5b818102929181159184041417156113e757565b634e487b7160e01b600052601160045260246000fd5b1561140457565b60405162461bcd60e51b815260206004820152601e60248201527f5175697a3a205175657374696f6e20646f6573206e6f742065786973742e00006044820152606490fd5b919082018092116113e75756fe4f2f104a7ea12e35172792673c68fe1423b90b4f6b86a6c5f5a9a85bd56520224f2f104a7ea12e35172792673c68fe1423b90b4f6b86a6c5f5a9a85bd56520314f2f104a7ea12e35172792673c68fe1423b90b4f6b86a6c5f5a9a85bd5652035a2646970667358221220002d8e74ca0cbd8a8829882ab0ea3d8f46c7d36b50a376770218e12f9d53586464736f6c634300081c0033","opcodes":"PUSH1 0x80 DUP1 PUSH1 0x40 MSTORE CALLVALUE PUSH1 0x15 JUMPI PUSH2 0x14EC SWAP1 DUP2 PUSH2 0x1B DUP3 CODECOPY RETURN JUMPDEST PUSH1 0x0 DUP1 REVERT INVALID PUSH1 0x80 DUP1 PUSH1 0x40 MSTORE PUSH1 0x4 CALLDATASIZE LT ISZERO PUSH2 0x13 JUMPI PUSH1 0x0 DUP1 REVERT JUMPDEST PUSH1 0x0 SWAP1 DUP2 CALLDATALOAD PUSH1 0xE0 SHR SWAP1 DUP2 PUSH3 0x36DB03 EQ PUSH2 0x12DB JUMPI POP DUP1 PUSH4 0x1E0FEF78 EQ PUSH2 0xFA3 JUMPI DUP1 PUSH4 0x341DA9AD EQ PUSH2 0xF51 JUMPI DUP1 PUSH4 0x42DD0724 EQ PUSH2 0xCBB JUMPI DUP1 PUSH4 0x4A4747E1 EQ PUSH2 0xBDB JUMPI DUP1 PUSH4 0x4AB48451 EQ PUSH2 0xB9F JUMPI DUP1 PUSH4 0x5C9B20CA EQ PUSH2 0xB56 JUMPI DUP1 PUSH4 0x686CAEAF EQ PUSH2 0x87F JUMPI DUP1 PUSH4 0x6EFA82D2 EQ PUSH2 0x1B6 JUMPI PUSH4 0xA582B533 EQ PUSH2 0x8E JUMPI PUSH1 0x0 DUP1 REVERT JUMPDEST CALLVALUE PUSH2 0x1B3 JUMPI PUSH1 0x20 CALLDATASIZE PUSH1 0x3 NOT ADD SLT PUSH2 0x1B3 JUMPI PUSH1 0x0 DUP1 MLOAD PUSH1 0x20 PUSH2 0x1457 DUP4 CODECOPY DUP2 MLOAD SWAP2 MSTORE SLOAD PUSH1 0x40 MLOAD PUSH4 0x24745215 PUSH1 0xE2 SHL DUP2 MSTORE PUSH1 0x4 DUP1 DUP3 ADD SWAP3 SWAP1 SWAP3 MSTORE CALLER PUSH1 0x24 DUP3 ADD MSTORE SWAP1 CALLDATALOAD SWAP1 PUSH1 0x20 DUP2 PUSH1 0x44 DUP2 ADDRESS GAS STATICCALL DUP1 ISZERO PUSH2 0x1A8 JUMPI PUSH2 0xEE SWAP2 DUP5 SWAP2 PUSH2 0x179 JUMPI JUMPDEST POP PUSH2 0x1376 JUMP JUMPDEST DUP1 DUP3 MSTORE PUSH1 0x0 DUP1 MLOAD PUSH1 0x20 PUSH2 0x1497 DUP4 CODECOPY DUP2 MLOAD SWAP2 MSTORE PUSH1 0x20 MSTORE PUSH1 0x40 DUP3 KECCAK256 PUSH1 0xFF NOT DUP2 SLOAD AND SWAP1 SSTORE DUP1 DUP3 MSTORE PUSH32 0x4F2F104A7EA12E35172792673C68FE1423B90B4F6B86A6C5F5A9A85BD5652036 PUSH1 0x20 MSTORE PUSH1 0x40 DUP3 KECCAK256 PUSH1 0x1 PUSH1 0x1 PUSH1 0x60 SHL SUB PUSH1 0xA0 SHL DUP2 SLOAD AND SWAP1 SSTORE DUP2 MSTORE PUSH32 0x4F2F104A7EA12E35172792673C68FE1423B90B4F6B86A6C5F5A9A85BD5652037 PUSH1 0x20 MSTORE DUP1 PUSH1 0x40 DUP2 KECCAK256 SSTORE DUP1 RETURN JUMPDEST PUSH2 0x19B SWAP2 POP PUSH1 0x20 RETURNDATASIZE PUSH1 0x20 GT PUSH2 0x1A1 JUMPI JUMPDEST PUSH2 0x193 DUP2 DUP4 PUSH2 0x1321 JUMP JUMPDEST DUP2 ADD SWAP1 PUSH2 0x1359 JUMP JUMPDEST CODESIZE PUSH2 0xE8 JUMP JUMPDEST POP RETURNDATASIZE PUSH2 0x189 JUMP JUMPDEST PUSH1 0x40 MLOAD RETURNDATASIZE DUP6 DUP3 RETURNDATACOPY RETURNDATASIZE SWAP1 REVERT JUMPDEST DUP1 REVERT JUMPDEST POP CALLVALUE PUSH2 0x1B3 JUMPI PUSH1 0x60 CALLDATASIZE PUSH1 0x3 NOT ADD SLT PUSH2 0x1B3 JUMPI PUSH1 0x24 CALLDATALOAD PUSH1 0x4 CALLDATALOAD PUSH1 0x44 CALLDATALOAD PUSH8 0xFFFFFFFFFFFFFFFF DUP2 GT PUSH2 0x5DB JUMPI CALLDATASIZE PUSH1 0x23 DUP3 ADD SLT ISZERO PUSH2 0x5DB JUMPI DUP1 PUSH1 0x4 ADD CALLDATALOAD PUSH8 0xFFFFFFFFFFFFFFFF DUP2 GT PUSH2 0x87B JUMPI DUP1 PUSH1 0x5 SHL SWAP1 CALLDATASIZE PUSH1 0x24 DUP4 DUP6 ADD ADD GT PUSH2 0x877 JUMPI DUP4 DUP7 MSTORE PUSH1 0x0 DUP1 MLOAD PUSH1 0x20 PUSH2 0x1477 DUP4 CODECOPY DUP2 MLOAD SWAP2 MSTORE PUSH1 0x20 MSTORE PUSH1 0x40 DUP7 KECCAK256 SWAP2 PUSH2 0x239 PUSH1 0x3 DUP5 ADD SLOAD ISZERO ISZERO PUSH2 0x13FD JUMP JUMPDEST DUP6 DUP8 MSTORE PUSH1 0x0 DUP1 MLOAD PUSH1 0x20 PUSH2 0x1497 DUP4 CODECOPY DUP2 MLOAD SWAP2 MSTORE PUSH1 0x20 MSTORE PUSH1 0xFF PUSH1 0x40 DUP9 KECCAK256 SLOAD AND PUSH2 0x821 JUMPI PUSH1 0x6 DUP4 ADD SWAP4 PUSH1 0x64 DUP6 SLOAD EQ PUSH2 0x7A5 JUMPI JUMPDEST PUSH1 0x40 MLOAD PUSH4 0x306885F PUSH1 0xE1 SHL DUP2 MSTORE PUSH1 0x4 DUP2 ADD DUP8 SWAP1 MSTORE PUSH1 0x24 DUP2 ADD DUP9 SWAP1 MSTORE PUSH1 0x60 PUSH1 0x44 DUP3 ADD MSTORE PUSH1 0x64 DUP2 ADD DUP5 SWAP1 MSTORE SWAP3 PUSH1 0x1 PUSH1 0x1 PUSH1 0xFB SHL SUB LT PUSH2 0x7A1 JUMPI PUSH1 0x84 DUP4 DUP4 PUSH1 0x20 SWAP5 PUSH1 0x24 DUP4 SWAP6 ADD DUP5 DUP5 ADD CALLDATACOPY DUP2 ADD SUB ADD DUP2 ADDRESS GAS STATICCALL SWAP1 DUP2 ISZERO PUSH2 0x796 JUMPI DUP7 SWAP2 PUSH2 0x777 JUMPI JUMPDEST POP ISZERO PUSH2 0x726 JUMPI CALLER PUSH1 0x0 SWAP1 DUP2 MSTORE PUSH32 0x4F2F104A7EA12E35172792673C68FE1423B90B4F6B86A6C5F5A9A85BD565202F PUSH1 0x20 MSTORE PUSH1 0x40 SWAP1 KECCAK256 SLOAD PUSH3 0x15180 TIMESTAMP DIV SWAP1 DUP2 EQ PUSH2 0x676 JUMPI CALLER PUSH1 0x0 SWAP1 DUP2 MSTORE PUSH32 0x4F2F104A7EA12E35172792673C68FE1423B90B4F6B86A6C5F5A9A85BD565202F PUSH1 0x20 SWAP1 DUP2 MSTORE PUSH1 0x40 DUP1 DUP4 KECCAK256 SWAP4 SWAP1 SWAP4 SSTORE PUSH1 0x8 SWAP4 DUP5 ADD SLOAD PUSH32 0x4F2F104A7EA12E35172792673C68FE1423B90B4F6B86A6C5F5A9A85BD5652030 SWAP1 SWAP2 MSTORE SWAP2 SWAP1 KECCAK256 SWAP2 SHR PUSH1 0xFF AND PUSH1 0x2 DUP2 LT ISZERO PUSH2 0x662 JUMPI DUP2 SLOAD PUSH1 0xFF NOT AND OR SWAP1 SSTORE JUMPDEST DUP3 DUP5 MSTORE PUSH1 0x0 DUP1 MLOAD PUSH1 0x20 PUSH2 0x1497 DUP4 CODECOPY DUP2 MLOAD SWAP2 MSTORE PUSH1 0x20 SWAP1 DUP2 MSTORE PUSH1 0x40 DUP1 DUP7 KECCAK256 DUP1 SLOAD PUSH1 0xFF NOT AND PUSH1 0x1 OR SWAP1 SSTORE DUP5 DUP7 MSTORE PUSH32 0x4F2F104A7EA12E35172792673C68FE1423B90B4F6B86A6C5F5A9A85BD5652036 DUP3 MSTORE DUP1 DUP7 KECCAK256 DUP1 SLOAD PUSH1 0x1 PUSH1 0x1 PUSH1 0xA0 SHL SUB NOT AND CALLER OR SWAP1 SSTORE DUP5 DUP7 MSTORE PUSH32 0x4F2F104A7EA12E35172792673C68FE1423B90B4F6B86A6C5F5A9A85BD5652037 DUP3 MSTORE DUP1 DUP7 KECCAK256 TIMESTAMP SWAP1 SSTORE DUP5 DUP7 MSTORE PUSH32 0x4F2F104A7EA12E35172792673C68FE1423B90B4F6B86A6C5F5A9A85BD5652038 DUP3 MSTORE DUP1 DUP7 KECCAK256 DUP5 SWAP1 SSTORE SWAP2 SLOAD SWAP2 MLOAD PUSH4 0x4BD5465 PUSH1 0xE4 SHL DUP2 MSTORE PUSH1 0x4 DUP2 ADD SWAP3 SWAP1 SWAP3 MSTORE DUP2 PUSH1 0x24 DUP2 ADDRESS GAS STATICCALL SWAP1 DUP2 ISZERO PUSH2 0x657 JUMPI DUP5 SWAP2 PUSH2 0x625 JUMPI JUMPDEST POP PUSH2 0x2710 PUSH2 0x494 PUSH32 0x4F2F104A7EA12E35172792673C68FE1423B90B4F6B86A6C5F5A9A85BD565202C SLOAD DUP4 PUSH2 0x13D4 JUMP JUMPDEST DIV DUP1 DUP3 SUB SWAP2 DUP3 GT PUSH2 0x611 JUMPI PUSH32 0x4F2F104A7EA12E35172792673C68FE1423B90B4F6B86A6C5F5A9A85BD5652039 SLOAD DUP6 SWAP2 SWAP1 PUSH1 0x1 PUSH1 0x1 PUSH1 0xA0 SHL SUB AND DUP1 EXTCODESIZE ISZERO PUSH2 0x60D JUMPI PUSH1 0x24 DUP4 SWAP3 PUSH1 0x40 MLOAD SWAP5 DUP6 SWAP4 DUP5 SWAP3 PUSH4 0xFAD7F387 PUSH1 0xE0 SHL DUP5 MSTORE PUSH1 0x4 DUP5 ADD MSTORE GAS CALL DUP1 ISZERO PUSH2 0x602 JUMPI PUSH2 0x5EE JUMPI JUMPDEST POP PUSH32 0x4F2F104A7EA12E35172792673C68FE1423B90B4F6B86A6C5F5A9A85BD5652039 SLOAD DUP5 SWAP1 PUSH1 0x1 PUSH1 0x1 PUSH1 0xA0 SHL SUB AND DUP1 EXTCODESIZE ISZERO PUSH2 0x5EA JUMPI DUP2 DUP1 SWAP2 PUSH1 0x44 PUSH1 0x40 MLOAD DUP1 SWAP5 DUP2 SWAP4 PUSH4 0x91200209 PUSH1 0xE0 SHL DUP4 MSTORE CALLER PUSH1 0x4 DUP5 ADD MSTORE DUP9 PUSH1 0x24 DUP5 ADD MSTORE GAS CALL DUP1 ISZERO PUSH2 0x5DF JUMPI PUSH2 0x5C6 JUMPI JUMPDEST POP POP PUSH1 0x40 MLOAD SWAP1 DUP2 MSTORE DUP3 DUP3 PUSH32 0x7BA754ABF4A102D735A513BD003C98CC200878AC84F3F964A8871827E65D2715 PUSH1 0x20 CALLER SWAP5 LOG4 PUSH1 0x40 MLOAD SWAP2 DUP3 MSTORE PUSH1 0x1 PUSH1 0x20 DUP4 ADD MSTORE PUSH32 0xF13F0CAFC2E76D9B040BC1CF8FE98F442675719960E4065425C2C750AA0E19A4 PUSH1 0x40 CALLER SWAP4 LOG3 DUP1 RETURN JUMPDEST DUP2 PUSH2 0x5D0 SWAP2 PUSH2 0x1321 JUMP JUMPDEST PUSH2 0x5DB JUMPI DUP4 CODESIZE PUSH2 0x560 JUMP JUMPDEST DUP4 DUP1 REVERT JUMPDEST PUSH1 0x40 MLOAD RETURNDATASIZE DUP5 DUP3 RETURNDATACOPY RETURNDATASIZE SWAP1 REVERT JUMPDEST POP DUP1 REVERT JUMPDEST DUP5 PUSH2 0x5FB SWAP2 SWAP6 SWAP3 SWAP6 PUSH2 0x1321 JUMP JUMPDEST SWAP3 CODESIZE PUSH2 0x4FC JUMP JUMPDEST PUSH1 0x40 MLOAD RETURNDATASIZE DUP8 DUP3 RETURNDATACOPY RETURNDATASIZE SWAP1 REVERT JUMPDEST DUP3 DUP1 REVERT JUMPDEST PUSH4 0x4E487B71 PUSH1 0xE0 SHL DUP6 MSTORE PUSH1 0x11 PUSH1 0x4 MSTORE PUSH1 0x24 DUP6 REVERT JUMPDEST SWAP1 POP PUSH1 0x20 DUP2 RETURNDATASIZE PUSH1 0x20 GT PUSH2 0x64F JUMPI JUMPDEST DUP2 PUSH2 0x640 PUSH1 0x20 SWAP4 DUP4 PUSH2 0x1321 JUMP JUMPDEST DUP2 ADD SUB SLT PUSH2 0x5DB JUMPI MLOAD CODESIZE PUSH2 0x465 JUMP JUMPDEST RETURNDATASIZE SWAP2 POP PUSH2 0x633 JUMP JUMPDEST PUSH1 0x40 MLOAD RETURNDATASIZE DUP7 DUP3 RETURNDATACOPY RETURNDATASIZE SWAP1 REVERT JUMPDEST PUSH4 0x4E487B71 PUSH1 0xE0 SHL DUP7 MSTORE PUSH1 0x21 PUSH1 0x4 MSTORE PUSH1 0x24 DUP7 REVERT JUMPDEST POP CALLER PUSH1 0x0 SWAP1 DUP2 MSTORE PUSH32 0x4F2F104A7EA12E35172792673C68FE1423B90B4F6B86A6C5F5A9A85BD5652030 PUSH1 0x20 MSTORE PUSH1 0x40 SWAP1 KECCAK256 PUSH1 0xFF SWAP1 PUSH1 0x8 SWAP1 DUP3 SWAP1 SLOAD AND SWAP3 ADD SLOAD PUSH1 0x8 SHR AND SWAP1 PUSH1 0x2 DUP3 LT ISZERO PUSH2 0x662 JUMPI PUSH1 0x2 DUP2 LT ISZERO PUSH2 0x662 JUMPI EQ PUSH2 0x382 JUMPI PUSH1 0x40 MLOAD PUSH3 0x461BCD PUSH1 0xE5 SHL DUP2 MSTORE PUSH1 0x20 PUSH1 0x4 DUP3 ADD MSTORE PUSH1 0x2A PUSH1 0x24 DUP3 ADD MSTORE PUSH32 0x5175697A3A20416C72656164792063686F73656E20646966666572656E74206D PUSH1 0x44 DUP3 ADD MSTORE PUSH10 0x37B232903A37B230BC97 PUSH1 0xB1 SHL PUSH1 0x64 DUP3 ADD MSTORE PUSH1 0x84 SWAP1 REVERT JUMPDEST PUSH1 0x40 MLOAD PUSH3 0x461BCD PUSH1 0xE5 SHL DUP2 MSTORE PUSH1 0x20 PUSH1 0x4 DUP3 ADD MSTORE PUSH1 0x23 PUSH1 0x24 DUP3 ADD MSTORE PUSH32 0x5175697A3A2057726F6E6720616E73776572206F7220696E76616C6964207072 PUSH1 0x44 DUP3 ADD MSTORE PUSH3 0x37B7B3 PUSH1 0xE9 SHL PUSH1 0x64 DUP3 ADD MSTORE PUSH1 0x84 SWAP1 REVERT JUMPDEST PUSH2 0x790 SWAP2 POP PUSH1 0x20 RETURNDATASIZE PUSH1 0x20 GT PUSH2 0x1A1 JUMPI PUSH2 0x193 DUP2 DUP4 PUSH2 0x1321 JUMP JUMPDEST CODESIZE PUSH2 0x2C6 JUMP JUMPDEST PUSH1 0x40 MLOAD RETURNDATASIZE DUP9 DUP3 RETURNDATACOPY RETURNDATASIZE SWAP1 REVERT JUMPDEST DUP8 DUP1 REVERT JUMPDEST PUSH2 0x7D5 PUSH1 0x9 DUP6 ADD SLOAD PUSH32 0x4F2F104A7EA12E35172792673C68FE1423B90B4F6B86A6C5F5A9A85BD5652027 SLOAD SWAP1 PUSH2 0x1449 JUMP JUMPDEST TIMESTAMP GT ISZERO PUSH2 0x269 JUMPI PUSH1 0x40 MLOAD PUSH3 0x461BCD PUSH1 0xE5 SHL DUP2 MSTORE PUSH1 0x20 PUSH1 0x4 DUP3 ADD MSTORE PUSH1 0x18 PUSH1 0x24 DUP3 ADD MSTORE PUSH32 0x5175697A3A204C6576656C2031303020657870697265642E0000000000000000 PUSH1 0x44 DUP3 ADD MSTORE PUSH1 0x64 SWAP1 REVERT JUMPDEST PUSH1 0x40 MLOAD PUSH3 0x461BCD PUSH1 0xE5 SHL DUP2 MSTORE PUSH1 0x20 PUSH1 0x4 DUP3 ADD MSTORE PUSH1 0x28 PUSH1 0x24 DUP3 ADD MSTORE PUSH32 0x5175697A3A2054686973207370656369666963207175697A20616C7265616479 PUSH1 0x44 DUP3 ADD MSTORE PUSH8 0x1039B7B63B32B217 PUSH1 0xC1 SHL PUSH1 0x64 DUP3 ADD MSTORE PUSH1 0x84 SWAP1 REVERT JUMPDEST DUP6 DUP1 REVERT JUMPDEST DUP5 DUP1 REVERT JUMPDEST POP CALLVALUE PUSH2 0x1B3 JUMPI PUSH1 0x20 CALLDATASIZE PUSH1 0x3 NOT ADD SLT PUSH2 0x1B3 JUMPI PUSH1 0x0 DUP1 MLOAD PUSH1 0x20 PUSH2 0x1457 DUP4 CODECOPY DUP2 MLOAD SWAP2 MSTORE SLOAD PUSH1 0x40 MLOAD PUSH4 0x24745215 PUSH1 0xE2 SHL DUP2 MSTORE PUSH1 0x4 DUP1 DUP3 ADD SWAP3 SWAP1 SWAP3 MSTORE CALLER PUSH1 0x24 DUP3 ADD MSTORE SWAP1 CALLDATALOAD SWAP1 PUSH1 0x20 DUP2 PUSH1 0x44 DUP2 ADDRESS GAS STATICCALL SWAP1 DUP2 ISZERO PUSH2 0x1A8 JUMPI DUP4 SWAP2 PUSH2 0xB37 JUMPI JUMPDEST POP DUP1 ISZERO PUSH2 0xABD JUMPI JUMPDEST ISZERO PUSH2 0xA5B JUMPI DUP1 DUP3 MSTORE PUSH1 0x0 DUP1 MLOAD PUSH1 0x20 PUSH2 0x1477 DUP4 CODECOPY DUP2 MLOAD SWAP2 MSTORE PUSH1 0x20 MSTORE PUSH1 0x40 DUP3 KECCAK256 PUSH1 0x3 DUP2 ADD SLOAD ISZERO PUSH2 0xA07 JUMPI PUSH1 0x8 DUP2 ADD PUSH1 0xFF NOT DUP2 SLOAD AND SWAP1 SSTORE DUP3 PUSH1 0xA DUP3 ADD SSTORE PUSH1 0xB DUP2 ADD PUSH1 0x1 PUSH1 0x1 PUSH1 0x60 SHL SUB PUSH1 0xA0 SHL DUP2 SLOAD AND SWAP1 SSTORE PUSH1 0x20 PUSH1 0xC PUSH1 0x40 MLOAD SWAP3 PUSH2 0x93F DUP4 DUP6 PUSH2 0x1321 JUMP JUMPDEST DUP6 DUP5 MSTORE DUP6 CALLDATASIZE DUP2 CALLDATACOPY ADD SWAP1 DUP3 MLOAD SWAP3 PUSH8 0xFFFFFFFFFFFFFFFF DUP5 GT PUSH2 0x9F3 JUMPI PUSH1 0x1 PUSH1 0x40 SHL DUP5 GT PUSH2 0x9F3 JUMPI DUP2 SWAP1 DUP4 SLOAD DUP6 DUP6 SSTORE DUP1 DUP7 LT PUSH2 0x9CB JUMPI JUMPDEST POP ADD SWAP2 DUP6 MSTORE DUP1 DUP6 KECCAK256 SWAP1 DUP6 JUMPDEST DUP5 DUP2 LT PUSH2 0x9B0 JUMPI DUP7 CALLER DUP8 PUSH32 0x6C01933B9AD41CD54278498404C4955F24142D7570EFF7BCE17FC7F5EE12F892 DUP4 DUP1 LOG3 DUP1 RETURN JUMPDEST DUP4 MLOAD PUSH1 0x1 PUSH1 0x1 PUSH1 0xA0 SHL SUB AND DUP4 DUP3 ADD SSTORE SWAP3 DUP2 ADD SWAP3 PUSH1 0x1 ADD PUSH2 0x97F JUMP JUMPDEST DUP5 DUP9 MSTORE DUP6 DUP4 DUP10 KECCAK256 SWAP2 DUP3 ADD SWAP2 ADD JUMPDEST DUP2 DUP2 LT PUSH2 0x9E5 JUMPI POP PUSH2 0x974 JUMP JUMPDEST DUP9 DUP2 SSTORE DUP5 SWAP4 POP PUSH1 0x1 ADD PUSH2 0x9D8 JUMP JUMPDEST PUSH4 0x4E487B71 PUSH1 0xE0 SHL DUP7 MSTORE PUSH1 0x41 PUSH1 0x4 MSTORE PUSH1 0x24 DUP7 REVERT JUMPDEST PUSH1 0x40 MLOAD PUSH3 0x461BCD PUSH1 0xE5 SHL DUP2 MSTORE PUSH1 0x20 PUSH1 0x4 DUP3 ADD MSTORE PUSH1 0x26 PUSH1 0x24 DUP3 ADD MSTORE PUSH32 0x5175697A3A205175657374696F6E20646F6573206E6F7420657869737420696E PUSH1 0x44 DUP3 ADD MSTORE PUSH6 0x103130B73597 PUSH1 0xD1 SHL PUSH1 0x64 DUP3 ADD MSTORE PUSH1 0x84 SWAP1 REVERT JUMPDEST PUSH1 0x40 MLOAD PUSH3 0x461BCD PUSH1 0xE5 SHL DUP2 MSTORE PUSH1 0x20 PUSH1 0x4 DUP3 ADD MSTORE PUSH1 0x34 PUSH1 0x24 DUP3 ADD MSTORE PUSH32 0x416363657373436F6E74726F6C3A2043616C6C6572206973206E6F7420612067 PUSH1 0x44 DUP3 ADD MSTORE PUSH20 0x30B6B29030B236B4B71037B91031B932B0BA37B9 PUSH1 0x61 SHL PUSH1 0x64 DUP3 ADD MSTORE PUSH1 0x84 SWAP1 REVERT JUMPDEST POP PUSH32 0x4F2F104A7EA12E35172792673C68FE1423B90B4F6B86A6C5F5A9A85BD5652024 SLOAD PUSH1 0x40 MLOAD PUSH4 0x24745215 PUSH1 0xE2 SHL DUP2 MSTORE PUSH1 0x4 DUP2 ADD SWAP2 SWAP1 SWAP2 MSTORE CALLER PUSH1 0x24 DUP3 ADD MSTORE PUSH1 0x20 DUP2 PUSH1 0x44 DUP2 ADDRESS GAS STATICCALL SWAP1 DUP2 ISZERO PUSH2 0x1A8 JUMPI DUP4 SWAP2 PUSH2 0xB18 JUMPI JUMPDEST POP PUSH2 0x8DF JUMP JUMPDEST PUSH2 0xB31 SWAP2 POP PUSH1 0x20 RETURNDATASIZE PUSH1 0x20 GT PUSH2 0x1A1 JUMPI PUSH2 0x193 DUP2 DUP4 PUSH2 0x1321 JUMP JUMPDEST CODESIZE PUSH2 0xB12 JUMP JUMPDEST PUSH2 0xB50 SWAP2 POP PUSH1 0x20 RETURNDATASIZE PUSH1 0x20 GT PUSH2 0x1A1 JUMPI PUSH2 0x193 DUP2 DUP4 PUSH2 0x1321 JUMP JUMPDEST CODESIZE PUSH2 0x8D7 JUMP JUMPDEST POP CALLVALUE PUSH2 0x1B3 JUMPI PUSH1 0x20 CALLDATASIZE PUSH1 0x3 NOT ADD SLT PUSH2 0x1B3 JUMPI PUSH1 0x40 PUSH1 0x20 SWAP2 PUSH1 0x4 CALLDATALOAD DUP2 MSTORE PUSH32 0x4F2F104A7EA12E35172792673C68FE1423B90B4F6B86A6C5F5A9A85BD5652038 DUP4 MSTORE KECCAK256 SLOAD PUSH1 0x40 MLOAD SWAP1 DUP2 MSTORE RETURN JUMPDEST POP CALLVALUE PUSH2 0x1B3 JUMPI PUSH1 0x20 CALLDATASIZE PUSH1 0x3 NOT ADD SLT PUSH2 0x1B3 JUMPI PUSH1 0xFF PUSH1 0x40 PUSH1 0x20 SWAP3 PUSH1 0x4 CALLDATALOAD DUP2 MSTORE PUSH1 0x0 DUP1 MLOAD PUSH1 0x20 PUSH2 0x1497 DUP4 CODECOPY DUP2 MLOAD SWAP2 MSTORE DUP5 MSTORE KECCAK256 SLOAD AND PUSH1 0x40 MLOAD SWAP1 ISZERO ISZERO DUP2 MSTORE RETURN JUMPDEST POP CALLVALUE PUSH2 0x1B3 JUMPI PUSH1 0x40 CALLDATASIZE PUSH1 0x3 NOT ADD SLT PUSH2 0x1B3 JUMPI PUSH1 0x0 DUP1 MLOAD PUSH1 0x20 PUSH2 0x1457 DUP4 CODECOPY DUP2 MLOAD SWAP2 MSTORE SLOAD PUSH1 0x40 MLOAD PUSH4 0x24745215 PUSH1 0xE2 SHL DUP2 MSTORE PUSH1 0x4 DUP1 DUP3 ADD SWAP3 SWAP1 SWAP3 MSTORE CALLER PUSH1 0x24 DUP1 DUP4 ADD SWAP2 SWAP1 SWAP2 MSTORE CALLDATALOAD SWAP2 CALLDATALOAD SWAP1 PUSH1 0x20 DUP2 PUSH1 0x44 DUP2 ADDRESS GAS STATICCALL DUP1 ISZERO PUSH2 0x657 JUMPI PUSH2 0xC40 SWAP2 DUP6 SWAP2 PUSH2 0x179 JUMPI POP PUSH2 0x1376 JUMP JUMPDEST DUP1 DUP4 MSTORE PUSH1 0x0 DUP1 MLOAD PUSH1 0x20 PUSH2 0x1477 DUP4 CODECOPY DUP2 MLOAD SWAP2 MSTORE PUSH1 0x20 MSTORE PUSH2 0xC67 PUSH1 0x3 PUSH1 0x40 DUP6 KECCAK256 ADD SLOAD ISZERO ISZERO PUSH2 0x13FD JUMP JUMPDEST DUP2 DUP4 MSTORE PUSH32 0x4F2F104A7EA12E35172792673C68FE1423B90B4F6B86A6C5F5A9A85BD5652038 PUSH1 0x20 MSTORE DUP1 PUSH1 0x40 DUP5 KECCAK256 SSTORE PUSH32 0x19389A39F44B0A98725F708B7F380445AD25436E95CD1EA9B73666D89C65B002 DUP4 DUP1 LOG3 DUP1 RETURN JUMPDEST POP CALLVALUE PUSH2 0x1B3 JUMPI PUSH1 0x20 CALLDATASIZE PUSH1 0x3 NOT ADD SLT PUSH2 0x1B3 JUMPI PUSH1 0x4 CALLDATALOAD DUP1 DUP3 MSTORE PUSH1 0x0 DUP1 MLOAD PUSH1 0x20 PUSH2 0x1477 DUP4 CODECOPY DUP2 MLOAD SWAP2 MSTORE PUSH1 0x20 MSTORE PUSH1 0x40 DUP3 KECCAK256 PUSH2 0xCF8 PUSH1 0x3 DUP3 ADD SLOAD ISZERO ISZERO PUSH2 0x13FD JUMP JUMPDEST PUSH1 0xFF PUSH1 0x8 DUP3 ADD SLOAD AND PUSH2 0xF02 JUMPI PUSH1 0x64 PUSH1 0x6 DUP3 ADD SLOAD EQ PUSH2 0xE63 JUMPI JUMPDEST POP DUP2 PUSH1 0x20 PUSH1 0x1 DUP1 PUSH1 0xA0 SHL SUB PUSH32 0x4F2F104A7EA12E35172792673C68FE1423B90B4F6B86A6C5F5A9A85BD565203A SLOAD AND PUSH1 0x64 PUSH32 0x4F2F104A7EA12E35172792673C68FE1423B90B4F6B86A6C5F5A9A85BD5652025 SLOAD PUSH1 0x40 MLOAD SWAP5 DUP6 SWAP4 DUP5 SWAP3 PUSH4 0x23B872DD PUSH1 0xE0 SHL DUP5 MSTORE CALLER PUSH1 0x4 DUP6 ADD MSTORE ADDRESS PUSH1 0x24 DUP6 ADD MSTORE PUSH1 0x44 DUP5 ADD MSTORE GAS CALL SWAP1 DUP2 ISZERO PUSH2 0x1A8 JUMPI DUP4 SWAP2 PUSH2 0xE44 JUMPI JUMPDEST POP ISZERO PUSH2 0xDEE JUMPI PUSH32 0x4F2F104A7EA12E35172792673C68FE1423B90B4F6B86A6C5F5A9A85BD5652025 SLOAD SWAP1 PUSH1 0x40 MLOAD SWAP2 DUP3 MSTORE PUSH32 0xF10CFE1413DA6FB4D61B5FE0472EEF72EF9191CA81DB52B96F4143513960D32D PUSH1 0x20 CALLER SWAP4 LOG3 DUP1 RETURN JUMPDEST PUSH1 0x40 MLOAD PUSH3 0x461BCD PUSH1 0xE5 SHL DUP2 MSTORE PUSH1 0x20 PUSH1 0x4 DUP3 ADD MSTORE PUSH1 0x28 PUSH1 0x24 DUP3 ADD MSTORE PUSH32 0x5175697A3A205175697A436F696E207472616E73666572206661696C65642066 PUSH1 0x44 DUP3 ADD MSTORE PUSH8 0x37B9103434B73A17 PUSH1 0xC1 SHL PUSH1 0x64 DUP3 ADD MSTORE PUSH1 0x84 SWAP1 REVERT JUMPDEST PUSH2 0xE5D SWAP2 POP PUSH1 0x20 RETURNDATASIZE PUSH1 0x20 GT PUSH2 0x1A1 JUMPI PUSH2 0x193 DUP2 DUP4 PUSH2 0x1321 JUMP JUMPDEST CODESIZE PUSH2 0xD96 JUMP JUMPDEST PUSH1 0x9 ADD SLOAD PUSH32 0x4F2F104A7EA12E35172792673C68FE1423B90B4F6B86A6C5F5A9A85BD5652027 SLOAD PUSH2 0xE92 SWAP2 PUSH2 0x1449 JUMP JUMPDEST TIMESTAMP GT PUSH2 0xE9E JUMPI CODESIZE PUSH2 0xD11 JUMP JUMPDEST PUSH1 0x40 MLOAD PUSH3 0x461BCD PUSH1 0xE5 SHL DUP2 MSTORE PUSH1 0x20 PUSH1 0x4 DUP3 ADD MSTORE PUSH1 0x36 PUSH1 0x24 DUP3 ADD MSTORE PUSH32 0x5175697A3A204C6576656C20313030207175657374696F6E2068617320657870 PUSH1 0x44 DUP3 ADD MSTORE PUSH22 0x34B932B2161031B0B73737BA10313ABC903434B73A17 PUSH1 0x51 SHL PUSH1 0x64 DUP3 ADD MSTORE PUSH1 0x84 SWAP1 REVERT JUMPDEST PUSH1 0x40 MLOAD PUSH3 0x461BCD PUSH1 0xE5 SHL DUP2 MSTORE PUSH1 0x20 PUSH1 0x4 DUP3 ADD MSTORE PUSH1 0x21 PUSH1 0x24 DUP3 ADD MSTORE PUSH32 0x5175697A3A205175657374696F6E20697320616C726561647920636C6F736564 PUSH1 0x44 DUP3 ADD MSTORE PUSH1 0x17 PUSH1 0xF9 SHL PUSH1 0x64 DUP3 ADD MSTORE PUSH1 0x84 SWAP1 REVERT JUMPDEST POP CALLVALUE PUSH2 0x1B3 JUMPI PUSH1 0x20 CALLDATASIZE PUSH1 0x3 NOT ADD SLT PUSH2 0x1B3 JUMPI PUSH1 0x20 SWAP1 PUSH1 0x4 CALLDATALOAD DUP2 MSTORE PUSH32 0x4F2F104A7EA12E35172792673C68FE1423B90B4F6B86A6C5F5A9A85BD5652036 DUP3 MSTORE PUSH1 0x40 PUSH1 0x1 DUP1 PUSH1 0xA0 SHL SUB SWAP2 KECCAK256 SLOAD AND PUSH1 0x40 MLOAD SWAP1 DUP2 MSTORE RETURN JUMPDEST POP CALLVALUE PUSH2 0x1B3 JUMPI PUSH1 0x80 CALLDATASIZE PUSH1 0x3 NOT ADD SLT PUSH2 0x1B3 JUMPI PUSH1 0x44 CALLDATALOAD PUSH1 0x4 CALLDATALOAD PUSH1 0x64 CALLDATALOAD PUSH1 0x2 DUP2 LT ISZERO PUSH2 0x5DB JUMPI PUSH1 0x0 DUP1 MLOAD PUSH1 0x20 PUSH2 0x1457 DUP4 CODECOPY DUP2 MLOAD SWAP2 MSTORE SLOAD PUSH1 0x40 MLOAD PUSH4 0x24745215 PUSH1 0xE2 SHL DUP2 MSTORE PUSH1 0x4 DUP2 ADD SWAP2 SWAP1 SWAP2 MSTORE CALLER PUSH1 0x24 DUP3 ADD MSTORE PUSH1 0x20 DUP2 PUSH1 0x44 DUP2 ADDRESS GAS STATICCALL DUP1 ISZERO PUSH2 0x602 JUMPI PUSH2 0x1011 SWAP2 DUP7 SWAP2 PUSH2 0x179 JUMPI POP PUSH2 0x1376 JUMP JUMPDEST DUP2 ISZERO PUSH2 0x1297 JUMPI PUSH1 0x1 DUP4 LT ISZERO DUP1 PUSH2 0x128C JUMPI JUMPDEST ISZERO PUSH2 0x1247 JUMPI PUSH32 0x4F2F104A7EA12E35172792673C68FE1423B90B4F6B86A6C5F5A9A85BD565202E SLOAD SWAP2 PUSH1 0x0 NOT DUP4 EQ PUSH2 0x611 JUMPI PUSH1 0x1 DUP4 ADD PUSH32 0x4F2F104A7EA12E35172792673C68FE1423B90B4F6B86A6C5F5A9A85BD565202E SSTORE PUSH1 0x64 DUP5 SUB PUSH2 0x1213 JUMPI PUSH32 0x4F2F104A7EA12E35172792673C68FE1423B90B4F6B86A6C5F5A9A85BD5652029 SLOAD SWAP2 JUMPDEST DUP4 DUP7 MSTORE PUSH1 0x0 DUP1 MLOAD PUSH1 0x20 PUSH2 0x1477 DUP4 CODECOPY DUP2 MLOAD SWAP2 MSTORE PUSH1 0x20 MSTORE PUSH1 0x40 DUP7 KECCAK256 SWAP2 PUSH1 0x3 DUP4 ADD SSTORE PUSH1 0x24 CALLDATALOAD PUSH1 0x4 DUP4 ADD SSTORE PUSH1 0x5 DUP3 ADD PUSH1 0x1 DUP1 PUSH1 0xA0 SHL SUB CALLER AND PUSH1 0x1 PUSH1 0x1 PUSH1 0x60 SHL SUB PUSH1 0xA0 SHL DUP3 SLOAD AND OR SWAP1 SSTORE DUP5 PUSH1 0x6 DUP4 ADD SSTORE DUP3 PUSH1 0x7 DUP4 ADD SSTORE PUSH1 0x8 DUP3 ADD SWAP1 PUSH2 0xFF00 DUP3 SLOAD SWAP2 PUSH1 0x8 SHL AND SWAP1 PUSH2 0xFFFF NOT AND OR SWAP1 SSTORE TIMESTAMP PUSH1 0x9 DUP3 ADD SSTORE DUP5 PUSH1 0xA DUP3 ADD SSTORE PUSH1 0xB DUP2 ADD PUSH1 0x1 PUSH1 0x1 PUSH1 0x60 SHL SUB PUSH1 0xA0 SHL DUP2 SLOAD AND SWAP1 SSTORE PUSH1 0x20 SWAP1 PUSH1 0xC PUSH1 0x40 MLOAD SWAP2 PUSH2 0x1141 DUP5 DUP5 PUSH2 0x1321 JUMP JUMPDEST DUP8 DUP4 MSTORE DUP8 CALLDATASIZE DUP2 CALLDATACOPY ADD DUP2 MLOAD SWAP2 PUSH8 0xFFFFFFFFFFFFFFFF DUP4 GT PUSH2 0x11FF JUMPI PUSH1 0x1 PUSH1 0x40 SHL DUP4 GT PUSH2 0x11FF JUMPI DUP4 SWAP1 DUP3 SLOAD DUP5 DUP5 SSTORE DUP1 DUP6 LT PUSH2 0x11D7 JUMPI JUMPDEST POP ADD SWAP1 DUP8 MSTORE DUP3 DUP8 KECCAK256 DUP8 JUMPDEST DUP4 DUP2 LT PUSH2 0x11BC JUMPI POP POP POP POP PUSH1 0x40 MLOAD SWAP4 DUP5 MSTORE DUP4 ADD MSTORE PUSH32 0x5FFF8B8A05084A38562EA22F588B62938F68AD92FBFC50EE5B3DC2E69DD0D817 PUSH1 0x40 CALLER SWAP4 LOG3 DUP1 RETURN JUMPDEST DUP3 MLOAD PUSH1 0x1 PUSH1 0x1 PUSH1 0xA0 SHL SUB AND DUP3 DUP3 ADD SSTORE SWAP2 DUP5 ADD SWAP2 PUSH1 0x1 ADD PUSH2 0x117F JUMP JUMPDEST DUP4 DUP11 MSTORE DUP5 DUP4 DUP12 KECCAK256 SWAP2 DUP3 ADD SWAP2 ADD JUMPDEST DUP2 DUP2 LT PUSH2 0x11F1 JUMPI POP PUSH2 0x1175 JUMP JUMPDEST DUP11 DUP2 SSTORE DUP7 SWAP4 POP PUSH1 0x1 ADD PUSH2 0x11E4 JUMP JUMPDEST PUSH4 0x4E487B71 PUSH1 0xE0 SHL DUP9 MSTORE PUSH1 0x41 PUSH1 0x4 MSTORE PUSH1 0x24 DUP9 REVERT JUMPDEST PUSH1 0x63 PUSH2 0x1240 DUP6 PUSH32 0x4F2F104A7EA12E35172792673C68FE1423B90B4F6B86A6C5F5A9A85BD5652028 SLOAD PUSH2 0x13D4 JUMP JUMPDEST DIV SWAP2 PUSH2 0x10A5 JUMP JUMPDEST PUSH1 0x40 MLOAD PUSH3 0x461BCD PUSH1 0xE5 SHL DUP2 MSTORE PUSH1 0x20 PUSH1 0x4 DUP3 ADD MSTORE PUSH1 0x1E PUSH1 0x24 DUP3 ADD MSTORE PUSH32 0x5175697A3A20446966666963756C7479206D75737420626520312D3130300000 PUSH1 0x44 DUP3 ADD MSTORE PUSH1 0x64 SWAP1 REVERT JUMPDEST POP PUSH1 0x64 DUP4 GT ISZERO PUSH2 0x1022 JUMP JUMPDEST PUSH1 0x64 PUSH1 0x40 MLOAD PUSH3 0x461BCD PUSH1 0xE5 SHL DUP2 MSTORE PUSH1 0x20 PUSH1 0x4 DUP3 ADD MSTORE PUSH1 0x20 PUSH1 0x24 DUP3 ADD MSTORE PUSH32 0x5175697A3A20416E73776572206C6561662063616E6E6F74206265207A65726F PUSH1 0x44 DUP3 ADD MSTORE REVERT JUMPDEST SWAP1 POP CALLVALUE PUSH2 0x5EA JUMPI PUSH1 0x20 CALLDATASIZE PUSH1 0x3 NOT ADD SLT PUSH2 0x5EA JUMPI PUSH1 0x40 PUSH1 0x20 SWAP3 PUSH1 0x4 CALLDATALOAD DUP2 MSTORE PUSH32 0x4F2F104A7EA12E35172792673C68FE1423B90B4F6B86A6C5F5A9A85BD5652037 DUP5 MSTORE KECCAK256 SLOAD DUP2 MSTORE RETURN JUMPDEST SWAP1 PUSH1 0x1F DUP1 NOT SWAP2 ADD AND DUP2 ADD SWAP1 DUP2 LT PUSH8 0xFFFFFFFFFFFFFFFF DUP3 GT OR PUSH2 0x1343 JUMPI PUSH1 0x40 MSTORE JUMP JUMPDEST PUSH4 0x4E487B71 PUSH1 0xE0 SHL PUSH1 0x0 MSTORE PUSH1 0x41 PUSH1 0x4 MSTORE PUSH1 0x24 PUSH1 0x0 REVERT JUMPDEST SWAP1 DUP2 PUSH1 0x20 SWAP2 SUB SLT PUSH2 0x1371 JUMPI MLOAD DUP1 ISZERO ISZERO DUP2 SUB PUSH2 0x1371 JUMPI SWAP1 JUMP JUMPDEST PUSH1 0x0 DUP1 REVERT JUMPDEST ISZERO PUSH2 0x137D JUMPI JUMP JUMPDEST PUSH1 0x40 MLOAD PUSH3 0x461BCD PUSH1 0xE5 SHL DUP2 MSTORE PUSH1 0x20 PUSH1 0x4 DUP3 ADD MSTORE PUSH1 0x29 PUSH1 0x24 DUP3 ADD MSTORE PUSH32 0x416363657373436F6E74726F6C3A2043616C6C6572206973206E6F7420612067 PUSH1 0x44 DUP3 ADD MSTORE PUSH9 0x30B6B29030B236B4B7 PUSH1 0xB9 SHL PUSH1 0x64 DUP3 ADD MSTORE PUSH1 0x84 SWAP1 REVERT JUMPDEST DUP2 DUP2 MUL SWAP3 SWAP2 DUP2 ISZERO SWAP2 DUP5 DIV EQ OR ISZERO PUSH2 0x13E7 JUMPI JUMP JUMPDEST PUSH4 0x4E487B71 PUSH1 0xE0 SHL PUSH1 0x0 MSTORE PUSH1 0x11 PUSH1 0x4 MSTORE PUSH1 0x24 PUSH1 0x0 REVERT JUMPDEST ISZERO PUSH2 0x1404 JUMPI JUMP JUMPDEST PUSH1 0x40 MLOAD PUSH3 0x461BCD PUSH1 0xE5 SHL DUP2 MSTORE PUSH1 0x20 PUSH1 0x4 DUP3 ADD MSTORE PUSH1 0x1E PUSH1 0x24 DUP3 ADD MSTORE PUSH32 0x5175697A3A205175657374696F6E20646F6573206E6F742065786973742E0000 PUSH1 0x44 DUP3 ADD MSTORE PUSH1 0x64 SWAP1 REVERT JUMPDEST SWAP2 SWAP1 DUP3 ADD DUP1 SWAP3 GT PUSH2 0x13E7 JUMPI JUMP INVALID 0x4F 0x2F LT BLOBBASEFEE PUSH31 0xA12E35172792673C68FE1423B90B4F6B86A6C5F5A9A85BD56520224F2F104A PUSH31 0xA12E35172792673C68FE1423B90B4F6B86A6C5F5A9A85BD56520314F2F104A PUSH31 0xA12E35172792673C68FE1423B90B4F6B86A6C5F5A9A85BD5652035A2646970 PUSH7 0x7358221220002D DUP15 PUSH21 0xCA0CBD8A8829882AB0EA3D8F46C7D36B50A3767702 XOR 0xE1 0x2F SWAP14 MSTORE8 PC PUSH5 0x64736F6C63 NUMBER STOP ADDMOD SHR STOP CALLER "},"methodIdentifiers":{"activateQuestionFromBank(uint256)":"686caeaf","buyHint(uint256)":"42dd0724","createQuestion(bytes32,bytes32,uint256,uint8)":"1e0fef78","getLeafQuestionId(bytes32)":"5c9b20ca","getLeafSolveTime(bytes32)":"0036db03","getLeafSolver(bytes32)":"341da9ad","isLeafSolved(bytes32)":"4ab48451","registerLeaf(uint256,bytes32)":"4a4747e1","resetLeaf(bytes32)":"a582b533","submitAnswer(uint256,bytes32,bytes32[])":"6efa82d2"}},"storageLayout":{"storage":[],"types":null}}}}