{"contracts/facets/MerkleFacet.sol":{"MerkleFacet":{"abi":[{"anonymous":false,"inputs":[{"indexed":true,"internalType":"uint256","name":"quizId","type":"uint256"},{"indexed":false,"internalType":"bytes32","name":"root","type":"bytes32"}],"name":"MerkleRootSubmitted","type":"event"},{"inputs":[{"internalType":"bytes32","name":"leaf","type":"bytes32"}],"name":"getQuizIdFromLeaf","outputs":[{"internalType":"uint256","name":"","type":"uint256"}],"stateMutability":"view","type":"function"},{"inputs":[{"internalType":"uint256","name":"quizId","type":"uint256"},{"internalType":"bytes32","name":"root","type":"bytes32"},{"internalType":"bytes32[]","name":"leaves","type":"bytes32[]"}],"name":"submitMerkleRoot","outputs":[],"stateMutability":"nonpayable","type":"function"},{"inputs":[{"internalType":"bytes32","name":"leaf","type":"bytes32"},{"internalType":"bytes32[]","name":"proof","type":"bytes32[]"}],"name":"verifyQuiz","outputs":[{"internalType":"bool","name":"","type":"bool"}],"stateMutability":"view","type":"function"}],"evm":{"bytecode":{"linkReferences":{},"object":"60808060405234601557610377908161001b8239f35b600080fdfe608080604052600436101561001357600080fd5b60003560e01c90816307d38f3f146102c9575080638350d44f146101225763ebe6d1231461004057600080fd5b3461011d57606036600319011261011d5760043560243560443567ffffffffffffffff811161011d57610077903690600401610310565b91836000527f386ce38a758b2aa61a536cbe13df8b6d4bbdc305ba63fe1732b5b790f26f07516020528060406000205560005b838110156100ef5760019085604060008360051b87013581527f386ce38a758b2aa61a536cbe13df8b6d4bbdc305ba63fe1732b5b790f26f07526020522055016100aa565b847fb3a8f3e59050d3f97f1bf1b668c8216c654869aa24e3e03cd8891dc68b7db097602084604051908152a2005b600080fd5b3461011d57604036600319011261011d5760043560243567ffffffffffffffff811161011d57610156903690600401610310565b91806000527f386ce38a758b2aa61a536cbe13df8b6d4bbdc305ba63fe1732b5b790f26f07526020526040600020548015610285576000527f386ce38a758b2aa61a536cbe13df8b6d4bbdc305ba63fe1732b5b790f26f07516020526040600020549167ffffffffffffffff841161026f578360051b60405194601f19603f830116860186811067ffffffffffffffff82111761026f576040528552602085019082019136831161011d57905b82821061025f575050506000905b835182101561025257604060019160009060208560051b8801015190818110600014610246578252602052205b910190610211565b9082526020522061023e565b6020908360405191148152f35b8135815260209182019101610203565b634e487b7160e01b600052604160045260246000fd5b606460405162461bcd60e51b815260206004820152602060248201527f4d65726b6c6546616365743a204c656166206e6f7420726567697374657265646044820152fd5b3461011d57602036600319011261011d576020906004356000527f386ce38a758b2aa61a536cbe13df8b6d4bbdc305ba63fe1732b5b790f26f075282526040600020548152f35b9181601f8401121561011d5782359167ffffffffffffffff831161011d576020808501948460051b01011161011d5756fea26469706673582212205e7d2680ea0951a1ee2cc28ed3194b8884ac0e03979dcf5b70f3ce2fa955e1c564736f6c634300081c0033","opcodes":"PUSH1 0x80 DUP1 PUSH1 0x40 MSTORE CALLVALUE PUSH1 0x15 JUMPI PUSH2 0x377 SWAP1 DUP2 PUSH2 0x1B DUP3 CODECOPY RETURN JUMPDEST PUSH1 0x0 DUP1 REVERT INVALID PUSH1 0x80 DUP1 PUSH1 0x40 MSTORE PUSH1 0x4 CALLDATASIZE LT ISZERO PUSH2 0x13 JUMPI PUSH1 0x0 DUP1 REVERT JUMPDEST PUSH1 0x0 CALLDATALOAD PUSH1 0xE0 SHR SWAP1 DUP2 PUSH4 0x7D38F3F EQ PUSH2 0x2C9 JUMPI POP DUP1 PUSH4 0x8350D44F EQ PUSH2 0x122 JUMPI PUSH4 0xEBE6D123 EQ PUSH2 0x40 JUMPI PUSH1 0x0 DUP1 REVERT JUMPDEST CALLVALUE PUSH2 0x11D JUMPI PUSH1 0x60 CALLDATASIZE PUSH1 0x3 NOT ADD SLT PUSH2 0x11D JUMPI PUSH1 0x4 CALLDATALOAD PUSH1 0x24 CALLDATALOAD PUSH1 0x44 CALLDATALOAD PUSH8 0xFFFFFFFFFFFFFFFF DUP2 GT PUSH2 0x11D JUMPI PUSH2 0x77 SWAP1 CALLDATASIZE SWAP1 PUSH1 0x4 ADD PUSH2 0x310 JUMP JUMPDEST SWAP2 DUP4 PUSH1 0x0 MSTORE PUSH32 0x386CE38A758B2AA61A536CBE13DF8B6D4BBDC305BA63FE1732B5B790F26F0751 PUSH1 0x20 MSTORE DUP1 PUSH1 0x40 PUSH1 0x0 KECCAK256 SSTORE PUSH1 0x0 JUMPDEST DUP4 DUP2 LT ISZERO PUSH2 0xEF JUMPI PUSH1 0x1 SWAP1 DUP6 PUSH1 0x40 PUSH1 0x0 DUP4 PUSH1 0x5 SHL DUP8 ADD CALLDATALOAD DUP2 MSTORE PUSH32 0x386CE38A758B2AA61A536CBE13DF8B6D4BBDC305BA63FE1732B5B790F26F0752 PUSH1 0x20 MSTORE KECCAK256 SSTORE ADD PUSH2 0xAA JUMP JUMPDEST DUP5 PUSH32 0xB3A8F3E59050D3F97F1BF1B668C8216C654869AA24E3E03CD8891DC68B7DB097 PUSH1 0x20 DUP5 PUSH1 0x40 MLOAD SWAP1 DUP2 MSTORE LOG2 STOP JUMPDEST PUSH1 0x0 DUP1 REVERT JUMPDEST CALLVALUE PUSH2 0x11D JUMPI PUSH1 0x40 CALLDATASIZE PUSH1 0x3 NOT ADD SLT PUSH2 0x11D JUMPI PUSH1 0x4 CALLDATALOAD PUSH1 0x24 CALLDATALOAD PUSH8 0xFFFFFFFFFFFFFFFF DUP2 GT PUSH2 0x11D JUMPI PUSH2 0x156 SWAP1 CALLDATASIZE SWAP1 PUSH1 0x4 ADD PUSH2 0x310 JUMP JUMPDEST SWAP2 DUP1 PUSH1 0x0 MSTORE PUSH32 0x386CE38A758B2AA61A536CBE13DF8B6D4BBDC305BA63FE1732B5B790F26F0752 PUSH1 0x20 MSTORE PUSH1 0x40 PUSH1 0x0 KECCAK256 SLOAD DUP1 ISZERO PUSH2 0x285 JUMPI PUSH1 0x0 MSTORE PUSH32 0x386CE38A758B2AA61A536CBE13DF8B6D4BBDC305BA63FE1732B5B790F26F0751 PUSH1 0x20 MSTORE PUSH1 0x40 PUSH1 0x0 KECCAK256 SLOAD SWAP2 PUSH8 0xFFFFFFFFFFFFFFFF DUP5 GT PUSH2 0x26F JUMPI DUP4 PUSH1 0x5 SHL PUSH1 0x40 MLOAD SWAP5 PUSH1 0x1F NOT PUSH1 0x3F DUP4 ADD AND DUP7 ADD DUP7 DUP2 LT PUSH8 0xFFFFFFFFFFFFFFFF DUP3 GT OR PUSH2 0x26F JUMPI PUSH1 0x40 MSTORE DUP6 MSTORE PUSH1 0x20 DUP6 ADD SWAP1 DUP3 ADD SWAP2 CALLDATASIZE DUP4 GT PUSH2 0x11D JUMPI SWAP1 JUMPDEST DUP3 DUP3 LT PUSH2 0x25F JUMPI POP POP POP PUSH1 0x0 SWAP1 JUMPDEST DUP4 MLOAD DUP3 LT ISZERO PUSH2 0x252 JUMPI PUSH1 0x40 PUSH1 0x1 SWAP2 PUSH1 0x0 SWAP1 PUSH1 0x20 DUP6 PUSH1 0x5 SHL DUP9 ADD ADD MLOAD SWAP1 DUP2 DUP2 LT PUSH1 0x0 EQ PUSH2 0x246 JUMPI DUP3 MSTORE PUSH1 0x20 MSTORE KECCAK256 JUMPDEST SWAP2 ADD SWAP1 PUSH2 0x211 JUMP JUMPDEST SWAP1 DUP3 MSTORE PUSH1 0x20 MSTORE KECCAK256 PUSH2 0x23E JUMP JUMPDEST PUSH1 0x20 SWAP1 DUP4 PUSH1 0x40 MLOAD SWAP2 EQ DUP2 MSTORE RETURN JUMPDEST DUP2 CALLDATALOAD DUP2 MSTORE PUSH1 0x20 SWAP2 DUP3 ADD SWAP2 ADD PUSH2 0x203 JUMP JUMPDEST PUSH4 0x4E487B71 PUSH1 0xE0 SHL PUSH1 0x0 MSTORE PUSH1 0x41 PUSH1 0x4 MSTORE PUSH1 0x24 PUSH1 0x0 REVERT JUMPDEST PUSH1 0x64 PUSH1 0x40 MLOAD PUSH3 0x461BCD PUSH1 0xE5 SHL DUP2 MSTORE PUSH1 0x20 PUSH1 0x4 DUP3 ADD MSTORE PUSH1 0x20 PUSH1 0x24 DUP3 ADD MSTORE PUSH32 0x4D65726B6C6546616365743A204C656166206E6F742072656769737465726564 PUSH1 0x44 DUP3 ADD MSTORE REVERT JUMPDEST CALLVALUE PUSH2 0x11D JUMPI PUSH1 0x20 CALLDATASIZE PUSH1 0x3 NOT ADD SLT PUSH2 0x11D JUMPI PUSH1 0x20 SWAP1 PUSH1 0x4 CALLDATALOAD PUSH1 0x0 MSTORE PUSH32 0x386CE38A758B2AA61A536CBE13DF8B6D4BBDC305BA63FE1732B5B790F26F0752 DUP3 MSTORE PUSH1 0x40 PUSH1 0x0 KECCAK256 SLOAD DUP2 MSTORE RETURN JUMPDEST SWAP2 DUP2 PUSH1 0x1F DUP5 ADD SLT ISZERO PUSH2 0x11D JUMPI DUP3 CALLDATALOAD SWAP2 PUSH8 0xFFFFFFFFFFFFFFFF DUP4 GT PUSH2 0x11D JUMPI PUSH1 0x20 DUP1 DUP6 ADD SWAP5 DUP5 PUSH1 0x5 SHL ADD ADD GT PUSH2 0x11D JUMPI JUMP INVALID LOG2 PUSH5 0x6970667358 0x22 SLT KECCAK256 MCOPY PUSH30 0x2680EA0951A1EE2CC28ED3194B8884AC0E03979DCF5B70F3CE2FA955E1C5 PUSH5 0x736F6C6343 STOP ADDMOD SHR STOP CALLER "},"methodIdentifiers":{"getQuizIdFromLeaf(bytes32)":"07d38f3f","submitMerkleRoot(uint256,bytes32,bytes32[])":"ebe6d123","verifyQuiz(bytes32,bytes32[])":"8350d44f"}},"storageLayout":{"storage":[],"types":null}}}}