{"contracts/facets/QuizParticipationFacet.sol":{"QuizParticipationFacet":{"abi":[{"anonymous":false,"inputs":[{"indexed":true,"internalType":"uint256","name":"questionId","type":"uint256"},{"indexed":true,"internalType":"address","name":"solver","type":"address"},{"indexed":false,"internalType":"bytes32","name":"submittedAnswerHash","type":"bytes32"},{"indexed":false,"internalType":"bool","name":"isCorrect","type":"bool"}],"name":"AnswerSubmitted","type":"event"},{"anonymous":false,"inputs":[{"indexed":true,"internalType":"uint256","name":"questionId","type":"uint256"},{"indexed":true,"internalType":"address","name":"buyer","type":"address"},{"indexed":false,"internalType":"uint256","name":"cost","type":"uint256"}],"name":"HintPurchased","type":"event"},{"anonymous":false,"inputs":[{"indexed":true,"internalType":"address","name":"player","type":"address"},{"indexed":true,"internalType":"uint256","name":"quizId","type":"uint256"}],"name":"PlayerJoinedQuiz","type":"event"},{"anonymous":false,"inputs":[{"indexed":true,"internalType":"uint256","name":"questionId","type":"uint256"},{"indexed":true,"internalType":"address","name":"activator","type":"address"}],"name":"QuestionActivatedFromBank","type":"event"},{"anonymous":false,"inputs":[{"indexed":true,"internalType":"uint256","name":"questionId","type":"uint256"}],"name":"QuestionClosed","type":"event"},{"anonymous":false,"inputs":[{"indexed":true,"internalType":"uint256","name":"questionId","type":"uint256"},{"indexed":true,"internalType":"address","name":"creator","type":"address"},{"indexed":false,"internalType":"uint256","name":"difficultyLevel","type":"uint256"},{"indexed":false,"internalType":"uint256","name":"baseRewardAmount","type":"uint256"}],"name":"QuestionCreated","type":"event"},{"anonymous":false,"inputs":[{"indexed":true,"internalType":"uint256","name":"questionId","type":"uint256"},{"indexed":false,"internalType":"uint256","name":"startTime","type":"uint256"}],"name":"QuestionRewardWindowStarted","type":"event"},{"anonymous":false,"inputs":[{"indexed":true,"internalType":"address","name":"player","type":"address"},{"indexed":true,"internalType":"uint256","name":"quizId","type":"uint256"},{"indexed":true,"internalType":"uint256","name":"questionIndex","type":"uint256"},{"indexed":false,"internalType":"uint8","name":"submittedAnswerIndex","type":"uint8"},{"indexed":false,"internalType":"bool","name":"isCorrect","type":"bool"}],"name":"QuizAnswerSubmitted","type":"event"},{"anonymous":false,"inputs":[{"indexed":true,"internalType":"address","name":"creator","type":"address"},{"indexed":true,"internalType":"uint256","name":"quizId","type":"uint256"},{"indexed":false,"internalType":"uint256","name":"rewardAmount","type":"uint256"},{"indexed":false,"internalType":"uint256","name":"totalQuestions","type":"uint256"}],"name":"QuizCreated","type":"event"},{"anonymous":false,"inputs":[{"indexed":true,"internalType":"uint256","name":"questionId","type":"uint256"},{"indexed":true,"internalType":"address","name":"solver","type":"address"},{"indexed":false,"internalType":"uint256","name":"rewardAmount","type":"uint256"}],"name":"RewardDistributed","type":"event"},{"inputs":[{"internalType":"uint256","name":"_quizId","type":"uint256"}],"name":"joinQuiz","outputs":[],"stateMutability":"nonpayable","type":"function"},{"inputs":[{"internalType":"uint256","name":"_quizId","type":"uint256"},{"internalType":"uint256","name":"_questionIndex","type":"uint256"},{"internalType":"uint8","name":"_submittedAnswerIndex","type":"uint8"},{"internalType":"bytes32","name":"leaf","type":"bytes32"},{"internalType":"bytes32[]","name":"proof","type":"bytes32[]"}],"name":"submitQuizAnswer","outputs":[],"stateMutability":"nonpayable","type":"function"}],"evm":{"bytecode":{"linkReferences":{},"object":"608080604052346015576106f3908161001b8239f35b600080fdfe6080604052600436101561001257600080fd5b60003560e01c806320725d591461040a5763967023981461003257600080fd5b346102ee5760a03660031901126102ee576004356024359060443560ff81168091036102ee5760843567ffffffffffffffff81116102ee57366023820112156102ee57806004013567ffffffffffffffff81116102ee578060051b9036602483850101116102ee57846000527f4f2f104a7ea12e35172792673c68fe1423b90b4f6b86a6c5f5a9a85bd565203360205260408060002060009060018060a01b03331682526020522091856000527f4f2f104a7ea12e35172792673c68fe1423b90b4f6b86a6c5f5a9a85bd5652032602052604060002060ff845416156103b9578061012560ff6005600394015416610671565b015487101561036857600283019387855410156102f35760408051638350d44f60e01b81526064356004820152602481019190915260448101849052926001600160fb1b03106102ee57606483836020946024839501848401378101030181305afa9081156102e257600091610276575b5015610231578460019255846000526003810160205260406000208360ff19825416179055846000526004810160205260406000208260ff19825416179055018054600019811461021b576001019055604051908152600160208201527f0a06276302b6bb1d092bf330b1622caaa3ff824d8120568193eb6868f20ecb8a60403392a4005b634e487b7160e01b600052601160045260246000fd5b60405162461bcd60e51b815260206004820152601b60248201527f5175697a3a20496e76616c696420616e737765722070726f6f662e00000000006044820152606490fd5b60203d6020116102db575b601f8101601f1916820167ffffffffffffffff8111838210176102c7576020918391604052810103126102c357519081151582036102c0575038610196565b80fd5b5080fd5b634e487b7160e01b84526041600452602484fd5b503d610281565b6040513d6000823e3d90fd5b600080fd5b60405162461bcd60e51b815260206004820152604160248201527f5175697a3a20596f75206861766520616c726561647920616e7377657265642060448201527f6120686967686572206f7220657175616c20696e646578207175657374696f6e6064820152601760f91b608482015260a490fd5b60405162461bcd60e51b815260206004820152602360248201527f5175697a3a205175657374696f6e20696e646578206f7574206f6620626f756e60448201526232399760e91b6064820152608490fd5b60405162461bcd60e51b815260206004820152602360248201527f5175697a3a20596f75206d757374206a6f696e20746865207175697a2066697260448201526239ba1760e91b6064820152608490fd5b346102ee5760203660031901126102ee57600435806000527f4f2f104a7ea12e35172792673c68fe1423b90b4f6b86a6c5f5a9a85bd5652032602052604060002061045b60ff600583015416610671565b60008281527f4f2f104a7ea12e35172792673c68fe1423b90b4f6b86a6c5f5a9a85bd56520336020908152604080832033845290915290205460ff1661061b57816000527f4f2f104a7ea12e35172792673c68fe1423b90b4f6b86a6c5f5a9a85bd5652034602052600460406000205491015411156105d65760008181527f4f2f104a7ea12e35172792673c68fe1423b90b4f6b86a6c5f5a9a85bd5652033602090815260408083203384528252808320805460ff191660011790558383527f4f2f104a7ea12e35172792673c68fe1423b90b4f6b86a6c5f5a9a85bd56520349091529020805490680100000000000000008210156105c057600182018082558210156105aa57600052602060002001336bffffffffffffffffffffffff60a01b825416179055337feb0ce0a0ebb6cd81f55c52eabb2b82d4426db73ee88d3aee11455a02246ae609600080a3005b634e487b7160e01b600052603260045260246000fd5b634e487b7160e01b600052604160045260246000fd5b60405162461bcd60e51b815260206004820152601760248201527f5175697a3a20546865207175697a2069732066756c6c2e0000000000000000006044820152606490fd5b60405162461bcd60e51b815260206004820152602860248201527f5175697a3a20596f75206861766520616c7265616479206a6f696e656420746860448201526734b99038bab4bd1760c11b6064820152608490fd5b1561067857565b60405162461bcd60e51b815260206004820152601960248201527f5175697a3a205175697a206973206e6f74206163746976652e000000000000006044820152606490fdfea26469706673582212200dac9af5139a810fff21e19641e6230aa1e4ec86b1305a80837a60f73f312fd164736f6c634300081c0033","opcodes":"PUSH1 0x80 DUP1 PUSH1 0x40 MSTORE CALLVALUE PUSH1 0x15 JUMPI PUSH2 0x6F3 SWAP1 DUP2 PUSH2 0x1B DUP3 CODECOPY RETURN JUMPDEST PUSH1 0x0 DUP1 REVERT INVALID PUSH1 0x80 PUSH1 0x40 MSTORE PUSH1 0x4 CALLDATASIZE LT ISZERO PUSH2 0x12 JUMPI PUSH1 0x0 DUP1 REVERT JUMPDEST PUSH1 0x0 CALLDATALOAD PUSH1 0xE0 SHR DUP1 PUSH4 0x20725D59 EQ PUSH2 0x40A JUMPI PUSH4 0x96702398 EQ PUSH2 0x32 JUMPI PUSH1 0x0 DUP1 REVERT JUMPDEST CALLVALUE PUSH2 0x2EE JUMPI PUSH1 0xA0 CALLDATASIZE PUSH1 0x3 NOT ADD SLT PUSH2 0x2EE JUMPI PUSH1 0x4 CALLDATALOAD PUSH1 0x24 CALLDATALOAD SWAP1 PUSH1 0x44 CALLDATALOAD PUSH1 0xFF DUP2 AND DUP1 SWAP2 SUB PUSH2 0x2EE JUMPI PUSH1 0x84 CALLDATALOAD PUSH8 0xFFFFFFFFFFFFFFFF DUP2 GT PUSH2 0x2EE JUMPI CALLDATASIZE PUSH1 0x23 DUP3 ADD SLT ISZERO PUSH2 0x2EE JUMPI DUP1 PUSH1 0x4 ADD CALLDATALOAD PUSH8 0xFFFFFFFFFFFFFFFF DUP2 GT PUSH2 0x2EE JUMPI DUP1 PUSH1 0x5 SHL SWAP1 CALLDATASIZE PUSH1 0x24 DUP4 DUP6 ADD ADD GT PUSH2 0x2EE JUMPI DUP5 PUSH1 0x0 MSTORE PUSH32 0x4F2F104A7EA12E35172792673C68FE1423B90B4F6B86A6C5F5A9A85BD5652033 PUSH1 0x20 MSTORE PUSH1 0x40 DUP1 PUSH1 0x0 KECCAK256 PUSH1 0x0 SWAP1 PUSH1 0x1 DUP1 PUSH1 0xA0 SHL SUB CALLER AND DUP3 MSTORE PUSH1 0x20 MSTORE KECCAK256 SWAP2 DUP6 PUSH1 0x0 MSTORE PUSH32 0x4F2F104A7EA12E35172792673C68FE1423B90B4F6B86A6C5F5A9A85BD5652032 PUSH1 0x20 MSTORE PUSH1 0x40 PUSH1 0x0 KECCAK256 PUSH1 0xFF DUP5 SLOAD AND ISZERO PUSH2 0x3B9 JUMPI DUP1 PUSH2 0x125 PUSH1 0xFF PUSH1 0x5 PUSH1 0x3 SWAP5 ADD SLOAD AND PUSH2 0x671 JUMP JUMPDEST ADD SLOAD DUP8 LT ISZERO PUSH2 0x368 JUMPI PUSH1 0x2 DUP4 ADD SWAP4 DUP8 DUP6 SLOAD LT ISZERO PUSH2 0x2F3 JUMPI PUSH1 0x40 DUP1 MLOAD PUSH4 0x8350D44F PUSH1 0xE0 SHL DUP2 MSTORE PUSH1 0x64 CALLDATALOAD PUSH1 0x4 DUP3 ADD MSTORE PUSH1 0x24 DUP2 ADD SWAP2 SWAP1 SWAP2 MSTORE PUSH1 0x44 DUP2 ADD DUP5 SWAP1 MSTORE SWAP3 PUSH1 0x1 PUSH1 0x1 PUSH1 0xFB SHL SUB LT PUSH2 0x2EE JUMPI PUSH1 0x64 DUP4 DUP4 PUSH1 0x20 SWAP5 PUSH1 0x24 DUP4 SWAP6 ADD DUP5 DUP5 ADD CALLDATACOPY DUP2 ADD SUB ADD DUP2 ADDRESS GAS STATICCALL SWAP1 DUP2 ISZERO PUSH2 0x2E2 JUMPI PUSH1 0x0 SWAP2 PUSH2 0x276 JUMPI JUMPDEST POP ISZERO PUSH2 0x231 JUMPI DUP5 PUSH1 0x1 SWAP3 SSTORE DUP5 PUSH1 0x0 MSTORE PUSH1 0x3 DUP2 ADD PUSH1 0x20 MSTORE PUSH1 0x40 PUSH1 0x0 KECCAK256 DUP4 PUSH1 0xFF NOT DUP3 SLOAD AND OR SWAP1 SSTORE DUP5 PUSH1 0x0 MSTORE PUSH1 0x4 DUP2 ADD PUSH1 0x20 MSTORE PUSH1 0x40 PUSH1 0x0 KECCAK256 DUP3 PUSH1 0xFF NOT DUP3 SLOAD AND OR SWAP1 SSTORE ADD DUP1 SLOAD PUSH1 0x0 NOT DUP2 EQ PUSH2 0x21B JUMPI PUSH1 0x1 ADD SWAP1 SSTORE PUSH1 0x40 MLOAD SWAP1 DUP2 MSTORE PUSH1 0x1 PUSH1 0x20 DUP3 ADD MSTORE PUSH32 0xA06276302B6BB1D092BF330B1622CAAA3FF824D8120568193EB6868F20ECB8A PUSH1 0x40 CALLER SWAP3 LOG4 STOP JUMPDEST PUSH4 0x4E487B71 PUSH1 0xE0 SHL PUSH1 0x0 MSTORE PUSH1 0x11 PUSH1 0x4 MSTORE PUSH1 0x24 PUSH1 0x0 REVERT JUMPDEST PUSH1 0x40 MLOAD PUSH3 0x461BCD PUSH1 0xE5 SHL DUP2 MSTORE PUSH1 0x20 PUSH1 0x4 DUP3 ADD MSTORE PUSH1 0x1B PUSH1 0x24 DUP3 ADD MSTORE PUSH32 0x5175697A3A20496E76616C696420616E737765722070726F6F662E0000000000 PUSH1 0x44 DUP3 ADD MSTORE PUSH1 0x64 SWAP1 REVERT JUMPDEST PUSH1 0x20 RETURNDATASIZE PUSH1 0x20 GT PUSH2 0x2DB JUMPI JUMPDEST PUSH1 0x1F DUP2 ADD PUSH1 0x1F NOT AND DUP3 ADD PUSH8 0xFFFFFFFFFFFFFFFF DUP2 GT DUP4 DUP3 LT OR PUSH2 0x2C7 JUMPI PUSH1 0x20 SWAP2 DUP4 SWAP2 PUSH1 0x40 MSTORE DUP2 ADD SUB SLT PUSH2 0x2C3 JUMPI MLOAD SWAP1 DUP2 ISZERO ISZERO DUP3 SUB PUSH2 0x2C0 JUMPI POP CODESIZE PUSH2 0x196 JUMP JUMPDEST DUP1 REVERT JUMPDEST POP DUP1 REVERT JUMPDEST PUSH4 0x4E487B71 PUSH1 0xE0 SHL DUP5 MSTORE PUSH1 0x41 PUSH1 0x4 MSTORE PUSH1 0x24 DUP5 REVERT JUMPDEST POP RETURNDATASIZE PUSH2 0x281 JUMP JUMPDEST PUSH1 0x40 MLOAD RETURNDATASIZE PUSH1 0x0 DUP3 RETURNDATACOPY RETURNDATASIZE SWAP1 REVERT JUMPDEST PUSH1 0x0 DUP1 REVERT JUMPDEST PUSH1 0x40 MLOAD PUSH3 0x461BCD PUSH1 0xE5 SHL DUP2 MSTORE PUSH1 0x20 PUSH1 0x4 DUP3 ADD MSTORE PUSH1 0x41 PUSH1 0x24 DUP3 ADD MSTORE PUSH32 0x5175697A3A20596F75206861766520616C726561647920616E73776572656420 PUSH1 0x44 DUP3 ADD MSTORE PUSH32 0x6120686967686572206F7220657175616C20696E646578207175657374696F6E PUSH1 0x64 DUP3 ADD MSTORE PUSH1 0x17 PUSH1 0xF9 SHL PUSH1 0x84 DUP3 ADD MSTORE PUSH1 0xA4 SWAP1 REVERT JUMPDEST PUSH1 0x40 MLOAD PUSH3 0x461BCD PUSH1 0xE5 SHL DUP2 MSTORE PUSH1 0x20 PUSH1 0x4 DUP3 ADD MSTORE PUSH1 0x23 PUSH1 0x24 DUP3 ADD MSTORE PUSH32 0x5175697A3A205175657374696F6E20696E646578206F7574206F6620626F756E PUSH1 0x44 DUP3 ADD MSTORE PUSH3 0x323997 PUSH1 0xE9 SHL PUSH1 0x64 DUP3 ADD MSTORE PUSH1 0x84 SWAP1 REVERT JUMPDEST PUSH1 0x40 MLOAD PUSH3 0x461BCD PUSH1 0xE5 SHL DUP2 MSTORE PUSH1 0x20 PUSH1 0x4 DUP3 ADD MSTORE PUSH1 0x23 PUSH1 0x24 DUP3 ADD MSTORE PUSH32 0x5175697A3A20596F75206D757374206A6F696E20746865207175697A20666972 PUSH1 0x44 DUP3 ADD MSTORE PUSH3 0x39BA17 PUSH1 0xE9 SHL PUSH1 0x64 DUP3 ADD MSTORE PUSH1 0x84 SWAP1 REVERT JUMPDEST CALLVALUE PUSH2 0x2EE JUMPI PUSH1 0x20 CALLDATASIZE PUSH1 0x3 NOT ADD SLT PUSH2 0x2EE JUMPI PUSH1 0x4 CALLDATALOAD DUP1 PUSH1 0x0 MSTORE PUSH32 0x4F2F104A7EA12E35172792673C68FE1423B90B4F6B86A6C5F5A9A85BD5652032 PUSH1 0x20 MSTORE PUSH1 0x40 PUSH1 0x0 KECCAK256 PUSH2 0x45B PUSH1 0xFF PUSH1 0x5 DUP4 ADD SLOAD AND PUSH2 0x671 JUMP JUMPDEST PUSH1 0x0 DUP3 DUP2 MSTORE PUSH32 0x4F2F104A7EA12E35172792673C68FE1423B90B4F6B86A6C5F5A9A85BD5652033 PUSH1 0x20 SWAP1 DUP2 MSTORE PUSH1 0x40 DUP1 DUP4 KECCAK256 CALLER DUP5 MSTORE SWAP1 SWAP2 MSTORE SWAP1 KECCAK256 SLOAD PUSH1 0xFF AND PUSH2 0x61B JUMPI DUP2 PUSH1 0x0 MSTORE PUSH32 0x4F2F104A7EA12E35172792673C68FE1423B90B4F6B86A6C5F5A9A85BD5652034 PUSH1 0x20 MSTORE PUSH1 0x4 PUSH1 0x40 PUSH1 0x0 KECCAK256 SLOAD SWAP2 ADD SLOAD GT ISZERO PUSH2 0x5D6 JUMPI PUSH1 0x0 DUP2 DUP2 MSTORE PUSH32 0x4F2F104A7EA12E35172792673C68FE1423B90B4F6B86A6C5F5A9A85BD5652033 PUSH1 0x20 SWAP1 DUP2 MSTORE PUSH1 0x40 DUP1 DUP4 KECCAK256 CALLER DUP5 MSTORE DUP3 MSTORE DUP1 DUP4 KECCAK256 DUP1 SLOAD PUSH1 0xFF NOT AND PUSH1 0x1 OR SWAP1 SSTORE DUP4 DUP4 MSTORE PUSH32 0x4F2F104A7EA12E35172792673C68FE1423B90B4F6B86A6C5F5A9A85BD5652034 SWAP1 SWAP2 MSTORE SWAP1 KECCAK256 DUP1 SLOAD SWAP1 PUSH9 0x10000000000000000 DUP3 LT ISZERO PUSH2 0x5C0 JUMPI PUSH1 0x1 DUP3 ADD DUP1 DUP3 SSTORE DUP3 LT ISZERO PUSH2 0x5AA JUMPI PUSH1 0x0 MSTORE PUSH1 0x20 PUSH1 0x0 KECCAK256 ADD CALLER PUSH12 0xFFFFFFFFFFFFFFFFFFFFFFFF PUSH1 0xA0 SHL DUP3 SLOAD AND OR SWAP1 SSTORE CALLER PUSH32 0xEB0CE0A0EBB6CD81F55C52EABB2B82D4426DB73EE88D3AEE11455A02246AE609 PUSH1 0x0 DUP1 LOG3 STOP JUMPDEST PUSH4 0x4E487B71 PUSH1 0xE0 SHL PUSH1 0x0 MSTORE PUSH1 0x32 PUSH1 0x4 MSTORE PUSH1 0x24 PUSH1 0x0 REVERT JUMPDEST PUSH4 0x4E487B71 PUSH1 0xE0 SHL PUSH1 0x0 MSTORE PUSH1 0x41 PUSH1 0x4 MSTORE PUSH1 0x24 PUSH1 0x0 REVERT JUMPDEST PUSH1 0x40 MLOAD PUSH3 0x461BCD PUSH1 0xE5 SHL DUP2 MSTORE PUSH1 0x20 PUSH1 0x4 DUP3 ADD MSTORE PUSH1 0x17 PUSH1 0x24 DUP3 ADD MSTORE PUSH32 0x5175697A3A20546865207175697A2069732066756C6C2E000000000000000000 PUSH1 0x44 DUP3 ADD MSTORE PUSH1 0x64 SWAP1 REVERT JUMPDEST PUSH1 0x40 MLOAD PUSH3 0x461BCD PUSH1 0xE5 SHL DUP2 MSTORE PUSH1 0x20 PUSH1 0x4 DUP3 ADD MSTORE PUSH1 0x28 PUSH1 0x24 DUP3 ADD MSTORE PUSH32 0x5175697A3A20596F75206861766520616C7265616479206A6F696E6564207468 PUSH1 0x44 DUP3 ADD MSTORE PUSH8 0x34B99038BAB4BD17 PUSH1 0xC1 SHL PUSH1 0x64 DUP3 ADD MSTORE PUSH1 0x84 SWAP1 REVERT JUMPDEST ISZERO PUSH2 0x678 JUMPI JUMP JUMPDEST PUSH1 0x40 MLOAD PUSH3 0x461BCD PUSH1 0xE5 SHL DUP2 MSTORE PUSH1 0x20 PUSH1 0x4 DUP3 ADD MSTORE PUSH1 0x19 PUSH1 0x24 DUP3 ADD MSTORE PUSH32 0x5175697A3A205175697A206973206E6F74206163746976652E00000000000000 PUSH1 0x44 DUP3 ADD MSTORE PUSH1 0x64 SWAP1 REVERT INVALID LOG2 PUSH5 0x6970667358 0x22 SLT KECCAK256 0xD 0xAC SWAP11 CREATE2 SGT SWAP11 DUP2 0xF SELFDESTRUCT 0x21 0xE1 SWAP7 COINBASE 0xE6 0x23 EXP LOG1 0xE4 0xEC DUP7 0xB1 ADDRESS GAS DUP1 DUP4 PUSH27 0x60F73F312FD164736F6C634300081C003300000000000000000000 "},"methodIdentifiers":{"joinQuiz(uint256)":"20725d59","submitQuizAnswer(uint256,uint256,uint8,bytes32,bytes32[])":"96702398"}},"storageLayout":{"storage":[],"types":null}}}}