{
  "_format": "hh-sol-artifact-1",
  "contractName": "DiamondLoupeFacet",
  "sourceName": "contracts/facets/DiamondLoupeFacet.sol",
  "abi": [
    {
      "inputs": [
        {
          "internalType": "bytes4",
          "name": "_functionSelector",
          "type": "bytes4"
        }
      ],
      "name": "facetAddress",
      "outputs": [
        {
          "internalType": "address",
          "name": "facetAddress_",
          "type": "address"
        }
      ],
      "stateMutability": "view",
      "type": "function"
    },
    {
      "inputs": [],
      "name": "facetAddresses",
      "outputs": [
        {
          "internalType": "address[]",
          "name": "facetAddresses_",
          "type": "address[]"
        }
      ],
      "stateMutability": "view",
      "type": "function"
    },
    {
      "inputs": [
        {
          "internalType": "address",
          "name": "_facet",
          "type": "address"
        }
      ],
      "name": "facetFunctionSelectors",
      "outputs": [
        {
          "internalType": "bytes4[]",
          "name": "_selectors",
          "type": "bytes4[]"
        }
      ],
      "stateMutability": "view",
      "type": "function"
    },
    {
      "inputs": [],
      "name": "facets",
      "outputs": [
        {
          "components": [
            {
              "internalType": "address",
              "name": "facetAddress",
              "type": "address"
            },
            {
              "internalType": "bytes4[]",
              "name": "functionSelectors",
              "type": "bytes4[]"
            }
          ],
          "internalType": "struct IDiamondLoupe.Facet[]",
          "name": "facets_",
          "type": "tuple[]"
        }
      ],
      "stateMutability": "view",
      "type": "function"
    }
  ],
  "bytecode": "0x608080604052346015576106c1908161001b8239f35b600080fdfe6080604052600436101561001257600080fd5b60003560e01c806352ef6b2c146102e95780637a0ed62714610130578063adfca15e146100b15763cdffacc61461004857600080fd5b346100ac5760203660031901126100ac5760043563ffffffff60e01b81168091036100ac576000527fc8fcad8db84d3cc18b4c41d551ea0ee66dd599cde068d998e57d5e09332c131c602052602060018060a01b0360406000205416604051908152f35b600080fd5b346100ac5760203660031901126100ac576004356001600160a01b03811681036100ac576001600160a01b031660009081527fc8fcad8db84d3cc18b4c41d551ea0ee66dd599cde068d998e57d5e09332c131d6020526040902061012c9061011890610486565b604051918291602083526020830190610350565b0390f35b346100ac5760003660031901126100ac576101496103b0565b80519061015582610444565b91610163604051938461038e565b808352610172601f1991610444565b0160005b81811061029b57505060005b815181101561021b576001906001600160a01b036101a0828561045c565b51166101ac828661045c565b51526101fc828060a01b036101c1838661045c565b51166001600160a01b031660009081527fc8fcad8db84d3cc18b4c41d551ea0ee66dd599cde068d998e57d5e09332c131d6020526040902090565b610213602061020b848861045c565b510191610486565b905201610182565b826040518091602082016020835281518091526040830190602060408260051b8601019301916000905b82821061025457505050500390f35b9193600191939550602061028b8192603f198a82030186526040838a51878060a01b03815116845201519181858201520190610350565b9601920192018594939192610245565b60405190604082019180831067ffffffffffffffff8411176102d3576020926040526000815260608382015282828701015201610176565b634e487b7160e01b600052604160045260246000fd5b346100ac5760003660031901126100ac576103026103b0565b60405180916020820160208352815180915260206040840192019060005b81811061032e575050500390f35b82516001600160a01b0316845285945060209384019390920191600101610320565b906020808351928381520192019060005b81811061036e5750505090565b82516001600160e01b031916845260209384019390920191600101610361565b90601f8019910116810190811067ffffffffffffffff8211176102d357604052565b604051907fc8fcad8db84d3cc18b4c41d551ea0ee66dd599cde068d998e57d5e09332c131e5480835282602081017fc8fcad8db84d3cc18b4c41d551ea0ee66dd599cde068d998e57d5e09332c131e60005260206000209260005b8181106104225750506104209250038361038e565b565b84546001600160a01b031683526001948501948794506020909301920161040b565b67ffffffffffffffff81116102d35760051b60200190565b80518210156104705760209160051b010190565b634e487b7160e01b600052603260045260246000fd5b90604051918281549182825260208201906000526020600020926000905b8060078301106105e6576104209454918181106105c7575b8181106105a8575b818110610589575b81811061056a575b81811061054b575b81811061052c575b81811061050f575b106104fa575b50038361038e565b6001600160e01b0319168152602001386104f2565b602083811b6001600160e01b0319168552909301926001016104ec565b604083901b6001600160e01b03191684526020909301926001016104e4565b606083901b6001600160e01b03191684526020909301926001016104dc565b608083901b6001600160e01b03191684526020909301926001016104d4565b60a083901b6001600160e01b03191684526020909301926001016104cc565b60c083901b6001600160e01b03191684526020909301926001016104c4565b60e083901b6001600160e01b03191684526020909301926001016104bc565b916008919350610100600191865463ffffffff60e01b8160e01b16825263ffffffff60e01b8160c01b16602083015263ffffffff60e01b8160a01b16604083015263ffffffff60e01b8160801b16606083015263ffffffff60e01b8160601b16608083015263ffffffff60e01b8160401b1660a083015263ffffffff60e01b8160201b1660c083015263ffffffff60e01b1660e08201520194019201859293916104a456fea26469706673582212201e39e3a53c115732ac3539acde475be8177f24f9cd95a961d1841e19ab180afb64736f6c634300081c0033",
  "linkReferences": {},
  "deployedLinkReferences": {}
}