{
  "_format": "hh-sol-artifact-1",
  "contractName": "MerkleFacet",
  "sourceName": "contracts/facets/MerkleFacet.sol",
  "abi": [
    {
      "anonymous": false,
      "inputs": [
        {
          "indexed": true,
          "internalType": "uint256",
          "name": "quizId",
          "type": "uint256"
        },
        {
          "indexed": false,
          "internalType": "bytes32",
          "name": "root",
          "type": "bytes32"
        }
      ],
      "name": "MerkleRootSubmitted",
      "type": "event"
    },
    {
      "inputs": [
        {
          "internalType": "bytes32",
          "name": "leaf",
          "type": "bytes32"
        }
      ],
      "name": "getQuizIdFromLeaf",
      "outputs": [
        {
          "internalType": "uint256",
          "name": "",
          "type": "uint256"
        }
      ],
      "stateMutability": "view",
      "type": "function"
    },
    {
      "inputs": [
        {
          "internalType": "uint256",
          "name": "quizId",
          "type": "uint256"
        },
        {
          "internalType": "bytes32",
          "name": "root",
          "type": "bytes32"
        },
        {
          "internalType": "bytes32[]",
          "name": "leaves",
          "type": "bytes32[]"
        }
      ],
      "name": "submitMerkleRoot",
      "outputs": [],
      "stateMutability": "nonpayable",
      "type": "function"
    },
    {
      "inputs": [
        {
          "internalType": "bytes32",
          "name": "leaf",
          "type": "bytes32"
        },
        {
          "internalType": "bytes32[]",
          "name": "proof",
          "type": "bytes32[]"
        }
      ],
      "name": "verifyQuiz",
      "outputs": [
        {
          "internalType": "bool",
          "name": "",
          "type": "bool"
        }
      ],
      "stateMutability": "view",
      "type": "function"
    }
  ],
  "bytecode": "0x60808060405234601557610377908161001b8239f35b600080fdfe608080604052600436101561001357600080fd5b60003560e01c90816307d38f3f146102c9575080638350d44f146101225763ebe6d1231461004057600080fd5b3461011d57606036600319011261011d5760043560243560443567ffffffffffffffff811161011d57610077903690600401610310565b91836000527f386ce38a758b2aa61a536cbe13df8b6d4bbdc305ba63fe1732b5b790f26f07516020528060406000205560005b838110156100ef5760019085604060008360051b87013581527f386ce38a758b2aa61a536cbe13df8b6d4bbdc305ba63fe1732b5b790f26f07526020522055016100aa565b847fb3a8f3e59050d3f97f1bf1b668c8216c654869aa24e3e03cd8891dc68b7db097602084604051908152a2005b600080fd5b3461011d57604036600319011261011d5760043560243567ffffffffffffffff811161011d57610156903690600401610310565b91806000527f386ce38a758b2aa61a536cbe13df8b6d4bbdc305ba63fe1732b5b790f26f07526020526040600020548015610285576000527f386ce38a758b2aa61a536cbe13df8b6d4bbdc305ba63fe1732b5b790f26f07516020526040600020549167ffffffffffffffff841161026f578360051b60405194601f19603f830116860186811067ffffffffffffffff82111761026f576040528552602085019082019136831161011d57905b82821061025f575050506000905b835182101561025257604060019160009060208560051b8801015190818110600014610246578252602052205b910190610211565b9082526020522061023e565b6020908360405191148152f35b8135815260209182019101610203565b634e487b7160e01b600052604160045260246000fd5b606460405162461bcd60e51b815260206004820152602060248201527f4d65726b6c6546616365743a204c656166206e6f7420726567697374657265646044820152fd5b3461011d57602036600319011261011d576020906004356000527f386ce38a758b2aa61a536cbe13df8b6d4bbdc305ba63fe1732b5b790f26f075282526040600020548152f35b9181601f8401121561011d5782359167ffffffffffffffff831161011d576020808501948460051b01011161011d5756fea26469706673582212205e7d2680ea0951a1ee2cc28ed3194b8884ac0e03979dcf5b70f3ce2fa955e1c564736f6c634300081c0033",
  "linkReferences": {},
  "deployedLinkReferences": {}
}