{
  "_format": "hh-sol-artifact-1",
  "contractName": "MerkleFacet",
  "sourceName": "contracts/facets/MerkleFacet.sol",
  "abi": [
    {
      "anonymous": false,
      "inputs": [
        {
          "indexed": true,
          "internalType": "uint256",
          "name": "quizId",
          "type": "uint256"
        },
        {
          "indexed": false,
          "internalType": "bytes32",
          "name": "root",
          "type": "bytes32"
        }
      ],
      "name": "MerkleRootSubmitted",
      "type": "event"
    },
    {
      "inputs": [
        {
          "internalType": "uint256",
          "name": "quizId",
          "type": "uint256"
        }
      ],
      "name": "getMerkleRoot",
      "outputs": [
        {
          "internalType": "bytes32",
          "name": "",
          "type": "bytes32"
        }
      ],
      "stateMutability": "view",
      "type": "function"
    },
    {
      "inputs": [
        {
          "internalType": "uint256",
          "name": "quizId",
          "type": "uint256"
        },
        {
          "internalType": "bytes32",
          "name": "root",
          "type": "bytes32"
        }
      ],
      "name": "submitMerkleRoot",
      "outputs": [],
      "stateMutability": "nonpayable",
      "type": "function"
    },
    {
      "inputs": [
        {
          "internalType": "uint256",
          "name": "quizId",
          "type": "uint256"
        },
        {
          "internalType": "bytes32",
          "name": "leaf",
          "type": "bytes32"
        },
        {
          "internalType": "bytes32[]",
          "name": "proof",
          "type": "bytes32[]"
        }
      ],
      "name": "verifyQuiz",
      "outputs": [
        {
          "internalType": "bool",
          "name": "",
          "type": "bool"
        }
      ],
      "stateMutability": "view",
      "type": "function"
    }
  ],
  "bytecode": "0x608080604052346015576103c7908161001b8239f35b600080fdfe608080604052600436101561001357600080fd5b60003560e01c908163060d10be146101fa575080630aab8ba5146101af5763efd50b211461004057600080fd5b346101aa5760403660031901126101aa576004356024357f4f2f104a7ea12e35172792673c68fe1423b90b4f6b86a6c5f5a9a85bd56520225460405190632474521560e21b82526004820152336024820152602081604481305afa90811561019e5760009161015c575b501561010b5760207fb3a8f3e59050d3f97f1bf1b668c8216c654869aa24e3e03cd8891dc68b7db09791836000527f386ce38a758b2aa61a536cbe13df8b6d4bbdc305ba63fe1732b5b790f26f0751825280604060002055604051908152a2005b60405162461bcd60e51b815260206004820152602360248201527f4d65726b6c6546616365743a2043616c6c6572206973206e6f7420616e20616460448201526236b4b760e91b6064820152608490fd5b6020813d602011610196575b8161017560209383610359565b81010312610192575190811515820361018f5750386100aa565b80fd5b5080fd5b3d9150610168565b6040513d6000823e3d90fd5b600080fd5b346101aa5760203660031901126101aa576004356000527f386ce38a758b2aa61a536cbe13df8b6d4bbdc305ba63fe1732b5b790f26f07516020526020604060002054604051908152f35b346101aa5760603660031901126101aa576044359067ffffffffffffffff82116101aa57366023830112156101aa5781600401359167ffffffffffffffff83116101aa578260051b90602482820101903682116101aa576004356000527f386ce38a758b2aa61a536cbe13df8b6d4bbdc305ba63fe1732b5b790f26f0751602052604060002054938415610317575060009461029c6020604051950185610359565b8352602401602083015b828210610307575050506024359083915b81518310156102fa5760208360051b83010151908181106000146102e95785526020526001604085205b9201916102b7565b9085526020526001604085206102e1565b6020908460405191148152f35b81358152602091820191016102a6565b62461bcd60e51b815260206004820152601b60248201527f4d65726b6c6546616365743a20526f6f74206e6f7420666f756e6400000000006044820152606490fd5b90601f8019910116810190811067ffffffffffffffff82111761037b57604052565b634e487b7160e01b600052604160045260246000fdfea2646970667358221220c17b01bd42994e93370a6325f2bf6563640bc6232da97f5eef4965ed6d5dd5ee64736f6c634300081c0033",
  "linkReferences": {},
  "deployedLinkReferences": {}
}