{
  "_format": "hh-sol-artifact-1",
  "contractName": "MerkleFacet",
  "sourceName": "contracts/facets/MerkleFacet.sol",
  "abi": [
    {
      "anonymous": false,
      "inputs": [
        {
          "indexed": true,
          "internalType": "uint256",
          "name": "quizId",
          "type": "uint256"
        },
        {
          "indexed": false,
          "internalType": "bytes32",
          "name": "root",
          "type": "bytes32"
        }
      ],
      "name": "MerkleRootSubmitted",
      "type": "event"
    },
    {
      "inputs": [
        {
          "internalType": "uint256",
          "name": "quizId",
          "type": "uint256"
        }
      ],
      "name": "getMerkleRoot",
      "outputs": [
        {
          "internalType": "bytes32",
          "name": "",
          "type": "bytes32"
        }
      ],
      "stateMutability": "view",
      "type": "function"
    },
    {
      "inputs": [
        {
          "internalType": "uint256",
          "name": "quizId",
          "type": "uint256"
        },
        {
          "internalType": "bytes32",
          "name": "root",
          "type": "bytes32"
        }
      ],
      "name": "submitMerkleRoot",
      "outputs": [],
      "stateMutability": "nonpayable",
      "type": "function"
    },
    {
      "inputs": [
        {
          "internalType": "uint256",
          "name": "quizId",
          "type": "uint256"
        },
        {
          "internalType": "bytes32",
          "name": "leaf",
          "type": "bytes32"
        },
        {
          "internalType": "bytes32[]",
          "name": "proof",
          "type": "bytes32[]"
        }
      ],
      "name": "verifyQuiz",
      "outputs": [
        {
          "internalType": "bool",
          "name": "",
          "type": "bool"
        }
      ],
      "stateMutability": "view",
      "type": "function"
    }
  ],
  "bytecode": "0x608080604052346015576102be908161001b8239f35b600080fdfe608080604052600436101561001357600080fd5b60003560e01c908163060d10be14610101575080630aab8ba5146100b65763efd50b211461004057600080fd5b346100b15760403660031901126100b1576004357fb3a8f3e59050d3f97f1bf1b668c8216c654869aa24e3e03cd8891dc68b7db0976020602435836000527f386ce38a758b2aa61a536cbe13df8b6d4bbdc305ba63fe1732b5b790f26f0751825280604060002055604051908152a2005b600080fd5b346100b15760203660031901126100b1576004356000527f386ce38a758b2aa61a536cbe13df8b6d4bbdc305ba63fe1732b5b790f26f07516020526020604060002054604051908152f35b346100b15760603660031901126100b1576044359067ffffffffffffffff82116100b157366023830112156100b15781600401359167ffffffffffffffff83116100b1578260051b90602482820101903682116100b1576004356000527f386ce38a758b2aa61a536cbe13df8b6d4bbdc305ba63fe1732b5b790f26f075160205260406000205493841561024657506040516000959093603f01601f1916840167ffffffffffffffff811185821017610232576040528352602401602083015b828210610222575050506024359083915b81518310156102155760208360051b83010151908181106000146102045785526020526001604085205b9201916101d2565b9085526020526001604085206101fc565b6020908460405191148152f35b81358152602091820191016101c1565b634e487b7160e01b87526041600452602487fd5b62461bcd60e51b815260206004820152601b60248201527f4d65726b6c6546616365743a20526f6f74206e6f7420666f756e6400000000006044820152606490fdfea26469706673582212203561514174c76885f68951e83e4d2013c854c3daa302dc32e8c620ffe547594e64736f6c634300081c0033",
  "linkReferences": {},
  "deployedLinkReferences": {}
}