{
  "_format": "hh-sol-artifact-1",
  "contractName": "QuizGameModeFacet",
  "sourceName": "contracts/facets/QuizGameModeFacet.sol",
  "abi": [
    {
      "anonymous": false,
      "inputs": [
        {
          "indexed": true,
          "internalType": "uint256",
          "name": "questionId",
          "type": "uint256"
        },
        {
          "indexed": true,
          "internalType": "address",
          "name": "solver",
          "type": "address"
        },
        {
          "indexed": false,
          "internalType": "bytes32",
          "name": "submittedAnswerHash",
          "type": "bytes32"
        },
        {
          "indexed": false,
          "internalType": "bool",
          "name": "isCorrect",
          "type": "bool"
        }
      ],
      "name": "AnswerSubmitted",
      "type": "event"
    },
    {
      "anonymous": false,
      "inputs": [
        {
          "indexed": true,
          "internalType": "uint256",
          "name": "questionId",
          "type": "uint256"
        },
        {
          "indexed": true,
          "internalType": "address",
          "name": "buyer",
          "type": "address"
        },
        {
          "indexed": false,
          "internalType": "uint256",
          "name": "cost",
          "type": "uint256"
        }
      ],
      "name": "HintPurchased",
      "type": "event"
    },
    {
      "anonymous": false,
      "inputs": [
        {
          "indexed": true,
          "internalType": "address",
          "name": "player",
          "type": "address"
        },
        {
          "indexed": true,
          "internalType": "uint256",
          "name": "quizId",
          "type": "uint256"
        }
      ],
      "name": "PlayerJoinedQuiz",
      "type": "event"
    },
    {
      "anonymous": false,
      "inputs": [
        {
          "indexed": true,
          "internalType": "uint256",
          "name": "questionId",
          "type": "uint256"
        },
        {
          "indexed": true,
          "internalType": "address",
          "name": "activator",
          "type": "address"
        }
      ],
      "name": "QuestionActivatedFromBank",
      "type": "event"
    },
    {
      "anonymous": false,
      "inputs": [
        {
          "indexed": true,
          "internalType": "uint256",
          "name": "questionId",
          "type": "uint256"
        }
      ],
      "name": "QuestionClosed",
      "type": "event"
    },
    {
      "anonymous": false,
      "inputs": [
        {
          "indexed": true,
          "internalType": "uint256",
          "name": "questionId",
          "type": "uint256"
        },
        {
          "indexed": true,
          "internalType": "address",
          "name": "creator",
          "type": "address"
        },
        {
          "indexed": false,
          "internalType": "uint256",
          "name": "difficultyLevel",
          "type": "uint256"
        },
        {
          "indexed": false,
          "internalType": "uint256",
          "name": "baseRewardAmount",
          "type": "uint256"
        }
      ],
      "name": "QuestionCreated",
      "type": "event"
    },
    {
      "anonymous": false,
      "inputs": [
        {
          "indexed": true,
          "internalType": "uint256",
          "name": "questionId",
          "type": "uint256"
        },
        {
          "indexed": false,
          "internalType": "uint256",
          "name": "startTime",
          "type": "uint256"
        }
      ],
      "name": "QuestionRewardWindowStarted",
      "type": "event"
    },
    {
      "anonymous": false,
      "inputs": [
        {
          "indexed": true,
          "internalType": "address",
          "name": "player",
          "type": "address"
        },
        {
          "indexed": true,
          "internalType": "uint256",
          "name": "quizId",
          "type": "uint256"
        },
        {
          "indexed": true,
          "internalType": "uint256",
          "name": "questionIndex",
          "type": "uint256"
        },
        {
          "indexed": false,
          "internalType": "uint8",
          "name": "submittedAnswerIndex",
          "type": "uint8"
        },
        {
          "indexed": false,
          "internalType": "bool",
          "name": "isCorrect",
          "type": "bool"
        }
      ],
      "name": "QuizAnswerSubmitted",
      "type": "event"
    },
    {
      "anonymous": false,
      "inputs": [
        {
          "indexed": true,
          "internalType": "address",
          "name": "creator",
          "type": "address"
        },
        {
          "indexed": true,
          "internalType": "uint256",
          "name": "quizId",
          "type": "uint256"
        },
        {
          "indexed": false,
          "internalType": "uint256",
          "name": "rewardAmount",
          "type": "uint256"
        },
        {
          "indexed": false,
          "internalType": "uint256",
          "name": "totalQuestions",
          "type": "uint256"
        }
      ],
      "name": "QuizCreated",
      "type": "event"
    },
    {
      "anonymous": false,
      "inputs": [
        {
          "indexed": true,
          "internalType": "uint256",
          "name": "questionId",
          "type": "uint256"
        },
        {
          "indexed": true,
          "internalType": "address",
          "name": "solver",
          "type": "address"
        },
        {
          "indexed": false,
          "internalType": "uint256",
          "name": "rewardAmount",
          "type": "uint256"
        }
      ],
      "name": "RewardDistributed",
      "type": "event"
    },
    {
      "inputs": [
        {
          "internalType": "uint256",
          "name": "_questionId",
          "type": "uint256"
        }
      ],
      "name": "activateQuestionFromBank",
      "outputs": [],
      "stateMutability": "nonpayable",
      "type": "function"
    },
    {
      "inputs": [
        {
          "internalType": "uint256",
          "name": "_questionId",
          "type": "uint256"
        }
      ],
      "name": "buyHint",
      "outputs": [],
      "stateMutability": "nonpayable",
      "type": "function"
    },
    {
      "inputs": [
        {
          "internalType": "bytes32",
          "name": "_correctAnswerHash",
          "type": "bytes32"
        },
        {
          "internalType": "bytes32",
          "name": "_hintHash",
          "type": "bytes32"
        },
        {
          "internalType": "uint256",
          "name": "_difficultyLevel",
          "type": "uint256"
        },
        {
          "internalType": "enum LibAppStorage.QuestionMode",
          "name": "_mode",
          "type": "uint8"
        }
      ],
      "name": "createQuestion",
      "outputs": [],
      "stateMutability": "nonpayable",
      "type": "function"
    },
    {
      "inputs": [
        {
          "internalType": "uint256",
          "name": "_questionId",
          "type": "uint256"
        }
      ],
      "name": "distributePoolRewards",
      "outputs": [],
      "stateMutability": "nonpayable",
      "type": "function"
    },
    {
      "inputs": [
        {
          "internalType": "uint256",
          "name": "_questionId",
          "type": "uint256"
        },
        {
          "internalType": "bytes32",
          "name": "_submittedAnswerHash",
          "type": "bytes32"
        }
      ],
      "name": "submitAnswer",
      "outputs": [],
      "stateMutability": "nonpayable",
      "type": "function"
    }
  ],
  "bytecode": "0x60808060405234601557611836908161001b8239f35b600080fdfe608080604052600436101561001357600080fd5b600090813560e01c9081631e0fef78146112375750806342dd072414610ffd578063686caeaf14610d5f5780637935ec68146106335763844c3e021461005857600080fd5b34610630576020366003190112610630577f4f2f104a7ea12e35172792673c68fe1423b90b4f6b86a6c5f5a9a85bd565202254604051632474521560e21b8152600480820192909252336024820152903590602081604481305afa9081156103cc578391610611575b508015610587575b1561051c578082526000805160206117c183398151915260205260408220916100f7600384015415156116b6565b6008830191825460ff8160081c166002811015610508576001036104b35760ff610122911615611702565b600684015493606485036104895761014e6000805160206117a1833981519152545b600a830154611758565b421061043957600c01938454156103d757604051906304bd546560e41b82526004820152602081602481305afa9081156103cc578391610395575b506101c36127106101bb7f4f2f104a7ea12e35172792673c68fe1423b90b4f6b86a6c5f5a9a85bd565202c548461164a565b048092611793565b9060018060a01b036000805160206117e1833981519152541690813b156102eb57849160248392604051948593849263fad7f38760e01b845260048401525af1801561038a57908491610371575b5050845490811561035d570493825b81548110156102fe576102338183611765565b90546000805160206117e18339815191525460039290921b1c6001600160a01b039081169116803b156102fa57604051639120020960e01b81526001600160a01b0383166004820152602481018990529086908290604490829084905af180156102ef579086916102d6575b505090600191847fab7542bafced3da2d8c881cb2dd1de859fac7c20d3650d2902ad389a64e0888360206040518b8152a301610220565b816102e0916115fa565b6102eb57843861029f565b8480fd5b6040513d88823e3d90fd5b8580fd5b50835460ff191660011784558054838255908161033f575b50507f3c8f450bdfccd4e29a4d8e9602688d5e009772a7de7c40c7f27b8f8c129f01fa8280a280f35b835260208320908101905b818110156103165783815560010161034a565b634e487b7160e01b84526012600452602484fd5b8161037b916115fa565b610386578238610211565b8280fd5b6040513d86823e3d90fd5b90506020813d6020116103c4575b816103b0602093836115fa565b810103126103bf575138610189565b600080fd5b3d91506103a3565b6040513d85823e3d90fd5b60405162461bcd60e51b815260206004820152603460248201527f5175697a3a204e6f206f6e6520616e73776572656420636f72726563746c792060448201527334b7102837b7b61036b7b232903bb4b73237bb9760611b6064820152608490fd5b60405162461bcd60e51b815260206004820152602260248201527f5175697a3a20506f6f6c2077696e646f77206973206e6f74206f7665722079656044820152613a1760f11b6064820152608490fd5b61014e7f4f2f104a7ea12e35172792673c68fe1423b90b4f6b86a6c5f5a9a85bd565202654610144565b60405162461bcd60e51b815260206004820152602760248201527f5175697a3a2054686973206973206e6f74206120506f6f6c206d6f646520717560448201526632b9ba34b7b71760c91b6064820152608490fd5b634e487b7160e01b84526021600452602484fd5b60405162461bcd60e51b815260206004820152603b60248201527f416363657373436f6e74726f6c3a2043616c6c6572206973206e6f7420616e2060448201527f61646d696e206f7220726577617264206469737472696275746f7200000000006064820152608490fd5b507f4f2f104a7ea12e35172792673c68fe1423b90b4f6b86a6c5f5a9a85bd565202354604051632474521560e21b81526004810191909152336024820152602081604481305afa9081156103cc5783916105e2575b506100c9565b610604915060203d60201161060a575b6105fc81836115fa565b810190611632565b386105dc565b503d6105f2565b61062a915060203d60201161060a576105fc81836115fa565b386100c1565b80fd5b503461063057604036600319011261063057600435602435908083526000805160206117c18339815191526020526040832060038101546106758115156116b6565b6008820180549261068960ff851615611702565b60068101926064845414610ce7575b861493846106d9575b5050505060405192835260208301527ff13f0cafc2e76d9b040bc1cf8fe98f442675719960e4065425c2c750aa0e19a460403393a380f35b3360009081527f4f2f104a7ea12e35172792673c68fe1423b90b4f6b86a6c5f5a9a85bd565202f602052604090205462015180420491908214610c2a57503360009081527f4f2f104a7ea12e35172792673c68fe1423b90b4f6b86a6c5f5a9a85bd565202f6020526040902081905582543360009081527f4f2f104a7ea12e35172792673c68fe1423b90b4f6b86a6c5f5a9a85bd56520306020526040902060089190911c60ff166002811015610c1657815460ff19161790555b338852600d8201602081905260408920548214610bab573389526020526040882055815460081c60ff166002811015610b975780610a245750600b810180546001600160a01b03166109df5780546001600160a01b0319163317905542600a9190910155805460ff19166001179055546040516304bd546560e41b81526004810191909152602081602481305afa9081156109d45785916109a2575b508461086b6127106108637f4f2f104a7ea12e35172792673c68fe1423b90b4f6b86a6c5f5a9a85bd565202c548561164a565b048093611793565b6000805160206117e1833981519152549092906001600160a01b0316803b156103865760248392604051948593849263fad7f38760e01b845260048401525af180156102ef5761098e575b506000805160206117e18339815191525485906001600160a01b0316803b1561098a57604051639120020960e01b8152336004820152602481018490529082908290604490829084905af1801561097f5761096a575b5050604051908152827fab7542bafced3da2d8c881cb2dd1de859fac7c20d3650d2902ad389a64e0888360203393a3817f3c8f450bdfccd4e29a4d8e9602688d5e009772a7de7c40c7f27b8f8c129f01fa8580a25b388080806106a1565b81610974916115fa565b6102eb57843861090c565b6040513d84823e3d90fd5b5080fd5b8561099b919692966115fa565b93386108b6565b90506020813d6020116109cc575b816109bd602093836115fa565b810103126102eb575138610830565b3d91506109b0565b6040513d87823e3d90fd5b60405162461bcd60e51b815260206004820152601f60248201527f5175697a3a20536f6c6f206d6f646520616c726561647920736f6c7665642e006044820152606490fd5b60019193925014610a37575b5050610961565b610a68906064600a840191825415610b64575b5403610b3c576000805160206117a183398151915254905b54611758565b4211610ac757600c01805490600160401b821015610ab35790610a9091600182018155611765565b81546001600160a01b0360039290921b91821b19163390911b1790553880610a30565b634e487b7160e01b86526041600452602486fd5b60405162461bcd60e51b815260206004820152604160248201527f5175697a3a20506f6f6c207265776172642077696e646f7720697320636c6f7360448201527f6564206f72204c6576656c20313030207175657374696f6e20657870697265646064820152601760f91b608482015260a490fd5b7f4f2f104a7ea12e35172792673c68fe1423b90b4f6b86a6c5f5a9a85bd56520265490610a62565b428355867f98e392e74a792835e605c302c60c0435ac790334152fd4e6ca7ec970b332aaec6020604051428152a2610a4a565b634e487b7160e01b88526021600452602488fd5b60405162461bcd60e51b815260206004820152603e60248201527f5175697a3a20596f752063616e206f6e6c7920616e737765722074686973207360448201527f70656369666963207175657374696f6e206f6e636520706572206461792e00006064820152608490fd5b634e487b7160e01b8a52602160045260248afd5b3360009081527f4f2f104a7ea12e35172792673c68fe1423b90b4f6b86a6c5f5a9a85bd56520306020526040902060ff90819054169160081c16906002821015610c16576002811015610c1657146107945760405162461bcd60e51b815260206004820152603e60248201527f5175697a3a20596f75206861766520616c72656164792063686f73656e20612060448201527f646966666572656e742067616d65206d6f646520666f7220746f6461792e00006064820152608490fd5b610d0560098301546000805160206117a18339815191525490611758565b4211156106985760405162461bcd60e51b815260206004820152602560248201527f5175697a3a204c6576656c20313030207175657374696f6e206861732065787060448201526434b932b21760d91b6064820152608490fd5b5034610630576020366003190112610630577f4f2f104a7ea12e35172792673c68fe1423b90b4f6b86a6c5f5a9a85bd565202254604051632474521560e21b8152600480820192909252336024820152903590602081604481305afa9081156103cc578391610fde575b508015610f64575b15610f02578082526000805160206117c183398151915260205260408220600381015415610eae576008810160ff19815416905582600a820155600b81016001600160601b0360a01b81541690556020600c60405192610e3183856115fa565b85845285368137019082519267ffffffffffffffff8411610ab3578190610e588585611673565b0191855280852090855b848110610e93578633877f6c01933b9ad41cd54278498404c4955f24142d7570eff7bce17fc7f5ee12f8928380a380f35b83516001600160a01b03168382015592810192600101610e62565b60405162461bcd60e51b815260206004820152602660248201527f5175697a3a205175657374696f6e20646f6573206e6f7420657869737420696e604482015265103130b7359760d11b6064820152608490fd5b60405162461bcd60e51b815260206004820152603460248201527f416363657373436f6e74726f6c3a2043616c6c6572206973206e6f742061206760448201527330b6b29030b236b4b71037b91031b932b0ba37b960611b6064820152608490fd5b507f4f2f104a7ea12e35172792673c68fe1423b90b4f6b86a6c5f5a9a85bd565202454604051632474521560e21b81526004810191909152336024820152602081604481305afa9081156103cc578391610fbf575b50610dd1565b610fd8915060203d60201161060a576105fc81836115fa565b38610fb9565b610ff7915060203d60201161060a576105fc81836115fa565b38610dc9565b5034610630576020366003190112610630576004358082526000805160206117c18339815191526020526040822061103a600382015415156116b6565b61104b60ff60088301541615611702565b60646006820154146111aa575b5081602060018060a01b037f4f2f104a7ea12e35172792673c68fe1423b90b4f6b86a6c5f5a9a85bd5652036541660647f4f2f104a7ea12e35172792673c68fe1423b90b4f6b86a6c5f5a9a85bd56520255460405194859384926323b872dd60e01b845233600485015230602485015260448401525af19081156103cc57839161118b575b5015611135577f4f2f104a7ea12e35172792673c68fe1423b90b4f6b86a6c5f5a9a85bd565202554906040519182527ff10cfe1413da6fb4d61b5fe0472eef72ef9191ca81db52b96f4143513960d32d60203393a380f35b60405162461bcd60e51b815260206004820152602860248201527f5175697a3a205175697a436f696e207472616e73666572206661696c6564206660448201526737b9103434b73a1760c11b6064820152608490fd5b6111a4915060203d60201161060a576105fc81836115fa565b386110dd565b600901546000805160206117a1833981519152546111c791611758565b42116111d35738611058565b60405162461bcd60e51b815260206004820152603660248201527f5175697a3a204c6576656c20313030207175657374696f6e206861732065787060448201527534b932b2161031b0b73737ba10313abc903434b73a1760511b6064820152608490fd5b90503461098a57608036600319011261098a57600435604435916064359060028210156102eb577f4f2f104a7ea12e35172792673c68fe1423b90b4f6b86a6c5f5a9a85bd565202254632474521560e21b82526004820152336024820152602081604481305afa9081156109d45785916115db575b501561158457811561152e57600183101580611523575b156114c5577f4f2f104a7ea12e35172792673c68fe1423b90b4f6b86a6c5f5a9a85bd565202e549160001983146114b157600183017f4f2f104a7ea12e35172792673c68fe1423b90b4f6b86a6c5f5a9a85bd565202e556064840361147d577f4f2f104a7ea12e35172792673c68fe1423b90b4f6b86a6c5f5a9a85bd565202954915b8386526000805160206117c18339815191526020526040862091600383015560243560048301556005820160018060a01b0333166001600160601b0360a01b825416179055846006830155826007830155600882019061ff0082549160081b169061ffff191617905542600982015584600a820155600b81016001600160601b0360a01b8154169055602090600c604051916113e284846115fa565b878352873681370181519167ffffffffffffffff83116114695783906114088484611673565b01908752828720875b83811061144e57505050506040519384528301527f5fff8b8a05084a38562ea22f588b62938f68ad92fbfc50ee5b3dc2e69dd0d81760403393a380f35b82516001600160a01b03168282015591840191600101611411565b634e487b7160e01b88526041600452602488fd5b60636114aa857f4f2f104a7ea12e35172792673c68fe1423b90b4f6b86a6c5f5a9a85bd56520285461164a565b0491611346565b634e487b7160e01b85526011600452602485fd5b60405162461bcd60e51b815260206004820152603060248201527f5175697a3a20446966666963756c7479206c6576656c206d757374206265206260448201526f065747765656e203120616e64203130360841b6064820152608490fd5b5060648311156112c3565b60405162461bcd60e51b815260206004820152602860248201527f5175697a3a20436f727265637420616e7377657220686173682063616e6e6f74604482015267206265207a65726f60c01b6064820152608490fd5b60405162461bcd60e51b815260206004820152602960248201527f416363657373436f6e74726f6c3a2043616c6c6572206973206e6f742061206760448201526830b6b29030b236b4b760b91b6064820152608490fd5b6115f4915060203d60201161060a576105fc81836115fa565b386112ac565b90601f8019910116810190811067ffffffffffffffff82111761161c57604052565b634e487b7160e01b600052604160045260246000fd5b908160209103126103bf575180151581036103bf5790565b8181029291811591840414171561165d57565b634e487b7160e01b600052601160045260246000fd5b90600160401b811161161c5781549181815582821061169157505050565b600052602060002091820191015b8181106116aa575050565b6000815560010161169f565b156116bd57565b60405162461bcd60e51b815260206004820152601e60248201527f5175697a3a205175657374696f6e20646f6573206e6f742065786973742e00006044820152606490fd5b1561170957565b60405162461bcd60e51b815260206004820152602160248201527f5175697a3a205175657374696f6e20697320616c726561647920636c6f7365646044820152601760f91b6064820152608490fd5b9190820180921161165d57565b805482101561177d5760005260206000200190600090565b634e487b7160e01b600052603260045260246000fd5b9190820391821161165d5756fe4f2f104a7ea12e35172792673c68fe1423b90b4f6b86a6c5f5a9a85bd56520274f2f104a7ea12e35172792673c68fe1423b90b4f6b86a6c5f5a9a85bd56520314f2f104a7ea12e35172792673c68fe1423b90b4f6b86a6c5f5a9a85bd5652035a2646970667358221220dff7e215bfb9308f5092ee4fd066e5fe1cdc95d993dbd872d832d61ffb2e908764736f6c634300081c0033",
  "linkReferences": {},
  "deployedLinkReferences": {}
}