{
  "_format": "hh-sol-artifact-1",
  "contractName": "QuizCreationFacet",
  "sourceName": "contracts/facets/QuizCreationFacet.sol",
  "abi": [
    {
      "anonymous": false,
      "inputs": [
        {
          "indexed": true,
          "internalType": "uint256",
          "name": "quizId",
          "type": "uint256"
        },
        {
          "indexed": true,
          "internalType": "uint256",
          "name": "questionIndex",
          "type": "uint256"
        }
      ],
      "name": "QuestionAdded",
      "type": "event"
    },
    {
      "anonymous": false,
      "inputs": [
        {
          "indexed": true,
          "internalType": "uint256",
          "name": "quizId",
          "type": "uint256"
        }
      ],
      "name": "QuizActivated",
      "type": "event"
    },
    {
      "anonymous": false,
      "inputs": [
        {
          "indexed": true,
          "internalType": "uint256",
          "name": "quizId",
          "type": "uint256"
        },
        {
          "indexed": false,
          "internalType": "string",
          "name": "name",
          "type": "string"
        },
        {
          "indexed": true,
          "internalType": "address",
          "name": "creator",
          "type": "address"
        },
        {
          "indexed": false,
          "internalType": "uint256",
          "name": "rewardAmount",
          "type": "uint256"
        }
      ],
      "name": "QuizCreated",
      "type": "event"
    },
    {
      "anonymous": false,
      "inputs": [
        {
          "indexed": true,
          "internalType": "uint256",
          "name": "quizId",
          "type": "uint256"
        }
      ],
      "name": "QuizDeactivated",
      "type": "event"
    },
    {
      "inputs": [
        {
          "internalType": "uint256",
          "name": "_quizId",
          "type": "uint256"
        }
      ],
      "name": "activateQuiz",
      "outputs": [],
      "stateMutability": "nonpayable",
      "type": "function"
    },
    {
      "inputs": [
        {
          "internalType": "uint256",
          "name": "_quizId",
          "type": "uint256"
        },
        {
          "internalType": "string",
          "name": "_questionText",
          "type": "string"
        },
        {
          "internalType": "string[]",
          "name": "_options",
          "type": "string[]"
        },
        {
          "internalType": "uint8",
          "name": "_correctAnswerIndex",
          "type": "uint8"
        }
      ],
      "name": "addQuestion",
      "outputs": [],
      "stateMutability": "nonpayable",
      "type": "function"
    },
    {
      "inputs": [
        {
          "internalType": "string",
          "name": "_name",
          "type": "string"
        },
        {
          "internalType": "uint256",
          "name": "_rewardAmount",
          "type": "uint256"
        },
        {
          "internalType": "uint256",
          "name": "_maxParticipants",
          "type": "uint256"
        }
      ],
      "name": "createQuiz",
      "outputs": [
        {
          "internalType": "uint256",
          "name": "quizId",
          "type": "uint256"
        }
      ],
      "stateMutability": "nonpayable",
      "type": "function"
    },
    {
      "inputs": [
        {
          "internalType": "uint256",
          "name": "_quizId",
          "type": "uint256"
        }
      ],
      "name": "deactivateQuiz",
      "outputs": [],
      "stateMutability": "nonpayable",
      "type": "function"
    },
    {
      "inputs": [
        {
          "internalType": "uint256",
          "name": "_quizId",
          "type": "uint256"
        },
        {
          "internalType": "uint256",
          "name": "_questionIndex",
          "type": "uint256"
        }
      ],
      "name": "getQuestion",
      "outputs": [
        {
          "internalType": "string",
          "name": "questionText",
          "type": "string"
        },
        {
          "internalType": "string[]",
          "name": "options",
          "type": "string[]"
        },
        {
          "internalType": "uint8",
          "name": "correctAnswerIndex",
          "type": "uint8"
        }
      ],
      "stateMutability": "view",
      "type": "function"
    },
    {
      "inputs": [
        {
          "internalType": "uint256",
          "name": "_quizId",
          "type": "uint256"
        }
      ],
      "name": "getQuiz",
      "outputs": [
        {
          "internalType": "string",
          "name": "name",
          "type": "string"
        },
        {
          "internalType": "address",
          "name": "creator",
          "type": "address"
        },
        {
          "internalType": "uint256",
          "name": "rewardAmount",
          "type": "uint256"
        },
        {
          "internalType": "uint256",
          "name": "totalQuestions",
          "type": "uint256"
        },
        {
          "internalType": "uint256",
          "name": "maxParticipants",
          "type": "uint256"
        },
        {
          "internalType": "bool",
          "name": "isActive",
          "type": "bool"
        }
      ],
      "stateMutability": "view",
      "type": "function"
    },
    {
      "inputs": [],
      "name": "getTotalQuizzes",
      "outputs": [
        {
          "internalType": "uint256",
          "name": "totalQuizzes",
          "type": "uint256"
        }
      ],
      "stateMutability": "view",
      "type": "function"
    }
  ],
  "bytecode": "0x60808060405234601557611303908161001b8239f35b600080fdfe608080604052600436101561001357600080fd5b60003560e01c908163403861a114610dcf5750806374f684791461075e57806389fb620d14610733578063a3f7e09614610693578063bc6d8094146104cc578063d8187d05146102245763fcfad2491461006c57600080fd5b3461021f57602036600319011261021f57600435604051638da5cb5b60e01b8152602081600481305afa8015610213576100b9916000916101e4575b506001600160a01b031633146110cd565b60008181526000805160206112ae8339815191526020526040902060018101546001600160a01b03166100ed811515611118565b330361018157600501805460ff81161561012e5760ff191690557feb142c7b95937f2461845e11c64e2851c6c5202d2474d7c0c2cab3223f4c3db3600080a2005b60405162461bcd60e51b815260206004820152602560248201527f5175697a4372656174696f6e46616365743a205175697a206973206e6f742061604482015264637469766560d81b6064820152608490fd5b60405162461bcd60e51b815260206004820152603560248201527f5175697a4372656174696f6e46616365743a204d757374206265207175697a2060448201527463726561746f7220746f206465616374697661746560581b6064820152608490fd5b610206915060203d60201161020c575b6101fe8183610fdc565b8101906110ae565b386100a8565b503d6101f4565b6040513d6000823e3d90fd5b600080fd5b3461021f57606036600319011261021f5760043567ffffffffffffffff811161021f57610255903690600401610ffe565b604051638da5cb5b60e01b815260243590602081600481305afa801561021357610291916000916104ad57506001600160a01b031633146110cd565b60008051602061128e8339815191525490816000526000805160206112ae83398151915260205260406000209280519067ffffffffffffffff8211610497578484926102df60209754611173565b601f811161045c575b5086601f82116001146103ce579161033c826005937f555c573dfae89e32b54f425613ac3573052e7bdfabeeee7126bde903b4ca809a96956000916103c3575b508160011b916000199060031b1c19161790565b81555b6001810180546001600160a01b031916331790556002810186905560006003820155604435600482015501805460ff1916905560008051602061128e8339815191525461038b906111c4565b60008051602061128e833981519152556103b06040519160408352604083019061106d565b93868201528033940390a3604051908152f35b90508501518b610328565b93929190601f19811682600052856000209060005b8181106104425750916001917f555c573dfae89e32b54f425613ac3573052e7bdfabeeee7126bde903b4ca809a9697826005969510610429575b5050811b01815561033f565b86015160001960f88460031b161c191690558a8061041d565b878601518355968a01968996506001909201918a016103e3565b610487908360005288600020601f840160051c8101918a851061048d575b601f0160051c01906111ad565b876102e8565b909150819061047a565b634e487b7160e01b600052604160045260246000fd5b6104c6915060203d60201161020c576101fe8183610fdc565b846100a8565b3461021f57604036600319011261021f5760043560243590806000526000805160206112ae8339815191526020526003604060002061051860018060a01b036001830154161515611118565b015482101561063c576000527ff4894ae4ff1f18ee72704a0e70403d75ad904f1eafeb350b7ea3349c8d00f24660205260406000209060005260205260406000206001810161056e60ff600284015416926111e9565b90805461057a81611055565b906105886040519283610fdc565b80825260208201809360005260206000206000915b83831061061f57505050506105bd6040519360608552606085019061106d565b90838203602085015251808252602082019160208260051b82010193926000915b8383106105f2578680878a60408301520390f35b9091929394602080610610600193601f19868203018752895161106d565b970193019301919392906105de565b60016020819261062e856111e9565b81520192019201919061059d565b60405162461bcd60e51b815260206004820152602960248201527f5175697a4372656174696f6e46616365743a20496e76616c69642071756573746044820152680d2dedc40d2dcc8caf60bb1b6064820152608490fd5b3461021f57602036600319011261021f576004356000526000805160206112ae833981519152602052610713604060002060018060a01b036001820154166106dc811515611118565b60028201549160038101546004820154906106fe60ff600585015416936111e9565b9460405196879660c0885260c088019061106d565b946020870152604086015260608501526080840152151560a08301520390f35b3461021f57600036600319011261021f57602060008051602061128e83398151915254604051908152f35b3461021f57608036600319011261021f5760043560243567ffffffffffffffff811161021f57610792903690600401610ffe565b9060443567ffffffffffffffff811161021f573660238201121561021f578060040135926107bf84611055565b916107cd6040519384610fdc565b84835260208301906024829660051b8201019036821161021f5760248101925b828410610d9f57505050506064359060ff821680920361021f57604051638da5cb5b60e01b8152602081600481305afa80156102135761083f91600091610d8057506001600160a01b031633146110cd565b60008481526000805160206112ae8339815191526020526040902060018101546001600160a01b0316610873811515611118565b3303610d155760ff600582015416610caa576002845110610c48578351831015610beb5760030192835495856000527ff4894ae4ff1f18ee72704a0e70403d75ad904f1eafeb350b7ea3349c8d00f24660205260406000208760005260205260406000209280519067ffffffffffffffff8211610497576108f48554611173565b601f8111610bb9575b50602090601f8311600114610b525761092f929160009183610b47575b50508160011b916000199060031b1c19161790565b83555b60018301915190680100000000000000008211610497578254828455808310610ac9575b50916000526020600020916000905b8282106109b057505050506002019060ff1982541617905561098781546111c4565b90557fe5ac7a6f7f975d3d3ba41acafad3abf1430692be1442c6bde74a8ae06b385355600080a3005b805180519067ffffffffffffffff8211610497576109ce8654611173565b601f8111610a97575b50602090601f8311600114610a2a5792610a1083600195946020948796600092610a1f5750508160011b916000199060031b1c19161790565b87555b01940191019092610965565b015190508f8061091a565b90601f1983169187600052816000209260005b818110610a7f5750936020936001969387969383889510610a66575b505050811b018755610a13565b015160001960f88460031b161c191690558e8080610a59565b92936020600181928786015181550195019301610a3d565b610ac390876000526020600020601f850160051c8101916020861061048d57601f0160051c01906111ad565b8b6109d7565b8360005282602060002091820191015b818110610ae65750610956565b80610af360019254611173565b80610b00575b5001610ad9565b601f81118314610b165750600081555b8b610af9565b610b34908260005283601f6020600020920160051c820191016111ad565b8060005260006020812081835555610b10565b015190508a8061091a565b90601f1983169186600052816000209260005b818110610ba15750908460019594939210610b88575b505050811b018355610932565b015160001960f88460031b161c19169055898080610b7b565b92936020600181928786015181550195019301610b65565b610be590866000526020600020601f850160051c8101916020861061048d57601f0160051c01906111ad565b896108fd565b60405162461bcd60e51b815260206004820152602f60248201527f5175697a4372656174696f6e46616365743a20496e76616c696420636f72726560448201526e0c6e840c2dce6eecae440d2dcc8caf608b1b6064820152608490fd5b60405162461bcd60e51b815260206004820152603460248201527f5175697a4372656174696f6e46616365743a204d7573742070726f76696465206044820152736174206c656173742074776f206f7074696f6e7360601b6064820152608490fd5b60405162461bcd60e51b815260206004820152603960248201527f5175697a4372656174696f6e46616365743a2043616e6e6f742061646420717560448201527f657374696f6e7320746f20616e20616374697665207175697a000000000000006064820152608490fd5b60405162461bcd60e51b815260206004820152603860248201527f5175697a4372656174696f6e46616365743a204d757374206265207175697a2060448201527f63726561746f7220746f20616464207175657374696f6e7300000000000000006064820152608490fd5b610d99915060203d60201161020c576101fe8183610fdc565b876100a8565b833567ffffffffffffffff811161021f57602091610dc4839260243691870101610ffe565b8152019301926107ed565b3461021f57602036600319011261021f5760043590638da5cb5b60e01b8152602081600481305afa801561021357610e1991600091610fbd57506001600160a01b031633146110cd565b60008181526000805160206112ae8339815191526020526040902060018101546001600160a01b0316610e4d811515611118565b3303610f5c57600381015415610ef157600501805460ff8116610e9a5760ff191660011790557fd927163946a94e1193f89f6cb09e568d717078d3a2bae542be56519e95c73c93600080a2005b60405162461bcd60e51b815260206004820152602960248201527f5175697a4372656174696f6e46616365743a205175697a20697320616c72656160448201526864792061637469766560b81b6064820152608490fd5b60405162461bcd60e51b815260206004820152603b60248201527f5175697a4372656174696f6e46616365743a2043616e6e6f742061637469766160448201527f74652061207175697a2077697468206e6f207175657374696f6e7300000000006064820152608490fd5b60405162461bcd60e51b815260206004820152603360248201527f5175697a4372656174696f6e46616365743a204d757374206265207175697a2060448201527263726561746f7220746f20616374697661746560681b6064820152608490fd5b610fd6915060203d60201161020c576101fe8183610fdc565b836100a8565b90601f8019910116810190811067ffffffffffffffff82111761049757604052565b81601f8201121561021f5780359067ffffffffffffffff82116104975760405192611033601f8401601f191660200185610fdc565b8284526020838301011161021f57816000926020809301838601378301015290565b67ffffffffffffffff81116104975760051b60200190565b919082519283825260005b848110611099575050826000602080949584010152601f8019910116010190565b80602080928401015182828601015201611078565b9081602091031261021f57516001600160a01b038116810361021f5790565b156110d457565b606460405162461bcd60e51b815260206004820152602060248201527f5175697a4372656174696f6e46616365743a204d757374206265206f776e65726044820152fd5b1561111f57565b60405162461bcd60e51b815260206004820152602660248201527f5175697a4372656174696f6e46616365743a205175697a20646f6573206e6f7460448201526508195e1a5cdd60d21b6064820152608490fd5b90600182811c921680156111a3575b602083101461118d57565b634e487b7160e01b600052602260045260246000fd5b91607f1691611182565b8181106111b8575050565b600081556001016111ad565b60001981146111d35760010190565b634e487b7160e01b600052601160045260246000fd5b90604051918260008254926111fd84611173565b808452936001811690811561126b5750600114611224575b5061122292500383610fdc565b565b90506000929192526020600020906000915b81831061124f5750509060206112229282010138611215565b6020919350806001915483858901015201910190918492611236565b90506020925061122294915060ff191682840152151560051b8201013861121556fef4894ae4ff1f18ee72704a0e70403d75ad904f1eafeb350b7ea3349c8d00f244f4894ae4ff1f18ee72704a0e70403d75ad904f1eafeb350b7ea3349c8d00f245a264697066735822122025e5c9eddfcf6caa3463c1e0c00dea8178c60a1252f0067bb6bbb71d4424465e64736f6c634300081c0033",
  "linkReferences": {},
  "deployedLinkReferences": {}
}