{
  "_format": "hh-sol-artifact-1",
  "contractName": "QuizGameModeFacet",
  "sourceName": "contracts/facets/QuizGameModeFacet.sol",
  "abi": [
    {
      "anonymous": false,
      "inputs": [
        {
          "indexed": true,
          "internalType": "uint256",
          "name": "questionId",
          "type": "uint256"
        },
        {
          "indexed": true,
          "internalType": "address",
          "name": "solver",
          "type": "address"
        },
        {
          "indexed": false,
          "internalType": "bytes32",
          "name": "submittedAnswerHash",
          "type": "bytes32"
        },
        {
          "indexed": false,
          "internalType": "bool",
          "name": "isCorrect",
          "type": "bool"
        }
      ],
      "name": "AnswerSubmitted",
      "type": "event"
    },
    {
      "anonymous": false,
      "inputs": [
        {
          "indexed": true,
          "internalType": "uint256",
          "name": "questionId",
          "type": "uint256"
        },
        {
          "indexed": true,
          "internalType": "address",
          "name": "buyer",
          "type": "address"
        },
        {
          "indexed": false,
          "internalType": "uint256",
          "name": "cost",
          "type": "uint256"
        }
      ],
      "name": "HintPurchased",
      "type": "event"
    },
    {
      "anonymous": false,
      "inputs": [
        {
          "indexed": true,
          "internalType": "address",
          "name": "player",
          "type": "address"
        },
        {
          "indexed": true,
          "internalType": "uint256",
          "name": "quizId",
          "type": "uint256"
        }
      ],
      "name": "PlayerJoinedQuiz",
      "type": "event"
    },
    {
      "anonymous": false,
      "inputs": [
        {
          "indexed": true,
          "internalType": "uint256",
          "name": "questionId",
          "type": "uint256"
        },
        {
          "indexed": true,
          "internalType": "address",
          "name": "activator",
          "type": "address"
        }
      ],
      "name": "QuestionActivatedFromBank",
      "type": "event"
    },
    {
      "anonymous": false,
      "inputs": [
        {
          "indexed": true,
          "internalType": "uint256",
          "name": "questionId",
          "type": "uint256"
        }
      ],
      "name": "QuestionClosed",
      "type": "event"
    },
    {
      "anonymous": false,
      "inputs": [
        {
          "indexed": true,
          "internalType": "uint256",
          "name": "questionId",
          "type": "uint256"
        },
        {
          "indexed": true,
          "internalType": "address",
          "name": "creator",
          "type": "address"
        },
        {
          "indexed": false,
          "internalType": "uint256",
          "name": "difficultyLevel",
          "type": "uint256"
        },
        {
          "indexed": false,
          "internalType": "uint256",
          "name": "baseRewardAmount",
          "type": "uint256"
        }
      ],
      "name": "QuestionCreated",
      "type": "event"
    },
    {
      "anonymous": false,
      "inputs": [
        {
          "indexed": true,
          "internalType": "uint256",
          "name": "questionId",
          "type": "uint256"
        },
        {
          "indexed": false,
          "internalType": "uint256",
          "name": "startTime",
          "type": "uint256"
        }
      ],
      "name": "QuestionRewardWindowStarted",
      "type": "event"
    },
    {
      "anonymous": false,
      "inputs": [
        {
          "indexed": true,
          "internalType": "address",
          "name": "player",
          "type": "address"
        },
        {
          "indexed": true,
          "internalType": "uint256",
          "name": "quizId",
          "type": "uint256"
        },
        {
          "indexed": true,
          "internalType": "uint256",
          "name": "questionIndex",
          "type": "uint256"
        },
        {
          "indexed": false,
          "internalType": "uint8",
          "name": "submittedAnswerIndex",
          "type": "uint8"
        },
        {
          "indexed": false,
          "internalType": "bool",
          "name": "isCorrect",
          "type": "bool"
        }
      ],
      "name": "QuizAnswerSubmitted",
      "type": "event"
    },
    {
      "anonymous": false,
      "inputs": [
        {
          "indexed": true,
          "internalType": "address",
          "name": "creator",
          "type": "address"
        },
        {
          "indexed": true,
          "internalType": "uint256",
          "name": "quizId",
          "type": "uint256"
        },
        {
          "indexed": false,
          "internalType": "uint256",
          "name": "rewardAmount",
          "type": "uint256"
        },
        {
          "indexed": false,
          "internalType": "uint256",
          "name": "totalQuestions",
          "type": "uint256"
        }
      ],
      "name": "QuizCreated",
      "type": "event"
    },
    {
      "anonymous": false,
      "inputs": [
        {
          "indexed": true,
          "internalType": "uint256",
          "name": "questionId",
          "type": "uint256"
        },
        {
          "indexed": true,
          "internalType": "address",
          "name": "solver",
          "type": "address"
        },
        {
          "indexed": false,
          "internalType": "uint256",
          "name": "rewardAmount",
          "type": "uint256"
        }
      ],
      "name": "RewardDistributed",
      "type": "event"
    },
    {
      "inputs": [
        {
          "internalType": "uint256",
          "name": "_questionId",
          "type": "uint256"
        }
      ],
      "name": "activateQuestionFromBank",
      "outputs": [],
      "stateMutability": "nonpayable",
      "type": "function"
    },
    {
      "inputs": [
        {
          "internalType": "uint256",
          "name": "_questionId",
          "type": "uint256"
        }
      ],
      "name": "buyHint",
      "outputs": [],
      "stateMutability": "nonpayable",
      "type": "function"
    },
    {
      "inputs": [
        {
          "internalType": "bytes32",
          "name": "_answerLeaf",
          "type": "bytes32"
        },
        {
          "internalType": "bytes32",
          "name": "_hintHash",
          "type": "bytes32"
        },
        {
          "internalType": "uint256",
          "name": "_difficultyLevel",
          "type": "uint256"
        },
        {
          "internalType": "enum LibAppStorage.QuestionMode",
          "name": "_mode",
          "type": "uint8"
        }
      ],
      "name": "createQuestion",
      "outputs": [],
      "stateMutability": "nonpayable",
      "type": "function"
    },
    {
      "inputs": [
        {
          "internalType": "uint256",
          "name": "_questionId",
          "type": "uint256"
        },
        {
          "internalType": "bytes32",
          "name": "_answerLeaf",
          "type": "bytes32"
        },
        {
          "internalType": "bytes32[]",
          "name": "_merkleProof",
          "type": "bytes32[]"
        }
      ],
      "name": "submitAnswer",
      "outputs": [],
      "stateMutability": "nonpayable",
      "type": "function"
    }
  ],
  "bytecode": "0x6080806040523460155761135d908161001b8239f35b600080fdfe608080604052600436101561001357600080fd5b600090813560e01c9081631e0fef7814610e755750806342dd072414610bdf578063686caeaf146108eb57636efa82d21461004d57600080fd5b346108e85760603660031901126108e85760243560043560443567ffffffffffffffff8111610442573660238201121561044257806004013567ffffffffffffffff81116108e6578060051b36602482850101116108e25783865260008051602061130883398151915260205260408620906100ce600383015415156112ae565b600882019283549160ff831661089d5760068401956064875414610821575b604051630306885f60e11b815260048101899052602481018a90526060604482015260648101849052926001600160fb1b031061081d57608483836020946024839501848401378101030181305afa9081156108125788916107e3575b5015610792573360009081527f4f2f104a7ea12e35172792673c68fe1423b90b4f6b86a6c5f5a9a85bd565202f6020526040902054620151804204919082146106e857503360009081527f4f2f104a7ea12e35172792673c68fe1423b90b4f6b86a6c5f5a9a85bd565202f6020526040902081905582543360009081527f4f2f104a7ea12e35172792673c68fe1423b90b4f6b86a6c5f5a9a85bd56520306020526040902060089190911c60ff1660028110156106d457815460ff19161790555b338752600d8201602081905260408820548214610683573388526020526040872055815460081c60ff16600281101561066f578061050e5750600b810180546001600160a01b03166104c95780546001600160a01b0319163317905542600a9190910155805460ff19166001179055546040516304bd546560e41b81526004810191909152602081602481305afa9081156104be57849161048c575b506127106102d67f4f2f104a7ea12e35172792673c68fe1423b90b4f6b86a6c5f5a9a85bd565202c5483611285565b04808203918211610478577f4f2f104a7ea12e35172792673c68fe1423b90b4f6b86a6c5f5a9a85bd5652035548591906001600160a01b0316803b156104745760248392604051948593849263fad7f38760e01b845260048401525af1801561046957610455575b507f4f2f104a7ea12e35172792673c68fe1423b90b4f6b86a6c5f5a9a85bd56520355484906001600160a01b0316803b1561045157818091604460405180948193639120020960e01b83523360048401528860248401525af180156104465761042d575b5050604051908152817fab7542bafced3da2d8c881cb2dd1de859fac7c20d3650d2902ad389a64e0888360203393a3807f3c8f450bdfccd4e29a4d8e9602688d5e009772a7de7c40c7f27b8f8c129f01fa8480a25b604051918252600160208301527ff13f0cafc2e76d9b040bc1cf8fe98f442675719960e4065425c2c750aa0e19a460403393a380f35b8161043791611230565b6104425783386103a2565b8380fd5b6040513d84823e3d90fd5b5080fd5b8461046291959295611230565b923861033e565b6040513d87823e3d90fd5b8280fd5b634e487b7160e01b85526011600452602485fd5b90506020813d6020116104b6575b816104a760209383611230565b810103126104425751386102a7565b3d915061049a565b6040513d86823e3d90fd5b60405162461bcd60e51b815260206004820152601a60248201527f5175697a3a20536f6c6f20616c726561647920736f6c7665642e0000000000006044820152606490fd5b60019193925014610521575b50506103f7565b610564906064600a84019182541561063c575b5403610614577f4f2f104a7ea12e35172792673c68fe1423b90b4f6b86a6c5f5a9a85bd565202754905b546112fa565b42116105d057600c01805490600160401b8210156105bc57600182018082558210156105a8578452602084200180546001600160a01b03191633179055388061051a565b634e487b7160e01b85526032600452602485fd5b634e487b7160e01b85526041600452602485fd5b606460405162461bcd60e51b815260206004820152602060248201527f5175697a3a20506f6f6c207265776172642077696e646f7720636c6f7365642e6044820152fd5b7f4f2f104a7ea12e35172792673c68fe1423b90b4f6b86a6c5f5a9a85bd5652026549061055e565b428355857f98e392e74a792835e605c302c60c0435ac790334152fd4e6ca7ec970b332aaec6020604051428152a2610534565b634e487b7160e01b87526021600452602487fd5b60405162461bcd60e51b815260206004820152602360248201527f5175697a3a2043616e206f6e6c7920616e73776572206f6e636520706572206460448201526230bc9760e91b6064820152608490fd5b634e487b7160e01b89526021600452602489fd5b3360009081527f4f2f104a7ea12e35172792673c68fe1423b90b4f6b86a6c5f5a9a85bd56520306020526040902060ff90819054169160081c169060028210156106d45760028110156106d4571461020b5760405162461bcd60e51b815260206004820152602a60248201527f5175697a3a20416c72656164792063686f73656e20646966666572656e74206d60448201526937b232903a37b230bc9760b11b6064820152608490fd5b60405162461bcd60e51b815260206004820152602360248201527f5175697a3a2057726f6e6720616e73776572206f7220696e76616c696420707260448201526237b7b360e91b6064820152608490fd5b610805915060203d60201161080b575b6107fd8183611230565b810190611268565b3861014a565b503d6107f3565b6040513d8a823e3d90fd5b8980fd5b61085160098601547f4f2f104a7ea12e35172792673c68fe1423b90b4f6b86a6c5f5a9a85bd565202754906112fa565b4211156100ed5760405162461bcd60e51b815260206004820152601860248201527f5175697a3a204c6576656c2031303020657870697265642e00000000000000006044820152606490fd5b60405162461bcd60e51b815260206004820152601960248201527f5175697a3a205175657374696f6e20697320636c6f7365642e000000000000006044820152606490fd5b8580fd5b845b80fd5b50346108e85760203660031901126108e8577f4f2f104a7ea12e35172792673c68fe1423b90b4f6b86a6c5f5a9a85bd565202254604051632474521560e21b8152600480820192909252336024820152903590602081604481305afa908115610bb5578391610bc0575b508015610b3b575b15610ad95780825260008051602061130883398151915260205260408220600381015415610a85576008810160ff19815416905582600a820155600b81016001600160601b0360a01b81541690556020600c604051926109bd8385611230565b85845285368137019082519267ffffffffffffffff8411610a7157600160401b8411610a715781908354858555808610610a49575b500191855280852090855b848110610a2e578633877f6c01933b9ad41cd54278498404c4955f24142d7570eff7bce17fc7f5ee12f8928380a380f35b83516001600160a01b031683820155928101926001016109fd565b8488528583892091820191015b818110610a6357506109f2565b888155849350600101610a56565b634e487b7160e01b86526041600452602486fd5b60405162461bcd60e51b815260206004820152602660248201527f5175697a3a205175657374696f6e20646f6573206e6f7420657869737420696e604482015265103130b7359760d11b6064820152608490fd5b60405162461bcd60e51b815260206004820152603460248201527f416363657373436f6e74726f6c3a2043616c6c6572206973206e6f742061206760448201527330b6b29030b236b4b71037b91031b932b0ba37b960611b6064820152608490fd5b507f4f2f104a7ea12e35172792673c68fe1423b90b4f6b86a6c5f5a9a85bd565202454604051632474521560e21b81526004810191909152336024820152602081604481305afa908115610bb5578391610b96575b5061095d565b610baf915060203d60201161080b576107fd8183611230565b38610b90565b6040513d85823e3d90fd5b610bd9915060203d60201161080b576107fd8183611230565b38610955565b50346108e85760203660031901126108e85760043580825260008051602061130883398151915260205260408220610c1c600382015415156112ae565b60ff600882015416610e26576064600682015414610d87575b5081602060018060a01b037f4f2f104a7ea12e35172792673c68fe1423b90b4f6b86a6c5f5a9a85bd5652036541660647f4f2f104a7ea12e35172792673c68fe1423b90b4f6b86a6c5f5a9a85bd56520255460405194859384926323b872dd60e01b845233600485015230602485015260448401525af1908115610bb5578391610d68575b5015610d12577f4f2f104a7ea12e35172792673c68fe1423b90b4f6b86a6c5f5a9a85bd565202554906040519182527ff10cfe1413da6fb4d61b5fe0472eef72ef9191ca81db52b96f4143513960d32d60203393a380f35b60405162461bcd60e51b815260206004820152602860248201527f5175697a3a205175697a436f696e207472616e73666572206661696c6564206660448201526737b9103434b73a1760c11b6064820152608490fd5b610d81915060203d60201161080b576107fd8183611230565b38610cba565b600901547f4f2f104a7ea12e35172792673c68fe1423b90b4f6b86a6c5f5a9a85bd565202754610db6916112fa565b4211610dc25738610c35565b60405162461bcd60e51b815260206004820152603660248201527f5175697a3a204c6576656c20313030207175657374696f6e206861732065787060448201527534b932b2161031b0b73737ba10313abc903434b73a1760511b6064820152608490fd5b60405162461bcd60e51b815260206004820152602160248201527f5175697a3a205175657374696f6e20697320616c726561647920636c6f7365646044820152601760f91b6064820152608490fd5b90503461045157608036600319011261045157600435604435916064359060028210156108e6577f4f2f104a7ea12e35172792673c68fe1423b90b4f6b86a6c5f5a9a85bd565202254632474521560e21b82526004820152336024820152602081604481305afa908115610469578591611211575b50156111ba5781156111765760018310158061116b575b15611126577f4f2f104a7ea12e35172792673c68fe1423b90b4f6b86a6c5f5a9a85bd565202e5491600019831461047857600183017f4f2f104a7ea12e35172792673c68fe1423b90b4f6b86a6c5f5a9a85bd565202e55606484036110f2577f4f2f104a7ea12e35172792673c68fe1423b90b4f6b86a6c5f5a9a85bd565202954915b8386526000805160206113088339815191526020526040862091600383015560243560048301556005820160018060a01b0333166001600160601b0360a01b825416179055846006830155826007830155600882019061ff0082549160081b169061ffff191617905542600982015584600a820155600b81016001600160601b0360a01b8154169055602090600c604051916110208484611230565b878352873681370181519167ffffffffffffffff83116110de57600160401b83116110de57839082548484558085106110b6575b5001908752828720875b83811061109b57505050506040519384528301527f5fff8b8a05084a38562ea22f588b62938f68ad92fbfc50ee5b3dc2e69dd0d81760403393a380f35b82516001600160a01b0316828201559184019160010161105e565b838a5284838b2091820191015b8181106110d05750611054565b8a81558693506001016110c3565b634e487b7160e01b88526041600452602488fd5b606361111f857f4f2f104a7ea12e35172792673c68fe1423b90b4f6b86a6c5f5a9a85bd565202854611285565b0491610f84565b60405162461bcd60e51b815260206004820152601e60248201527f5175697a3a20446966666963756c7479206d75737420626520312d31303000006044820152606490fd5b506064831115610f01565b606460405162461bcd60e51b815260206004820152602060248201527f5175697a3a20416e73776572206c6561662063616e6e6f74206265207a65726f6044820152fd5b60405162461bcd60e51b815260206004820152602960248201527f416363657373436f6e74726f6c3a2043616c6c6572206973206e6f742061206760448201526830b6b29030b236b4b760b91b6064820152608490fd5b61122a915060203d60201161080b576107fd8183611230565b38610eea565b90601f8019910116810190811067ffffffffffffffff82111761125257604052565b634e487b7160e01b600052604160045260246000fd5b90816020910312611280575180151581036112805790565b600080fd5b8181029291811591840414171561129857565b634e487b7160e01b600052601160045260246000fd5b156112b557565b60405162461bcd60e51b815260206004820152601e60248201527f5175697a3a205175657374696f6e20646f6573206e6f742065786973742e00006044820152606490fd5b919082018092116112985756fe4f2f104a7ea12e35172792673c68fe1423b90b4f6b86a6c5f5a9a85bd5652031a264697066735822122034d9d6205a1713222fe5468ea433ddc93bf456734a4aad2a2c2f81a34c835ed964736f6c634300081c0033",
  "linkReferences": {},
  "deployedLinkReferences": {}
}