{
  "_format": "hh-sol-artifact-1",
  "contractName": "QuizParticipationFacet",
  "sourceName": "contracts/facets/QuizParticipationFacet.sol",
  "abi": [
    {
      "anonymous": false,
      "inputs": [
        {
          "indexed": true,
          "internalType": "uint256",
          "name": "questionId",
          "type": "uint256"
        },
        {
          "indexed": true,
          "internalType": "address",
          "name": "solver",
          "type": "address"
        },
        {
          "indexed": false,
          "internalType": "bytes32",
          "name": "submittedAnswerHash",
          "type": "bytes32"
        },
        {
          "indexed": false,
          "internalType": "bool",
          "name": "isCorrect",
          "type": "bool"
        }
      ],
      "name": "AnswerSubmitted",
      "type": "event"
    },
    {
      "anonymous": false,
      "inputs": [
        {
          "indexed": true,
          "internalType": "uint256",
          "name": "questionId",
          "type": "uint256"
        },
        {
          "indexed": true,
          "internalType": "address",
          "name": "buyer",
          "type": "address"
        },
        {
          "indexed": false,
          "internalType": "uint256",
          "name": "cost",
          "type": "uint256"
        }
      ],
      "name": "HintPurchased",
      "type": "event"
    },
    {
      "anonymous": false,
      "inputs": [
        {
          "indexed": true,
          "internalType": "address",
          "name": "player",
          "type": "address"
        },
        {
          "indexed": true,
          "internalType": "uint256",
          "name": "quizId",
          "type": "uint256"
        }
      ],
      "name": "PlayerJoinedQuiz",
      "type": "event"
    },
    {
      "anonymous": false,
      "inputs": [
        {
          "indexed": true,
          "internalType": "uint256",
          "name": "questionId",
          "type": "uint256"
        },
        {
          "indexed": true,
          "internalType": "address",
          "name": "activator",
          "type": "address"
        }
      ],
      "name": "QuestionActivatedFromBank",
      "type": "event"
    },
    {
      "anonymous": false,
      "inputs": [
        {
          "indexed": true,
          "internalType": "uint256",
          "name": "questionId",
          "type": "uint256"
        }
      ],
      "name": "QuestionClosed",
      "type": "event"
    },
    {
      "anonymous": false,
      "inputs": [
        {
          "indexed": true,
          "internalType": "uint256",
          "name": "questionId",
          "type": "uint256"
        },
        {
          "indexed": true,
          "internalType": "address",
          "name": "creator",
          "type": "address"
        },
        {
          "indexed": false,
          "internalType": "uint256",
          "name": "difficultyLevel",
          "type": "uint256"
        },
        {
          "indexed": false,
          "internalType": "uint256",
          "name": "baseRewardAmount",
          "type": "uint256"
        }
      ],
      "name": "QuestionCreated",
      "type": "event"
    },
    {
      "anonymous": false,
      "inputs": [
        {
          "indexed": true,
          "internalType": "uint256",
          "name": "questionId",
          "type": "uint256"
        },
        {
          "indexed": false,
          "internalType": "uint256",
          "name": "startTime",
          "type": "uint256"
        }
      ],
      "name": "QuestionRewardWindowStarted",
      "type": "event"
    },
    {
      "anonymous": false,
      "inputs": [
        {
          "indexed": true,
          "internalType": "address",
          "name": "player",
          "type": "address"
        },
        {
          "indexed": true,
          "internalType": "uint256",
          "name": "quizId",
          "type": "uint256"
        },
        {
          "indexed": true,
          "internalType": "uint256",
          "name": "questionIndex",
          "type": "uint256"
        },
        {
          "indexed": false,
          "internalType": "uint8",
          "name": "submittedAnswerIndex",
          "type": "uint8"
        },
        {
          "indexed": false,
          "internalType": "bool",
          "name": "isCorrect",
          "type": "bool"
        }
      ],
      "name": "QuizAnswerSubmitted",
      "type": "event"
    },
    {
      "anonymous": false,
      "inputs": [
        {
          "indexed": true,
          "internalType": "address",
          "name": "creator",
          "type": "address"
        },
        {
          "indexed": true,
          "internalType": "uint256",
          "name": "quizId",
          "type": "uint256"
        },
        {
          "indexed": false,
          "internalType": "uint256",
          "name": "rewardAmount",
          "type": "uint256"
        },
        {
          "indexed": false,
          "internalType": "uint256",
          "name": "totalQuestions",
          "type": "uint256"
        }
      ],
      "name": "QuizCreated",
      "type": "event"
    },
    {
      "anonymous": false,
      "inputs": [
        {
          "indexed": true,
          "internalType": "uint256",
          "name": "questionId",
          "type": "uint256"
        },
        {
          "indexed": true,
          "internalType": "address",
          "name": "solver",
          "type": "address"
        },
        {
          "indexed": false,
          "internalType": "uint256",
          "name": "rewardAmount",
          "type": "uint256"
        }
      ],
      "name": "RewardDistributed",
      "type": "event"
    },
    {
      "inputs": [
        {
          "internalType": "uint256",
          "name": "_quizId",
          "type": "uint256"
        }
      ],
      "name": "joinQuiz",
      "outputs": [],
      "stateMutability": "nonpayable",
      "type": "function"
    },
    {
      "inputs": [
        {
          "internalType": "uint256",
          "name": "_quizId",
          "type": "uint256"
        },
        {
          "internalType": "uint256",
          "name": "_questionIndex",
          "type": "uint256"
        },
        {
          "internalType": "uint8",
          "name": "_submittedAnswerIndex",
          "type": "uint8"
        },
        {
          "internalType": "bytes32",
          "name": "leaf",
          "type": "bytes32"
        },
        {
          "internalType": "bytes32[]",
          "name": "proof",
          "type": "bytes32[]"
        }
      ],
      "name": "submitQuizAnswer",
      "outputs": [],
      "stateMutability": "nonpayable",
      "type": "function"
    }
  ],
  "bytecode": "0x608080604052346015576106f3908161001b8239f35b600080fdfe6080604052600436101561001257600080fd5b60003560e01c806320725d591461040a5763967023981461003257600080fd5b346102ee5760a03660031901126102ee576004356024359060443560ff81168091036102ee5760843567ffffffffffffffff81116102ee57366023820112156102ee57806004013567ffffffffffffffff81116102ee578060051b9036602483850101116102ee57846000527f4f2f104a7ea12e35172792673c68fe1423b90b4f6b86a6c5f5a9a85bd565203360205260408060002060009060018060a01b03331682526020522091856000527f4f2f104a7ea12e35172792673c68fe1423b90b4f6b86a6c5f5a9a85bd5652032602052604060002060ff845416156103b9578061012560ff6005600394015416610671565b015487101561036857600283019387855410156102f35760408051638350d44f60e01b81526064356004820152602481019190915260448101849052926001600160fb1b03106102ee57606483836020946024839501848401378101030181305afa9081156102e257600091610276575b5015610231578460019255846000526003810160205260406000208360ff19825416179055846000526004810160205260406000208260ff19825416179055018054600019811461021b576001019055604051908152600160208201527f0a06276302b6bb1d092bf330b1622caaa3ff824d8120568193eb6868f20ecb8a60403392a4005b634e487b7160e01b600052601160045260246000fd5b60405162461bcd60e51b815260206004820152601b60248201527f5175697a3a20496e76616c696420616e737765722070726f6f662e00000000006044820152606490fd5b60203d6020116102db575b601f8101601f1916820167ffffffffffffffff8111838210176102c7576020918391604052810103126102c357519081151582036102c0575038610196565b80fd5b5080fd5b634e487b7160e01b84526041600452602484fd5b503d610281565b6040513d6000823e3d90fd5b600080fd5b60405162461bcd60e51b815260206004820152604160248201527f5175697a3a20596f75206861766520616c726561647920616e7377657265642060448201527f6120686967686572206f7220657175616c20696e646578207175657374696f6e6064820152601760f91b608482015260a490fd5b60405162461bcd60e51b815260206004820152602360248201527f5175697a3a205175657374696f6e20696e646578206f7574206f6620626f756e60448201526232399760e91b6064820152608490fd5b60405162461bcd60e51b815260206004820152602360248201527f5175697a3a20596f75206d757374206a6f696e20746865207175697a2066697260448201526239ba1760e91b6064820152608490fd5b346102ee5760203660031901126102ee57600435806000527f4f2f104a7ea12e35172792673c68fe1423b90b4f6b86a6c5f5a9a85bd5652032602052604060002061045b60ff600583015416610671565b60008281527f4f2f104a7ea12e35172792673c68fe1423b90b4f6b86a6c5f5a9a85bd56520336020908152604080832033845290915290205460ff1661061b57816000527f4f2f104a7ea12e35172792673c68fe1423b90b4f6b86a6c5f5a9a85bd5652034602052600460406000205491015411156105d65760008181527f4f2f104a7ea12e35172792673c68fe1423b90b4f6b86a6c5f5a9a85bd5652033602090815260408083203384528252808320805460ff191660011790558383527f4f2f104a7ea12e35172792673c68fe1423b90b4f6b86a6c5f5a9a85bd56520349091529020805490680100000000000000008210156105c057600182018082558210156105aa57600052602060002001336bffffffffffffffffffffffff60a01b825416179055337feb0ce0a0ebb6cd81f55c52eabb2b82d4426db73ee88d3aee11455a02246ae609600080a3005b634e487b7160e01b600052603260045260246000fd5b634e487b7160e01b600052604160045260246000fd5b60405162461bcd60e51b815260206004820152601760248201527f5175697a3a20546865207175697a2069732066756c6c2e0000000000000000006044820152606490fd5b60405162461bcd60e51b815260206004820152602860248201527f5175697a3a20596f75206861766520616c7265616479206a6f696e656420746860448201526734b99038bab4bd1760c11b6064820152608490fd5b1561067857565b60405162461bcd60e51b815260206004820152601960248201527f5175697a3a205175697a206973206e6f74206163746976652e000000000000006044820152606490fdfea26469706673582212200dac9af5139a810fff21e19641e6230aa1e4ec86b1305a80837a60f73f312fd164736f6c634300081c0033",
  "linkReferences": {},
  "deployedLinkReferences": {}
}