{
  "_format": "hh-sol-artifact-1",
  "contractName": "QuizGameDiamond",
  "sourceName": "contracts/QuizGameDiamond.sol",
  "abi": [
    {
      "inputs": [],
      "stateMutability": "nonpayable",
      "type": "constructor"
    },
    {
      "inputs": [],
      "name": "AccessControlBadConfirmation",
      "type": "error"
    },
    {
      "inputs": [
        {
          "internalType": "address",
          "name": "account",
          "type": "address"
        },
        {
          "internalType": "bytes32",
          "name": "neededRole",
          "type": "bytes32"
        }
      ],
      "name": "AccessControlUnauthorizedAccount",
      "type": "error"
    },
    {
      "inputs": [
        {
          "internalType": "address",
          "name": "target",
          "type": "address"
        }
      ],
      "name": "AddressEmptyCode",
      "type": "error"
    },
    {
      "inputs": [
        {
          "internalType": "address",
          "name": "implementation",
          "type": "address"
        }
      ],
      "name": "ERC1967InvalidImplementation",
      "type": "error"
    },
    {
      "inputs": [],
      "name": "ERC1967NonPayable",
      "type": "error"
    },
    {
      "inputs": [],
      "name": "FailedCall",
      "type": "error"
    },
    {
      "inputs": [],
      "name": "InvalidInitialization",
      "type": "error"
    },
    {
      "inputs": [],
      "name": "NotInitializing",
      "type": "error"
    },
    {
      "inputs": [],
      "name": "UUPSUnauthorizedCallContext",
      "type": "error"
    },
    {
      "inputs": [
        {
          "internalType": "bytes32",
          "name": "slot",
          "type": "bytes32"
        }
      ],
      "name": "UUPSUnsupportedProxiableUUID",
      "type": "error"
    },
    {
      "anonymous": false,
      "inputs": [
        {
          "components": [
            {
              "internalType": "address",
              "name": "facetAddress",
              "type": "address"
            },
            {
              "internalType": "enum IDiamondCut.FacetCutAction",
              "name": "action",
              "type": "uint8"
            },
            {
              "internalType": "bytes4[]",
              "name": "functionSelectors",
              "type": "bytes4[]"
            }
          ],
          "indexed": false,
          "internalType": "struct IDiamondCut.FacetCut[]",
          "name": "_diamondCut",
          "type": "tuple[]"
        },
        {
          "indexed": false,
          "internalType": "address",
          "name": "_init",
          "type": "address"
        },
        {
          "indexed": false,
          "internalType": "bytes",
          "name": "_calldata",
          "type": "bytes"
        }
      ],
      "name": "DiamondCut",
      "type": "event"
    },
    {
      "anonymous": false,
      "inputs": [
        {
          "indexed": false,
          "internalType": "uint64",
          "name": "version",
          "type": "uint64"
        }
      ],
      "name": "Initialized",
      "type": "event"
    },
    {
      "anonymous": false,
      "inputs": [
        {
          "indexed": true,
          "internalType": "bytes32",
          "name": "role",
          "type": "bytes32"
        },
        {
          "indexed": true,
          "internalType": "bytes32",
          "name": "previousAdminRole",
          "type": "bytes32"
        },
        {
          "indexed": true,
          "internalType": "bytes32",
          "name": "newAdminRole",
          "type": "bytes32"
        }
      ],
      "name": "RoleAdminChanged",
      "type": "event"
    },
    {
      "anonymous": false,
      "inputs": [
        {
          "indexed": true,
          "internalType": "bytes32",
          "name": "role",
          "type": "bytes32"
        },
        {
          "indexed": true,
          "internalType": "address",
          "name": "account",
          "type": "address"
        },
        {
          "indexed": true,
          "internalType": "address",
          "name": "sender",
          "type": "address"
        }
      ],
      "name": "RoleGranted",
      "type": "event"
    },
    {
      "anonymous": false,
      "inputs": [
        {
          "indexed": true,
          "internalType": "bytes32",
          "name": "role",
          "type": "bytes32"
        },
        {
          "indexed": true,
          "internalType": "address",
          "name": "account",
          "type": "address"
        },
        {
          "indexed": true,
          "internalType": "address",
          "name": "sender",
          "type": "address"
        }
      ],
      "name": "RoleRevoked",
      "type": "event"
    },
    {
      "anonymous": false,
      "inputs": [
        {
          "indexed": true,
          "internalType": "address",
          "name": "implementation",
          "type": "address"
        }
      ],
      "name": "Upgraded",
      "type": "event"
    },
    {
      "stateMutability": "payable",
      "type": "fallback"
    },
    {
      "inputs": [],
      "name": "DEFAULT_ADMIN_ROLE",
      "outputs": [
        {
          "internalType": "bytes32",
          "name": "",
          "type": "bytes32"
        }
      ],
      "stateMutability": "view",
      "type": "function"
    },
    {
      "inputs": [],
      "name": "UPGRADE_INTERFACE_VERSION",
      "outputs": [
        {
          "internalType": "string",
          "name": "",
          "type": "string"
        }
      ],
      "stateMutability": "view",
      "type": "function"
    },
    {
      "inputs": [
        {
          "internalType": "bytes32",
          "name": "role",
          "type": "bytes32"
        }
      ],
      "name": "getRoleAdmin",
      "outputs": [
        {
          "internalType": "bytes32",
          "name": "",
          "type": "bytes32"
        }
      ],
      "stateMutability": "view",
      "type": "function"
    },
    {
      "inputs": [
        {
          "internalType": "bytes32",
          "name": "role",
          "type": "bytes32"
        },
        {
          "internalType": "address",
          "name": "account",
          "type": "address"
        }
      ],
      "name": "grantRole",
      "outputs": [],
      "stateMutability": "nonpayable",
      "type": "function"
    },
    {
      "inputs": [
        {
          "internalType": "bytes32",
          "name": "role",
          "type": "bytes32"
        },
        {
          "internalType": "address",
          "name": "account",
          "type": "address"
        }
      ],
      "name": "hasRole",
      "outputs": [
        {
          "internalType": "bool",
          "name": "",
          "type": "bool"
        }
      ],
      "stateMutability": "view",
      "type": "function"
    },
    {
      "inputs": [
        {
          "internalType": "address",
          "name": "_initialAdmin",
          "type": "address"
        },
        {
          "internalType": "address[]",
          "name": "_facetAddresses",
          "type": "address[]"
        },
        {
          "internalType": "bytes4[][]",
          "name": "_facetSelectors",
          "type": "bytes4[][]"
        }
      ],
      "name": "initialize",
      "outputs": [],
      "stateMutability": "nonpayable",
      "type": "function"
    },
    {
      "inputs": [],
      "name": "proxiableUUID",
      "outputs": [
        {
          "internalType": "bytes32",
          "name": "",
          "type": "bytes32"
        }
      ],
      "stateMutability": "view",
      "type": "function"
    },
    {
      "inputs": [
        {
          "internalType": "bytes32",
          "name": "role",
          "type": "bytes32"
        },
        {
          "internalType": "address",
          "name": "callerConfirmation",
          "type": "address"
        }
      ],
      "name": "renounceRole",
      "outputs": [],
      "stateMutability": "nonpayable",
      "type": "function"
    },
    {
      "inputs": [
        {
          "internalType": "bytes32",
          "name": "role",
          "type": "bytes32"
        },
        {
          "internalType": "address",
          "name": "account",
          "type": "address"
        }
      ],
      "name": "revokeRole",
      "outputs": [],
      "stateMutability": "nonpayable",
      "type": "function"
    },
    {
      "inputs": [
        {
          "internalType": "bytes4",
          "name": "interfaceId",
          "type": "bytes4"
        }
      ],
      "name": "supportsInterface",
      "outputs": [
        {
          "internalType": "bool",
          "name": "",
          "type": "bool"
        }
      ],
      "stateMutability": "view",
      "type": "function"
    },
    {
      "inputs": [
        {
          "internalType": "address",
          "name": "newImplementation",
          "type": "address"
        },
        {
          "internalType": "bytes",
          "name": "data",
          "type": "bytes"
        }
      ],
      "name": "upgradeToAndCall",
      "outputs": [],
      "stateMutability": "payable",
      "type": "function"
    },
    {
      "stateMutability": "payable",
      "type": "receive"
    }
  ],
  "bytecode": "0x60a0806040523460295730608052611d01908161002f823960805181818161031301526106930152f35b600080fdfe60806040526004361015610015575b366111c957005b60003560e01c806301ffc9a7146100c5578063248a9ca3146100c05780632f2ff15d146100bb57806336568abe146100b65780634f1ef286146100b157806352d1902d146100ac57806391d14854146100a7578063a217fddf146100a2578063ad3cb1cc1461009d578063ccfbd6c0146100985763d547741f0361000e57610635565b610578565b61043a565b6103ca565b61036a565b610300565b610288565b6101d8565b6101a0565b61013a565b6100e4565b35906001600160e01b0319821682036100df57565b600080fd5b346100df5760203660031901126100df5760043563ffffffff60e01b81168091036100df57602090637965db0b60e01b8114908115610129575b506040519015158152f35b6301ffc9a760e01b1490503861011e565b346100df5760203660031901126100df576020610158600435610666565b604051908152f35b602435906001600160a01b03821682036100df57565b600435906001600160a01b03821682036100df57565b35906001600160a01b03821682036100df57565b346100df5760403660031901126100df576101d66004356101bf610160565b906101d16101cc82610666565b610b39565b610c35565b005b346100df5760403660031901126100df576004356101f4610160565b336001600160a01b0382160361020d576101d691610ce3565b63334bd91960e11b60005260046000fd5b634e487b7160e01b600052604160045260246000fd5b90601f8019910116810190811067ffffffffffffffff82111761025657604052565b61021e565b6040519061026a606083610234565b565b67ffffffffffffffff811161025657601f01601f191660200190565b60403660031901126100df5761029c610176565b6024359067ffffffffffffffff82116100df57366023830112156100df578160040135906102c98261026c565b916102d76040519384610234565b80835236602482860101116100df5760208160009260246101d697018387013784010152610687565b346100df5760003660031901126100df577f00000000000000000000000000000000000000000000000000000000000000006001600160a01b03163003610359576020604051600080516020611c6c8339815191528152f35b63703e46dd60e11b60005260046000fd5b346100df5760403660031901126100df57602060ff6103be60043561038d610160565b90600052600080516020611c8c833981519152845260406000209060018060a01b0316600052602052604060002090565b54166040519015158152f35b346100df5760003660031901126100df57602060405160008152f35b604051906103f5602083610234565b60008252565b919082518082526020808301940160005b82811061042a575050600081602094950152601f8019910116010190565b818101518682015260200161040c565b346100df5760003660031901126100df57610481604080519061045d8183610234565b60058252640352e302e360dc1b6020830152519182916020835260208301906103fb565b0390f35b67ffffffffffffffff81116102565760051b60200190565b9080601f830112156100df578135906104b582610485565b926104c36040519485610234565b82845260208085019360051b820101908282116100df5760208101935b8285106104ef57505050505090565b843567ffffffffffffffff81116100df57820184603f820112156100df5760208101359061051c82610485565b9161052a6040519384610234565b8083526020808085019260051b84010101918783116100df57604001905b828210610560575050508152602094850194016104e0565b6020809161056d846100ca565b815201910190610548565b346100df5760603660031901126100df57610591610176565b6024359067ffffffffffffffff82116100df57366023830112156100df578160040135916105be83610485565b926105cc6040519485610234565b8084526024602085019160051b830101913683116100df57602401905b82821061061d575050506044359167ffffffffffffffff83116100df576106176101d693369060040161049d565b916107a3565b6020809161062a8461018c565b8152019101906105e9565b346100df5760403660031901126100df576101d6600435610654610160565b906106616101cc82610666565b610ce3565b600052600080516020611c8c83398151915260205260016040600020015490565b90916001600160a01b037f000000000000000000000000000000000000000000000000000000000000000016308114908115610780575b50610359576106cb610ae6565b6040516352d1902d60e01b8152926020846004816001600160a01b0387165afa6000948161074f575b5061071757634c9c8ce360e01b6000526001600160a01b03831660045260246000fd5b9091600080516020611c6c83398151915284036107395761026a929350611264565b632a87526960e21b600052600484905260246000fd5b61077291955060203d602011610779575b61076a8183610234565b810190610d88565b93386106f4565b503d610760565b600080516020611c6c833981519152546001600160a01b031614159050386106be565b600080516020611cac8339815191525492909167ffffffffffffffff6107d9604086901c60ff16159567ffffffffffffffff1690565b16801590816108fc575b60011490816108f2575b1590816108e9575b506108d85761083b9284610832600167ffffffffffffffff19600080516020611cac833981519152541617600080516020611cac83398151915255565b6108a1576109ca565b61084157565b61086d60ff60401b19600080516020611cac8339815191525416600080516020611cac83398151915255565b604051600181527fc7f505b2f371ae2175ee4913f4499e1f2633a7b5936321eed1cdaeb6115181d29080602081015b0390a1565b6108d3600160401b60ff60401b19600080516020611cac833981519152541617600080516020611cac83398151915255565b6109ca565b63f92ee8a960e01b60005260046000fd5b905015386107f5565b303b1591506107ed565b8591506107e3565b9061090e82610485565b61091b6040519182610234565b828152809261092c601f1991610485565b0160005b81811061093c57505050565b60405190606082019180831067ffffffffffffffff84111761025657602092604052600081526000838201526060604082015282828601015201610930565b634e487b7160e01b600052603260045260246000fd5b80518210156109a55760209160051b010190565b61097b565b600311156109b457565b634e487b7160e01b600052602160045260246000fd5b9291906109d561130b565b6109dd61130b565b6109e684610b83565b508051825103610a90576109fa8151610904565b9260005b8251811015610a715780610a24610a1760019386610991565b516001600160a01b031690565b610a2e8287610991565b51610a49610a3a61025b565b6001600160a01b039093168352565b600060208301526040820152610a5f8288610991565b52610a6a8187610991565b50016109fe565b5093915050610a8b61026a92610a856103e6565b90610efb565b61108e565b60405162461bcd60e51b815260206004820152602860248201527f5175697a47616d654469616d6f6e643a204d69736d6174636865642066616365604482015267742061727261797360c01b6064820152608490fd5b3360009081527fb7db2dd08fcb62d0c9e08c51941cae53c267786a0b75803fb7960902fc8ef97d602052604090205460ff1615610b1f57565b63e2517d3f60e01b60005233600452600060245260446000fd5b6000818152600080516020611c8c8339815191526020908152604080832033845290915290205460ff1615610b6b5750565b63e2517d3f60e01b6000523360045260245260446000fd5b6001600160a01b03811660009081527fb7db2dd08fcb62d0c9e08c51941cae53c267786a0b75803fb7960902fc8ef97d602052604090205460ff16610c2f576001600160a01b031660008181527fb7db2dd08fcb62d0c9e08c51941cae53c267786a0b75803fb7960902fc8ef97d60205260408120805460ff191660011790553391907f2f8788117e7eff1d82e926ec794901d17c78024a50270940304540a733656f0d8180a4600190565b50600090565b6000818152600080516020611c8c833981519152602090815260408083206001600160a01b038616845290915290205460ff16610cdc576000818152600080516020611c8c833981519152602090815260408083206001600160a01b03861684529091529020805460ff1916600117905533916001600160a01b0316907f2f8788117e7eff1d82e926ec794901d17c78024a50270940304540a733656f0d600080a4600190565b5050600090565b6000818152600080516020611c8c833981519152602090815260408083206001600160a01b038616845290915290205460ff1615610cdc576000818152600080516020611c8c833981519152602090815260408083206001600160a01b03861684529091529020805460ff1916905533916001600160a01b0316907ff6391f5c32d9c69d2a47ea670b442974b53935d1edc7fd64eb21e047a839171b600080a4600190565b908160209103126100df575190565b15610d9e57565b60405162461bcd60e51b815260206004820152603160248201527f4c69624469616d6f6e643a204d75737420626520636f6e7472616374206f776e604482015270195c881bdc881a5b9a5d1a585b0818dd5d607a1b6064820152608490fd5b5160038110156109b45790565b9392909193606081016060825283518091526080820190602060808260051b8501019501916000905b828210610e64575050506001600160a01b039095166020820152929350610e619260408184039101526103fb565b90565b848703607f19018152835180516001600160a01b0316885260208101519497939492939192606083019160038210156109b457604060809160209384870152015193606060408201528451809452019201906000905b808210610ed857505050602080600192980192019201909291610e33565b82516001600160e01b031916845260209384019390920191600190910190610eba565b7fc8fcad8db84d3cc18b4c41d551ea0ee66dd599cde068d998e57d5e09332c131f54909290610f47906001600160a01b03166001600160a01b038116331490811561107c575b50610d97565b60005b835181101561104657610f6e610f608286610991565b51516001600160a01b031690565b90610f856020610f7e8388610991565b5101610dfd565b6040610f918388610991565b51015190610f9e816109aa565b80610fb65750600192610fb091611789565b01610f4a565b610fbf816109aa565b60018103610fd95750600192610fd4916114d2565b610fb0565b80610fe56002926109aa565b03610ff657600192610fd491611391565b60405162461bcd60e51b815260206004820152602260248201527f4c69624469616d6f6e643a20496e76616c69642046616365744375744163746960448201526137b760f11b6064820152608490fd5b509160009061089c7f8faa70878671ccd212d20771b795c50af8fd3ff6cf27f4bde57e5d4de0aeb6739360405193849384610e0a565b6001600160a01b031615905038610f41565b7fc8fcad8db84d3cc18b4c41d551ea0ee66dd599cde068d998e57d5e09332c131f546001600160a01b03168061116d575b506001600160a01b0381161561110f577fc8fcad8db84d3cc18b4c41d551ea0ee66dd599cde068d998e57d5e09332c131f80546001600160a01b0319166001600160a01b03909216919091179055565b60405162461bcd60e51b815260206004820152603060248201527f4c69624469616d6f6e643a204e6577206f776e65722063616e6e6f742062652060448201526f746865207a65726f206164647265737360801b6064820152608490fd5b330361117957386110bf565b60405162461bcd60e51b815260206004820152602260248201527f4c69624469616d6f6e643a204d75737420626520636f6e7472616374206f776e60448201526132b960f11b6064820152608490fd5b600080356001600160e01b0319168152600080516020611c4c83398151915260205260409020546001600160a01b031680156112205760008091368280378136915af43d6000803e1561121b573d6000f35b3d6000fd5b606460405162461bcd60e51b815260206004820152602060248201527f4469616d6f6e643a2046756e6374696f6e20646f6573206e6f742065786973746044820152fd5b90813b156112e957600080516020611c6c83398151915280546001600160a01b0319166001600160a01b0384169081179091557fbc7cd75a20ee27fd9adebab32041f755214dbc6bffa90cc0225b39da2e5c2d3b600080a28051156112cf576112cc9161193e565b50565b5050346112d857565b63b398979f60e01b60005260046000fd5b50634c9c8ce360e01b60009081526001600160a01b0391909116600452602490fd5b60ff600080516020611cac8339815191525460401c161561132857565b631afcd79f60e31b60005260046000fd5b1561134057565b60405162461bcd60e51b815260206004820152602360248201527f4c69624469616d6f6e643a2053656c6563746f7220646f6573206e6f742065786044820152621a5cdd60ea1b6064820152608490fd5b91906001600160a01b0316156114815760005b825181101561146757806114616113ce6113c060019487610991565b516001600160e01b03191690565b6001600160e01b031981166000908152600080516020611c4c83398151915260205260409020611406905b546001600160a01b031690565b611418858060a01b0382161515611339565b6001600160e01b031982166000908152600080516020611c4c8339815191526020526040902080546001600160a01b03191690555b600080516020611c4c8339815191526119df565b016113a4565b50905061026a600080516020611c4c833981519152611ac1565b60405162461bcd60e51b8152602060048201526024808201527f4c69624469616d6f6e643a2052656d6f76652075736573207a65726f206164646044820152637265737360e01b6064820152608490fd5b9091906001600160a01b038316156115cb5760005b81518110156115b057806115aa6115036113c060019486610991565b611595816115356113f982600080516020611c4c8339815191529063ffffffff60e01b16600052602052604060002090565b611547878060a01b0382161515611339565b61144d8a61157684600080516020611c4c8339815191529063ffffffff60e01b16600052602052604060002090565b80546001600160a01b0319166001600160a01b03909216919091179055565b86600080516020611c4c833981519152611b5c565b016114e7565b5050905061026a600080516020611c4c833981519152611ac1565b60405162461bcd60e51b815260206004820152602b60248201527f4c69624469616d6f6e643a2043616e2774207265706c6163652077697468207a60448201526a65726f206164647265737360a81b6064820152608490fd5b1561162b57565b60405162461bcd60e51b815260206004820152602260248201527f4c69624469616d6f6e643a2043616e277420616464207a65726f206164647265604482015261737360f01b6064820152608490fd5b1561168257565b60405162461bcd60e51b815260206004820152601b60248201527f4c69624469616d6f6e643a2053656c6563746f722065786973747300000000006044820152606490fd5b91909180548310156109a557600052601c60206000208360031c019260021b1690565b90815491600160401b831015610256578261170d91600161026a950181556116c7565b90919063ffffffff83549160031b9260e01c831b921b1916179055565b80548210156109a55760005260206000200190600090565b90815491600160401b831015610256578261176591600161026a9501815561172a565b81546001600160a01b0393841660039290921b91821b9390911b1916919091179055565b6001600160a01b0382169261179f841515611624565b60005b8251811015611875578061186f6117be6113c060019487610991565b6118046117fe6117f26113f984600080516020611c4c8339815191529063ffffffff60e01b16600052602052604060002090565b6001600160a01b031690565b1561167b565b6118338761157683600080516020611c4c8339815191529063ffffffff60e01b16600052602052604060002090565b6001600160a01b03871660009081527fc8fcad8db84d3cc18b4c41d551ea0ee66dd599cde068d998e57d5e09332c131d602052604090206116ea565b016117a2565b507fc8fcad8db84d3cc18b4c41d551ea0ee66dd599cde068d998e57d5e09332c131e54909360009250825b8281106118dd575b505050156118b35750565b61026a907fc8fcad8db84d3cc18b4c41d551ea0ee66dd599cde068d998e57d5e09332c131e611742565b816119236117f261190e847fc8fcad8db84d3cc18b4c41d551ea0ee66dd599cde068d998e57d5e09332c131e61172a565b905460039190911b1c6001600160a01b031690565b14611930576001016118a0565b5050505060013880806118a8565b600080610e6193602081519101845af43d1561197c573d9161195f8361026c565b9261196d6040519485610234565b83523d6000602085013e611bea565b606091611bea565b634e487b7160e01b600052601160045260246000fd5b634e487b7160e01b600052603160045260246000fd5b805480156119da5760001901906119c782826116c7565b63ffffffff82549160031b1b1916905555565b61199a565b6001600160a01b039091166000908152600190910160205260409020805460005b818110611a0e575b50505050565b611a1881846116c7565b90546001600160e01b031960039290921b1c60e01b811690851614611a3f57600101611a00565b92506000198101908111611a8057611a779261170d611a61611a7293856116c7565b90549060031b1c60e01b91846116c7565b6119b0565b38808080611a08565b611984565b6000198114611a805760010190565b805480156119da576000190190611aab828261172a565b81549060018060a01b039060031b1b1916905555565b6000805b600283018054821015611b3357611adc828261172a565b905460039190911b1c6001600160a01b03166000818152600186016020526040902090919054611b11575b5050600101611ac5565b92611b26611b2b92611765836001969761172a565b611a85565b919038611b07565b5050905b60028101908282541115611b5757611b50600292611a94565b9050611b37565b505050565b6001600160a01b0382166000908152600182016020526040902091929091611b8491906116ea565b60009160005b600283018054821015611be15781611ba19161172a565b905460039190911b1c6001600160a01b0390811690831614611bc557600101611b8a565b5090915060015b15611bd5575050565b600261026a9201611742565b50509091611bcc565b90611c105750805115611bff57805190602001fd5b63d6bda27560e01b60005260046000fd5b81511580611c42575b611c21575090565b639996b31560e01b60009081526001600160a01b0391909116600452602490fd5b50803b15611c1956fec8fcad8db84d3cc18b4c41d551ea0ee66dd599cde068d998e57d5e09332c131c360894a13ba1a3210667c828492db98dca3e2076cc3735a920a3ca505d382bbc02dd7bc7dec4dceedda775e58dd541e08a116c6c53815c0bd028192f7b626800f0c57e16840df040f15088dc2f81fe391c3923bec73e23a9662efc9c229c6a00a26469706673582212204955bcd71fe0da8eb97a979f4e0cc09fb527ffe9dc0898e03813a71784088be764736f6c634300081c0033",
  "linkReferences": {},
  "deployedLinkReferences": {}
}