{
  "_format": "hh-sol-artifact-1",
  "contractName": "QuizCreationFacet",
  "sourceName": "contracts/facets/QuizCreationFacet.sol",
  "abi": [
    {
      "anonymous": false,
      "inputs": [
        {
          "indexed": true,
          "internalType": "uint256",
          "name": "quizId",
          "type": "uint256"
        },
        {
          "indexed": true,
          "internalType": "uint256",
          "name": "questionIndex",
          "type": "uint256"
        }
      ],
      "name": "QuestionAdded",
      "type": "event"
    },
    {
      "anonymous": false,
      "inputs": [
        {
          "indexed": true,
          "internalType": "uint256",
          "name": "quizId",
          "type": "uint256"
        }
      ],
      "name": "QuizActivated",
      "type": "event"
    },
    {
      "anonymous": false,
      "inputs": [
        {
          "indexed": true,
          "internalType": "uint256",
          "name": "quizId",
          "type": "uint256"
        },
        {
          "indexed": false,
          "internalType": "string",
          "name": "name",
          "type": "string"
        },
        {
          "indexed": true,
          "internalType": "address",
          "name": "creator",
          "type": "address"
        },
        {
          "indexed": false,
          "internalType": "uint256",
          "name": "rewardAmount",
          "type": "uint256"
        }
      ],
      "name": "QuizCreated",
      "type": "event"
    },
    {
      "anonymous": false,
      "inputs": [
        {
          "indexed": true,
          "internalType": "uint256",
          "name": "quizId",
          "type": "uint256"
        }
      ],
      "name": "QuizDeactivated",
      "type": "event"
    },
    {
      "inputs": [
        {
          "internalType": "uint256",
          "name": "_quizId",
          "type": "uint256"
        }
      ],
      "name": "activateQuiz",
      "outputs": [],
      "stateMutability": "nonpayable",
      "type": "function"
    },
    {
      "inputs": [
        {
          "internalType": "uint256",
          "name": "_quizId",
          "type": "uint256"
        },
        {
          "internalType": "string",
          "name": "_questionText",
          "type": "string"
        },
        {
          "internalType": "string[]",
          "name": "_options",
          "type": "string[]"
        },
        {
          "internalType": "uint8",
          "name": "_correctAnswerIndex",
          "type": "uint8"
        }
      ],
      "name": "addQuestion",
      "outputs": [],
      "stateMutability": "nonpayable",
      "type": "function"
    },
    {
      "inputs": [
        {
          "internalType": "string",
          "name": "_name",
          "type": "string"
        },
        {
          "internalType": "uint256",
          "name": "_rewardAmount",
          "type": "uint256"
        },
        {
          "internalType": "uint256",
          "name": "_maxParticipants",
          "type": "uint256"
        }
      ],
      "name": "createQuiz",
      "outputs": [
        {
          "internalType": "uint256",
          "name": "quizId",
          "type": "uint256"
        }
      ],
      "stateMutability": "nonpayable",
      "type": "function"
    },
    {
      "inputs": [
        {
          "internalType": "uint256",
          "name": "_quizId",
          "type": "uint256"
        }
      ],
      "name": "deactivateQuiz",
      "outputs": [],
      "stateMutability": "nonpayable",
      "type": "function"
    },
    {
      "inputs": [
        {
          "internalType": "uint256",
          "name": "_quizId",
          "type": "uint256"
        },
        {
          "internalType": "uint256",
          "name": "_questionIndex",
          "type": "uint256"
        }
      ],
      "name": "getQuestion",
      "outputs": [
        {
          "components": [
            {
              "internalType": "string",
              "name": "questionText",
              "type": "string"
            },
            {
              "internalType": "string[]",
              "name": "options",
              "type": "string[]"
            },
            {
              "internalType": "uint8",
              "name": "correctAnswerIndex",
              "type": "uint8"
            }
          ],
          "internalType": "struct Question",
          "name": "",
          "type": "tuple"
        }
      ],
      "stateMutability": "view",
      "type": "function"
    },
    {
      "inputs": [
        {
          "internalType": "uint256",
          "name": "_quizId",
          "type": "uint256"
        }
      ],
      "name": "getQuiz",
      "outputs": [
        {
          "components": [
            {
              "internalType": "string",
              "name": "name",
              "type": "string"
            },
            {
              "internalType": "address",
              "name": "creator",
              "type": "address"
            },
            {
              "internalType": "uint256",
              "name": "rewardAmount",
              "type": "uint256"
            },
            {
              "internalType": "uint256",
              "name": "totalQuestions",
              "type": "uint256"
            },
            {
              "internalType": "uint256",
              "name": "maxParticipants",
              "type": "uint256"
            },
            {
              "internalType": "bool",
              "name": "isActive",
              "type": "bool"
            }
          ],
          "internalType": "struct Quiz",
          "name": "",
          "type": "tuple"
        }
      ],
      "stateMutability": "view",
      "type": "function"
    },
    {
      "inputs": [],
      "name": "getTotalQuizzes",
      "outputs": [
        {
          "internalType": "uint256",
          "name": "totalQuizzes",
          "type": "uint256"
        }
      ],
      "stateMutability": "view",
      "type": "function"
    }
  ],
  "bytecode": "0x608080604052346015576114d8908161001b8239f35b600080fdfe608080604052600436101561001357600080fd5b60003560e01c908163403861a114610f6c5750806374f68479146108d857806389fb620d146108ad578063a3f7e0961461076f578063bc6d809414610544578063d8187d05146102245763fcfad2491461006c57600080fd5b3461021f57602036600319011261021f57600435604051638da5cb5b60e01b8152602081600481305afa8015610213576100b9916000916101e4575b506001600160a01b031633146112a2565b60008181526000805160206114838339815191526020526040902060018101546001600160a01b03166100ed8115156112ed565b330361018157600501805460ff81161561012e5760ff191690557feb142c7b95937f2461845e11c64e2851c6c5202d2474d7c0c2cab3223f4c3db3600080a2005b60405162461bcd60e51b815260206004820152602560248201527f5175697a4372656174696f6e46616365743a205175697a206973206e6f742061604482015264637469766560d81b6064820152608490fd5b60405162461bcd60e51b815260206004820152603560248201527f5175697a4372656174696f6e46616365743a204d757374206265207175697a2060448201527463726561746f7220746f206465616374697661746560581b6064820152608490fd5b610206915060203d60201161020c575b6101fe81836111b1565b810190611283565b386100a8565b503d6101f4565b6040513d6000823e3d90fd5b600080fd5b3461021f57606036600319011261021f5760043567ffffffffffffffff811161021f576102559036906004016111d3565b604051638da5cb5b60e01b815260243590602081600481305afa8015610213576102919160009161052557506001600160a01b031633146112a2565b60008051602061146383398151915254906040516102ae81611195565b8381526020810193338552604082019083825260608301600081526080840193604435855260a08101916000835287600052600080516020611483833981519152602052604060002091519485519967ffffffffffffffff8b1161050f5760209a8a9761031b8654611348565b601f81116104d3575b508c90601f831160011461042557827f555c573dfae89e32b54f425613ac3573052e7bdfabeeee7126bde903b4ca809a9a9b959360059897959361037f9360009261041a575b50508160011b916000199060031b1c19161790565b85555b600185019060018060a01b039051166bffffffffffffffffffffffff60a01b825416179055516002840155516003830155516004820155019051151560ff801983541691161790556103e260008051602061146383398151915254611399565b6000805160206114638339815191525561040760405191604083526040830190611242565b93868201528033940390a3604051908152f35b01519050388061036a565b999493929190601f1982169a87600052816000209b60005b8181106104a257509b600192849260059a99989796957f555c573dfae89e32b54f425613ac3573052e7bdfabeeee7126bde903b4ca809a9e9f10610489575b505050811b018555610382565b015160001960f88460031b161c191690558f808061047c565b939597999b509091939597999b8f600181928786015181550195019301908e9b9997959392919c9a9896949c61043d565b6104ff90876000528e600020601f850160051c81019160208610610505575b601f0160051c0190611382565b8d610324565b90915081906104f2565b634e487b7160e01b600052604160045260246000fd5b61053e915060203d60201161020c576101fe81836111b1565b846100a8565b3461021f57604036600319011261021f576004356024359060006040805161056b81611179565b60608152606060208201520152806000526000805160206114838339815191526020526105a960018060a01b036001604060002001541615156112ed565b80600052600080516020611483833981519152602052600360406000200154821015610718576000527ff4894ae4ff1f18ee72704a0e70403d75ad904f1eafeb350b7ea3349c8d00f246602052604060002090600052602052604060002060405161061381611179565b61061c826113be565b81526001820191825461062e8161122a565b9361063c60405195866111b1565b818552602085019060005260206000206000915b8383106106fb57868660ff60028860208401948552015416916040820192835261068d604051926020845251606060208501526080840190611242565b905190601f19838203016040840152815180825260208201916020808360051b8301019401926000915b8383106106ce57875160ff16606088015286860387f35b90919293946020806106ec600193601f198682030187528951611242565b970193019301919392906106b7565b60016020819261070a856113be565b815201920192019190610650565b60405162461bcd60e51b815260206004820152602960248201527f5175697a4372656174696f6e46616365743a20496e76616c69642071756573746044820152680d2dedc40d2dcc8caf60bb1b6064820152608490fd5b3461021f57602036600319011261021f57600435600060a060405161079381611195565b606081528260208201528260408201528260608201528260808201520152806000526000805160206114838339815191526020526107e260018060a01b036001604060002001541615156112ed565b60005260008051602061148383398151915260205261087f60406000206040519061080c82611195565b610815816113be565b825260018060a01b0360018201541690602083019182526002810154906040840191825260038101546060850190815260ff6005600484015493608088019485520154169260a086019315158452604051968796602088525160c0602089015260e0880190611242565b94516001600160a01b031660408701525160608601525160808501525160a084015251151560c08301520390f35b3461021f57600036600319011261021f57602060008051602061146383398151915254604051908152f35b3461021f57608036600319011261021f5760043560243567ffffffffffffffff811161021f5761090c9036906004016111d3565b906044359167ffffffffffffffff831161021f573660238401121561021f5782600401356109398161122a565b9361094760405195866111b1565b8185526024602086019260051b8201019036821161021f5760248101925b828410610f3c575050505060643560ff811680910361021f57604051638da5cb5b60e01b8152602081600481305afa8015610213576109b691600091610f1d57506001600160a01b031633146112a2565b60008381526000805160206114838339815191526020526040902060018101546001600160a01b03166109ea8115156112ed565b3303610eb25760ff600582015416610e47576002855110610de5578451821015610d88576003019182549460405191610a2283611179565b82526020820190815260408201928352846000527ff4894ae4ff1f18ee72704a0e70403d75ad904f1eafeb350b7ea3349c8d00f2466020526040600020866000526020526040600020915180519067ffffffffffffffff821161050f57610a898454611348565b601f8111610d56575b50602090601f8311600114610cef57610ac3929160009183610ce45750508160011b916000199060031b1c19161790565b82555b518051600183019168010000000000000000821161050f578254828455808310610c66575b50602001916000526020600020916000905b828210610b4d5750505050600260ff910191511660ff19825416179055610b248154611399565b90557fe5ac7a6f7f975d3d3ba41acafad3abf1430692be1442c6bde74a8ae06b385355600080a3005b805180519067ffffffffffffffff821161050f57610b6b8654611348565b601f8111610c34575b50602090601f8311600114610bc75792610bad83600195946020948796600092610bbc5750508160011b916000199060031b1c19161790565b87555b01940191019092610afd565b015190508f8061036a565b90601f1983169187600052816000209260005b818110610c1c5750936020936001969387969383889510610c03575b505050811b018755610bb0565b015160001960f88460031b161c191690558e8080610bf6565b92936020600181928786015181550195019301610bda565b610c6090876000526020600020601f850160051c8101916020861061050557601f0160051c0190611382565b8b610b74565b8360005282602060002091820191015b818110610c835750610aeb565b80610c9060019254611348565b80610c9d575b5001610c76565b601f81118314610cb35750600081555b8b610c96565b610cd1908260005283601f6020600020920160051c82019101611382565b8060005260006020812081835555610cad565b01519050898061036a565b90601f1983169185600052816000209260005b818110610d3e5750908460019594939210610d25575b505050811b018255610ac6565b015160001960f88460031b161c19169055888080610d18565b92936020600181928786015181550195019301610d02565b610d8290856000526020600020601f850160051c8101916020861061050557601f0160051c0190611382565b88610a92565b60405162461bcd60e51b815260206004820152602f60248201527f5175697a4372656174696f6e46616365743a20496e76616c696420636f72726560448201526e0c6e840c2dce6eecae440d2dcc8caf608b1b6064820152608490fd5b60405162461bcd60e51b815260206004820152603460248201527f5175697a4372656174696f6e46616365743a204d7573742070726f76696465206044820152736174206c656173742074776f206f7074696f6e7360601b6064820152608490fd5b60405162461bcd60e51b815260206004820152603960248201527f5175697a4372656174696f6e46616365743a2043616e6e6f742061646420717560448201527f657374696f6e7320746f20616e20616374697665207175697a000000000000006064820152608490fd5b60405162461bcd60e51b815260206004820152603860248201527f5175697a4372656174696f6e46616365743a204d757374206265207175697a2060448201527f63726561746f7220746f20616464207175657374696f6e7300000000000000006064820152608490fd5b610f36915060203d60201161020c576101fe81836111b1565b866100a8565b833567ffffffffffffffff811161021f57602091610f618392602436918701016111d3565b815201930192610965565b3461021f57602036600319011261021f5760043590638da5cb5b60e01b8152602081600481305afa801561021357610fb69160009161115a57506001600160a01b031633146112a2565b60008181526000805160206114838339815191526020526040902060018101546001600160a01b0316610fea8115156112ed565b33036110f95760038101541561108e57600501805460ff81166110375760ff191660011790557fd927163946a94e1193f89f6cb09e568d717078d3a2bae542be56519e95c73c93600080a2005b60405162461bcd60e51b815260206004820152602960248201527f5175697a4372656174696f6e46616365743a205175697a20697320616c72656160448201526864792061637469766560b81b6064820152608490fd5b60405162461bcd60e51b815260206004820152603b60248201527f5175697a4372656174696f6e46616365743a2043616e6e6f742061637469766160448201527f74652061207175697a2077697468206e6f207175657374696f6e7300000000006064820152608490fd5b60405162461bcd60e51b815260206004820152603360248201527f5175697a4372656174696f6e46616365743a204d757374206265207175697a2060448201527263726561746f7220746f20616374697661746560681b6064820152608490fd5b611173915060203d60201161020c576101fe81836111b1565b836100a8565b6060810190811067ffffffffffffffff82111761050f57604052565b60c0810190811067ffffffffffffffff82111761050f57604052565b90601f8019910116810190811067ffffffffffffffff82111761050f57604052565b81601f8201121561021f5780359067ffffffffffffffff821161050f5760405192611208601f8401601f1916602001856111b1565b8284526020838301011161021f57816000926020809301838601378301015290565b67ffffffffffffffff811161050f5760051b60200190565b919082519283825260005b84811061126e575050826000602080949584010152601f8019910116010190565b8060208092840101518282860101520161124d565b9081602091031261021f57516001600160a01b038116810361021f5790565b156112a957565b606460405162461bcd60e51b815260206004820152602060248201527f5175697a4372656174696f6e46616365743a204d757374206265206f776e65726044820152fd5b156112f457565b60405162461bcd60e51b815260206004820152602660248201527f5175697a4372656174696f6e46616365743a205175697a20646f6573206e6f7460448201526508195e1a5cdd60d21b6064820152608490fd5b90600182811c92168015611378575b602083101461136257565b634e487b7160e01b600052602260045260246000fd5b91607f1691611357565b81811061138d575050565b60008155600101611382565b60001981146113a85760010190565b634e487b7160e01b600052601160045260246000fd5b90604051918260008254926113d284611348565b808452936001811690811561144057506001146113f9575b506113f7925003836111b1565b565b90506000929192526020600020906000915b8183106114245750509060206113f792820101386113ea565b602091935080600191548385890101520191019091849261140b565b9050602092506113f794915060ff191682840152151560051b820101386113ea56fef4894ae4ff1f18ee72704a0e70403d75ad904f1eafeb350b7ea3349c8d00f244f4894ae4ff1f18ee72704a0e70403d75ad904f1eafeb350b7ea3349c8d00f245a2646970667358221220f494fb06c5364518eb143c89635c3e8a06ca2da545ca732c2fd8faa9cc0e1aaf64736f6c634300081c0033",
  "linkReferences": {},
  "deployedLinkReferences": {}
}